{
	"assignments/first/04/04.sol": {
		"IntegerToRoman": {
			"abi": [
				{
					"inputs": [
						{
							"internalType": "uint256",
							"name": "num",
							"type": "uint256"
						}
					],
					"name": "intToRoman",
					"outputs": [
						{
							"internalType": "string",
							"name": "",
							"type": "string"
						}
					],
					"stateMutability": "pure",
					"type": "function"
				},
				{
					"inputs": [],
					"name": "testConversions",
					"outputs": [],
					"stateMutability": "pure",
					"type": "function"
				}
			],
			"devdoc": {
				"kind": "dev",
				"methods": {},
				"version": 1
			},
			"evm": {
				"assembly": "    /* \"assignments/first/04/04.sol\":1701:4721  contract IntegerToRoman {... */\n  mstore(0x40, 0x80)\n  callvalue\n  dup1\n  iszero\n  tag_1\n  jumpi\n  revert(0x00, 0x00)\ntag_1:\n  pop\n  dataSize(sub_0)\n  dup1\n  dataOffset(sub_0)\n  0x00\n  codecopy\n  0x00\n  return\nstop\n\nsub_0: assembly {\n        /* \"assignments/first/04/04.sol\":1701:4721  contract IntegerToRoman {... */\n      mstore(0x40, 0x80)\n      callvalue\n      dup1\n      iszero\n      tag_1\n      jumpi\n      revert(0x00, 0x00)\n    tag_1:\n      pop\n      jumpi(tag_2, lt(calldatasize, 0x04))\n      shr(0xe0, calldataload(0x00))\n      dup1\n      0x0cbc513a\n      eq\n      tag_3\n      jumpi\n      dup1\n      0xc5b4220a\n      eq\n      tag_4\n      jumpi\n    tag_2:\n      revert(0x00, 0x00)\n        /* \"assignments/first/04/04.sol\":1756:3064  function intToRoman(uint256 num) public pure returns (string memory) {... */\n    tag_3:\n      tag_5\n      0x04\n      dup1\n      calldatasize\n      sub\n      dup2\n      add\n      swap1\n      tag_6\n      swap2\n      swap1\n      tag_7\n      jump\t// in\n    tag_6:\n      tag_8\n      jump\t// in\n    tag_5:\n      mload(0x40)\n      tag_9\n      swap2\n      swap1\n      tag_10\n      jump\t// in\n    tag_9:\n      mload(0x40)\n      dup1\n      swap2\n      sub\n      swap1\n      return\n        /* \"assignments/first/04/04.sol\":3461:4718  function testConversions() public pure {... */\n    tag_4:\n      tag_11\n      tag_12\n      jump\t// in\n    tag_11:\n      stop\n        /* \"assignments/first/04/04.sol\":1756:3064  function intToRoman(uint256 num) public pure returns (string memory) {... */\n    tag_8:\n        /* \"assignments/first/04/04.sol\":1810:1823  string memory */\n      0x60\n        /* \"assignments/first/04/04.sol\":1890:1891  0 */\n      0x00\n        /* \"assignments/first/04/04.sol\":1884:1887  num */\n      dup3\n        /* \"assignments/first/04/04.sol\":1884:1891  num > 0 */\n      gt\n        /* \"assignments/first/04/04.sol\":1884:1905  num > 0 && num < 4000 */\n      dup1\n      iszero\n      tag_14\n      jumpi\n      pop\n        /* \"assignments/first/04/04.sol\":1901:1905  4000 */\n      0x0fa0\n        /* \"assignments/first/04/04.sol\":1895:1898  num */\n      dup3\n        /* \"assignments/first/04/04.sol\":1895:1905  num < 4000 */\n      lt\n        /* \"assignments/first/04/04.sol\":1884:1905  num > 0 && num < 4000 */\n    tag_14:\n        /* \"assignments/first/04/04.sol\":1876:1930  require(num > 0 && num < 4000, \"Input must be 1-3999\") */\n      tag_15\n      jumpi\n      mload(0x40)\n      0x08c379a000000000000000000000000000000000000000000000000000000000\n      dup2\n      mstore\n      0x04\n      add\n      tag_16\n      swap1\n      tag_17\n      jump\t// in\n    tag_16:\n      mload(0x40)\n      dup1\n      swap2\n      sub\n      swap1\n      revert\n    tag_15:\n        /* \"assignments/first/04/04.sol\":1976:1994  bytes memory roman */\n      0x00\n        /* \"assignments/first/04/04.sol\":2007:2009  20 */\n      0x14\n        /* \"assignments/first/04/04.sol\":1997:2010  new bytes(20) */\n      0xffffffffffffffff\n      dup2\n      gt\n      iszero\n      tag_18\n      jumpi\n      tag_19\n      tag_20\n      jump\t// in\n    tag_19:\n    tag_18:\n      mload(0x40)\n      swap1\n      dup1\n      dup3\n      mstore\n      dup1\n      0x1f\n      add\n      not(0x1f)\n      and\n      0x20\n      add\n      dup3\n      add\n      0x40\n      mstore\n      dup1\n      iszero\n      tag_21\n      jumpi\n      dup2\n      0x20\n      add\n      0x01\n      dup3\n      mul\n      dup1\n      calldatasize\n      dup4\n      calldatacopy\n      dup1\n      dup3\n      add\n      swap2\n      pop\n      pop\n      swap1\n      pop\n    tag_21:\n      pop\n        /* \"assignments/first/04/04.sol\":1976:2010  bytes memory roman = new bytes(20) */\n      swap1\n      pop\n        /* \"assignments/first/04/04.sol\":2059:2072  uint256 index */\n      0x00\n        /* \"assignments/first/04/04.sol\":2075:2076  0 */\n      0x00\n        /* \"assignments/first/04/04.sol\":2059:2076  uint256 index = 0 */\n      swap1\n      pop\n        /* \"assignments/first/04/04.sol\":2155:2181  string[13] memory numerals */\n      0x00\n        /* \"assignments/first/04/04.sol\":2155:2279  string[13] memory numerals = [... */\n      mload(0x40)\n      dup1\n      0x01a0\n      add\n      0x40\n      mstore\n      dup1\n      mload(0x40)\n      dup1\n      0x40\n      add\n      0x40\n      mstore\n      dup1\n      0x01\n      dup2\n      mstore\n      0x20\n      add\n      0x4d00000000000000000000000000000000000000000000000000000000000000\n      dup2\n      mstore\n      pop\n      dup2\n      mstore\n      0x20\n      add\n      mload(0x40)\n      dup1\n      0x40\n      add\n      0x40\n      mstore\n      dup1\n      0x02\n      dup2\n      mstore\n      0x20\n      add\n      0x434d000000000000000000000000000000000000000000000000000000000000\n      dup2\n      mstore\n      pop\n      dup2\n      mstore\n      0x20\n      add\n      mload(0x40)\n      dup1\n      0x40\n      add\n      0x40\n      mstore\n      dup1\n      0x01\n      dup2\n      mstore\n      0x20\n      add\n      0x4400000000000000000000000000000000000000000000000000000000000000\n      dup2\n      mstore\n      pop\n      dup2\n      mstore\n      0x20\n      add\n      mload(0x40)\n      dup1\n      0x40\n      add\n      0x40\n      mstore\n      dup1\n      0x02\n      dup2\n      mstore\n      0x20\n      add\n      0x4344000000000000000000000000000000000000000000000000000000000000\n      dup2\n      mstore\n      pop\n      dup2\n      mstore\n      0x20\n      add\n      mload(0x40)\n      dup1\n      0x40\n      add\n      0x40\n      mstore\n      dup1\n      0x01\n      dup2\n      mstore\n      0x20\n      add\n      0x4300000000000000000000000000000000000000000000000000000000000000\n      dup2\n      mstore\n      pop\n      dup2\n      mstore\n      0x20\n      add\n      mload(0x40)\n      dup1\n      0x40\n      add\n      0x40\n      mstore\n      dup1\n      0x02\n      dup2\n      mstore\n      0x20\n      add\n      0x5843000000000000000000000000000000000000000000000000000000000000\n      dup2\n      mstore\n      pop\n      dup2\n      mstore\n      0x20\n      add\n      mload(0x40)\n      dup1\n      0x40\n      add\n      0x40\n      mstore\n      dup1\n      0x01\n      dup2\n      mstore\n      0x20\n      add\n      0x4c00000000000000000000000000000000000000000000000000000000000000\n      dup2\n      mstore\n      pop\n      dup2\n      mstore\n      0x20\n      add\n      mload(0x40)\n      dup1\n      0x40\n      add\n      0x40\n      mstore\n      dup1\n      0x02\n      dup2\n      mstore\n      0x20\n      add\n      0x584c000000000000000000000000000000000000000000000000000000000000\n      dup2\n      mstore\n      pop\n      dup2\n      mstore\n      0x20\n      add\n      mload(0x40)\n      dup1\n      0x40\n      add\n      0x40\n      mstore\n      dup1\n      0x01\n      dup2\n      mstore\n      0x20\n      add\n      0x5800000000000000000000000000000000000000000000000000000000000000\n      dup2\n      mstore\n      pop\n      dup2\n      mstore\n      0x20\n      add\n      mload(0x40)\n      dup1\n      0x40\n      add\n      0x40\n      mstore\n      dup1\n      0x02\n      dup2\n      mstore\n      0x20\n      add\n      0x4958000000000000000000000000000000000000000000000000000000000000\n      dup2\n      mstore\n      pop\n      dup2\n      mstore\n      0x20\n      add\n      mload(0x40)\n      dup1\n      0x40\n      add\n      0x40\n      mstore\n      dup1\n      0x01\n      dup2\n      mstore\n      0x20\n      add\n      0x5600000000000000000000000000000000000000000000000000000000000000\n      dup2\n      mstore\n      pop\n      dup2\n      mstore\n      0x20\n      add\n      mload(0x40)\n      dup1\n      0x40\n      add\n      0x40\n      mstore\n      dup1\n      0x02\n      dup2\n      mstore\n      0x20\n      add\n      0x4956000000000000000000000000000000000000000000000000000000000000\n      dup2\n      mstore\n      pop\n      dup2\n      mstore\n      0x20\n      add\n      mload(0x40)\n      dup1\n      0x40\n      add\n      0x40\n      mstore\n      dup1\n      0x01\n      dup2\n      mstore\n      0x20\n      add\n      0x4900000000000000000000000000000000000000000000000000000000000000\n      dup2\n      mstore\n      pop\n      dup2\n      mstore\n      pop\n      swap1\n      pop\n        /* \"assignments/first/04/04.sol\":2290:2315  uint256[13] memory values */\n      0x00\n        /* \"assignments/first/04/04.sol\":2290:2405  uint256[13] memory values = [... */\n      mload(0x40)\n      dup1\n      0x01a0\n      add\n      0x40\n      mstore\n      dup1\n        /* \"assignments/first/04/04.sol\":2341:2345  1000 */\n      0x03e8\n        /* \"assignments/first/04/04.sol\":2290:2405  uint256[13] memory values = [... */\n      dup2\n      mstore\n      0x20\n      add\n        /* \"assignments/first/04/04.sol\":2348:2351  900 */\n      0x0384\n        /* \"assignments/first/04/04.sol\":2290:2405  uint256[13] memory values = [... */\n      dup2\n      mstore\n      0x20\n      add\n        /* \"assignments/first/04/04.sol\":2353:2356  500 */\n      0x01f4\n        /* \"assignments/first/04/04.sol\":2290:2405  uint256[13] memory values = [... */\n      dup2\n      mstore\n      0x20\n      add\n        /* \"assignments/first/04/04.sol\":2358:2361  400 */\n      0x0190\n        /* \"assignments/first/04/04.sol\":2290:2405  uint256[13] memory values = [... */\n      dup2\n      mstore\n      0x20\n      add\n        /* \"assignments/first/04/04.sol\":2363:2366  100 */\n      0x64\n        /* \"assignments/first/04/04.sol\":2290:2405  uint256[13] memory values = [... */\n      dup2\n      mstore\n      0x20\n      add\n        /* \"assignments/first/04/04.sol\":2368:2370  90 */\n      0x5a\n        /* \"assignments/first/04/04.sol\":2290:2405  uint256[13] memory values = [... */\n      dup2\n      mstore\n      0x20\n      add\n        /* \"assignments/first/04/04.sol\":2372:2374  50 */\n      0x32\n        /* \"assignments/first/04/04.sol\":2290:2405  uint256[13] memory values = [... */\n      dup2\n      mstore\n      0x20\n      add\n        /* \"assignments/first/04/04.sol\":2376:2378  40 */\n      0x28\n        /* \"assignments/first/04/04.sol\":2290:2405  uint256[13] memory values = [... */\n      dup2\n      mstore\n      0x20\n      add\n        /* \"assignments/first/04/04.sol\":2380:2382  10 */\n      0x0a\n        /* \"assignments/first/04/04.sol\":2290:2405  uint256[13] memory values = [... */\n      dup2\n      mstore\n      0x20\n      add\n        /* \"assignments/first/04/04.sol\":2384:2385  9 */\n      0x09\n        /* \"assignments/first/04/04.sol\":2290:2405  uint256[13] memory values = [... */\n      dup2\n      mstore\n      0x20\n      add\n        /* \"assignments/first/04/04.sol\":2387:2388  5 */\n      0x05\n        /* \"assignments/first/04/04.sol\":2290:2405  uint256[13] memory values = [... */\n      dup2\n      mstore\n      0x20\n      add\n        /* \"assignments/first/04/04.sol\":2390:2391  4 */\n      0x04\n        /* \"assignments/first/04/04.sol\":2290:2405  uint256[13] memory values = [... */\n      dup2\n      mstore\n      0x20\n      add\n        /* \"assignments/first/04/04.sol\":2393:2394  1 */\n      0x01\n        /* \"assignments/first/04/04.sol\":2290:2405  uint256[13] memory values = [... */\n      dup2\n      mstore\n      pop\n      swap1\n      pop\n        /* \"assignments/first/04/04.sol\":2468:2477  uint256 i */\n      0x00\n        /* \"assignments/first/04/04.sol\":2480:2481  0 */\n      0x00\n        /* \"assignments/first/04/04.sol\":2468:2481  uint256 i = 0 */\n      swap1\n      pop\n        /* \"assignments/first/04/04.sol\":2463:2937  for (uint256 i = 0; i < values.length; i++) {... */\n    tag_22:\n        /* \"assignments/first/04/04.sol\":2487:2500  values.length */\n      0x0d\n        /* \"assignments/first/04/04.sol\":2483:2484  i */\n      dup2\n        /* \"assignments/first/04/04.sol\":2483:2500  i < values.length */\n      lt\n        /* \"assignments/first/04/04.sol\":2463:2937  for (uint256 i = 0; i < values.length; i++) {... */\n      iszero\n      tag_23\n      jumpi\n        /* \"assignments/first/04/04.sol\":2522:2926  while (num >= values[i]) {... */\n    tag_25:\n        /* \"assignments/first/04/04.sol\":2536:2542  values */\n      dup2\n        /* \"assignments/first/04/04.sol\":2543:2544  i */\n      dup2\n        /* \"assignments/first/04/04.sol\":2536:2545  values[i] */\n      0x0d\n      dup2\n      lt\n      tag_27\n      jumpi\n      tag_28\n      tag_29\n      jump\t// in\n    tag_28:\n    tag_27:\n      0x20\n      mul\n      add\n      mload\n        /* \"assignments/first/04/04.sol\":2529:2532  num */\n      dup8\n        /* \"assignments/first/04/04.sol\":2529:2545  num >= values[i] */\n      lt\n        /* \"assignments/first/04/04.sol\":2522:2926  while (num >= values[i]) {... */\n      tag_26\n      jumpi\n        /* \"assignments/first/04/04.sol\":2620:2639  bytes memory symbol */\n      0x00\n        /* \"assignments/first/04/04.sol\":2648:2656  numerals */\n      dup4\n        /* \"assignments/first/04/04.sol\":2657:2658  i */\n      dup3\n        /* \"assignments/first/04/04.sol\":2648:2659  numerals[i] */\n      0x0d\n      dup2\n      lt\n      tag_30\n      jumpi\n      tag_31\n      tag_29\n      jump\t// in\n    tag_31:\n    tag_30:\n      0x20\n      mul\n      add\n      mload\n        /* \"assignments/first/04/04.sol\":2620:2660  bytes memory symbol = bytes(numerals[i]) */\n      swap1\n      pop\n        /* \"assignments/first/04/04.sol\":2750:2759  uint256 j */\n      0x00\n        /* \"assignments/first/04/04.sol\":2762:2763  0 */\n      0x00\n        /* \"assignments/first/04/04.sol\":2750:2763  uint256 j = 0 */\n      swap1\n      pop\n        /* \"assignments/first/04/04.sol\":2745:2858  for (uint256 j = 0; j < symbol.length; j++) {... */\n    tag_32:\n        /* \"assignments/first/04/04.sol\":2769:2775  symbol */\n      dup2\n        /* \"assignments/first/04/04.sol\":2769:2782  symbol.length */\n      mload\n        /* \"assignments/first/04/04.sol\":2765:2766  j */\n      dup2\n        /* \"assignments/first/04/04.sol\":2765:2782  j < symbol.length */\n      lt\n        /* \"assignments/first/04/04.sol\":2745:2858  for (uint256 j = 0; j < symbol.length; j++) {... */\n      iszero\n      tag_33\n      jumpi\n        /* \"assignments/first/04/04.sol\":2829:2835  symbol */\n      dup2\n        /* \"assignments/first/04/04.sol\":2836:2837  j */\n      dup2\n        /* \"assignments/first/04/04.sol\":2829:2838  symbol[j] */\n      dup2\n      mload\n      dup2\n      lt\n      tag_35\n      jumpi\n      tag_36\n      tag_29\n      jump\t// in\n    tag_36:\n    tag_35:\n      0x20\n      add\n      add\n      mload\n      0xf8\n      shr\n      0xf8\n      shl\n        /* \"assignments/first/04/04.sol\":2812:2817  roman */\n      dup8\n        /* \"assignments/first/04/04.sol\":2818:2825  index++ */\n      dup8\n      dup1\n      tag_37\n      swap1\n      tag_38\n      jump\t// in\n    tag_37:\n      swap9\n      pop\n        /* \"assignments/first/04/04.sol\":2812:2826  roman[index++] */\n      dup2\n      mload\n      dup2\n      lt\n      tag_39\n      jumpi\n      tag_40\n      tag_29\n      jump\t// in\n    tag_40:\n    tag_39:\n      0x20\n      add\n      add\n        /* \"assignments/first/04/04.sol\":2812:2838  roman[index++] = symbol[j] */\n      swap1\n      not(0xffffffffffffffffffffffffffffffffffffffffffffffffffffffffffffff)\n      and\n      swap1\n      dup2\n      0x00\n      byte\n      swap1\n      mstore8\n      pop\n        /* \"assignments/first/04/04.sol\":2784:2787  j++ */\n      dup1\n      dup1\n      0x01\n      add\n      swap2\n      pop\n      pop\n        /* \"assignments/first/04/04.sol\":2745:2858  for (uint256 j = 0; j < symbol.length; j++) {... */\n      jump(tag_32)\n    tag_33:\n      pop\n        /* \"assignments/first/04/04.sol\":2901:2907  values */\n      dup3\n        /* \"assignments/first/04/04.sol\":2908:2909  i */\n      dup3\n        /* \"assignments/first/04/04.sol\":2901:2910  values[i] */\n      0x0d\n      dup2\n      lt\n      tag_41\n      jumpi\n      tag_42\n      tag_29\n      jump\t// in\n    tag_42:\n    tag_41:\n      0x20\n      mul\n      add\n      mload\n        /* \"assignments/first/04/04.sol\":2894:2910  num -= values[i] */\n      dup9\n      tag_43\n      swap2\n      swap1\n      tag_44\n      jump\t// in\n    tag_43:\n      swap8\n      pop\n        /* \"assignments/first/04/04.sol\":2547:2926  {... */\n      pop\n        /* \"assignments/first/04/04.sol\":2522:2926  while (num >= values[i]) {... */\n      jump(tag_25)\n    tag_26:\n        /* \"assignments/first/04/04.sol\":2502:2505  i++ */\n      dup1\n      dup1\n      0x01\n      add\n      swap2\n      pop\n      pop\n        /* \"assignments/first/04/04.sol\":2463:2937  for (uint256 i = 0; i < values.length; i++) {... */\n      jump(tag_22)\n    tag_23:\n      pop\n        /* \"assignments/first/04/04.sol\":3031:3054  trimBytes(roman, index) */\n      tag_45\n        /* \"assignments/first/04/04.sol\":3041:3046  roman */\n      dup5\n        /* \"assignments/first/04/04.sol\":3048:3053  index */\n      dup5\n        /* \"assignments/first/04/04.sol\":3031:3040  trimBytes */\n      tag_46\n        /* \"assignments/first/04/04.sol\":3031:3054  trimBytes(roman, index) */\n      jump\t// in\n    tag_45:\n        /* \"assignments/first/04/04.sol\":3014:3055  abi.encodePacked(trimBytes(roman, index)) */\n      add(0x20, mload(0x40))\n      tag_47\n      swap2\n      swap1\n      tag_48\n      jump\t// in\n    tag_47:\n      mload(0x40)\n      0x20\n      dup2\n      dup4\n      sub\n      sub\n      dup2\n      mstore\n      swap1\n      0x40\n      mstore\n        /* \"assignments/first/04/04.sol\":3000:3056  return string(abi.encodePacked(trimBytes(roman, index))) */\n      swap5\n      pop\n      pop\n      pop\n      pop\n      pop\n        /* \"assignments/first/04/04.sol\":1756:3064  function intToRoman(uint256 num) public pure returns (string memory) {... */\n      swap2\n      swap1\n      pop\n      jump\t// out\n        /* \"assignments/first/04/04.sol\":3461:4718  function testConversions() public pure {... */\n    tag_12:\n        /* \"assignments/first/04/04.sol\":3585:3599  keccak256(\"I\") */\n      0x8d61ecf6e15472e15b1a0f63cd77f62aa57e6edcd3871d7a841f1056fb42b216\n        /* \"assignments/first/04/04.sol\":3566:3579  intToRoman(1) */\n      tag_50\n        /* \"assignments/first/04/04.sol\":3577:3578  1 */\n      0x01\n        /* \"assignments/first/04/04.sol\":3566:3576  intToRoman */\n      tag_8\n        /* \"assignments/first/04/04.sol\":3566:3579  intToRoman(1) */\n      jump\t// in\n    tag_50:\n        /* \"assignments/first/04/04.sol\":3550:3581  keccak256(bytes(intToRoman(1))) */\n      dup1\n      mload\n      swap1\n      0x20\n      add\n      keccak256\n        /* \"assignments/first/04/04.sol\":3550:3599  keccak256(bytes(intToRoman(1))) == keccak256(\"I\") */\n      eq\n        /* \"assignments/first/04/04.sol\":3542:3617  require(keccak256(bytes(intToRoman(1))) == keccak256(\"I\"), \"Test 1 failed\") */\n      tag_51\n      jumpi\n      mload(0x40)\n      0x08c379a000000000000000000000000000000000000000000000000000000000\n      dup2\n      mstore\n      0x04\n      add\n      tag_52\n      swap1\n      tag_53\n      jump\t// in\n    tag_52:\n      mload(0x40)\n      dup1\n      swap2\n      sub\n      swap1\n      revert\n    tag_51:\n        /* \"assignments/first/04/04.sol\":3671:3686  keccak256(\"IV\") */\n      0xb9a629357ee888a8160a94f13bc67eee0b628378e0a1d6c6fb8228cdb110e1c1\n        /* \"assignments/first/04/04.sol\":3652:3665  intToRoman(4) */\n      tag_54\n        /* \"assignments/first/04/04.sol\":3663:3664  4 */\n      0x04\n        /* \"assignments/first/04/04.sol\":3652:3662  intToRoman */\n      tag_8\n        /* \"assignments/first/04/04.sol\":3652:3665  intToRoman(4) */\n      jump\t// in\n    tag_54:\n        /* \"assignments/first/04/04.sol\":3636:3667  keccak256(bytes(intToRoman(4))) */\n      dup1\n      mload\n      swap1\n      0x20\n      add\n      keccak256\n        /* \"assignments/first/04/04.sol\":3636:3686  keccak256(bytes(intToRoman(4))) == keccak256(\"IV\") */\n      eq\n        /* \"assignments/first/04/04.sol\":3628:3704  require(keccak256(bytes(intToRoman(4))) == keccak256(\"IV\"), \"Test 4 failed\") */\n      tag_55\n      jumpi\n      mload(0x40)\n      0x08c379a000000000000000000000000000000000000000000000000000000000\n      dup2\n      mstore\n      0x04\n      add\n      tag_56\n      swap1\n      tag_57\n      jump\t// in\n    tag_56:\n      mload(0x40)\n      dup1\n      swap2\n      sub\n      swap1\n      revert\n    tag_55:\n        /* \"assignments/first/04/04.sol\":3758:3773  keccak256(\"IX\") */\n      0x8d3138f19c1a9314595f9b3cc90655039b6dca0eb4d2aad661982dc541acf100\n        /* \"assignments/first/04/04.sol\":3739:3752  intToRoman(9) */\n      tag_58\n        /* \"assignments/first/04/04.sol\":3750:3751  9 */\n      0x09\n        /* \"assignments/first/04/04.sol\":3739:3749  intToRoman */\n      tag_8\n        /* \"assignments/first/04/04.sol\":3739:3752  intToRoman(9) */\n      jump\t// in\n    tag_58:\n        /* \"assignments/first/04/04.sol\":3723:3754  keccak256(bytes(intToRoman(9))) */\n      dup1\n      mload\n      swap1\n      0x20\n      add\n      keccak256\n        /* \"assignments/first/04/04.sol\":3723:3773  keccak256(bytes(intToRoman(9))) == keccak256(\"IX\") */\n      eq\n        /* \"assignments/first/04/04.sol\":3715:3791  require(keccak256(bytes(intToRoman(9))) == keccak256(\"IX\"), \"Test 9 failed\") */\n      tag_59\n      jumpi\n      mload(0x40)\n      0x08c379a000000000000000000000000000000000000000000000000000000000\n      dup2\n      mstore\n      0x04\n      add\n      tag_60\n      swap1\n      tag_61\n      jump\t// in\n    tag_60:\n      mload(0x40)\n      dup1\n      swap2\n      sub\n      swap1\n      revert\n    tag_59:\n        /* \"assignments/first/04/04.sol\":3846:3864  keccak256(\"LVIII\") */\n      0xf6b9221ae78d1c6c9bfaf1530a813591f1cc5e53b5e7a2a250f3b6d8c68468c8\n        /* \"assignments/first/04/04.sol\":3826:3840  intToRoman(58) */\n      tag_62\n        /* \"assignments/first/04/04.sol\":3837:3839  58 */\n      0x3a\n        /* \"assignments/first/04/04.sol\":3826:3836  intToRoman */\n      tag_8\n        /* \"assignments/first/04/04.sol\":3826:3840  intToRoman(58) */\n      jump\t// in\n    tag_62:\n        /* \"assignments/first/04/04.sol\":3810:3842  keccak256(bytes(intToRoman(58))) */\n      dup1\n      mload\n      swap1\n      0x20\n      add\n      keccak256\n        /* \"assignments/first/04/04.sol\":3810:3864  keccak256(bytes(intToRoman(58))) == keccak256(\"LVIII\") */\n      eq\n        /* \"assignments/first/04/04.sol\":3802:3883  require(keccak256(bytes(intToRoman(58))) == keccak256(\"LVIII\"), \"Test 58 failed\") */\n      tag_63\n      jumpi\n      mload(0x40)\n      0x08c379a000000000000000000000000000000000000000000000000000000000\n      dup2\n      mstore\n      0x04\n      add\n      tag_64\n      swap1\n      tag_65\n      jump\t// in\n    tag_64:\n      mload(0x40)\n      dup1\n      swap2\n      sub\n      swap1\n      revert\n    tag_63:\n        /* \"assignments/first/04/04.sol\":3940:3960  keccak256(\"MCMXCIV\") */\n      0x464f2ebc129974b4c1acd876a9ff7243540701f0c45ed5c5ba25e8c27c381986\n        /* \"assignments/first/04/04.sol\":3918:3934  intToRoman(1994) */\n      tag_66\n        /* \"assignments/first/04/04.sol\":3929:3933  1994 */\n      0x07ca\n        /* \"assignments/first/04/04.sol\":3918:3928  intToRoman */\n      tag_8\n        /* \"assignments/first/04/04.sol\":3918:3934  intToRoman(1994) */\n      jump\t// in\n    tag_66:\n        /* \"assignments/first/04/04.sol\":3902:3936  keccak256(bytes(intToRoman(1994))) */\n      dup1\n      mload\n      swap1\n      0x20\n      add\n      keccak256\n        /* \"assignments/first/04/04.sol\":3902:3960  keccak256(bytes(intToRoman(1994))) == keccak256(\"MCMXCIV\") */\n      eq\n        /* \"assignments/first/04/04.sol\":3894:3981  require(keccak256(bytes(intToRoman(1994))) == keccak256(\"MCMXCIV\"), \"Test 1994 failed\") */\n      tag_67\n      jumpi\n      mload(0x40)\n      0x08c379a000000000000000000000000000000000000000000000000000000000\n      dup2\n      mstore\n      0x04\n      add\n      tag_68\n      swap1\n      tag_69\n      jump\t// in\n    tag_68:\n      mload(0x40)\n      dup1\n      swap2\n      sub\n      swap1\n      revert\n    tag_67:\n        /* \"assignments/first/04/04.sol\":4073:4095  keccak256(\"MMMCMXCIX\") */\n      0x8ced2a3e07213ae691433c01e3f9960965e8ab3818fc599fca936470a31fea9a\n        /* \"assignments/first/04/04.sol\":4051:4067  intToRoman(3999) */\n      tag_70\n        /* \"assignments/first/04/04.sol\":4062:4066  3999 */\n      0x0f9f\n        /* \"assignments/first/04/04.sol\":4051:4061  intToRoman */\n      tag_8\n        /* \"assignments/first/04/04.sol\":4051:4067  intToRoman(3999) */\n      jump\t// in\n    tag_70:\n        /* \"assignments/first/04/04.sol\":4035:4069  keccak256(bytes(intToRoman(3999))) */\n      dup1\n      mload\n      swap1\n      0x20\n      add\n      keccak256\n        /* \"assignments/first/04/04.sol\":4035:4095  keccak256(bytes(intToRoman(3999))) == keccak256(\"MMMCMXCIX\") */\n      eq\n        /* \"assignments/first/04/04.sol\":4027:4116  require(keccak256(bytes(intToRoman(3999))) == keccak256(\"MMMCMXCIX\"), \"Test 3999 failed\") */\n      tag_71\n      jumpi\n      mload(0x40)\n      0x08c379a000000000000000000000000000000000000000000000000000000000\n      dup2\n      mstore\n      0x04\n      add\n      tag_72\n      swap1\n      tag_73\n      jump\t// in\n    tag_72:\n      mload(0x40)\n      dup1\n      swap2\n      sub\n      swap1\n      revert\n    tag_71:\n        /* \"assignments/first/04/04.sol\":4173:4187  keccak256(\"M\") */\n      0x7d61fdc86cb928ea48fbf22d28ed5341c2e6a2599c550270b824b71dfa078d06\n        /* \"assignments/first/04/04.sol\":4151:4167  intToRoman(1000) */\n      tag_74\n        /* \"assignments/first/04/04.sol\":4162:4166  1000 */\n      0x03e8\n        /* \"assignments/first/04/04.sol\":4151:4161  intToRoman */\n      tag_8\n        /* \"assignments/first/04/04.sol\":4151:4167  intToRoman(1000) */\n      jump\t// in\n    tag_74:\n        /* \"assignments/first/04/04.sol\":4135:4169  keccak256(bytes(intToRoman(1000))) */\n      dup1\n      mload\n      swap1\n      0x20\n      add\n      keccak256\n        /* \"assignments/first/04/04.sol\":4135:4187  keccak256(bytes(intToRoman(1000))) == keccak256(\"M\") */\n      eq\n        /* \"assignments/first/04/04.sol\":4127:4208  require(keccak256(bytes(intToRoman(1000))) == keccak256(\"M\"), \"Test 1000 failed\") */\n      tag_75\n      jumpi\n      mload(0x40)\n      0x08c379a000000000000000000000000000000000000000000000000000000000\n      dup2\n      mstore\n      0x04\n      add\n      tag_76\n      swap1\n      tag_77\n      jump\t// in\n    tag_76:\n      mload(0x40)\n      dup1\n      swap2\n      sub\n      swap1\n      revert\n    tag_75:\n        /* \"assignments/first/04/04.sol\":4264:4289  keccak256(\"DCCCLXXXVIII\") */\n      0x6d475070e602b8fa8b802c92f416ef84275c46f9aeeec5c45d5b93b727a17411\n        /* \"assignments/first/04/04.sol\":4243:4258  intToRoman(888) */\n      tag_78\n        /* \"assignments/first/04/04.sol\":4254:4257  888 */\n      0x0378\n        /* \"assignments/first/04/04.sol\":4243:4253  intToRoman */\n      tag_8\n        /* \"assignments/first/04/04.sol\":4243:4258  intToRoman(888) */\n      jump\t// in\n    tag_78:\n        /* \"assignments/first/04/04.sol\":4227:4260  keccak256(bytes(intToRoman(888))) */\n      dup1\n      mload\n      swap1\n      0x20\n      add\n      keccak256\n        /* \"assignments/first/04/04.sol\":4227:4289  keccak256(bytes(intToRoman(888))) == keccak256(\"DCCCLXXXVIII\") */\n      eq\n        /* \"assignments/first/04/04.sol\":4219:4309  require(keccak256(bytes(intToRoman(888))) == keccak256(\"DCCCLXXXVIII\"), \"Test 888 failed\") */\n      tag_79\n      jumpi\n      mload(0x40)\n      0x08c379a000000000000000000000000000000000000000000000000000000000\n      dup2\n      mstore\n      0x04\n      add\n      tag_80\n      swap1\n      tag_81\n      jump\t// in\n    tag_80:\n      mload(0x40)\n      dup1\n      swap2\n      sub\n      swap1\n      revert\n    tag_79:\n        /* \"assignments/first/04/04.sol\":4405:4420  keccak256(\"XL\") */\n      0x08d2aa18ba461c96451f90d2ec3165881a833f7b088eae200b23e2b1c9983963\n        /* \"assignments/first/04/04.sol\":4385:4399  intToRoman(40) */\n      tag_82\n        /* \"assignments/first/04/04.sol\":4396:4398  40 */\n      0x28\n        /* \"assignments/first/04/04.sol\":4385:4395  intToRoman */\n      tag_8\n        /* \"assignments/first/04/04.sol\":4385:4399  intToRoman(40) */\n      jump\t// in\n    tag_82:\n        /* \"assignments/first/04/04.sol\":4369:4401  keccak256(bytes(intToRoman(40))) */\n      dup1\n      mload\n      swap1\n      0x20\n      add\n      keccak256\n        /* \"assignments/first/04/04.sol\":4369:4420  keccak256(bytes(intToRoman(40))) == keccak256(\"XL\") */\n      eq\n        /* \"assignments/first/04/04.sol\":4361:4439  require(keccak256(bytes(intToRoman(40))) == keccak256(\"XL\"), \"Test 40 failed\") */\n      tag_83\n      jumpi\n      mload(0x40)\n      0x08c379a000000000000000000000000000000000000000000000000000000000\n      dup2\n      mstore\n      0x04\n      add\n      tag_84\n      swap1\n      tag_85\n      jump\t// in\n    tag_84:\n      mload(0x40)\n      dup1\n      swap2\n      sub\n      swap1\n      revert\n    tag_83:\n        /* \"assignments/first/04/04.sol\":4494:4509  keccak256(\"XC\") */\n      0xc3555988766b1b6bb3aab6566fdb20affbdb650245be21249ed142e541b4a713\n        /* \"assignments/first/04/04.sol\":4474:4488  intToRoman(90) */\n      tag_86\n        /* \"assignments/first/04/04.sol\":4485:4487  90 */\n      0x5a\n        /* \"assignments/first/04/04.sol\":4474:4484  intToRoman */\n      tag_8\n        /* \"assignments/first/04/04.sol\":4474:4488  intToRoman(90) */\n      jump\t// in\n    tag_86:\n        /* \"assignments/first/04/04.sol\":4458:4490  keccak256(bytes(intToRoman(90))) */\n      dup1\n      mload\n      swap1\n      0x20\n      add\n      keccak256\n        /* \"assignments/first/04/04.sol\":4458:4509  keccak256(bytes(intToRoman(90))) == keccak256(\"XC\") */\n      eq\n        /* \"assignments/first/04/04.sol\":4450:4528  require(keccak256(bytes(intToRoman(90))) == keccak256(\"XC\"), \"Test 90 failed\") */\n      tag_87\n      jumpi\n      mload(0x40)\n      0x08c379a000000000000000000000000000000000000000000000000000000000\n      dup2\n      mstore\n      0x04\n      add\n      tag_88\n      swap1\n      tag_89\n      jump\t// in\n    tag_88:\n      mload(0x40)\n      dup1\n      swap2\n      sub\n      swap1\n      revert\n    tag_87:\n        /* \"assignments/first/04/04.sol\":4584:4599  keccak256(\"CD\") */\n      0xa499039395a08f93b5a7c0782af79a512deb346fe812a2047d3b079fef7e73d0\n        /* \"assignments/first/04/04.sol\":4563:4578  intToRoman(400) */\n      tag_90\n        /* \"assignments/first/04/04.sol\":4574:4577  400 */\n      0x0190\n        /* \"assignments/first/04/04.sol\":4563:4573  intToRoman */\n      tag_8\n        /* \"assignments/first/04/04.sol\":4563:4578  intToRoman(400) */\n      jump\t// in\n    tag_90:\n        /* \"assignments/first/04/04.sol\":4547:4580  keccak256(bytes(intToRoman(400))) */\n      dup1\n      mload\n      swap1\n      0x20\n      add\n      keccak256\n        /* \"assignments/first/04/04.sol\":4547:4599  keccak256(bytes(intToRoman(400))) == keccak256(\"CD\") */\n      eq\n        /* \"assignments/first/04/04.sol\":4539:4619  require(keccak256(bytes(intToRoman(400))) == keccak256(\"CD\"), \"Test 400 failed\") */\n      tag_91\n      jumpi\n      mload(0x40)\n      0x08c379a000000000000000000000000000000000000000000000000000000000\n      dup2\n      mstore\n      0x04\n      add\n      tag_92\n      swap1\n      tag_93\n      jump\t// in\n    tag_92:\n      mload(0x40)\n      dup1\n      swap2\n      sub\n      swap1\n      revert\n    tag_91:\n        /* \"assignments/first/04/04.sol\":4675:4690  keccak256(\"CM\") */\n      0x743bb89e9e76a12c9d136fe68233ca6d6f07c6bb50b1eec887dc29c79475cc6b\n        /* \"assignments/first/04/04.sol\":4654:4669  intToRoman(900) */\n      tag_94\n        /* \"assignments/first/04/04.sol\":4665:4668  900 */\n      0x0384\n        /* \"assignments/first/04/04.sol\":4654:4664  intToRoman */\n      tag_8\n        /* \"assignments/first/04/04.sol\":4654:4669  intToRoman(900) */\n      jump\t// in\n    tag_94:\n        /* \"assignments/first/04/04.sol\":4638:4671  keccak256(bytes(intToRoman(900))) */\n      dup1\n      mload\n      swap1\n      0x20\n      add\n      keccak256\n        /* \"assignments/first/04/04.sol\":4638:4690  keccak256(bytes(intToRoman(900))) == keccak256(\"CM\") */\n      eq\n        /* \"assignments/first/04/04.sol\":4630:4710  require(keccak256(bytes(intToRoman(900))) == keccak256(\"CM\"), \"Test 900 failed\") */\n      tag_95\n      jumpi\n      mload(0x40)\n      0x08c379a000000000000000000000000000000000000000000000000000000000\n      dup2\n      mstore\n      0x04\n      add\n      tag_96\n      swap1\n      tag_97\n      jump\t// in\n    tag_96:\n      mload(0x40)\n      dup1\n      swap2\n      sub\n      swap1\n      revert\n    tag_95:\n        /* \"assignments/first/04/04.sol\":3461:4718  function testConversions() public pure {... */\n      jump\t// out\n        /* \"assignments/first/04/04.sol\":3133:3398  function trimBytes(bytes memory data, uint256 length) private pure returns (bytes memory) {... */\n    tag_46:\n        /* \"assignments/first/04/04.sol\":3209:3221  bytes memory */\n      0x60\n        /* \"assignments/first/04/04.sol\":3234:3253  bytes memory result */\n      0x00\n        /* \"assignments/first/04/04.sol\":3266:3272  length */\n      dup3\n        /* \"assignments/first/04/04.sol\":3256:3273  new bytes(length) */\n      0xffffffffffffffff\n      dup2\n      gt\n      iszero\n      tag_99\n      jumpi\n      tag_100\n      tag_20\n      jump\t// in\n    tag_100:\n    tag_99:\n      mload(0x40)\n      swap1\n      dup1\n      dup3\n      mstore\n      dup1\n      0x1f\n      add\n      not(0x1f)\n      and\n      0x20\n      add\n      dup3\n      add\n      0x40\n      mstore\n      dup1\n      iszero\n      tag_101\n      jumpi\n      dup2\n      0x20\n      add\n      0x01\n      dup3\n      mul\n      dup1\n      calldatasize\n      dup4\n      calldatacopy\n      dup1\n      dup3\n      add\n      swap2\n      pop\n      pop\n      swap1\n      pop\n    tag_101:\n      pop\n        /* \"assignments/first/04/04.sol\":3234:3273  bytes memory result = new bytes(length) */\n      swap1\n      pop\n        /* \"assignments/first/04/04.sol\":3289:3298  uint256 i */\n      0x00\n        /* \"assignments/first/04/04.sol\":3301:3302  0 */\n      0x00\n        /* \"assignments/first/04/04.sol\":3289:3302  uint256 i = 0 */\n      swap1\n      pop\n        /* \"assignments/first/04/04.sol\":3284:3367  for (uint256 i = 0; i < length; i++) {... */\n    tag_102:\n        /* \"assignments/first/04/04.sol\":3308:3314  length */\n      dup4\n        /* \"assignments/first/04/04.sol\":3304:3305  i */\n      dup2\n        /* \"assignments/first/04/04.sol\":3304:3314  i < length */\n      lt\n        /* \"assignments/first/04/04.sol\":3284:3367  for (uint256 i = 0; i < length; i++) {... */\n      iszero\n      tag_103\n      jumpi\n        /* \"assignments/first/04/04.sol\":3348:3352  data */\n      dup5\n        /* \"assignments/first/04/04.sol\":3353:3354  i */\n      dup2\n        /* \"assignments/first/04/04.sol\":3348:3355  data[i] */\n      dup2\n      mload\n      dup2\n      lt\n      tag_105\n      jumpi\n      tag_106\n      tag_29\n      jump\t// in\n    tag_106:\n    tag_105:\n      0x20\n      add\n      add\n      mload\n      0xf8\n      shr\n      0xf8\n      shl\n        /* \"assignments/first/04/04.sol\":3336:3342  result */\n      dup3\n        /* \"assignments/first/04/04.sol\":3343:3344  i */\n      dup3\n        /* \"assignments/first/04/04.sol\":3336:3345  result[i] */\n      dup2\n      mload\n      dup2\n      lt\n      tag_107\n      jumpi\n      tag_108\n      tag_29\n      jump\t// in\n    tag_108:\n    tag_107:\n      0x20\n      add\n      add\n        /* \"assignments/first/04/04.sol\":3336:3355  result[i] = data[i] */\n      swap1\n      not(0xffffffffffffffffffffffffffffffffffffffffffffffffffffffffffffff)\n      and\n      swap1\n      dup2\n      0x00\n      byte\n      swap1\n      mstore8\n      pop\n        /* \"assignments/first/04/04.sol\":3316:3319  i++ */\n      dup1\n      dup1\n      0x01\n      add\n      swap2\n      pop\n      pop\n        /* \"assignments/first/04/04.sol\":3284:3367  for (uint256 i = 0; i < length; i++) {... */\n      jump(tag_102)\n    tag_103:\n      pop\n        /* \"assignments/first/04/04.sol\":3384:3390  result */\n      dup1\n        /* \"assignments/first/04/04.sol\":3377:3390  return result */\n      swap2\n      pop\n      pop\n        /* \"assignments/first/04/04.sol\":3133:3398  function trimBytes(bytes memory data, uint256 length) private pure returns (bytes memory) {... */\n      swap3\n      swap2\n      pop\n      pop\n      jump\t// out\n        /* \"#utility.yul\":88:205   */\n    tag_110:\n        /* \"#utility.yul\":197:198   */\n      0x00\n        /* \"#utility.yul\":194:195   */\n      0x00\n        /* \"#utility.yul\":187:199   */\n      revert\n        /* \"#utility.yul\":334:411   */\n    tag_112:\n        /* \"#utility.yul\":371:378   */\n      0x00\n        /* \"#utility.yul\":400:405   */\n      dup2\n        /* \"#utility.yul\":389:405   */\n      swap1\n      pop\n        /* \"#utility.yul\":334:411   */\n      swap2\n      swap1\n      pop\n      jump\t// out\n        /* \"#utility.yul\":417:539   */\n    tag_113:\n        /* \"#utility.yul\":490:514   */\n      tag_156\n        /* \"#utility.yul\":508:513   */\n      dup2\n        /* \"#utility.yul\":490:514   */\n      tag_112\n      jump\t// in\n    tag_156:\n        /* \"#utility.yul\":483:488   */\n      dup2\n        /* \"#utility.yul\":480:515   */\n      eq\n        /* \"#utility.yul\":470:533   */\n      tag_157\n      jumpi\n        /* \"#utility.yul\":529:530   */\n      0x00\n        /* \"#utility.yul\":526:527   */\n      0x00\n        /* \"#utility.yul\":519:531   */\n      revert\n        /* \"#utility.yul\":470:533   */\n    tag_157:\n        /* \"#utility.yul\":417:539   */\n      pop\n      jump\t// out\n        /* \"#utility.yul\":545:684   */\n    tag_114:\n        /* \"#utility.yul\":591:596   */\n      0x00\n        /* \"#utility.yul\":629:635   */\n      dup2\n        /* \"#utility.yul\":616:636   */\n      calldataload\n        /* \"#utility.yul\":607:636   */\n      swap1\n      pop\n        /* \"#utility.yul\":645:678   */\n      tag_159\n        /* \"#utility.yul\":672:677   */\n      dup2\n        /* \"#utility.yul\":645:678   */\n      tag_113\n      jump\t// in\n    tag_159:\n        /* \"#utility.yul\":545:684   */\n      swap3\n      swap2\n      pop\n      pop\n      jump\t// out\n        /* \"#utility.yul\":690:1019   */\n    tag_7:\n        /* \"#utility.yul\":749:755   */\n      0x00\n        /* \"#utility.yul\":798:800   */\n      0x20\n        /* \"#utility.yul\":786:795   */\n      dup3\n        /* \"#utility.yul\":777:784   */\n      dup5\n        /* \"#utility.yul\":773:796   */\n      sub\n        /* \"#utility.yul\":769:801   */\n      slt\n        /* \"#utility.yul\":766:885   */\n      iszero\n      tag_161\n      jumpi\n        /* \"#utility.yul\":804:883   */\n      tag_162\n      tag_110\n      jump\t// in\n    tag_162:\n        /* \"#utility.yul\":766:885   */\n    tag_161:\n        /* \"#utility.yul\":924:925   */\n      0x00\n        /* \"#utility.yul\":949:1002   */\n      tag_163\n        /* \"#utility.yul\":994:1001   */\n      dup5\n        /* \"#utility.yul\":985:991   */\n      dup3\n        /* \"#utility.yul\":974:983   */\n      dup6\n        /* \"#utility.yul\":970:992   */\n      add\n        /* \"#utility.yul\":949:1002   */\n      tag_114\n      jump\t// in\n    tag_163:\n        /* \"#utility.yul\":939:1002   */\n      swap2\n      pop\n        /* \"#utility.yul\":895:1012   */\n      pop\n        /* \"#utility.yul\":690:1019   */\n      swap3\n      swap2\n      pop\n      pop\n      jump\t// out\n        /* \"#utility.yul\":1025:1124   */\n    tag_115:\n        /* \"#utility.yul\":1077:1083   */\n      0x00\n        /* \"#utility.yul\":1111:1116   */\n      dup2\n        /* \"#utility.yul\":1105:1117   */\n      mload\n        /* \"#utility.yul\":1095:1117   */\n      swap1\n      pop\n        /* \"#utility.yul\":1025:1124   */\n      swap2\n      swap1\n      pop\n      jump\t// out\n        /* \"#utility.yul\":1130:1299   */\n    tag_116:\n        /* \"#utility.yul\":1214:1225   */\n      0x00\n        /* \"#utility.yul\":1248:1254   */\n      dup3\n        /* \"#utility.yul\":1243:1246   */\n      dup3\n        /* \"#utility.yul\":1236:1255   */\n      mstore\n        /* \"#utility.yul\":1288:1292   */\n      0x20\n        /* \"#utility.yul\":1283:1286   */\n      dup3\n        /* \"#utility.yul\":1279:1293   */\n      add\n        /* \"#utility.yul\":1264:1293   */\n      swap1\n      pop\n        /* \"#utility.yul\":1130:1299   */\n      swap3\n      swap2\n      pop\n      pop\n      jump\t// out\n        /* \"#utility.yul\":1305:1444   */\n    tag_117:\n        /* \"#utility.yul\":1394:1400   */\n      dup3\n        /* \"#utility.yul\":1389:1392   */\n      dup2\n        /* \"#utility.yul\":1384:1387   */\n      dup4\n        /* \"#utility.yul\":1378:1401   */\n      mcopy\n        /* \"#utility.yul\":1435:1436   */\n      0x00\n        /* \"#utility.yul\":1426:1432   */\n      dup4\n        /* \"#utility.yul\":1421:1424   */\n      dup4\n        /* \"#utility.yul\":1417:1433   */\n      add\n        /* \"#utility.yul\":1410:1437   */\n      mstore\n        /* \"#utility.yul\":1305:1444   */\n      pop\n      pop\n      pop\n      jump\t// out\n        /* \"#utility.yul\":1450:1552   */\n    tag_118:\n        /* \"#utility.yul\":1491:1497   */\n      0x00\n        /* \"#utility.yul\":1542:1544   */\n      0x1f\n        /* \"#utility.yul\":1538:1545   */\n      not\n        /* \"#utility.yul\":1533:1535   */\n      0x1f\n        /* \"#utility.yul\":1526:1531   */\n      dup4\n        /* \"#utility.yul\":1522:1536   */\n      add\n        /* \"#utility.yul\":1518:1546   */\n      and\n        /* \"#utility.yul\":1508:1546   */\n      swap1\n      pop\n        /* \"#utility.yul\":1450:1552   */\n      swap2\n      swap1\n      pop\n      jump\t// out\n        /* \"#utility.yul\":1558:1935   */\n    tag_119:\n        /* \"#utility.yul\":1646:1649   */\n      0x00\n        /* \"#utility.yul\":1674:1713   */\n      tag_169\n        /* \"#utility.yul\":1707:1712   */\n      dup3\n        /* \"#utility.yul\":1674:1713   */\n      tag_115\n      jump\t// in\n    tag_169:\n        /* \"#utility.yul\":1729:1800   */\n      tag_170\n        /* \"#utility.yul\":1793:1799   */\n      dup2\n        /* \"#utility.yul\":1788:1791   */\n      dup6\n        /* \"#utility.yul\":1729:1800   */\n      tag_116\n      jump\t// in\n    tag_170:\n        /* \"#utility.yul\":1722:1800   */\n      swap4\n      pop\n        /* \"#utility.yul\":1809:1874   */\n      tag_171\n        /* \"#utility.yul\":1867:1873   */\n      dup2\n        /* \"#utility.yul\":1862:1865   */\n      dup6\n        /* \"#utility.yul\":1855:1859   */\n      0x20\n        /* \"#utility.yul\":1848:1853   */\n      dup7\n        /* \"#utility.yul\":1844:1860   */\n      add\n        /* \"#utility.yul\":1809:1874   */\n      tag_117\n      jump\t// in\n    tag_171:\n        /* \"#utility.yul\":1899:1928   */\n      tag_172\n        /* \"#utility.yul\":1921:1927   */\n      dup2\n        /* \"#utility.yul\":1899:1928   */\n      tag_118\n      jump\t// in\n    tag_172:\n        /* \"#utility.yul\":1894:1897   */\n      dup5\n        /* \"#utility.yul\":1890:1929   */\n      add\n        /* \"#utility.yul\":1883:1929   */\n      swap2\n      pop\n        /* \"#utility.yul\":1650:1935   */\n      pop\n        /* \"#utility.yul\":1558:1935   */\n      swap3\n      swap2\n      pop\n      pop\n      jump\t// out\n        /* \"#utility.yul\":1941:2254   */\n    tag_10:\n        /* \"#utility.yul\":2054:2058   */\n      0x00\n        /* \"#utility.yul\":2092:2094   */\n      0x20\n        /* \"#utility.yul\":2081:2090   */\n      dup3\n        /* \"#utility.yul\":2077:2095   */\n      add\n        /* \"#utility.yul\":2069:2095   */\n      swap1\n      pop\n        /* \"#utility.yul\":2141:2150   */\n      dup2\n        /* \"#utility.yul\":2135:2139   */\n      dup2\n        /* \"#utility.yul\":2131:2151   */\n      sub\n        /* \"#utility.yul\":2127:2128   */\n      0x00\n        /* \"#utility.yul\":2116:2125   */\n      dup4\n        /* \"#utility.yul\":2112:2129   */\n      add\n        /* \"#utility.yul\":2105:2152   */\n      mstore\n        /* \"#utility.yul\":2169:2247   */\n      tag_174\n        /* \"#utility.yul\":2242:2246   */\n      dup2\n        /* \"#utility.yul\":2233:2239   */\n      dup5\n        /* \"#utility.yul\":2169:2247   */\n      tag_119\n      jump\t// in\n    tag_174:\n        /* \"#utility.yul\":2161:2247   */\n      swap1\n      pop\n        /* \"#utility.yul\":1941:2254   */\n      swap3\n      swap2\n      pop\n      pop\n      jump\t// out\n        /* \"#utility.yul\":2260:2430   */\n    tag_120:\n        /* \"#utility.yul\":2400:2422   */\n      0x496e707574206d75737420626520312d33393939000000000000000000000000\n        /* \"#utility.yul\":2396:2397   */\n      0x00\n        /* \"#utility.yul\":2388:2394   */\n      dup3\n        /* \"#utility.yul\":2384:2398   */\n      add\n        /* \"#utility.yul\":2377:2423   */\n      mstore\n        /* \"#utility.yul\":2260:2430   */\n      pop\n      jump\t// out\n        /* \"#utility.yul\":2436:2802   */\n    tag_121:\n        /* \"#utility.yul\":2578:2581   */\n      0x00\n        /* \"#utility.yul\":2599:2666   */\n      tag_177\n        /* \"#utility.yul\":2663:2665   */\n      0x14\n        /* \"#utility.yul\":2658:2661   */\n      dup4\n        /* \"#utility.yul\":2599:2666   */\n      tag_116\n      jump\t// in\n    tag_177:\n        /* \"#utility.yul\":2592:2666   */\n      swap2\n      pop\n        /* \"#utility.yul\":2675:2768   */\n      tag_178\n        /* \"#utility.yul\":2764:2767   */\n      dup3\n        /* \"#utility.yul\":2675:2768   */\n      tag_120\n      jump\t// in\n    tag_178:\n        /* \"#utility.yul\":2793:2795   */\n      0x20\n        /* \"#utility.yul\":2788:2791   */\n      dup3\n        /* \"#utility.yul\":2784:2796   */\n      add\n        /* \"#utility.yul\":2777:2796   */\n      swap1\n      pop\n        /* \"#utility.yul\":2436:2802   */\n      swap2\n      swap1\n      pop\n      jump\t// out\n        /* \"#utility.yul\":2808:3227   */\n    tag_17:\n        /* \"#utility.yul\":2974:2978   */\n      0x00\n        /* \"#utility.yul\":3012:3014   */\n      0x20\n        /* \"#utility.yul\":3001:3010   */\n      dup3\n        /* \"#utility.yul\":2997:3015   */\n      add\n        /* \"#utility.yul\":2989:3015   */\n      swap1\n      pop\n        /* \"#utility.yul\":3061:3070   */\n      dup2\n        /* \"#utility.yul\":3055:3059   */\n      dup2\n        /* \"#utility.yul\":3051:3071   */\n      sub\n        /* \"#utility.yul\":3047:3048   */\n      0x00\n        /* \"#utility.yul\":3036:3045   */\n      dup4\n        /* \"#utility.yul\":3032:3049   */\n      add\n        /* \"#utility.yul\":3025:3072   */\n      mstore\n        /* \"#utility.yul\":3089:3220   */\n      tag_180\n        /* \"#utility.yul\":3215:3219   */\n      dup2\n        /* \"#utility.yul\":3089:3220   */\n      tag_121\n      jump\t// in\n    tag_180:\n        /* \"#utility.yul\":3081:3220   */\n      swap1\n      pop\n        /* \"#utility.yul\":2808:3227   */\n      swap2\n      swap1\n      pop\n      jump\t// out\n        /* \"#utility.yul\":3233:3413   */\n    tag_20:\n        /* \"#utility.yul\":3281:3358   */\n      0x4e487b7100000000000000000000000000000000000000000000000000000000\n        /* \"#utility.yul\":3278:3279   */\n      0x00\n        /* \"#utility.yul\":3271:3359   */\n      mstore\n        /* \"#utility.yul\":3378:3382   */\n      0x41\n        /* \"#utility.yul\":3375:3376   */\n      0x04\n        /* \"#utility.yul\":3368:3383   */\n      mstore\n        /* \"#utility.yul\":3402:3406   */\n      0x24\n        /* \"#utility.yul\":3399:3400   */\n      0x00\n        /* \"#utility.yul\":3392:3407   */\n      revert\n        /* \"#utility.yul\":3419:3599   */\n    tag_29:\n        /* \"#utility.yul\":3467:3544   */\n      0x4e487b7100000000000000000000000000000000000000000000000000000000\n        /* \"#utility.yul\":3464:3465   */\n      0x00\n        /* \"#utility.yul\":3457:3545   */\n      mstore\n        /* \"#utility.yul\":3564:3568   */\n      0x32\n        /* \"#utility.yul\":3561:3562   */\n      0x04\n        /* \"#utility.yul\":3554:3569   */\n      mstore\n        /* \"#utility.yul\":3588:3592   */\n      0x24\n        /* \"#utility.yul\":3585:3586   */\n      0x00\n        /* \"#utility.yul\":3578:3593   */\n      revert\n        /* \"#utility.yul\":3605:3785   */\n    tag_122:\n        /* \"#utility.yul\":3653:3730   */\n      0x4e487b7100000000000000000000000000000000000000000000000000000000\n        /* \"#utility.yul\":3650:3651   */\n      0x00\n        /* \"#utility.yul\":3643:3731   */\n      mstore\n        /* \"#utility.yul\":3750:3754   */\n      0x11\n        /* \"#utility.yul\":3747:3748   */\n      0x04\n        /* \"#utility.yul\":3740:3755   */\n      mstore\n        /* \"#utility.yul\":3774:3778   */\n      0x24\n        /* \"#utility.yul\":3771:3772   */\n      0x00\n        /* \"#utility.yul\":3764:3779   */\n      revert\n        /* \"#utility.yul\":3791:4024   */\n    tag_38:\n        /* \"#utility.yul\":3830:3833   */\n      0x00\n        /* \"#utility.yul\":3853:3877   */\n      tag_185\n        /* \"#utility.yul\":3871:3876   */\n      dup3\n        /* \"#utility.yul\":3853:3877   */\n      tag_112\n      jump\t// in\n    tag_185:\n        /* \"#utility.yul\":3844:3877   */\n      swap2\n      pop\n        /* \"#utility.yul\":3899:3965   */\n      0xffffffffffffffffffffffffffffffffffffffffffffffffffffffffffffffff\n        /* \"#utility.yul\":3892:3897   */\n      dup3\n        /* \"#utility.yul\":3889:3966   */\n      sub\n        /* \"#utility.yul\":3886:3989   */\n      tag_186\n      jumpi\n        /* \"#utility.yul\":3969:3987   */\n      tag_187\n      tag_122\n      jump\t// in\n    tag_187:\n        /* \"#utility.yul\":3886:3989   */\n    tag_186:\n        /* \"#utility.yul\":4016:4017   */\n      0x01\n        /* \"#utility.yul\":4009:4014   */\n      dup3\n        /* \"#utility.yul\":4005:4018   */\n      add\n        /* \"#utility.yul\":3998:4018   */\n      swap1\n      pop\n        /* \"#utility.yul\":3791:4024   */\n      swap2\n      swap1\n      pop\n      jump\t// out\n        /* \"#utility.yul\":4030:4224   */\n    tag_44:\n        /* \"#utility.yul\":4070:4074   */\n      0x00\n        /* \"#utility.yul\":4090:4110   */\n      tag_189\n        /* \"#utility.yul\":4108:4109   */\n      dup3\n        /* \"#utility.yul\":4090:4110   */\n      tag_112\n      jump\t// in\n    tag_189:\n        /* \"#utility.yul\":4085:4110   */\n      swap2\n      pop\n        /* \"#utility.yul\":4124:4144   */\n      tag_190\n        /* \"#utility.yul\":4142:4143   */\n      dup4\n        /* \"#utility.yul\":4124:4144   */\n      tag_112\n      jump\t// in\n    tag_190:\n        /* \"#utility.yul\":4119:4144   */\n      swap3\n      pop\n        /* \"#utility.yul\":4168:4169   */\n      dup3\n        /* \"#utility.yul\":4165:4166   */\n      dup3\n        /* \"#utility.yul\":4161:4170   */\n      sub\n        /* \"#utility.yul\":4153:4170   */\n      swap1\n      pop\n        /* \"#utility.yul\":4192:4193   */\n      dup2\n        /* \"#utility.yul\":4186:4190   */\n      dup2\n        /* \"#utility.yul\":4183:4194   */\n      gt\n        /* \"#utility.yul\":4180:4217   */\n      iszero\n      tag_191\n      jumpi\n        /* \"#utility.yul\":4197:4215   */\n      tag_192\n      tag_122\n      jump\t// in\n    tag_192:\n        /* \"#utility.yul\":4180:4217   */\n    tag_191:\n        /* \"#utility.yul\":4030:4224   */\n      swap3\n      swap2\n      pop\n      pop\n      jump\t// out\n        /* \"#utility.yul\":4230:4328   */\n    tag_123:\n        /* \"#utility.yul\":4281:4287   */\n      0x00\n        /* \"#utility.yul\":4315:4320   */\n      dup2\n        /* \"#utility.yul\":4309:4321   */\n      mload\n        /* \"#utility.yul\":4299:4321   */\n      swap1\n      pop\n        /* \"#utility.yul\":4230:4328   */\n      swap2\n      swap1\n      pop\n      jump\t// out\n        /* \"#utility.yul\":4334:4481   */\n    tag_124:\n        /* \"#utility.yul\":4435:4446   */\n      0x00\n        /* \"#utility.yul\":4472:4475   */\n      dup2\n        /* \"#utility.yul\":4457:4475   */\n      swap1\n      pop\n        /* \"#utility.yul\":4334:4481   */\n      swap3\n      swap2\n      pop\n      pop\n      jump\t// out\n        /* \"#utility.yul\":4487:4873   */\n    tag_125:\n        /* \"#utility.yul\":4591:4594   */\n      0x00\n        /* \"#utility.yul\":4619:4657   */\n      tag_196\n        /* \"#utility.yul\":4651:4656   */\n      dup3\n        /* \"#utility.yul\":4619:4657   */\n      tag_123\n      jump\t// in\n    tag_196:\n        /* \"#utility.yul\":4673:4761   */\n      tag_197\n        /* \"#utility.yul\":4754:4760   */\n      dup2\n        /* \"#utility.yul\":4749:4752   */\n      dup6\n        /* \"#utility.yul\":4673:4761   */\n      tag_124\n      jump\t// in\n    tag_197:\n        /* \"#utility.yul\":4666:4761   */\n      swap4\n      pop\n        /* \"#utility.yul\":4770:4835   */\n      tag_198\n        /* \"#utility.yul\":4828:4834   */\n      dup2\n        /* \"#utility.yul\":4823:4826   */\n      dup6\n        /* \"#utility.yul\":4816:4820   */\n      0x20\n        /* \"#utility.yul\":4809:4814   */\n      dup7\n        /* \"#utility.yul\":4805:4821   */\n      add\n        /* \"#utility.yul\":4770:4835   */\n      tag_117\n      jump\t// in\n    tag_198:\n        /* \"#utility.yul\":4860:4866   */\n      dup1\n        /* \"#utility.yul\":4855:4858   */\n      dup5\n        /* \"#utility.yul\":4851:4867   */\n      add\n        /* \"#utility.yul\":4844:4867   */\n      swap2\n      pop\n        /* \"#utility.yul\":4595:4873   */\n      pop\n        /* \"#utility.yul\":4487:4873   */\n      swap3\n      swap2\n      pop\n      pop\n      jump\t// out\n        /* \"#utility.yul\":4879:5150   */\n    tag_48:\n        /* \"#utility.yul\":5009:5012   */\n      0x00\n        /* \"#utility.yul\":5031:5124   */\n      tag_200\n        /* \"#utility.yul\":5120:5123   */\n      dup3\n        /* \"#utility.yul\":5111:5117   */\n      dup5\n        /* \"#utility.yul\":5031:5124   */\n      tag_125\n      jump\t// in\n    tag_200:\n        /* \"#utility.yul\":5024:5124   */\n      swap2\n      pop\n        /* \"#utility.yul\":5141:5144   */\n      dup2\n        /* \"#utility.yul\":5134:5144   */\n      swap1\n      pop\n        /* \"#utility.yul\":4879:5150   */\n      swap3\n      swap2\n      pop\n      pop\n      jump\t// out\n        /* \"#utility.yul\":5156:5319   */\n    tag_126:\n        /* \"#utility.yul\":5296:5311   */\n      0x546573742031206661696c656400000000000000000000000000000000000000\n        /* \"#utility.yul\":5292:5293   */\n      0x00\n        /* \"#utility.yul\":5284:5290   */\n      dup3\n        /* \"#utility.yul\":5280:5294   */\n      add\n        /* \"#utility.yul\":5273:5312   */\n      mstore\n        /* \"#utility.yul\":5156:5319   */\n      pop\n      jump\t// out\n        /* \"#utility.yul\":5325:5691   */\n    tag_127:\n        /* \"#utility.yul\":5467:5470   */\n      0x00\n        /* \"#utility.yul\":5488:5555   */\n      tag_203\n        /* \"#utility.yul\":5552:5554   */\n      0x0d\n        /* \"#utility.yul\":5547:5550   */\n      dup4\n        /* \"#utility.yul\":5488:5555   */\n      tag_116\n      jump\t// in\n    tag_203:\n        /* \"#utility.yul\":5481:5555   */\n      swap2\n      pop\n        /* \"#utility.yul\":5564:5657   */\n      tag_204\n        /* \"#utility.yul\":5653:5656   */\n      dup3\n        /* \"#utility.yul\":5564:5657   */\n      tag_126\n      jump\t// in\n    tag_204:\n        /* \"#utility.yul\":5682:5684   */\n      0x20\n        /* \"#utility.yul\":5677:5680   */\n      dup3\n        /* \"#utility.yul\":5673:5685   */\n      add\n        /* \"#utility.yul\":5666:5685   */\n      swap1\n      pop\n        /* \"#utility.yul\":5325:5691   */\n      swap2\n      swap1\n      pop\n      jump\t// out\n        /* \"#utility.yul\":5697:6116   */\n    tag_53:\n        /* \"#utility.yul\":5863:5867   */\n      0x00\n        /* \"#utility.yul\":5901:5903   */\n      0x20\n        /* \"#utility.yul\":5890:5899   */\n      dup3\n        /* \"#utility.yul\":5886:5904   */\n      add\n        /* \"#utility.yul\":5878:5904   */\n      swap1\n      pop\n        /* \"#utility.yul\":5950:5959   */\n      dup2\n        /* \"#utility.yul\":5944:5948   */\n      dup2\n        /* \"#utility.yul\":5940:5960   */\n      sub\n        /* \"#utility.yul\":5936:5937   */\n      0x00\n        /* \"#utility.yul\":5925:5934   */\n      dup4\n        /* \"#utility.yul\":5921:5938   */\n      add\n        /* \"#utility.yul\":5914:5961   */\n      mstore\n        /* \"#utility.yul\":5978:6109   */\n      tag_206\n        /* \"#utility.yul\":6104:6108   */\n      dup2\n        /* \"#utility.yul\":5978:6109   */\n      tag_127\n      jump\t// in\n    tag_206:\n        /* \"#utility.yul\":5970:6109   */\n      swap1\n      pop\n        /* \"#utility.yul\":5697:6116   */\n      swap2\n      swap1\n      pop\n      jump\t// out\n        /* \"#utility.yul\":6122:6285   */\n    tag_128:\n        /* \"#utility.yul\":6262:6277   */\n      0x546573742034206661696c656400000000000000000000000000000000000000\n        /* \"#utility.yul\":6258:6259   */\n      0x00\n        /* \"#utility.yul\":6250:6256   */\n      dup3\n        /* \"#utility.yul\":6246:6260   */\n      add\n        /* \"#utility.yul\":6239:6278   */\n      mstore\n        /* \"#utility.yul\":6122:6285   */\n      pop\n      jump\t// out\n        /* \"#utility.yul\":6291:6657   */\n    tag_129:\n        /* \"#utility.yul\":6433:6436   */\n      0x00\n        /* \"#utility.yul\":6454:6521   */\n      tag_209\n        /* \"#utility.yul\":6518:6520   */\n      0x0d\n        /* \"#utility.yul\":6513:6516   */\n      dup4\n        /* \"#utility.yul\":6454:6521   */\n      tag_116\n      jump\t// in\n    tag_209:\n        /* \"#utility.yul\":6447:6521   */\n      swap2\n      pop\n        /* \"#utility.yul\":6530:6623   */\n      tag_210\n        /* \"#utility.yul\":6619:6622   */\n      dup3\n        /* \"#utility.yul\":6530:6623   */\n      tag_128\n      jump\t// in\n    tag_210:\n        /* \"#utility.yul\":6648:6650   */\n      0x20\n        /* \"#utility.yul\":6643:6646   */\n      dup3\n        /* \"#utility.yul\":6639:6651   */\n      add\n        /* \"#utility.yul\":6632:6651   */\n      swap1\n      pop\n        /* \"#utility.yul\":6291:6657   */\n      swap2\n      swap1\n      pop\n      jump\t// out\n        /* \"#utility.yul\":6663:7082   */\n    tag_57:\n        /* \"#utility.yul\":6829:6833   */\n      0x00\n        /* \"#utility.yul\":6867:6869   */\n      0x20\n        /* \"#utility.yul\":6856:6865   */\n      dup3\n        /* \"#utility.yul\":6852:6870   */\n      add\n        /* \"#utility.yul\":6844:6870   */\n      swap1\n      pop\n        /* \"#utility.yul\":6916:6925   */\n      dup2\n        /* \"#utility.yul\":6910:6914   */\n      dup2\n        /* \"#utility.yul\":6906:6926   */\n      sub\n        /* \"#utility.yul\":6902:6903   */\n      0x00\n        /* \"#utility.yul\":6891:6900   */\n      dup4\n        /* \"#utility.yul\":6887:6904   */\n      add\n        /* \"#utility.yul\":6880:6927   */\n      mstore\n        /* \"#utility.yul\":6944:7075   */\n      tag_212\n        /* \"#utility.yul\":7070:7074   */\n      dup2\n        /* \"#utility.yul\":6944:7075   */\n      tag_129\n      jump\t// in\n    tag_212:\n        /* \"#utility.yul\":6936:7075   */\n      swap1\n      pop\n        /* \"#utility.yul\":6663:7082   */\n      swap2\n      swap1\n      pop\n      jump\t// out\n        /* \"#utility.yul\":7088:7251   */\n    tag_130:\n        /* \"#utility.yul\":7228:7243   */\n      0x546573742039206661696c656400000000000000000000000000000000000000\n        /* \"#utility.yul\":7224:7225   */\n      0x00\n        /* \"#utility.yul\":7216:7222   */\n      dup3\n        /* \"#utility.yul\":7212:7226   */\n      add\n        /* \"#utility.yul\":7205:7244   */\n      mstore\n        /* \"#utility.yul\":7088:7251   */\n      pop\n      jump\t// out\n        /* \"#utility.yul\":7257:7623   */\n    tag_131:\n        /* \"#utility.yul\":7399:7402   */\n      0x00\n        /* \"#utility.yul\":7420:7487   */\n      tag_215\n        /* \"#utility.yul\":7484:7486   */\n      0x0d\n        /* \"#utility.yul\":7479:7482   */\n      dup4\n        /* \"#utility.yul\":7420:7487   */\n      tag_116\n      jump\t// in\n    tag_215:\n        /* \"#utility.yul\":7413:7487   */\n      swap2\n      pop\n        /* \"#utility.yul\":7496:7589   */\n      tag_216\n        /* \"#utility.yul\":7585:7588   */\n      dup3\n        /* \"#utility.yul\":7496:7589   */\n      tag_130\n      jump\t// in\n    tag_216:\n        /* \"#utility.yul\":7614:7616   */\n      0x20\n        /* \"#utility.yul\":7609:7612   */\n      dup3\n        /* \"#utility.yul\":7605:7617   */\n      add\n        /* \"#utility.yul\":7598:7617   */\n      swap1\n      pop\n        /* \"#utility.yul\":7257:7623   */\n      swap2\n      swap1\n      pop\n      jump\t// out\n        /* \"#utility.yul\":7629:8048   */\n    tag_61:\n        /* \"#utility.yul\":7795:7799   */\n      0x00\n        /* \"#utility.yul\":7833:7835   */\n      0x20\n        /* \"#utility.yul\":7822:7831   */\n      dup3\n        /* \"#utility.yul\":7818:7836   */\n      add\n        /* \"#utility.yul\":7810:7836   */\n      swap1\n      pop\n        /* \"#utility.yul\":7882:7891   */\n      dup2\n        /* \"#utility.yul\":7876:7880   */\n      dup2\n        /* \"#utility.yul\":7872:7892   */\n      sub\n        /* \"#utility.yul\":7868:7869   */\n      0x00\n        /* \"#utility.yul\":7857:7866   */\n      dup4\n        /* \"#utility.yul\":7853:7870   */\n      add\n        /* \"#utility.yul\":7846:7893   */\n      mstore\n        /* \"#utility.yul\":7910:8041   */\n      tag_218\n        /* \"#utility.yul\":8036:8040   */\n      dup2\n        /* \"#utility.yul\":7910:8041   */\n      tag_131\n      jump\t// in\n    tag_218:\n        /* \"#utility.yul\":7902:8041   */\n      swap1\n      pop\n        /* \"#utility.yul\":7629:8048   */\n      swap2\n      swap1\n      pop\n      jump\t// out\n        /* \"#utility.yul\":8054:8218   */\n    tag_132:\n        /* \"#utility.yul\":8194:8210   */\n      0x54657374203538206661696c6564000000000000000000000000000000000000\n        /* \"#utility.yul\":8190:8191   */\n      0x00\n        /* \"#utility.yul\":8182:8188   */\n      dup3\n        /* \"#utility.yul\":8178:8192   */\n      add\n        /* \"#utility.yul\":8171:8211   */\n      mstore\n        /* \"#utility.yul\":8054:8218   */\n      pop\n      jump\t// out\n        /* \"#utility.yul\":8224:8590   */\n    tag_133:\n        /* \"#utility.yul\":8366:8369   */\n      0x00\n        /* \"#utility.yul\":8387:8454   */\n      tag_221\n        /* \"#utility.yul\":8451:8453   */\n      0x0e\n        /* \"#utility.yul\":8446:8449   */\n      dup4\n        /* \"#utility.yul\":8387:8454   */\n      tag_116\n      jump\t// in\n    tag_221:\n        /* \"#utility.yul\":8380:8454   */\n      swap2\n      pop\n        /* \"#utility.yul\":8463:8556   */\n      tag_222\n        /* \"#utility.yul\":8552:8555   */\n      dup3\n        /* \"#utility.yul\":8463:8556   */\n      tag_132\n      jump\t// in\n    tag_222:\n        /* \"#utility.yul\":8581:8583   */\n      0x20\n        /* \"#utility.yul\":8576:8579   */\n      dup3\n        /* \"#utility.yul\":8572:8584   */\n      add\n        /* \"#utility.yul\":8565:8584   */\n      swap1\n      pop\n        /* \"#utility.yul\":8224:8590   */\n      swap2\n      swap1\n      pop\n      jump\t// out\n        /* \"#utility.yul\":8596:9015   */\n    tag_65:\n        /* \"#utility.yul\":8762:8766   */\n      0x00\n        /* \"#utility.yul\":8800:8802   */\n      0x20\n        /* \"#utility.yul\":8789:8798   */\n      dup3\n        /* \"#utility.yul\":8785:8803   */\n      add\n        /* \"#utility.yul\":8777:8803   */\n      swap1\n      pop\n        /* \"#utility.yul\":8849:8858   */\n      dup2\n        /* \"#utility.yul\":8843:8847   */\n      dup2\n        /* \"#utility.yul\":8839:8859   */\n      sub\n        /* \"#utility.yul\":8835:8836   */\n      0x00\n        /* \"#utility.yul\":8824:8833   */\n      dup4\n        /* \"#utility.yul\":8820:8837   */\n      add\n        /* \"#utility.yul\":8813:8860   */\n      mstore\n        /* \"#utility.yul\":8877:9008   */\n      tag_224\n        /* \"#utility.yul\":9003:9007   */\n      dup2\n        /* \"#utility.yul\":8877:9008   */\n      tag_133\n      jump\t// in\n    tag_224:\n        /* \"#utility.yul\":8869:9008   */\n      swap1\n      pop\n        /* \"#utility.yul\":8596:9015   */\n      swap2\n      swap1\n      pop\n      jump\t// out\n        /* \"#utility.yul\":9021:9187   */\n    tag_134:\n        /* \"#utility.yul\":9161:9179   */\n      0x546573742031393934206661696c656400000000000000000000000000000000\n        /* \"#utility.yul\":9157:9158   */\n      0x00\n        /* \"#utility.yul\":9149:9155   */\n      dup3\n        /* \"#utility.yul\":9145:9159   */\n      add\n        /* \"#utility.yul\":9138:9180   */\n      mstore\n        /* \"#utility.yul\":9021:9187   */\n      pop\n      jump\t// out\n        /* \"#utility.yul\":9193:9559   */\n    tag_135:\n        /* \"#utility.yul\":9335:9338   */\n      0x00\n        /* \"#utility.yul\":9356:9423   */\n      tag_227\n        /* \"#utility.yul\":9420:9422   */\n      0x10\n        /* \"#utility.yul\":9415:9418   */\n      dup4\n        /* \"#utility.yul\":9356:9423   */\n      tag_116\n      jump\t// in\n    tag_227:\n        /* \"#utility.yul\":9349:9423   */\n      swap2\n      pop\n        /* \"#utility.yul\":9432:9525   */\n      tag_228\n        /* \"#utility.yul\":9521:9524   */\n      dup3\n        /* \"#utility.yul\":9432:9525   */\n      tag_134\n      jump\t// in\n    tag_228:\n        /* \"#utility.yul\":9550:9552   */\n      0x20\n        /* \"#utility.yul\":9545:9548   */\n      dup3\n        /* \"#utility.yul\":9541:9553   */\n      add\n        /* \"#utility.yul\":9534:9553   */\n      swap1\n      pop\n        /* \"#utility.yul\":9193:9559   */\n      swap2\n      swap1\n      pop\n      jump\t// out\n        /* \"#utility.yul\":9565:9984   */\n    tag_69:\n        /* \"#utility.yul\":9731:9735   */\n      0x00\n        /* \"#utility.yul\":9769:9771   */\n      0x20\n        /* \"#utility.yul\":9758:9767   */\n      dup3\n        /* \"#utility.yul\":9754:9772   */\n      add\n        /* \"#utility.yul\":9746:9772   */\n      swap1\n      pop\n        /* \"#utility.yul\":9818:9827   */\n      dup2\n        /* \"#utility.yul\":9812:9816   */\n      dup2\n        /* \"#utility.yul\":9808:9828   */\n      sub\n        /* \"#utility.yul\":9804:9805   */\n      0x00\n        /* \"#utility.yul\":9793:9802   */\n      dup4\n        /* \"#utility.yul\":9789:9806   */\n      add\n        /* \"#utility.yul\":9782:9829   */\n      mstore\n        /* \"#utility.yul\":9846:9977   */\n      tag_230\n        /* \"#utility.yul\":9972:9976   */\n      dup2\n        /* \"#utility.yul\":9846:9977   */\n      tag_135\n      jump\t// in\n    tag_230:\n        /* \"#utility.yul\":9838:9977   */\n      swap1\n      pop\n        /* \"#utility.yul\":9565:9984   */\n      swap2\n      swap1\n      pop\n      jump\t// out\n        /* \"#utility.yul\":9990:10156   */\n    tag_136:\n        /* \"#utility.yul\":10130:10148   */\n      0x546573742033393939206661696c656400000000000000000000000000000000\n        /* \"#utility.yul\":10126:10127   */\n      0x00\n        /* \"#utility.yul\":10118:10124   */\n      dup3\n        /* \"#utility.yul\":10114:10128   */\n      add\n        /* \"#utility.yul\":10107:10149   */\n      mstore\n        /* \"#utility.yul\":9990:10156   */\n      pop\n      jump\t// out\n        /* \"#utility.yul\":10162:10528   */\n    tag_137:\n        /* \"#utility.yul\":10304:10307   */\n      0x00\n        /* \"#utility.yul\":10325:10392   */\n      tag_233\n        /* \"#utility.yul\":10389:10391   */\n      0x10\n        /* \"#utility.yul\":10384:10387   */\n      dup4\n        /* \"#utility.yul\":10325:10392   */\n      tag_116\n      jump\t// in\n    tag_233:\n        /* \"#utility.yul\":10318:10392   */\n      swap2\n      pop\n        /* \"#utility.yul\":10401:10494   */\n      tag_234\n        /* \"#utility.yul\":10490:10493   */\n      dup3\n        /* \"#utility.yul\":10401:10494   */\n      tag_136\n      jump\t// in\n    tag_234:\n        /* \"#utility.yul\":10519:10521   */\n      0x20\n        /* \"#utility.yul\":10514:10517   */\n      dup3\n        /* \"#utility.yul\":10510:10522   */\n      add\n        /* \"#utility.yul\":10503:10522   */\n      swap1\n      pop\n        /* \"#utility.yul\":10162:10528   */\n      swap2\n      swap1\n      pop\n      jump\t// out\n        /* \"#utility.yul\":10534:10953   */\n    tag_73:\n        /* \"#utility.yul\":10700:10704   */\n      0x00\n        /* \"#utility.yul\":10738:10740   */\n      0x20\n        /* \"#utility.yul\":10727:10736   */\n      dup3\n        /* \"#utility.yul\":10723:10741   */\n      add\n        /* \"#utility.yul\":10715:10741   */\n      swap1\n      pop\n        /* \"#utility.yul\":10787:10796   */\n      dup2\n        /* \"#utility.yul\":10781:10785   */\n      dup2\n        /* \"#utility.yul\":10777:10797   */\n      sub\n        /* \"#utility.yul\":10773:10774   */\n      0x00\n        /* \"#utility.yul\":10762:10771   */\n      dup4\n        /* \"#utility.yul\":10758:10775   */\n      add\n        /* \"#utility.yul\":10751:10798   */\n      mstore\n        /* \"#utility.yul\":10815:10946   */\n      tag_236\n        /* \"#utility.yul\":10941:10945   */\n      dup2\n        /* \"#utility.yul\":10815:10946   */\n      tag_137\n      jump\t// in\n    tag_236:\n        /* \"#utility.yul\":10807:10946   */\n      swap1\n      pop\n        /* \"#utility.yul\":10534:10953   */\n      swap2\n      swap1\n      pop\n      jump\t// out\n        /* \"#utility.yul\":10959:11125   */\n    tag_138:\n        /* \"#utility.yul\":11099:11117   */\n      0x546573742031303030206661696c656400000000000000000000000000000000\n        /* \"#utility.yul\":11095:11096   */\n      0x00\n        /* \"#utility.yul\":11087:11093   */\n      dup3\n        /* \"#utility.yul\":11083:11097   */\n      add\n        /* \"#utility.yul\":11076:11118   */\n      mstore\n        /* \"#utility.yul\":10959:11125   */\n      pop\n      jump\t// out\n        /* \"#utility.yul\":11131:11497   */\n    tag_139:\n        /* \"#utility.yul\":11273:11276   */\n      0x00\n        /* \"#utility.yul\":11294:11361   */\n      tag_239\n        /* \"#utility.yul\":11358:11360   */\n      0x10\n        /* \"#utility.yul\":11353:11356   */\n      dup4\n        /* \"#utility.yul\":11294:11361   */\n      tag_116\n      jump\t// in\n    tag_239:\n        /* \"#utility.yul\":11287:11361   */\n      swap2\n      pop\n        /* \"#utility.yul\":11370:11463   */\n      tag_240\n        /* \"#utility.yul\":11459:11462   */\n      dup3\n        /* \"#utility.yul\":11370:11463   */\n      tag_138\n      jump\t// in\n    tag_240:\n        /* \"#utility.yul\":11488:11490   */\n      0x20\n        /* \"#utility.yul\":11483:11486   */\n      dup3\n        /* \"#utility.yul\":11479:11491   */\n      add\n        /* \"#utility.yul\":11472:11491   */\n      swap1\n      pop\n        /* \"#utility.yul\":11131:11497   */\n      swap2\n      swap1\n      pop\n      jump\t// out\n        /* \"#utility.yul\":11503:11922   */\n    tag_77:\n        /* \"#utility.yul\":11669:11673   */\n      0x00\n        /* \"#utility.yul\":11707:11709   */\n      0x20\n        /* \"#utility.yul\":11696:11705   */\n      dup3\n        /* \"#utility.yul\":11692:11710   */\n      add\n        /* \"#utility.yul\":11684:11710   */\n      swap1\n      pop\n        /* \"#utility.yul\":11756:11765   */\n      dup2\n        /* \"#utility.yul\":11750:11754   */\n      dup2\n        /* \"#utility.yul\":11746:11766   */\n      sub\n        /* \"#utility.yul\":11742:11743   */\n      0x00\n        /* \"#utility.yul\":11731:11740   */\n      dup4\n        /* \"#utility.yul\":11727:11744   */\n      add\n        /* \"#utility.yul\":11720:11767   */\n      mstore\n        /* \"#utility.yul\":11784:11915   */\n      tag_242\n        /* \"#utility.yul\":11910:11914   */\n      dup2\n        /* \"#utility.yul\":11784:11915   */\n      tag_139\n      jump\t// in\n    tag_242:\n        /* \"#utility.yul\":11776:11915   */\n      swap1\n      pop\n        /* \"#utility.yul\":11503:11922   */\n      swap2\n      swap1\n      pop\n      jump\t// out\n        /* \"#utility.yul\":11928:12093   */\n    tag_140:\n        /* \"#utility.yul\":12068:12085   */\n      0x5465737420383838206661696c65640000000000000000000000000000000000\n        /* \"#utility.yul\":12064:12065   */\n      0x00\n        /* \"#utility.yul\":12056:12062   */\n      dup3\n        /* \"#utility.yul\":12052:12066   */\n      add\n        /* \"#utility.yul\":12045:12086   */\n      mstore\n        /* \"#utility.yul\":11928:12093   */\n      pop\n      jump\t// out\n        /* \"#utility.yul\":12099:12465   */\n    tag_141:\n        /* \"#utility.yul\":12241:12244   */\n      0x00\n        /* \"#utility.yul\":12262:12329   */\n      tag_245\n        /* \"#utility.yul\":12326:12328   */\n      0x0f\n        /* \"#utility.yul\":12321:12324   */\n      dup4\n        /* \"#utility.yul\":12262:12329   */\n      tag_116\n      jump\t// in\n    tag_245:\n        /* \"#utility.yul\":12255:12329   */\n      swap2\n      pop\n        /* \"#utility.yul\":12338:12431   */\n      tag_246\n        /* \"#utility.yul\":12427:12430   */\n      dup3\n        /* \"#utility.yul\":12338:12431   */\n      tag_140\n      jump\t// in\n    tag_246:\n        /* \"#utility.yul\":12456:12458   */\n      0x20\n        /* \"#utility.yul\":12451:12454   */\n      dup3\n        /* \"#utility.yul\":12447:12459   */\n      add\n        /* \"#utility.yul\":12440:12459   */\n      swap1\n      pop\n        /* \"#utility.yul\":12099:12465   */\n      swap2\n      swap1\n      pop\n      jump\t// out\n        /* \"#utility.yul\":12471:12890   */\n    tag_81:\n        /* \"#utility.yul\":12637:12641   */\n      0x00\n        /* \"#utility.yul\":12675:12677   */\n      0x20\n        /* \"#utility.yul\":12664:12673   */\n      dup3\n        /* \"#utility.yul\":12660:12678   */\n      add\n        /* \"#utility.yul\":12652:12678   */\n      swap1\n      pop\n        /* \"#utility.yul\":12724:12733   */\n      dup2\n        /* \"#utility.yul\":12718:12722   */\n      dup2\n        /* \"#utility.yul\":12714:12734   */\n      sub\n        /* \"#utility.yul\":12710:12711   */\n      0x00\n        /* \"#utility.yul\":12699:12708   */\n      dup4\n        /* \"#utility.yul\":12695:12712   */\n      add\n        /* \"#utility.yul\":12688:12735   */\n      mstore\n        /* \"#utility.yul\":12752:12883   */\n      tag_248\n        /* \"#utility.yul\":12878:12882   */\n      dup2\n        /* \"#utility.yul\":12752:12883   */\n      tag_141\n      jump\t// in\n    tag_248:\n        /* \"#utility.yul\":12744:12883   */\n      swap1\n      pop\n        /* \"#utility.yul\":12471:12890   */\n      swap2\n      swap1\n      pop\n      jump\t// out\n        /* \"#utility.yul\":12896:13060   */\n    tag_142:\n        /* \"#utility.yul\":13036:13052   */\n      0x54657374203430206661696c6564000000000000000000000000000000000000\n        /* \"#utility.yul\":13032:13033   */\n      0x00\n        /* \"#utility.yul\":13024:13030   */\n      dup3\n        /* \"#utility.yul\":13020:13034   */\n      add\n        /* \"#utility.yul\":13013:13053   */\n      mstore\n        /* \"#utility.yul\":12896:13060   */\n      pop\n      jump\t// out\n        /* \"#utility.yul\":13066:13432   */\n    tag_143:\n        /* \"#utility.yul\":13208:13211   */\n      0x00\n        /* \"#utility.yul\":13229:13296   */\n      tag_251\n        /* \"#utility.yul\":13293:13295   */\n      0x0e\n        /* \"#utility.yul\":13288:13291   */\n      dup4\n        /* \"#utility.yul\":13229:13296   */\n      tag_116\n      jump\t// in\n    tag_251:\n        /* \"#utility.yul\":13222:13296   */\n      swap2\n      pop\n        /* \"#utility.yul\":13305:13398   */\n      tag_252\n        /* \"#utility.yul\":13394:13397   */\n      dup3\n        /* \"#utility.yul\":13305:13398   */\n      tag_142\n      jump\t// in\n    tag_252:\n        /* \"#utility.yul\":13423:13425   */\n      0x20\n        /* \"#utility.yul\":13418:13421   */\n      dup3\n        /* \"#utility.yul\":13414:13426   */\n      add\n        /* \"#utility.yul\":13407:13426   */\n      swap1\n      pop\n        /* \"#utility.yul\":13066:13432   */\n      swap2\n      swap1\n      pop\n      jump\t// out\n        /* \"#utility.yul\":13438:13857   */\n    tag_85:\n        /* \"#utility.yul\":13604:13608   */\n      0x00\n        /* \"#utility.yul\":13642:13644   */\n      0x20\n        /* \"#utility.yul\":13631:13640   */\n      dup3\n        /* \"#utility.yul\":13627:13645   */\n      add\n        /* \"#utility.yul\":13619:13645   */\n      swap1\n      pop\n        /* \"#utility.yul\":13691:13700   */\n      dup2\n        /* \"#utility.yul\":13685:13689   */\n      dup2\n        /* \"#utility.yul\":13681:13701   */\n      sub\n        /* \"#utility.yul\":13677:13678   */\n      0x00\n        /* \"#utility.yul\":13666:13675   */\n      dup4\n        /* \"#utility.yul\":13662:13679   */\n      add\n        /* \"#utility.yul\":13655:13702   */\n      mstore\n        /* \"#utility.yul\":13719:13850   */\n      tag_254\n        /* \"#utility.yul\":13845:13849   */\n      dup2\n        /* \"#utility.yul\":13719:13850   */\n      tag_143\n      jump\t// in\n    tag_254:\n        /* \"#utility.yul\":13711:13850   */\n      swap1\n      pop\n        /* \"#utility.yul\":13438:13857   */\n      swap2\n      swap1\n      pop\n      jump\t// out\n        /* \"#utility.yul\":13863:14027   */\n    tag_144:\n        /* \"#utility.yul\":14003:14019   */\n      0x54657374203930206661696c6564000000000000000000000000000000000000\n        /* \"#utility.yul\":13999:14000   */\n      0x00\n        /* \"#utility.yul\":13991:13997   */\n      dup3\n        /* \"#utility.yul\":13987:14001   */\n      add\n        /* \"#utility.yul\":13980:14020   */\n      mstore\n        /* \"#utility.yul\":13863:14027   */\n      pop\n      jump\t// out\n        /* \"#utility.yul\":14033:14399   */\n    tag_145:\n        /* \"#utility.yul\":14175:14178   */\n      0x00\n        /* \"#utility.yul\":14196:14263   */\n      tag_257\n        /* \"#utility.yul\":14260:14262   */\n      0x0e\n        /* \"#utility.yul\":14255:14258   */\n      dup4\n        /* \"#utility.yul\":14196:14263   */\n      tag_116\n      jump\t// in\n    tag_257:\n        /* \"#utility.yul\":14189:14263   */\n      swap2\n      pop\n        /* \"#utility.yul\":14272:14365   */\n      tag_258\n        /* \"#utility.yul\":14361:14364   */\n      dup3\n        /* \"#utility.yul\":14272:14365   */\n      tag_144\n      jump\t// in\n    tag_258:\n        /* \"#utility.yul\":14390:14392   */\n      0x20\n        /* \"#utility.yul\":14385:14388   */\n      dup3\n        /* \"#utility.yul\":14381:14393   */\n      add\n        /* \"#utility.yul\":14374:14393   */\n      swap1\n      pop\n        /* \"#utility.yul\":14033:14399   */\n      swap2\n      swap1\n      pop\n      jump\t// out\n        /* \"#utility.yul\":14405:14824   */\n    tag_89:\n        /* \"#utility.yul\":14571:14575   */\n      0x00\n        /* \"#utility.yul\":14609:14611   */\n      0x20\n        /* \"#utility.yul\":14598:14607   */\n      dup3\n        /* \"#utility.yul\":14594:14612   */\n      add\n        /* \"#utility.yul\":14586:14612   */\n      swap1\n      pop\n        /* \"#utility.yul\":14658:14667   */\n      dup2\n        /* \"#utility.yul\":14652:14656   */\n      dup2\n        /* \"#utility.yul\":14648:14668   */\n      sub\n        /* \"#utility.yul\":14644:14645   */\n      0x00\n        /* \"#utility.yul\":14633:14642   */\n      dup4\n        /* \"#utility.yul\":14629:14646   */\n      add\n        /* \"#utility.yul\":14622:14669   */\n      mstore\n        /* \"#utility.yul\":14686:14817   */\n      tag_260\n        /* \"#utility.yul\":14812:14816   */\n      dup2\n        /* \"#utility.yul\":14686:14817   */\n      tag_145\n      jump\t// in\n    tag_260:\n        /* \"#utility.yul\":14678:14817   */\n      swap1\n      pop\n        /* \"#utility.yul\":14405:14824   */\n      swap2\n      swap1\n      pop\n      jump\t// out\n        /* \"#utility.yul\":14830:14995   */\n    tag_146:\n        /* \"#utility.yul\":14970:14987   */\n      0x5465737420343030206661696c65640000000000000000000000000000000000\n        /* \"#utility.yul\":14966:14967   */\n      0x00\n        /* \"#utility.yul\":14958:14964   */\n      dup3\n        /* \"#utility.yul\":14954:14968   */\n      add\n        /* \"#utility.yul\":14947:14988   */\n      mstore\n        /* \"#utility.yul\":14830:14995   */\n      pop\n      jump\t// out\n        /* \"#utility.yul\":15001:15367   */\n    tag_147:\n        /* \"#utility.yul\":15143:15146   */\n      0x00\n        /* \"#utility.yul\":15164:15231   */\n      tag_263\n        /* \"#utility.yul\":15228:15230   */\n      0x0f\n        /* \"#utility.yul\":15223:15226   */\n      dup4\n        /* \"#utility.yul\":15164:15231   */\n      tag_116\n      jump\t// in\n    tag_263:\n        /* \"#utility.yul\":15157:15231   */\n      swap2\n      pop\n        /* \"#utility.yul\":15240:15333   */\n      tag_264\n        /* \"#utility.yul\":15329:15332   */\n      dup3\n        /* \"#utility.yul\":15240:15333   */\n      tag_146\n      jump\t// in\n    tag_264:\n        /* \"#utility.yul\":15358:15360   */\n      0x20\n        /* \"#utility.yul\":15353:15356   */\n      dup3\n        /* \"#utility.yul\":15349:15361   */\n      add\n        /* \"#utility.yul\":15342:15361   */\n      swap1\n      pop\n        /* \"#utility.yul\":15001:15367   */\n      swap2\n      swap1\n      pop\n      jump\t// out\n        /* \"#utility.yul\":15373:15792   */\n    tag_93:\n        /* \"#utility.yul\":15539:15543   */\n      0x00\n        /* \"#utility.yul\":15577:15579   */\n      0x20\n        /* \"#utility.yul\":15566:15575   */\n      dup3\n        /* \"#utility.yul\":15562:15580   */\n      add\n        /* \"#utility.yul\":15554:15580   */\n      swap1\n      pop\n        /* \"#utility.yul\":15626:15635   */\n      dup2\n        /* \"#utility.yul\":15620:15624   */\n      dup2\n        /* \"#utility.yul\":15616:15636   */\n      sub\n        /* \"#utility.yul\":15612:15613   */\n      0x00\n        /* \"#utility.yul\":15601:15610   */\n      dup4\n        /* \"#utility.yul\":15597:15614   */\n      add\n        /* \"#utility.yul\":15590:15637   */\n      mstore\n        /* \"#utility.yul\":15654:15785   */\n      tag_266\n        /* \"#utility.yul\":15780:15784   */\n      dup2\n        /* \"#utility.yul\":15654:15785   */\n      tag_147\n      jump\t// in\n    tag_266:\n        /* \"#utility.yul\":15646:15785   */\n      swap1\n      pop\n        /* \"#utility.yul\":15373:15792   */\n      swap2\n      swap1\n      pop\n      jump\t// out\n        /* \"#utility.yul\":15798:15963   */\n    tag_148:\n        /* \"#utility.yul\":15938:15955   */\n      0x5465737420393030206661696c65640000000000000000000000000000000000\n        /* \"#utility.yul\":15934:15935   */\n      0x00\n        /* \"#utility.yul\":15926:15932   */\n      dup3\n        /* \"#utility.yul\":15922:15936   */\n      add\n        /* \"#utility.yul\":15915:15956   */\n      mstore\n        /* \"#utility.yul\":15798:15963   */\n      pop\n      jump\t// out\n        /* \"#utility.yul\":15969:16335   */\n    tag_149:\n        /* \"#utility.yul\":16111:16114   */\n      0x00\n        /* \"#utility.yul\":16132:16199   */\n      tag_269\n        /* \"#utility.yul\":16196:16198   */\n      0x0f\n        /* \"#utility.yul\":16191:16194   */\n      dup4\n        /* \"#utility.yul\":16132:16199   */\n      tag_116\n      jump\t// in\n    tag_269:\n        /* \"#utility.yul\":16125:16199   */\n      swap2\n      pop\n        /* \"#utility.yul\":16208:16301   */\n      tag_270\n        /* \"#utility.yul\":16297:16300   */\n      dup3\n        /* \"#utility.yul\":16208:16301   */\n      tag_148\n      jump\t// in\n    tag_270:\n        /* \"#utility.yul\":16326:16328   */\n      0x20\n        /* \"#utility.yul\":16321:16324   */\n      dup3\n        /* \"#utility.yul\":16317:16329   */\n      add\n        /* \"#utility.yul\":16310:16329   */\n      swap1\n      pop\n        /* \"#utility.yul\":15969:16335   */\n      swap2\n      swap1\n      pop\n      jump\t// out\n        /* \"#utility.yul\":16341:16760   */\n    tag_97:\n        /* \"#utility.yul\":16507:16511   */\n      0x00\n        /* \"#utility.yul\":16545:16547   */\n      0x20\n        /* \"#utility.yul\":16534:16543   */\n      dup3\n        /* \"#utility.yul\":16530:16548   */\n      add\n        /* \"#utility.yul\":16522:16548   */\n      swap1\n      pop\n        /* \"#utility.yul\":16594:16603   */\n      dup2\n        /* \"#utility.yul\":16588:16592   */\n      dup2\n        /* \"#utility.yul\":16584:16604   */\n      sub\n        /* \"#utility.yul\":16580:16581   */\n      0x00\n        /* \"#utility.yul\":16569:16578   */\n      dup4\n        /* \"#utility.yul\":16565:16582   */\n      add\n        /* \"#utility.yul\":16558:16605   */\n      mstore\n        /* \"#utility.yul\":16622:16753   */\n      tag_272\n        /* \"#utility.yul\":16748:16752   */\n      dup2\n        /* \"#utility.yul\":16622:16753   */\n      tag_149\n      jump\t// in\n    tag_272:\n        /* \"#utility.yul\":16614:16753   */\n      swap1\n      pop\n        /* \"#utility.yul\":16341:16760   */\n      swap2\n      swap1\n      pop\n      jump\t// out\n\n    auxdata: 0xa26469706673582212202a6fcf34ccbdb5121d1868a199f1b1b75ef9579de750581daf595ee407ae38b564736f6c634300081e0033\n}\n",
				"bytecode": {
					"linkReferences": {},
					"object": "6080604052348015600e575f5ffd5b506113cd8061001c5f395ff3fe608060405234801561000f575f5ffd5b5060043610610034575f3560e01c80630cbc513a14610038578063c5b4220a14610068575b5f5ffd5b610052600480360381019061004d9190610c39565b610072565b60405161005f9190610cd4565b60405180910390f35b6100706105cc565b005b60605f821180156100845750610fa082105b6100c3576040517f08c379a00000000000000000000000000000000000000000000000000000000081526004016100ba90610d3e565b60405180910390fd5b5f601467ffffffffffffffff8111156100df576100de610d5c565b5b6040519080825280601f01601f1916602001820160405280156101115781602001600182028036833780820191505090505b5090505f5f90505f604051806101a001604052806040518060400160405280600181526020017f4d0000000000000000000000000000000000000000000000000000000000000081525081526020016040518060400160405280600281526020017f434d00000000000000000000000000000000000000000000000000000000000081525081526020016040518060400160405280600181526020017f440000000000000000000000000000000000000000000000000000000000000081525081526020016040518060400160405280600281526020017f434400000000000000000000000000000000000000000000000000000000000081525081526020016040518060400160405280600181526020017f430000000000000000000000000000000000000000000000000000000000000081525081526020016040518060400160405280600281526020017f584300000000000000000000000000000000000000000000000000000000000081525081526020016040518060400160405280600181526020017f4c0000000000000000000000000000000000000000000000000000000000000081525081526020016040518060400160405280600281526020017f584c00000000000000000000000000000000000000000000000000000000000081525081526020016040518060400160405280600181526020017f580000000000000000000000000000000000000000000000000000000000000081525081526020016040518060400160405280600281526020017f495800000000000000000000000000000000000000000000000000000000000081525081526020016040518060400160405280600181526020017f560000000000000000000000000000000000000000000000000000000000000081525081526020016040518060400160405280600281526020017f495600000000000000000000000000000000000000000000000000000000000081525081526020016040518060400160405280600181526020017f490000000000000000000000000000000000000000000000000000000000000081525081525090505f604051806101a001604052806103e8815260200161038481526020016101f48152602001610190815260200160648152602001605a81526020016032815260200160288152602001600a8152602001600981526020016005815260200160048152602001600181525090505f5f90505b600d811015610597575b8181600d81106104b2576104b1610d89565b5b6020020151871061058a575f8382600d81106104d1576104d0610d89565b5b602002015190505f5f90505b815181101561055e578181815181106104f9576104f8610d89565b5b602001015160f81c60f81b87878061051090610de3565b98508151811061052357610522610d89565b5b60200101907effffffffffffffffffffffffffffffffffffffffffffffffffffffffffffff191690815f1a90535080806001019150506104dd565b508282600d811061057257610571610d89565b5b6020020151886105829190610e2a565b97505061049f565b8080600101915050610495565b506105a28484610b2c565b6040516020016105b29190610ea1565b604051602081830303815290604052945050505050919050565b7f8d61ecf6e15472e15b1a0f63cd77f62aa57e6edcd3871d7a841f1056fb42b2166105f76001610072565b805190602001201461063e576040517f08c379a000000000000000000000000000000000000000000000000000000000815260040161063590610f01565b60405180910390fd5b7fb9a629357ee888a8160a94f13bc67eee0b628378e0a1d6c6fb8228cdb110e1c16106696004610072565b80519060200120146106b0576040517f08c379a00000000000000000000000000000000000000000000000000000000081526004016106a790610f69565b60405180910390fd5b7f8d3138f19c1a9314595f9b3cc90655039b6dca0eb4d2aad661982dc541acf1006106db6009610072565b8051906020012014610722576040517f08c379a000000000000000000000000000000000000000000000000000000000815260040161071990610fd1565b60405180910390fd5b7ff6b9221ae78d1c6c9bfaf1530a813591f1cc5e53b5e7a2a250f3b6d8c68468c861074d603a610072565b8051906020012014610794576040517f08c379a000000000000000000000000000000000000000000000000000000000815260040161078b90611039565b60405180910390fd5b7f464f2ebc129974b4c1acd876a9ff7243540701f0c45ed5c5ba25e8c27c3819866107c06107ca610072565b8051906020012014610807576040517f08c379a00000000000000000000000000000000000000000000000000000000081526004016107fe906110a1565b60405180910390fd5b7f8ced2a3e07213ae691433c01e3f9960965e8ab3818fc599fca936470a31fea9a610833610f9f610072565b805190602001201461087a576040517f08c379a000000000000000000000000000000000000000000000000000000000815260040161087190611109565b60405180910390fd5b7f7d61fdc86cb928ea48fbf22d28ed5341c2e6a2599c550270b824b71dfa078d066108a66103e8610072565b80519060200120146108ed576040517f08c379a00000000000000000000000000000000000000000000000000000000081526004016108e490611171565b60405180910390fd5b7f6d475070e602b8fa8b802c92f416ef84275c46f9aeeec5c45d5b93b727a17411610919610378610072565b8051906020012014610960576040517f08c379a0000000000000000000000000000000000000000000000000000000008152600401610957906111d9565b60405180910390fd5b7f08d2aa18ba461c96451f90d2ec3165881a833f7b088eae200b23e2b1c998396361098b6028610072565b80519060200120146109d2576040517f08c379a00000000000000000000000000000000000000000000000000000000081526004016109c990611241565b60405180910390fd5b7fc3555988766b1b6bb3aab6566fdb20affbdb650245be21249ed142e541b4a7136109fd605a610072565b8051906020012014610a44576040517f08c379a0000000000000000000000000000000000000000000000000000000008152600401610a3b906112a9565b60405180910390fd5b7fa499039395a08f93b5a7c0782af79a512deb346fe812a2047d3b079fef7e73d0610a70610190610072565b8051906020012014610ab7576040517f08c379a0000000000000000000000000000000000000000000000000000000008152600401610aae90611311565b60405180910390fd5b7f743bb89e9e76a12c9d136fe68233ca6d6f07c6bb50b1eec887dc29c79475cc6b610ae3610384610072565b8051906020012014610b2a576040517f08c379a0000000000000000000000000000000000000000000000000000000008152600401610b2190611379565b60405180910390fd5b565b60605f8267ffffffffffffffff811115610b4957610b48610d5c565b5b6040519080825280601f01601f191660200182016040528015610b7b5781602001600182028036833780820191505090505b5090505f5f90505b83811015610bf757848181518110610b9e57610b9d610d89565b5b602001015160f81c60f81b828281518110610bbc57610bbb610d89565b5b60200101907effffffffffffffffffffffffffffffffffffffffffffffffffffffffffffff191690815f1a9053508080600101915050610b83565b508091505092915050565b5f5ffd5b5f819050919050565b610c1881610c06565b8114610c22575f5ffd5b50565b5f81359050610c3381610c0f565b92915050565b5f60208284031215610c4e57610c4d610c02565b5b5f610c5b84828501610c25565b91505092915050565b5f81519050919050565b5f82825260208201905092915050565b8281835e5f83830152505050565b5f601f19601f8301169050919050565b5f610ca682610c64565b610cb08185610c6e565b9350610cc0818560208601610c7e565b610cc981610c8c565b840191505092915050565b5f6020820190508181035f830152610cec8184610c9c565b905092915050565b7f496e707574206d75737420626520312d333939390000000000000000000000005f82015250565b5f610d28601483610c6e565b9150610d3382610cf4565b602082019050919050565b5f6020820190508181035f830152610d5581610d1c565b9050919050565b7f4e487b71000000000000000000000000000000000000000000000000000000005f52604160045260245ffd5b7f4e487b71000000000000000000000000000000000000000000000000000000005f52603260045260245ffd5b7f4e487b71000000000000000000000000000000000000000000000000000000005f52601160045260245ffd5b5f610ded82610c06565b91507fffffffffffffffffffffffffffffffffffffffffffffffffffffffffffffffff8203610e1f57610e1e610db6565b5b600182019050919050565b5f610e3482610c06565b9150610e3f83610c06565b9250828203905081811115610e5757610e56610db6565b5b92915050565b5f81519050919050565b5f81905092915050565b5f610e7b82610e5d565b610e858185610e67565b9350610e95818560208601610c7e565b80840191505092915050565b5f610eac8284610e71565b915081905092915050565b7f546573742031206661696c6564000000000000000000000000000000000000005f82015250565b5f610eeb600d83610c6e565b9150610ef682610eb7565b602082019050919050565b5f6020820190508181035f830152610f1881610edf565b9050919050565b7f546573742034206661696c6564000000000000000000000000000000000000005f82015250565b5f610f53600d83610c6e565b9150610f5e82610f1f565b602082019050919050565b5f6020820190508181035f830152610f8081610f47565b9050919050565b7f546573742039206661696c6564000000000000000000000000000000000000005f82015250565b5f610fbb600d83610c6e565b9150610fc682610f87565b602082019050919050565b5f6020820190508181035f830152610fe881610faf565b9050919050565b7f54657374203538206661696c65640000000000000000000000000000000000005f82015250565b5f611023600e83610c6e565b915061102e82610fef565b602082019050919050565b5f6020820190508181035f83015261105081611017565b9050919050565b7f546573742031393934206661696c6564000000000000000000000000000000005f82015250565b5f61108b601083610c6e565b915061109682611057565b602082019050919050565b5f6020820190508181035f8301526110b88161107f565b9050919050565b7f546573742033393939206661696c6564000000000000000000000000000000005f82015250565b5f6110f3601083610c6e565b91506110fe826110bf565b602082019050919050565b5f6020820190508181035f830152611120816110e7565b9050919050565b7f546573742031303030206661696c6564000000000000000000000000000000005f82015250565b5f61115b601083610c6e565b915061116682611127565b602082019050919050565b5f6020820190508181035f8301526111888161114f565b9050919050565b7f5465737420383838206661696c656400000000000000000000000000000000005f82015250565b5f6111c3600f83610c6e565b91506111ce8261118f565b602082019050919050565b5f6020820190508181035f8301526111f0816111b7565b9050919050565b7f54657374203430206661696c65640000000000000000000000000000000000005f82015250565b5f61122b600e83610c6e565b9150611236826111f7565b602082019050919050565b5f6020820190508181035f8301526112588161121f565b9050919050565b7f54657374203930206661696c65640000000000000000000000000000000000005f82015250565b5f611293600e83610c6e565b915061129e8261125f565b602082019050919050565b5f6020820190508181035f8301526112c081611287565b9050919050565b7f5465737420343030206661696c656400000000000000000000000000000000005f82015250565b5f6112fb600f83610c6e565b9150611306826112c7565b602082019050919050565b5f6020820190508181035f830152611328816112ef565b9050919050565b7f5465737420393030206661696c656400000000000000000000000000000000005f82015250565b5f611363600f83610c6e565b915061136e8261132f565b602082019050919050565b5f6020820190508181035f83015261139081611357565b905091905056fea26469706673582212202a6fcf34ccbdb5121d1868a199f1b1b75ef9579de750581daf595ee407ae38b564736f6c634300081e0033",
					"opcodes": "PUSH1 0x80 PUSH1 0x40 MSTORE CALLVALUE DUP1 ISZERO PUSH1 0xE JUMPI PUSH0 PUSH0 REVERT JUMPDEST POP PUSH2 0x13CD DUP1 PUSH2 0x1C PUSH0 CODECOPY PUSH0 RETURN INVALID PUSH1 0x80 PUSH1 0x40 MSTORE CALLVALUE DUP1 ISZERO PUSH2 0xF JUMPI PUSH0 PUSH0 REVERT JUMPDEST POP PUSH1 0x4 CALLDATASIZE LT PUSH2 0x34 JUMPI PUSH0 CALLDATALOAD PUSH1 0xE0 SHR DUP1 PUSH4 0xCBC513A EQ PUSH2 0x38 JUMPI DUP1 PUSH4 0xC5B4220A EQ PUSH2 0x68 JUMPI JUMPDEST PUSH0 PUSH0 REVERT JUMPDEST PUSH2 0x52 PUSH1 0x4 DUP1 CALLDATASIZE SUB DUP2 ADD SWAP1 PUSH2 0x4D SWAP2 SWAP1 PUSH2 0xC39 JUMP JUMPDEST PUSH2 0x72 JUMP JUMPDEST PUSH1 0x40 MLOAD PUSH2 0x5F SWAP2 SWAP1 PUSH2 0xCD4 JUMP JUMPDEST PUSH1 0x40 MLOAD DUP1 SWAP2 SUB SWAP1 RETURN JUMPDEST PUSH2 0x70 PUSH2 0x5CC JUMP JUMPDEST STOP JUMPDEST PUSH1 0x60 PUSH0 DUP3 GT DUP1 ISZERO PUSH2 0x84 JUMPI POP PUSH2 0xFA0 DUP3 LT JUMPDEST PUSH2 0xC3 JUMPI PUSH1 0x40 MLOAD PUSH32 0x8C379A000000000000000000000000000000000000000000000000000000000 DUP2 MSTORE PUSH1 0x4 ADD PUSH2 0xBA SWAP1 PUSH2 0xD3E JUMP JUMPDEST PUSH1 0x40 MLOAD DUP1 SWAP2 SUB SWAP1 REVERT JUMPDEST PUSH0 PUSH1 0x14 PUSH8 0xFFFFFFFFFFFFFFFF DUP2 GT ISZERO PUSH2 0xDF JUMPI PUSH2 0xDE PUSH2 0xD5C JUMP JUMPDEST JUMPDEST PUSH1 0x40 MLOAD SWAP1 DUP1 DUP3 MSTORE DUP1 PUSH1 0x1F ADD PUSH1 0x1F NOT AND PUSH1 0x20 ADD DUP3 ADD PUSH1 0x40 MSTORE DUP1 ISZERO PUSH2 0x111 JUMPI DUP2 PUSH1 0x20 ADD PUSH1 0x1 DUP3 MUL DUP1 CALLDATASIZE DUP4 CALLDATACOPY DUP1 DUP3 ADD SWAP2 POP POP SWAP1 POP JUMPDEST POP SWAP1 POP PUSH0 PUSH0 SWAP1 POP PUSH0 PUSH1 0x40 MLOAD DUP1 PUSH2 0x1A0 ADD PUSH1 0x40 MSTORE DUP1 PUSH1 0x40 MLOAD DUP1 PUSH1 0x40 ADD PUSH1 0x40 MSTORE DUP1 PUSH1 0x1 DUP2 MSTORE PUSH1 0x20 ADD PUSH32 0x4D00000000000000000000000000000000000000000000000000000000000000 DUP2 MSTORE POP DUP2 MSTORE PUSH1 0x20 ADD PUSH1 0x40 MLOAD DUP1 PUSH1 0x40 ADD PUSH1 0x40 MSTORE DUP1 PUSH1 0x2 DUP2 MSTORE PUSH1 0x20 ADD PUSH32 0x434D000000000000000000000000000000000000000000000000000000000000 DUP2 MSTORE POP DUP2 MSTORE PUSH1 0x20 ADD PUSH1 0x40 MLOAD DUP1 PUSH1 0x40 ADD PUSH1 0x40 MSTORE DUP1 PUSH1 0x1 DUP2 MSTORE PUSH1 0x20 ADD PUSH32 0x4400000000000000000000000000000000000000000000000000000000000000 DUP2 MSTORE POP DUP2 MSTORE PUSH1 0x20 ADD PUSH1 0x40 MLOAD DUP1 PUSH1 0x40 ADD PUSH1 0x40 MSTORE DUP1 PUSH1 0x2 DUP2 MSTORE PUSH1 0x20 ADD PUSH32 0x4344000000000000000000000000000000000000000000000000000000000000 DUP2 MSTORE POP DUP2 MSTORE PUSH1 0x20 ADD PUSH1 0x40 MLOAD DUP1 PUSH1 0x40 ADD PUSH1 0x40 MSTORE DUP1 PUSH1 0x1 DUP2 MSTORE PUSH1 0x20 ADD PUSH32 0x4300000000000000000000000000000000000000000000000000000000000000 DUP2 MSTORE POP DUP2 MSTORE PUSH1 0x20 ADD PUSH1 0x40 MLOAD DUP1 PUSH1 0x40 ADD PUSH1 0x40 MSTORE DUP1 PUSH1 0x2 DUP2 MSTORE PUSH1 0x20 ADD PUSH32 0x5843000000000000000000000000000000000000000000000000000000000000 DUP2 MSTORE POP DUP2 MSTORE PUSH1 0x20 ADD PUSH1 0x40 MLOAD DUP1 PUSH1 0x40 ADD PUSH1 0x40 MSTORE DUP1 PUSH1 0x1 DUP2 MSTORE PUSH1 0x20 ADD PUSH32 0x4C00000000000000000000000000000000000000000000000000000000000000 DUP2 MSTORE POP DUP2 MSTORE PUSH1 0x20 ADD PUSH1 0x40 MLOAD DUP1 PUSH1 0x40 ADD PUSH1 0x40 MSTORE DUP1 PUSH1 0x2 DUP2 MSTORE PUSH1 0x20 ADD PUSH32 0x584C000000000000000000000000000000000000000000000000000000000000 DUP2 MSTORE POP DUP2 MSTORE PUSH1 0x20 ADD PUSH1 0x40 MLOAD DUP1 PUSH1 0x40 ADD PUSH1 0x40 MSTORE DUP1 PUSH1 0x1 DUP2 MSTORE PUSH1 0x20 ADD PUSH32 0x5800000000000000000000000000000000000000000000000000000000000000 DUP2 MSTORE POP DUP2 MSTORE PUSH1 0x20 ADD PUSH1 0x40 MLOAD DUP1 PUSH1 0x40 ADD PUSH1 0x40 MSTORE DUP1 PUSH1 0x2 DUP2 MSTORE PUSH1 0x20 ADD PUSH32 0x4958000000000000000000000000000000000000000000000000000000000000 DUP2 MSTORE POP DUP2 MSTORE PUSH1 0x20 ADD PUSH1 0x40 MLOAD DUP1 PUSH1 0x40 ADD PUSH1 0x40 MSTORE DUP1 PUSH1 0x1 DUP2 MSTORE PUSH1 0x20 ADD PUSH32 0x5600000000000000000000000000000000000000000000000000000000000000 DUP2 MSTORE POP DUP2 MSTORE PUSH1 0x20 ADD PUSH1 0x40 MLOAD DUP1 PUSH1 0x40 ADD PUSH1 0x40 MSTORE DUP1 PUSH1 0x2 DUP2 MSTORE PUSH1 0x20 ADD PUSH32 0x4956000000000000000000000000000000000000000000000000000000000000 DUP2 MSTORE POP DUP2 MSTORE PUSH1 0x20 ADD PUSH1 0x40 MLOAD DUP1 PUSH1 0x40 ADD PUSH1 0x40 MSTORE DUP1 PUSH1 0x1 DUP2 MSTORE PUSH1 0x20 ADD PUSH32 0x4900000000000000000000000000000000000000000000000000000000000000 DUP2 MSTORE POP DUP2 MSTORE POP SWAP1 POP PUSH0 PUSH1 0x40 MLOAD DUP1 PUSH2 0x1A0 ADD PUSH1 0x40 MSTORE DUP1 PUSH2 0x3E8 DUP2 MSTORE PUSH1 0x20 ADD PUSH2 0x384 DUP2 MSTORE PUSH1 0x20 ADD PUSH2 0x1F4 DUP2 MSTORE PUSH1 0x20 ADD PUSH2 0x190 DUP2 MSTORE PUSH1 0x20 ADD PUSH1 0x64 DUP2 MSTORE PUSH1 0x20 ADD PUSH1 0x5A DUP2 MSTORE PUSH1 0x20 ADD PUSH1 0x32 DUP2 MSTORE PUSH1 0x20 ADD PUSH1 0x28 DUP2 MSTORE PUSH1 0x20 ADD PUSH1 0xA DUP2 MSTORE PUSH1 0x20 ADD PUSH1 0x9 DUP2 MSTORE PUSH1 0x20 ADD PUSH1 0x5 DUP2 MSTORE PUSH1 0x20 ADD PUSH1 0x4 DUP2 MSTORE PUSH1 0x20 ADD PUSH1 0x1 DUP2 MSTORE POP SWAP1 POP PUSH0 PUSH0 SWAP1 POP JUMPDEST PUSH1 0xD DUP2 LT ISZERO PUSH2 0x597 JUMPI JUMPDEST DUP2 DUP2 PUSH1 0xD DUP2 LT PUSH2 0x4B2 JUMPI PUSH2 0x4B1 PUSH2 0xD89 JUMP JUMPDEST JUMPDEST PUSH1 0x20 MUL ADD MLOAD DUP8 LT PUSH2 0x58A JUMPI PUSH0 DUP4 DUP3 PUSH1 0xD DUP2 LT PUSH2 0x4D1 JUMPI PUSH2 0x4D0 PUSH2 0xD89 JUMP JUMPDEST JUMPDEST PUSH1 0x20 MUL ADD MLOAD SWAP1 POP PUSH0 PUSH0 SWAP1 POP JUMPDEST DUP2 MLOAD DUP2 LT ISZERO PUSH2 0x55E JUMPI DUP2 DUP2 DUP2 MLOAD DUP2 LT PUSH2 0x4F9 JUMPI PUSH2 0x4F8 PUSH2 0xD89 JUMP JUMPDEST JUMPDEST PUSH1 0x20 ADD ADD MLOAD PUSH1 0xF8 SHR PUSH1 0xF8 SHL DUP8 DUP8 DUP1 PUSH2 0x510 SWAP1 PUSH2 0xDE3 JUMP JUMPDEST SWAP9 POP DUP2 MLOAD DUP2 LT PUSH2 0x523 JUMPI PUSH2 0x522 PUSH2 0xD89 JUMP JUMPDEST JUMPDEST PUSH1 0x20 ADD ADD SWAP1 PUSH31 0xFFFFFFFFFFFFFFFFFFFFFFFFFFFFFFFFFFFFFFFFFFFFFFFFFFFFFFFFFFFFFF NOT AND SWAP1 DUP2 PUSH0 BYTE SWAP1 MSTORE8 POP DUP1 DUP1 PUSH1 0x1 ADD SWAP2 POP POP PUSH2 0x4DD JUMP JUMPDEST POP DUP3 DUP3 PUSH1 0xD DUP2 LT PUSH2 0x572 JUMPI PUSH2 0x571 PUSH2 0xD89 JUMP JUMPDEST JUMPDEST PUSH1 0x20 MUL ADD MLOAD DUP9 PUSH2 0x582 SWAP2 SWAP1 PUSH2 0xE2A JUMP JUMPDEST SWAP8 POP POP PUSH2 0x49F JUMP JUMPDEST DUP1 DUP1 PUSH1 0x1 ADD SWAP2 POP POP PUSH2 0x495 JUMP JUMPDEST POP PUSH2 0x5A2 DUP5 DUP5 PUSH2 0xB2C JUMP JUMPDEST PUSH1 0x40 MLOAD PUSH1 0x20 ADD PUSH2 0x5B2 SWAP2 SWAP1 PUSH2 0xEA1 JUMP JUMPDEST PUSH1 0x40 MLOAD PUSH1 0x20 DUP2 DUP4 SUB SUB DUP2 MSTORE SWAP1 PUSH1 0x40 MSTORE SWAP5 POP POP POP POP POP SWAP2 SWAP1 POP JUMP JUMPDEST PUSH32 0x8D61ECF6E15472E15B1A0F63CD77F62AA57E6EDCD3871D7A841F1056FB42B216 PUSH2 0x5F7 PUSH1 0x1 PUSH2 0x72 JUMP JUMPDEST DUP1 MLOAD SWAP1 PUSH1 0x20 ADD KECCAK256 EQ PUSH2 0x63E JUMPI PUSH1 0x40 MLOAD PUSH32 0x8C379A000000000000000000000000000000000000000000000000000000000 DUP2 MSTORE PUSH1 0x4 ADD PUSH2 0x635 SWAP1 PUSH2 0xF01 JUMP JUMPDEST PUSH1 0x40 MLOAD DUP1 SWAP2 SUB SWAP1 REVERT JUMPDEST PUSH32 0xB9A629357EE888A8160A94F13BC67EEE0B628378E0A1D6C6FB8228CDB110E1C1 PUSH2 0x669 PUSH1 0x4 PUSH2 0x72 JUMP JUMPDEST DUP1 MLOAD SWAP1 PUSH1 0x20 ADD KECCAK256 EQ PUSH2 0x6B0 JUMPI PUSH1 0x40 MLOAD PUSH32 0x8C379A000000000000000000000000000000000000000000000000000000000 DUP2 MSTORE PUSH1 0x4 ADD PUSH2 0x6A7 SWAP1 PUSH2 0xF69 JUMP JUMPDEST PUSH1 0x40 MLOAD DUP1 SWAP2 SUB SWAP1 REVERT JUMPDEST PUSH32 0x8D3138F19C1A9314595F9B3CC90655039B6DCA0EB4D2AAD661982DC541ACF100 PUSH2 0x6DB PUSH1 0x9 PUSH2 0x72 JUMP JUMPDEST DUP1 MLOAD SWAP1 PUSH1 0x20 ADD KECCAK256 EQ PUSH2 0x722 JUMPI PUSH1 0x40 MLOAD PUSH32 0x8C379A000000000000000000000000000000000000000000000000000000000 DUP2 MSTORE PUSH1 0x4 ADD PUSH2 0x719 SWAP1 PUSH2 0xFD1 JUMP JUMPDEST PUSH1 0x40 MLOAD DUP1 SWAP2 SUB SWAP1 REVERT JUMPDEST PUSH32 0xF6B9221AE78D1C6C9BFAF1530A813591F1CC5E53B5E7A2A250F3B6D8C68468C8 PUSH2 0x74D PUSH1 0x3A PUSH2 0x72 JUMP JUMPDEST DUP1 MLOAD SWAP1 PUSH1 0x20 ADD KECCAK256 EQ PUSH2 0x794 JUMPI PUSH1 0x40 MLOAD PUSH32 0x8C379A000000000000000000000000000000000000000000000000000000000 DUP2 MSTORE PUSH1 0x4 ADD PUSH2 0x78B SWAP1 PUSH2 0x1039 JUMP JUMPDEST PUSH1 0x40 MLOAD DUP1 SWAP2 SUB SWAP1 REVERT JUMPDEST PUSH32 0x464F2EBC129974B4C1ACD876A9FF7243540701F0C45ED5C5BA25E8C27C381986 PUSH2 0x7C0 PUSH2 0x7CA PUSH2 0x72 JUMP JUMPDEST DUP1 MLOAD SWAP1 PUSH1 0x20 ADD KECCAK256 EQ PUSH2 0x807 JUMPI PUSH1 0x40 MLOAD PUSH32 0x8C379A000000000000000000000000000000000000000000000000000000000 DUP2 MSTORE PUSH1 0x4 ADD PUSH2 0x7FE SWAP1 PUSH2 0x10A1 JUMP JUMPDEST PUSH1 0x40 MLOAD DUP1 SWAP2 SUB SWAP1 REVERT JUMPDEST PUSH32 0x8CED2A3E07213AE691433C01E3F9960965E8AB3818FC599FCA936470A31FEA9A PUSH2 0x833 PUSH2 0xF9F PUSH2 0x72 JUMP JUMPDEST DUP1 MLOAD SWAP1 PUSH1 0x20 ADD KECCAK256 EQ PUSH2 0x87A JUMPI PUSH1 0x40 MLOAD PUSH32 0x8C379A000000000000000000000000000000000000000000000000000000000 DUP2 MSTORE PUSH1 0x4 ADD PUSH2 0x871 SWAP1 PUSH2 0x1109 JUMP JUMPDEST PUSH1 0x40 MLOAD DUP1 SWAP2 SUB SWAP1 REVERT JUMPDEST PUSH32 0x7D61FDC86CB928EA48FBF22D28ED5341C2E6A2599C550270B824B71DFA078D06 PUSH2 0x8A6 PUSH2 0x3E8 PUSH2 0x72 JUMP JUMPDEST DUP1 MLOAD SWAP1 PUSH1 0x20 ADD KECCAK256 EQ PUSH2 0x8ED JUMPI PUSH1 0x40 MLOAD PUSH32 0x8C379A000000000000000000000000000000000000000000000000000000000 DUP2 MSTORE PUSH1 0x4 ADD PUSH2 0x8E4 SWAP1 PUSH2 0x1171 JUMP JUMPDEST PUSH1 0x40 MLOAD DUP1 SWAP2 SUB SWAP1 REVERT JUMPDEST PUSH32 0x6D475070E602B8FA8B802C92F416EF84275C46F9AEEEC5C45D5B93B727A17411 PUSH2 0x919 PUSH2 0x378 PUSH2 0x72 JUMP JUMPDEST DUP1 MLOAD SWAP1 PUSH1 0x20 ADD KECCAK256 EQ PUSH2 0x960 JUMPI PUSH1 0x40 MLOAD PUSH32 0x8C379A000000000000000000000000000000000000000000000000000000000 DUP2 MSTORE PUSH1 0x4 ADD PUSH2 0x957 SWAP1 PUSH2 0x11D9 JUMP JUMPDEST PUSH1 0x40 MLOAD DUP1 SWAP2 SUB SWAP1 REVERT JUMPDEST PUSH32 0x8D2AA18BA461C96451F90D2EC3165881A833F7B088EAE200B23E2B1C9983963 PUSH2 0x98B PUSH1 0x28 PUSH2 0x72 JUMP JUMPDEST DUP1 MLOAD SWAP1 PUSH1 0x20 ADD KECCAK256 EQ PUSH2 0x9D2 JUMPI PUSH1 0x40 MLOAD PUSH32 0x8C379A000000000000000000000000000000000000000000000000000000000 DUP2 MSTORE PUSH1 0x4 ADD PUSH2 0x9C9 SWAP1 PUSH2 0x1241 JUMP JUMPDEST PUSH1 0x40 MLOAD DUP1 SWAP2 SUB SWAP1 REVERT JUMPDEST PUSH32 0xC3555988766B1B6BB3AAB6566FDB20AFFBDB650245BE21249ED142E541B4A713 PUSH2 0x9FD PUSH1 0x5A PUSH2 0x72 JUMP JUMPDEST DUP1 MLOAD SWAP1 PUSH1 0x20 ADD KECCAK256 EQ PUSH2 0xA44 JUMPI PUSH1 0x40 MLOAD PUSH32 0x8C379A000000000000000000000000000000000000000000000000000000000 DUP2 MSTORE PUSH1 0x4 ADD PUSH2 0xA3B SWAP1 PUSH2 0x12A9 JUMP JUMPDEST PUSH1 0x40 MLOAD DUP1 SWAP2 SUB SWAP1 REVERT JUMPDEST PUSH32 0xA499039395A08F93B5A7C0782AF79A512DEB346FE812A2047D3B079FEF7E73D0 PUSH2 0xA70 PUSH2 0x190 PUSH2 0x72 JUMP JUMPDEST DUP1 MLOAD SWAP1 PUSH1 0x20 ADD KECCAK256 EQ PUSH2 0xAB7 JUMPI PUSH1 0x40 MLOAD PUSH32 0x8C379A000000000000000000000000000000000000000000000000000000000 DUP2 MSTORE PUSH1 0x4 ADD PUSH2 0xAAE SWAP1 PUSH2 0x1311 JUMP JUMPDEST PUSH1 0x40 MLOAD DUP1 SWAP2 SUB SWAP1 REVERT JUMPDEST PUSH32 0x743BB89E9E76A12C9D136FE68233CA6D6F07C6BB50B1EEC887DC29C79475CC6B PUSH2 0xAE3 PUSH2 0x384 PUSH2 0x72 JUMP JUMPDEST DUP1 MLOAD SWAP1 PUSH1 0x20 ADD KECCAK256 EQ PUSH2 0xB2A JUMPI PUSH1 0x40 MLOAD PUSH32 0x8C379A000000000000000000000000000000000000000000000000000000000 DUP2 MSTORE PUSH1 0x4 ADD PUSH2 0xB21 SWAP1 PUSH2 0x1379 JUMP JUMPDEST PUSH1 0x40 MLOAD DUP1 SWAP2 SUB SWAP1 REVERT JUMPDEST JUMP JUMPDEST PUSH1 0x60 PUSH0 DUP3 PUSH8 0xFFFFFFFFFFFFFFFF DUP2 GT ISZERO PUSH2 0xB49 JUMPI PUSH2 0xB48 PUSH2 0xD5C JUMP JUMPDEST JUMPDEST PUSH1 0x40 MLOAD SWAP1 DUP1 DUP3 MSTORE DUP1 PUSH1 0x1F ADD PUSH1 0x1F NOT AND PUSH1 0x20 ADD DUP3 ADD PUSH1 0x40 MSTORE DUP1 ISZERO PUSH2 0xB7B JUMPI DUP2 PUSH1 0x20 ADD PUSH1 0x1 DUP3 MUL DUP1 CALLDATASIZE DUP4 CALLDATACOPY DUP1 DUP3 ADD SWAP2 POP POP SWAP1 POP JUMPDEST POP SWAP1 POP PUSH0 PUSH0 SWAP1 POP JUMPDEST DUP4 DUP2 LT ISZERO PUSH2 0xBF7 JUMPI DUP5 DUP2 DUP2 MLOAD DUP2 LT PUSH2 0xB9E JUMPI PUSH2 0xB9D PUSH2 0xD89 JUMP JUMPDEST JUMPDEST PUSH1 0x20 ADD ADD MLOAD PUSH1 0xF8 SHR PUSH1 0xF8 SHL DUP3 DUP3 DUP2 MLOAD DUP2 LT PUSH2 0xBBC JUMPI PUSH2 0xBBB PUSH2 0xD89 JUMP JUMPDEST JUMPDEST PUSH1 0x20 ADD ADD SWAP1 PUSH31 0xFFFFFFFFFFFFFFFFFFFFFFFFFFFFFFFFFFFFFFFFFFFFFFFFFFFFFFFFFFFFFF NOT AND SWAP1 DUP2 PUSH0 BYTE SWAP1 MSTORE8 POP DUP1 DUP1 PUSH1 0x1 ADD SWAP2 POP POP PUSH2 0xB83 JUMP JUMPDEST POP DUP1 SWAP2 POP POP SWAP3 SWAP2 POP POP JUMP JUMPDEST PUSH0 PUSH0 REVERT JUMPDEST PUSH0 DUP2 SWAP1 POP SWAP2 SWAP1 POP JUMP JUMPDEST PUSH2 0xC18 DUP2 PUSH2 0xC06 JUMP JUMPDEST DUP2 EQ PUSH2 0xC22 JUMPI PUSH0 PUSH0 REVERT JUMPDEST POP JUMP JUMPDEST PUSH0 DUP2 CALLDATALOAD SWAP1 POP PUSH2 0xC33 DUP2 PUSH2 0xC0F JUMP JUMPDEST SWAP3 SWAP2 POP POP JUMP JUMPDEST PUSH0 PUSH1 0x20 DUP3 DUP5 SUB SLT ISZERO PUSH2 0xC4E JUMPI PUSH2 0xC4D PUSH2 0xC02 JUMP JUMPDEST JUMPDEST PUSH0 PUSH2 0xC5B DUP5 DUP3 DUP6 ADD PUSH2 0xC25 JUMP JUMPDEST SWAP2 POP POP SWAP3 SWAP2 POP POP JUMP JUMPDEST PUSH0 DUP2 MLOAD SWAP1 POP SWAP2 SWAP1 POP JUMP JUMPDEST PUSH0 DUP3 DUP3 MSTORE PUSH1 0x20 DUP3 ADD SWAP1 POP SWAP3 SWAP2 POP POP JUMP JUMPDEST DUP3 DUP2 DUP4 MCOPY PUSH0 DUP4 DUP4 ADD MSTORE POP POP POP JUMP JUMPDEST PUSH0 PUSH1 0x1F NOT PUSH1 0x1F DUP4 ADD AND SWAP1 POP SWAP2 SWAP1 POP JUMP JUMPDEST PUSH0 PUSH2 0xCA6 DUP3 PUSH2 0xC64 JUMP JUMPDEST PUSH2 0xCB0 DUP2 DUP6 PUSH2 0xC6E JUMP JUMPDEST SWAP4 POP PUSH2 0xCC0 DUP2 DUP6 PUSH1 0x20 DUP7 ADD PUSH2 0xC7E JUMP JUMPDEST PUSH2 0xCC9 DUP2 PUSH2 0xC8C JUMP JUMPDEST DUP5 ADD SWAP2 POP POP SWAP3 SWAP2 POP POP JUMP JUMPDEST PUSH0 PUSH1 0x20 DUP3 ADD SWAP1 POP DUP2 DUP2 SUB PUSH0 DUP4 ADD MSTORE PUSH2 0xCEC DUP2 DUP5 PUSH2 0xC9C JUMP JUMPDEST SWAP1 POP SWAP3 SWAP2 POP POP JUMP JUMPDEST PUSH32 0x496E707574206D75737420626520312D33393939000000000000000000000000 PUSH0 DUP3 ADD MSTORE POP JUMP JUMPDEST PUSH0 PUSH2 0xD28 PUSH1 0x14 DUP4 PUSH2 0xC6E JUMP JUMPDEST SWAP2 POP PUSH2 0xD33 DUP3 PUSH2 0xCF4 JUMP JUMPDEST PUSH1 0x20 DUP3 ADD SWAP1 POP SWAP2 SWAP1 POP JUMP JUMPDEST PUSH0 PUSH1 0x20 DUP3 ADD SWAP1 POP DUP2 DUP2 SUB PUSH0 DUP4 ADD MSTORE PUSH2 0xD55 DUP2 PUSH2 0xD1C JUMP JUMPDEST SWAP1 POP SWAP2 SWAP1 POP JUMP JUMPDEST PUSH32 0x4E487B7100000000000000000000000000000000000000000000000000000000 PUSH0 MSTORE PUSH1 0x41 PUSH1 0x4 MSTORE PUSH1 0x24 PUSH0 REVERT JUMPDEST PUSH32 0x4E487B7100000000000000000000000000000000000000000000000000000000 PUSH0 MSTORE PUSH1 0x32 PUSH1 0x4 MSTORE PUSH1 0x24 PUSH0 REVERT JUMPDEST PUSH32 0x4E487B7100000000000000000000000000000000000000000000000000000000 PUSH0 MSTORE PUSH1 0x11 PUSH1 0x4 MSTORE PUSH1 0x24 PUSH0 REVERT JUMPDEST PUSH0 PUSH2 0xDED DUP3 PUSH2 0xC06 JUMP JUMPDEST SWAP2 POP PUSH32 0xFFFFFFFFFFFFFFFFFFFFFFFFFFFFFFFFFFFFFFFFFFFFFFFFFFFFFFFFFFFFFFFF DUP3 SUB PUSH2 0xE1F JUMPI PUSH2 0xE1E PUSH2 0xDB6 JUMP JUMPDEST JUMPDEST PUSH1 0x1 DUP3 ADD SWAP1 POP SWAP2 SWAP1 POP JUMP JUMPDEST PUSH0 PUSH2 0xE34 DUP3 PUSH2 0xC06 JUMP JUMPDEST SWAP2 POP PUSH2 0xE3F DUP4 PUSH2 0xC06 JUMP JUMPDEST SWAP3 POP DUP3 DUP3 SUB SWAP1 POP DUP2 DUP2 GT ISZERO PUSH2 0xE57 JUMPI PUSH2 0xE56 PUSH2 0xDB6 JUMP JUMPDEST JUMPDEST SWAP3 SWAP2 POP POP JUMP JUMPDEST PUSH0 DUP2 MLOAD SWAP1 POP SWAP2 SWAP1 POP JUMP JUMPDEST PUSH0 DUP2 SWAP1 POP SWAP3 SWAP2 POP POP JUMP JUMPDEST PUSH0 PUSH2 0xE7B DUP3 PUSH2 0xE5D JUMP JUMPDEST PUSH2 0xE85 DUP2 DUP6 PUSH2 0xE67 JUMP JUMPDEST SWAP4 POP PUSH2 0xE95 DUP2 DUP6 PUSH1 0x20 DUP7 ADD PUSH2 0xC7E JUMP JUMPDEST DUP1 DUP5 ADD SWAP2 POP POP SWAP3 SWAP2 POP POP JUMP JUMPDEST PUSH0 PUSH2 0xEAC DUP3 DUP5 PUSH2 0xE71 JUMP JUMPDEST SWAP2 POP DUP2 SWAP1 POP SWAP3 SWAP2 POP POP JUMP JUMPDEST PUSH32 0x546573742031206661696C656400000000000000000000000000000000000000 PUSH0 DUP3 ADD MSTORE POP JUMP JUMPDEST PUSH0 PUSH2 0xEEB PUSH1 0xD DUP4 PUSH2 0xC6E JUMP JUMPDEST SWAP2 POP PUSH2 0xEF6 DUP3 PUSH2 0xEB7 JUMP JUMPDEST PUSH1 0x20 DUP3 ADD SWAP1 POP SWAP2 SWAP1 POP JUMP JUMPDEST PUSH0 PUSH1 0x20 DUP3 ADD SWAP1 POP DUP2 DUP2 SUB PUSH0 DUP4 ADD MSTORE PUSH2 0xF18 DUP2 PUSH2 0xEDF JUMP JUMPDEST SWAP1 POP SWAP2 SWAP1 POP JUMP JUMPDEST PUSH32 0x546573742034206661696C656400000000000000000000000000000000000000 PUSH0 DUP3 ADD MSTORE POP JUMP JUMPDEST PUSH0 PUSH2 0xF53 PUSH1 0xD DUP4 PUSH2 0xC6E JUMP JUMPDEST SWAP2 POP PUSH2 0xF5E DUP3 PUSH2 0xF1F JUMP JUMPDEST PUSH1 0x20 DUP3 ADD SWAP1 POP SWAP2 SWAP1 POP JUMP JUMPDEST PUSH0 PUSH1 0x20 DUP3 ADD SWAP1 POP DUP2 DUP2 SUB PUSH0 DUP4 ADD MSTORE PUSH2 0xF80 DUP2 PUSH2 0xF47 JUMP JUMPDEST SWAP1 POP SWAP2 SWAP1 POP JUMP JUMPDEST PUSH32 0x546573742039206661696C656400000000000000000000000000000000000000 PUSH0 DUP3 ADD MSTORE POP JUMP JUMPDEST PUSH0 PUSH2 0xFBB PUSH1 0xD DUP4 PUSH2 0xC6E JUMP JUMPDEST SWAP2 POP PUSH2 0xFC6 DUP3 PUSH2 0xF87 JUMP JUMPDEST PUSH1 0x20 DUP3 ADD SWAP1 POP SWAP2 SWAP1 POP JUMP JUMPDEST PUSH0 PUSH1 0x20 DUP3 ADD SWAP1 POP DUP2 DUP2 SUB PUSH0 DUP4 ADD MSTORE PUSH2 0xFE8 DUP2 PUSH2 0xFAF JUMP JUMPDEST SWAP1 POP SWAP2 SWAP1 POP JUMP JUMPDEST PUSH32 0x54657374203538206661696C6564000000000000000000000000000000000000 PUSH0 DUP3 ADD MSTORE POP JUMP JUMPDEST PUSH0 PUSH2 0x1023 PUSH1 0xE DUP4 PUSH2 0xC6E JUMP JUMPDEST SWAP2 POP PUSH2 0x102E DUP3 PUSH2 0xFEF JUMP JUMPDEST PUSH1 0x20 DUP3 ADD SWAP1 POP SWAP2 SWAP1 POP JUMP JUMPDEST PUSH0 PUSH1 0x20 DUP3 ADD SWAP1 POP DUP2 DUP2 SUB PUSH0 DUP4 ADD MSTORE PUSH2 0x1050 DUP2 PUSH2 0x1017 JUMP JUMPDEST SWAP1 POP SWAP2 SWAP1 POP JUMP JUMPDEST PUSH32 0x546573742031393934206661696C656400000000000000000000000000000000 PUSH0 DUP3 ADD MSTORE POP JUMP JUMPDEST PUSH0 PUSH2 0x108B PUSH1 0x10 DUP4 PUSH2 0xC6E JUMP JUMPDEST SWAP2 POP PUSH2 0x1096 DUP3 PUSH2 0x1057 JUMP JUMPDEST PUSH1 0x20 DUP3 ADD SWAP1 POP SWAP2 SWAP1 POP JUMP JUMPDEST PUSH0 PUSH1 0x20 DUP3 ADD SWAP1 POP DUP2 DUP2 SUB PUSH0 DUP4 ADD MSTORE PUSH2 0x10B8 DUP2 PUSH2 0x107F JUMP JUMPDEST SWAP1 POP SWAP2 SWAP1 POP JUMP JUMPDEST PUSH32 0x546573742033393939206661696C656400000000000000000000000000000000 PUSH0 DUP3 ADD MSTORE POP JUMP JUMPDEST PUSH0 PUSH2 0x10F3 PUSH1 0x10 DUP4 PUSH2 0xC6E JUMP JUMPDEST SWAP2 POP PUSH2 0x10FE DUP3 PUSH2 0x10BF JUMP JUMPDEST PUSH1 0x20 DUP3 ADD SWAP1 POP SWAP2 SWAP1 POP JUMP JUMPDEST PUSH0 PUSH1 0x20 DUP3 ADD SWAP1 POP DUP2 DUP2 SUB PUSH0 DUP4 ADD MSTORE PUSH2 0x1120 DUP2 PUSH2 0x10E7 JUMP JUMPDEST SWAP1 POP SWAP2 SWAP1 POP JUMP JUMPDEST PUSH32 0x546573742031303030206661696C656400000000000000000000000000000000 PUSH0 DUP3 ADD MSTORE POP JUMP JUMPDEST PUSH0 PUSH2 0x115B PUSH1 0x10 DUP4 PUSH2 0xC6E JUMP JUMPDEST SWAP2 POP PUSH2 0x1166 DUP3 PUSH2 0x1127 JUMP JUMPDEST PUSH1 0x20 DUP3 ADD SWAP1 POP SWAP2 SWAP1 POP JUMP JUMPDEST PUSH0 PUSH1 0x20 DUP3 ADD SWAP1 POP DUP2 DUP2 SUB PUSH0 DUP4 ADD MSTORE PUSH2 0x1188 DUP2 PUSH2 0x114F JUMP JUMPDEST SWAP1 POP SWAP2 SWAP1 POP JUMP JUMPDEST PUSH32 0x5465737420383838206661696C65640000000000000000000000000000000000 PUSH0 DUP3 ADD MSTORE POP JUMP JUMPDEST PUSH0 PUSH2 0x11C3 PUSH1 0xF DUP4 PUSH2 0xC6E JUMP JUMPDEST SWAP2 POP PUSH2 0x11CE DUP3 PUSH2 0x118F JUMP JUMPDEST PUSH1 0x20 DUP3 ADD SWAP1 POP SWAP2 SWAP1 POP JUMP JUMPDEST PUSH0 PUSH1 0x20 DUP3 ADD SWAP1 POP DUP2 DUP2 SUB PUSH0 DUP4 ADD MSTORE PUSH2 0x11F0 DUP2 PUSH2 0x11B7 JUMP JUMPDEST SWAP1 POP SWAP2 SWAP1 POP JUMP JUMPDEST PUSH32 0x54657374203430206661696C6564000000000000000000000000000000000000 PUSH0 DUP3 ADD MSTORE POP JUMP JUMPDEST PUSH0 PUSH2 0x122B PUSH1 0xE DUP4 PUSH2 0xC6E JUMP JUMPDEST SWAP2 POP PUSH2 0x1236 DUP3 PUSH2 0x11F7 JUMP JUMPDEST PUSH1 0x20 DUP3 ADD SWAP1 POP SWAP2 SWAP1 POP JUMP JUMPDEST PUSH0 PUSH1 0x20 DUP3 ADD SWAP1 POP DUP2 DUP2 SUB PUSH0 DUP4 ADD MSTORE PUSH2 0x1258 DUP2 PUSH2 0x121F JUMP JUMPDEST SWAP1 POP SWAP2 SWAP1 POP JUMP JUMPDEST PUSH32 0x54657374203930206661696C6564000000000000000000000000000000000000 PUSH0 DUP3 ADD MSTORE POP JUMP JUMPDEST PUSH0 PUSH2 0x1293 PUSH1 0xE DUP4 PUSH2 0xC6E JUMP JUMPDEST SWAP2 POP PUSH2 0x129E DUP3 PUSH2 0x125F JUMP JUMPDEST PUSH1 0x20 DUP3 ADD SWAP1 POP SWAP2 SWAP1 POP JUMP JUMPDEST PUSH0 PUSH1 0x20 DUP3 ADD SWAP1 POP DUP2 DUP2 SUB PUSH0 DUP4 ADD MSTORE PUSH2 0x12C0 DUP2 PUSH2 0x1287 JUMP JUMPDEST SWAP1 POP SWAP2 SWAP1 POP JUMP JUMPDEST PUSH32 0x5465737420343030206661696C65640000000000000000000000000000000000 PUSH0 DUP3 ADD MSTORE POP JUMP JUMPDEST PUSH0 PUSH2 0x12FB PUSH1 0xF DUP4 PUSH2 0xC6E JUMP JUMPDEST SWAP2 POP PUSH2 0x1306 DUP3 PUSH2 0x12C7 JUMP JUMPDEST PUSH1 0x20 DUP3 ADD SWAP1 POP SWAP2 SWAP1 POP JUMP JUMPDEST PUSH0 PUSH1 0x20 DUP3 ADD SWAP1 POP DUP2 DUP2 SUB PUSH0 DUP4 ADD MSTORE PUSH2 0x1328 DUP2 PUSH2 0x12EF JUMP JUMPDEST SWAP1 POP SWAP2 SWAP1 POP JUMP JUMPDEST PUSH32 0x5465737420393030206661696C65640000000000000000000000000000000000 PUSH0 DUP3 ADD MSTORE POP JUMP JUMPDEST PUSH0 PUSH2 0x1363 PUSH1 0xF DUP4 PUSH2 0xC6E JUMP JUMPDEST SWAP2 POP PUSH2 0x136E DUP3 PUSH2 0x132F JUMP JUMPDEST PUSH1 0x20 DUP3 ADD SWAP1 POP SWAP2 SWAP1 POP JUMP JUMPDEST PUSH0 PUSH1 0x20 DUP3 ADD SWAP1 POP DUP2 DUP2 SUB PUSH0 DUP4 ADD MSTORE PUSH2 0x1390 DUP2 PUSH2 0x1357 JUMP JUMPDEST SWAP1 POP SWAP2 SWAP1 POP JUMP INVALID LOG2 PUSH5 0x6970667358 0x22 SLT KECCAK256 0x2A PUSH16 0xCF34CCBDB5121D1868A199F1B1B75EF9 JUMPI SWAP14 SWAPN 0x50 PC SAR 0xAF MSIZE MCOPY RETF SMOD 0xAE CODESIZE 0xB5 PUSH5 0x736F6C6343 STOP ADDMOD 0x1E STOP CALLER "
				},
				"gasEstimates": {
					"creation": {
						"codeDepositCost": "1013800",
						"executionCost": "1052",
						"totalCost": "1014852"
					},
					"external": {
						"intToRoman(uint256)": "infinite",
						"testConversions()": "infinite"
					},
					"internal": {
						"trimBytes(bytes memory,uint256)": "infinite"
					}
				},
				"methodIdentifiers": {
					"intToRoman(uint256)": "0cbc513a",
					"testConversions()": "c5b4220a"
				}
			},
			"storageLayout": {
				"storage": [],
				"types": null
			},
			"userdoc": {
				"kind": "user",
				"methods": {},
				"version": 1
			}
		}
	}
}