{
	"assignments/first/05/05.sol": {
		"Merge": {
			"abi": [
				{
					"inputs": [
						{
							"internalType": "uint256[]",
							"name": "nums1",
							"type": "uint256[]"
						},
						{
							"internalType": "uint256",
							"name": "m",
							"type": "uint256"
						},
						{
							"internalType": "uint256[]",
							"name": "nums2",
							"type": "uint256[]"
						},
						{
							"internalType": "uint256",
							"name": "n",
							"type": "uint256"
						}
					],
					"name": "merge",
					"outputs": [
						{
							"internalType": "uint256[]",
							"name": "",
							"type": "uint256[]"
						}
					],
					"stateMutability": "pure",
					"type": "function"
				}
			],
			"devdoc": {
				"kind": "dev",
				"methods": {},
				"version": 1
			},
			"evm": {
				"assembly": "    /* \"assignments/first/05/05.sol\":190:1009  contract Merge {... */\n  mstore(0x40, 0x80)\n  callvalue\n  dup1\n  iszero\n  tag_1\n  jumpi\n  revert(0x00, 0x00)\ntag_1:\n  pop\n  dataSize(sub_0)\n  dup1\n  dataOffset(sub_0)\n  0x00\n  codecopy\n  0x00\n  return\nstop\n\nsub_0: assembly {\n        /* \"assignments/first/05/05.sol\":190:1009  contract Merge {... */\n      mstore(0x40, 0x80)\n      callvalue\n      dup1\n      iszero\n      tag_1\n      jumpi\n      revert(0x00, 0x00)\n    tag_1:\n      pop\n      jumpi(tag_2, lt(calldatasize, 0x04))\n      shr(0xe0, calldataload(0x00))\n      dup1\n      0xd0c42f1a\n      eq\n      tag_3\n      jumpi\n    tag_2:\n      revert(0x00, 0x00)\n        /* \"assignments/first/05/05.sol\":212:1006  function merge(uint[] memory nums1, uint m, uint[] memory nums2, uint n) public pure returns (uint[] memory)  {... */\n    tag_3:\n      tag_4\n      0x04\n      dup1\n      calldatasize\n      sub\n      dup2\n      add\n      swap1\n      tag_5\n      swap2\n      swap1\n      tag_6\n      jump\t// in\n    tag_5:\n      tag_7\n      jump\t// in\n    tag_4:\n      mload(0x40)\n      tag_8\n      swap2\n      swap1\n      tag_9\n      jump\t// in\n    tag_8:\n      mload(0x40)\n      dup1\n      swap2\n      sub\n      swap1\n      return\n    tag_7:\n        /* \"assignments/first/05/05.sol\":306:319  uint[] memory */\n      0x60\n        /* \"assignments/first/05/05.sol\":333:353  uint[] memory result */\n      0x00\n        /* \"assignments/first/05/05.sol\":371:372  n */\n      dup3\n        /* \"assignments/first/05/05.sol\":367:368  m */\n      dup6\n        /* \"assignments/first/05/05.sol\":367:372  m + n */\n      tag_11\n      swap2\n      swap1\n      tag_12\n      jump\t// in\n    tag_11:\n        /* \"assignments/first/05/05.sol\":356:373  new uint[](m + n) */\n      0xffffffffffffffff\n      dup2\n      gt\n      iszero\n      tag_13\n      jumpi\n      tag_14\n      tag_15\n      jump\t// in\n    tag_14:\n    tag_13:\n      mload(0x40)\n      swap1\n      dup1\n      dup3\n      mstore\n      dup1\n      0x20\n      mul\n      0x20\n      add\n      dup3\n      add\n      0x40\n      mstore\n      dup1\n      iszero\n      tag_16\n      jumpi\n      dup2\n      0x20\n      add\n      0x20\n      dup3\n      mul\n      dup1\n      calldatasize\n      dup4\n      calldatacopy\n      dup1\n      dup3\n      add\n      swap2\n      pop\n      pop\n      swap1\n      pop\n    tag_16:\n      pop\n        /* \"assignments/first/05/05.sol\":333:373  uint[] memory result = new uint[](m + n) */\n      swap1\n      pop\n        /* \"assignments/first/05/05.sol\":384:395  uint index1 */\n      0x00\n        /* \"assignments/first/05/05.sol\":398:399  0 */\n      0x00\n        /* \"assignments/first/05/05.sol\":384:399  uint index1 = 0 */\n      swap1\n      pop\n        /* \"assignments/first/05/05.sol\":401:412  uint index2 */\n      0x00\n        /* \"assignments/first/05/05.sol\":415:416  0 */\n      0x00\n        /* \"assignments/first/05/05.sol\":401:416  uint index2 = 0 */\n      swap1\n      pop\n        /* \"assignments/first/05/05.sol\":418:424  uint k */\n      0x00\n        /* \"assignments/first/05/05.sol\":427:428  0 */\n      0x00\n        /* \"assignments/first/05/05.sol\":418:428  uint k = 0 */\n      swap1\n      pop\n        /* \"assignments/first/05/05.sol\":439:731  while (index1 < m && index2 < n){... */\n    tag_17:\n        /* \"assignments/first/05/05.sol\":455:456  m */\n      dup8\n        /* \"assignments/first/05/05.sol\":446:452  index1 */\n      dup4\n        /* \"assignments/first/05/05.sol\":446:456  index1 < m */\n      lt\n        /* \"assignments/first/05/05.sol\":446:470  index1 < m && index2 < n */\n      dup1\n      iszero\n      tag_19\n      jumpi\n      pop\n        /* \"assignments/first/05/05.sol\":469:470  n */\n      dup6\n        /* \"assignments/first/05/05.sol\":460:466  index2 */\n      dup3\n        /* \"assignments/first/05/05.sol\":460:470  index2 < n */\n      lt\n        /* \"assignments/first/05/05.sol\":446:470  index1 < m && index2 < n */\n    tag_19:\n        /* \"assignments/first/05/05.sol\":439:731  while (index1 < m && index2 < n){... */\n      iszero\n      tag_18\n      jumpi\n        /* \"assignments/first/05/05.sol\":507:512  nums2 */\n      dup7\n        /* \"assignments/first/05/05.sol\":513:519  index2 */\n      dup3\n        /* \"assignments/first/05/05.sol\":507:520  nums2[index2] */\n      dup2\n      mload\n      dup2\n      lt\n      tag_20\n      jumpi\n      tag_21\n      tag_22\n      jump\t// in\n    tag_21:\n    tag_20:\n      0x20\n      mul\n      0x20\n      add\n      add\n      mload\n        /* \"assignments/first/05/05.sol\":490:495  nums1 */\n      dup10\n        /* \"assignments/first/05/05.sol\":496:502  index1 */\n      dup5\n        /* \"assignments/first/05/05.sol\":490:503  nums1[index1] */\n      dup2\n      mload\n      dup2\n      lt\n      tag_23\n      jumpi\n      tag_24\n      tag_22\n      jump\t// in\n    tag_24:\n    tag_23:\n      0x20\n      mul\n      0x20\n      add\n      add\n      mload\n        /* \"assignments/first/05/05.sol\":490:520  nums1[index1] <= nums2[index2] */\n      gt\n        /* \"assignments/first/05/05.sol\":486:702  if (nums1[index1] <= nums2[index2]) {... */\n      tag_25\n      jumpi\n        /* \"assignments/first/05/05.sol\":553:558  nums1 */\n      dup9\n        /* \"assignments/first/05/05.sol\":559:565  index1 */\n      dup4\n        /* \"assignments/first/05/05.sol\":553:566  nums1[index1] */\n      dup2\n      mload\n      dup2\n      lt\n      tag_26\n      jumpi\n      tag_27\n      tag_22\n      jump\t// in\n    tag_27:\n    tag_26:\n      0x20\n      mul\n      0x20\n      add\n      add\n      mload\n        /* \"assignments/first/05/05.sol\":541:547  result */\n      dup5\n        /* \"assignments/first/05/05.sol\":548:549  k */\n      dup3\n        /* \"assignments/first/05/05.sol\":541:550  result[k] */\n      dup2\n      mload\n      dup2\n      lt\n      tag_28\n      jumpi\n      tag_29\n      tag_22\n      jump\t// in\n    tag_29:\n    tag_28:\n      0x20\n      mul\n      0x20\n      add\n      add\n        /* \"assignments/first/05/05.sol\":541:566  result[k] = nums1[index1] */\n      dup2\n      dup2\n      mstore\n      pop\n      pop\n        /* \"assignments/first/05/05.sol\":585:593  index1++ */\n      dup3\n      dup1\n      tag_30\n      swap1\n      tag_31\n      jump\t// in\n    tag_30:\n      swap4\n      pop\n      pop\n        /* \"assignments/first/05/05.sol\":486:702  if (nums1[index1] <= nums2[index2]) {... */\n      jump(tag_32)\n    tag_25:\n        /* \"assignments/first/05/05.sol\":646:651  nums2 */\n      dup7\n        /* \"assignments/first/05/05.sol\":652:658  index2 */\n      dup3\n        /* \"assignments/first/05/05.sol\":646:659  nums2[index2] */\n      dup2\n      mload\n      dup2\n      lt\n      tag_33\n      jumpi\n      tag_34\n      tag_22\n      jump\t// in\n    tag_34:\n    tag_33:\n      0x20\n      mul\n      0x20\n      add\n      add\n      mload\n        /* \"assignments/first/05/05.sol\":634:640  result */\n      dup5\n        /* \"assignments/first/05/05.sol\":641:642  k */\n      dup3\n        /* \"assignments/first/05/05.sol\":634:643  result[k] */\n      dup2\n      mload\n      dup2\n      lt\n      tag_35\n      jumpi\n      tag_36\n      tag_22\n      jump\t// in\n    tag_36:\n    tag_35:\n      0x20\n      mul\n      0x20\n      add\n      add\n        /* \"assignments/first/05/05.sol\":634:659  result[k] = nums2[index2] */\n      dup2\n      dup2\n      mstore\n      pop\n      pop\n        /* \"assignments/first/05/05.sol\":678:686  index2++ */\n      dup2\n      dup1\n      tag_37\n      swap1\n      tag_31\n      jump\t// in\n    tag_37:\n      swap3\n      pop\n      pop\n        /* \"assignments/first/05/05.sol\":486:702  if (nums1[index1] <= nums2[index2]) {... */\n    tag_32:\n        /* \"assignments/first/05/05.sol\":716:719  k++ */\n      dup1\n      dup1\n      tag_38\n      swap1\n      tag_31\n      jump\t// in\n    tag_38:\n      swap2\n      pop\n      pop\n        /* \"assignments/first/05/05.sol\":439:731  while (index1 < m && index2 < n){... */\n      jump(tag_17)\n    tag_18:\n        /* \"assignments/first/05/05.sol\":741:853  while (index1 < m) {... */\n    tag_39:\n        /* \"assignments/first/05/05.sol\":757:758  m */\n      dup8\n        /* \"assignments/first/05/05.sol\":748:754  index1 */\n      dup4\n        /* \"assignments/first/05/05.sol\":748:758  index1 < m */\n      lt\n        /* \"assignments/first/05/05.sol\":741:853  while (index1 < m) {... */\n      iszero\n      tag_40\n      jumpi\n        /* \"assignments/first/05/05.sol\":787:792  nums1 */\n      dup9\n        /* \"assignments/first/05/05.sol\":793:799  index1 */\n      dup4\n        /* \"assignments/first/05/05.sol\":787:800  nums1[index1] */\n      dup2\n      mload\n      dup2\n      lt\n      tag_41\n      jumpi\n      tag_42\n      tag_22\n      jump\t// in\n    tag_42:\n    tag_41:\n      0x20\n      mul\n      0x20\n      add\n      add\n      mload\n        /* \"assignments/first/05/05.sol\":775:781  result */\n      dup5\n        /* \"assignments/first/05/05.sol\":782:783  k */\n      dup3\n        /* \"assignments/first/05/05.sol\":775:784  result[k] */\n      dup2\n      mload\n      dup2\n      lt\n      tag_43\n      jumpi\n      tag_44\n      tag_22\n      jump\t// in\n    tag_44:\n    tag_43:\n      0x20\n      mul\n      0x20\n      add\n      add\n        /* \"assignments/first/05/05.sol\":775:800  result[k] = nums1[index1] */\n      dup2\n      dup2\n      mstore\n      pop\n      pop\n        /* \"assignments/first/05/05.sol\":815:823  index1++ */\n      dup3\n      dup1\n      tag_45\n      swap1\n      tag_31\n      jump\t// in\n    tag_45:\n      swap4\n      pop\n      pop\n        /* \"assignments/first/05/05.sol\":838:841  k++ */\n      dup1\n      dup1\n      tag_46\n      swap1\n      tag_31\n      jump\t// in\n    tag_46:\n      swap2\n      pop\n      pop\n        /* \"assignments/first/05/05.sol\":741:853  while (index1 < m) {... */\n      jump(tag_39)\n    tag_40:\n        /* \"assignments/first/05/05.sol\":863:975  while (index2 < n) {... */\n    tag_47:\n        /* \"assignments/first/05/05.sol\":879:880  n */\n      dup6\n        /* \"assignments/first/05/05.sol\":870:876  index2 */\n      dup3\n        /* \"assignments/first/05/05.sol\":870:880  index2 < n */\n      lt\n        /* \"assignments/first/05/05.sol\":863:975  while (index2 < n) {... */\n      iszero\n      tag_48\n      jumpi\n        /* \"assignments/first/05/05.sol\":909:914  nums2 */\n      dup7\n        /* \"assignments/first/05/05.sol\":915:921  index2 */\n      dup3\n        /* \"assignments/first/05/05.sol\":909:922  nums2[index2] */\n      dup2\n      mload\n      dup2\n      lt\n      tag_49\n      jumpi\n      tag_50\n      tag_22\n      jump\t// in\n    tag_50:\n    tag_49:\n      0x20\n      mul\n      0x20\n      add\n      add\n      mload\n        /* \"assignments/first/05/05.sol\":897:903  result */\n      dup5\n        /* \"assignments/first/05/05.sol\":904:905  k */\n      dup3\n        /* \"assignments/first/05/05.sol\":897:906  result[k] */\n      dup2\n      mload\n      dup2\n      lt\n      tag_51\n      jumpi\n      tag_52\n      tag_22\n      jump\t// in\n    tag_52:\n    tag_51:\n      0x20\n      mul\n      0x20\n      add\n      add\n        /* \"assignments/first/05/05.sol\":897:922  result[k] = nums2[index2] */\n      dup2\n      dup2\n      mstore\n      pop\n      pop\n        /* \"assignments/first/05/05.sol\":937:945  index2++ */\n      dup2\n      dup1\n      tag_53\n      swap1\n      tag_31\n      jump\t// in\n    tag_53:\n      swap3\n      pop\n      pop\n        /* \"assignments/first/05/05.sol\":960:963  k++ */\n      dup1\n      dup1\n      tag_54\n      swap1\n      tag_31\n      jump\t// in\n    tag_54:\n      swap2\n      pop\n      pop\n        /* \"assignments/first/05/05.sol\":863:975  while (index2 < n) {... */\n      jump(tag_47)\n    tag_48:\n        /* \"assignments/first/05/05.sol\":992:998  result */\n      dup4\n        /* \"assignments/first/05/05.sol\":985:998  return result */\n      swap5\n      pop\n      pop\n      pop\n      pop\n      pop\n        /* \"assignments/first/05/05.sol\":212:1006  function merge(uint[] memory nums1, uint m, uint[] memory nums2, uint n) public pure returns (uint[] memory)  {... */\n      swap5\n      swap4\n      pop\n      pop\n      pop\n      pop\n      jump\t// out\n        /* \"#utility.yul\":7:82   */\n    tag_55:\n        /* \"#utility.yul\":40:46   */\n      0x00\n        /* \"#utility.yul\":73:75   */\n      0x40\n        /* \"#utility.yul\":67:76   */\n      mload\n        /* \"#utility.yul\":57:76   */\n      swap1\n      pop\n        /* \"#utility.yul\":7:82   */\n      swap1\n      jump\t// out\n        /* \"#utility.yul\":88:205   */\n    tag_56:\n        /* \"#utility.yul\":197:198   */\n      0x00\n        /* \"#utility.yul\":194:195   */\n      0x00\n        /* \"#utility.yul\":187:199   */\n      revert\n        /* \"#utility.yul\":211:328   */\n    tag_57:\n        /* \"#utility.yul\":320:321   */\n      0x00\n        /* \"#utility.yul\":317:318   */\n      0x00\n        /* \"#utility.yul\":310:322   */\n      revert\n        /* \"#utility.yul\":334:451   */\n    tag_58:\n        /* \"#utility.yul\":443:444   */\n      0x00\n        /* \"#utility.yul\":440:441   */\n      0x00\n        /* \"#utility.yul\":433:445   */\n      revert\n        /* \"#utility.yul\":457:559   */\n    tag_59:\n        /* \"#utility.yul\":498:504   */\n      0x00\n        /* \"#utility.yul\":549:551   */\n      0x1f\n        /* \"#utility.yul\":545:552   */\n      not\n        /* \"#utility.yul\":540:542   */\n      0x1f\n        /* \"#utility.yul\":533:538   */\n      dup4\n        /* \"#utility.yul\":529:543   */\n      add\n        /* \"#utility.yul\":525:553   */\n      and\n        /* \"#utility.yul\":515:553   */\n      swap1\n      pop\n        /* \"#utility.yul\":457:559   */\n      swap2\n      swap1\n      pop\n      jump\t// out\n        /* \"#utility.yul\":565:745   */\n    tag_15:\n        /* \"#utility.yul\":613:690   */\n      0x4e487b7100000000000000000000000000000000000000000000000000000000\n        /* \"#utility.yul\":610:611   */\n      0x00\n        /* \"#utility.yul\":603:691   */\n      mstore\n        /* \"#utility.yul\":710:714   */\n      0x41\n        /* \"#utility.yul\":707:708   */\n      0x04\n        /* \"#utility.yul\":700:715   */\n      mstore\n        /* \"#utility.yul\":734:738   */\n      0x24\n        /* \"#utility.yul\":731:732   */\n      0x00\n        /* \"#utility.yul\":724:739   */\n      revert\n        /* \"#utility.yul\":751:1032   */\n    tag_60:\n        /* \"#utility.yul\":834:861   */\n      tag_85\n        /* \"#utility.yul\":856:860   */\n      dup3\n        /* \"#utility.yul\":834:861   */\n      tag_59\n      jump\t// in\n    tag_85:\n        /* \"#utility.yul\":826:832   */\n      dup2\n        /* \"#utility.yul\":822:862   */\n      add\n        /* \"#utility.yul\":964:970   */\n      dup2\n        /* \"#utility.yul\":952:962   */\n      dup2\n        /* \"#utility.yul\":949:971   */\n      lt\n        /* \"#utility.yul\":928:946   */\n      0xffffffffffffffff\n        /* \"#utility.yul\":916:926   */\n      dup3\n        /* \"#utility.yul\":913:947   */\n      gt\n        /* \"#utility.yul\":910:972   */\n      or\n        /* \"#utility.yul\":907:995   */\n      iszero\n      tag_86\n      jumpi\n        /* \"#utility.yul\":975:993   */\n      tag_87\n      tag_15\n      jump\t// in\n    tag_87:\n        /* \"#utility.yul\":907:995   */\n    tag_86:\n        /* \"#utility.yul\":1015:1025   */\n      dup1\n        /* \"#utility.yul\":1011:1013   */\n      0x40\n        /* \"#utility.yul\":1004:1026   */\n      mstore\n        /* \"#utility.yul\":794:1032   */\n      pop\n        /* \"#utility.yul\":751:1032   */\n      pop\n      pop\n      jump\t// out\n        /* \"#utility.yul\":1038:1167   */\n    tag_61:\n        /* \"#utility.yul\":1072:1078   */\n      0x00\n        /* \"#utility.yul\":1099:1119   */\n      tag_89\n      tag_55\n      jump\t// in\n    tag_89:\n        /* \"#utility.yul\":1089:1119   */\n      swap1\n      pop\n        /* \"#utility.yul\":1128:1161   */\n      tag_90\n        /* \"#utility.yul\":1156:1160   */\n      dup3\n        /* \"#utility.yul\":1148:1154   */\n      dup3\n        /* \"#utility.yul\":1128:1161   */\n      tag_60\n      jump\t// in\n    tag_90:\n        /* \"#utility.yul\":1038:1167   */\n      swap2\n      swap1\n      pop\n      jump\t// out\n        /* \"#utility.yul\":1173:1484   */\n    tag_62:\n        /* \"#utility.yul\":1250:1254   */\n      0x00\n        /* \"#utility.yul\":1340:1358   */\n      0xffffffffffffffff\n        /* \"#utility.yul\":1332:1338   */\n      dup3\n        /* \"#utility.yul\":1329:1359   */\n      gt\n        /* \"#utility.yul\":1326:1382   */\n      iszero\n      tag_92\n      jumpi\n        /* \"#utility.yul\":1362:1380   */\n      tag_93\n      tag_15\n      jump\t// in\n    tag_93:\n        /* \"#utility.yul\":1326:1382   */\n    tag_92:\n        /* \"#utility.yul\":1412:1416   */\n      0x20\n        /* \"#utility.yul\":1404:1410   */\n      dup3\n        /* \"#utility.yul\":1400:1417   */\n      mul\n        /* \"#utility.yul\":1392:1417   */\n      swap1\n      pop\n        /* \"#utility.yul\":1472:1476   */\n      0x20\n        /* \"#utility.yul\":1466:1470   */\n      dup2\n        /* \"#utility.yul\":1462:1477   */\n      add\n        /* \"#utility.yul\":1454:1477   */\n      swap1\n      pop\n        /* \"#utility.yul\":1173:1484   */\n      swap2\n      swap1\n      pop\n      jump\t// out\n        /* \"#utility.yul\":1490:1607   */\n    tag_63:\n        /* \"#utility.yul\":1599:1600   */\n      0x00\n        /* \"#utility.yul\":1596:1597   */\n      0x00\n        /* \"#utility.yul\":1589:1601   */\n      revert\n        /* \"#utility.yul\":1613:1690   */\n    tag_64:\n        /* \"#utility.yul\":1650:1657   */\n      0x00\n        /* \"#utility.yul\":1679:1684   */\n      dup2\n        /* \"#utility.yul\":1668:1684   */\n      swap1\n      pop\n        /* \"#utility.yul\":1613:1690   */\n      swap2\n      swap1\n      pop\n      jump\t// out\n        /* \"#utility.yul\":1696:1818   */\n    tag_65:\n        /* \"#utility.yul\":1769:1793   */\n      tag_97\n        /* \"#utility.yul\":1787:1792   */\n      dup2\n        /* \"#utility.yul\":1769:1793   */\n      tag_64\n      jump\t// in\n    tag_97:\n        /* \"#utility.yul\":1762:1767   */\n      dup2\n        /* \"#utility.yul\":1759:1794   */\n      eq\n        /* \"#utility.yul\":1749:1812   */\n      tag_98\n      jumpi\n        /* \"#utility.yul\":1808:1809   */\n      0x00\n        /* \"#utility.yul\":1805:1806   */\n      0x00\n        /* \"#utility.yul\":1798:1810   */\n      revert\n        /* \"#utility.yul\":1749:1812   */\n    tag_98:\n        /* \"#utility.yul\":1696:1818   */\n      pop\n      jump\t// out\n        /* \"#utility.yul\":1824:1963   */\n    tag_66:\n        /* \"#utility.yul\":1870:1875   */\n      0x00\n        /* \"#utility.yul\":1908:1914   */\n      dup2\n        /* \"#utility.yul\":1895:1915   */\n      calldataload\n        /* \"#utility.yul\":1886:1915   */\n      swap1\n      pop\n        /* \"#utility.yul\":1924:1957   */\n      tag_100\n        /* \"#utility.yul\":1951:1956   */\n      dup2\n        /* \"#utility.yul\":1924:1957   */\n      tag_65\n      jump\t// in\n    tag_100:\n        /* \"#utility.yul\":1824:1963   */\n      swap3\n      swap2\n      pop\n      pop\n      jump\t// out\n        /* \"#utility.yul\":1986:2696   */\n    tag_67:\n        /* \"#utility.yul\":2082:2087   */\n      0x00\n        /* \"#utility.yul\":2107:2188   */\n      tag_102\n        /* \"#utility.yul\":2123:2187   */\n      tag_103\n        /* \"#utility.yul\":2180:2186   */\n      dup5\n        /* \"#utility.yul\":2123:2187   */\n      tag_62\n      jump\t// in\n    tag_103:\n        /* \"#utility.yul\":2107:2188   */\n      tag_61\n      jump\t// in\n    tag_102:\n        /* \"#utility.yul\":2098:2188   */\n      swap1\n      pop\n        /* \"#utility.yul\":2208:2213   */\n      dup1\n        /* \"#utility.yul\":2237:2243   */\n      dup4\n        /* \"#utility.yul\":2230:2235   */\n      dup3\n        /* \"#utility.yul\":2223:2244   */\n      mstore\n        /* \"#utility.yul\":2271:2275   */\n      0x20\n        /* \"#utility.yul\":2264:2269   */\n      dup3\n        /* \"#utility.yul\":2260:2276   */\n      add\n        /* \"#utility.yul\":2253:2276   */\n      swap1\n      pop\n        /* \"#utility.yul\":2324:2328   */\n      0x20\n        /* \"#utility.yul\":2316:2322   */\n      dup5\n        /* \"#utility.yul\":2312:2329   */\n      mul\n        /* \"#utility.yul\":2304:2310   */\n      dup4\n        /* \"#utility.yul\":2300:2330   */\n      add\n        /* \"#utility.yul\":2353:2356   */\n      dup6\n        /* \"#utility.yul\":2345:2351   */\n      dup2\n        /* \"#utility.yul\":2342:2357   */\n      gt\n        /* \"#utility.yul\":2339:2461   */\n      iszero\n      tag_104\n      jumpi\n        /* \"#utility.yul\":2372:2451   */\n      tag_105\n      tag_63\n      jump\t// in\n    tag_105:\n        /* \"#utility.yul\":2339:2461   */\n    tag_104:\n        /* \"#utility.yul\":2487:2493   */\n      dup4\n        /* \"#utility.yul\":2470:2690   */\n    tag_106:\n        /* \"#utility.yul\":2504:2510   */\n      dup2\n        /* \"#utility.yul\":2499:2502   */\n      dup2\n        /* \"#utility.yul\":2496:2511   */\n      lt\n        /* \"#utility.yul\":2470:2690   */\n      iszero\n      tag_108\n      jumpi\n        /* \"#utility.yul\":2579:2582   */\n      dup1\n        /* \"#utility.yul\":2608:2645   */\n      tag_109\n        /* \"#utility.yul\":2641:2644   */\n      dup9\n        /* \"#utility.yul\":2629:2639   */\n      dup3\n        /* \"#utility.yul\":2608:2645   */\n      tag_66\n      jump\t// in\n    tag_109:\n        /* \"#utility.yul\":2603:2606   */\n      dup5\n        /* \"#utility.yul\":2596:2646   */\n      mstore\n        /* \"#utility.yul\":2675:2679   */\n      0x20\n        /* \"#utility.yul\":2670:2673   */\n      dup5\n        /* \"#utility.yul\":2666:2680   */\n      add\n        /* \"#utility.yul\":2659:2680   */\n      swap4\n      pop\n        /* \"#utility.yul\":2546:2690   */\n      pop\n        /* \"#utility.yul\":2530:2534   */\n      0x20\n        /* \"#utility.yul\":2525:2528   */\n      dup2\n        /* \"#utility.yul\":2521:2535   */\n      add\n        /* \"#utility.yul\":2514:2535   */\n      swap1\n      pop\n        /* \"#utility.yul\":2470:2690   */\n      jump(tag_106)\n    tag_108:\n        /* \"#utility.yul\":2474:2495   */\n      pop\n        /* \"#utility.yul\":2088:2696   */\n      pop\n      pop\n        /* \"#utility.yul\":1986:2696   */\n      swap4\n      swap3\n      pop\n      pop\n      pop\n      jump\t// out\n        /* \"#utility.yul\":2719:3089   */\n    tag_68:\n        /* \"#utility.yul\":2790:2795   */\n      0x00\n        /* \"#utility.yul\":2839:2842   */\n      dup3\n        /* \"#utility.yul\":2832:2836   */\n      0x1f\n        /* \"#utility.yul\":2824:2830   */\n      dup4\n        /* \"#utility.yul\":2820:2837   */\n      add\n        /* \"#utility.yul\":2816:2843   */\n      slt\n        /* \"#utility.yul\":2806:2928   */\n      tag_111\n      jumpi\n        /* \"#utility.yul\":2847:2926   */\n      tag_112\n      tag_58\n      jump\t// in\n    tag_112:\n        /* \"#utility.yul\":2806:2928   */\n    tag_111:\n        /* \"#utility.yul\":2964:2970   */\n      dup2\n        /* \"#utility.yul\":2951:2971   */\n      calldataload\n        /* \"#utility.yul\":2989:3083   */\n      tag_113\n        /* \"#utility.yul\":3079:3082   */\n      dup5\n        /* \"#utility.yul\":3071:3077   */\n      dup3\n        /* \"#utility.yul\":3064:3068   */\n      0x20\n        /* \"#utility.yul\":3056:3062   */\n      dup7\n        /* \"#utility.yul\":3052:3069   */\n      add\n        /* \"#utility.yul\":2989:3083   */\n      tag_67\n      jump\t// in\n    tag_113:\n        /* \"#utility.yul\":2980:3083   */\n      swap2\n      pop\n        /* \"#utility.yul\":2796:3089   */\n      pop\n        /* \"#utility.yul\":2719:3089   */\n      swap3\n      swap2\n      pop\n      pop\n      jump\t// out\n        /* \"#utility.yul\":3095:4280   */\n    tag_6:\n        /* \"#utility.yul\":3231:3237   */\n      0x00\n        /* \"#utility.yul\":3239:3245   */\n      0x00\n        /* \"#utility.yul\":3247:3253   */\n      0x00\n        /* \"#utility.yul\":3255:3261   */\n      0x00\n        /* \"#utility.yul\":3304:3307   */\n      0x80\n        /* \"#utility.yul\":3292:3301   */\n      dup6\n        /* \"#utility.yul\":3283:3290   */\n      dup8\n        /* \"#utility.yul\":3279:3302   */\n      sub\n        /* \"#utility.yul\":3275:3308   */\n      slt\n        /* \"#utility.yul\":3272:3392   */\n      iszero\n      tag_115\n      jumpi\n        /* \"#utility.yul\":3311:3390   */\n      tag_116\n      tag_56\n      jump\t// in\n    tag_116:\n        /* \"#utility.yul\":3272:3392   */\n    tag_115:\n        /* \"#utility.yul\":3459:3460   */\n      0x00\n        /* \"#utility.yul\":3448:3457   */\n      dup6\n        /* \"#utility.yul\":3444:3461   */\n      add\n        /* \"#utility.yul\":3431:3462   */\n      calldataload\n        /* \"#utility.yul\":3489:3507   */\n      0xffffffffffffffff\n        /* \"#utility.yul\":3481:3487   */\n      dup2\n        /* \"#utility.yul\":3478:3508   */\n      gt\n        /* \"#utility.yul\":3475:3592   */\n      iszero\n      tag_117\n      jumpi\n        /* \"#utility.yul\":3511:3590   */\n      tag_118\n      tag_57\n      jump\t// in\n    tag_118:\n        /* \"#utility.yul\":3475:3592   */\n    tag_117:\n        /* \"#utility.yul\":3616:3694   */\n      tag_119\n        /* \"#utility.yul\":3686:3693   */\n      dup8\n        /* \"#utility.yul\":3677:3683   */\n      dup3\n        /* \"#utility.yul\":3666:3675   */\n      dup9\n        /* \"#utility.yul\":3662:3684   */\n      add\n        /* \"#utility.yul\":3616:3694   */\n      tag_68\n      jump\t// in\n    tag_119:\n        /* \"#utility.yul\":3606:3694   */\n      swap5\n      pop\n        /* \"#utility.yul\":3402:3704   */\n      pop\n        /* \"#utility.yul\":3743:3745   */\n      0x20\n        /* \"#utility.yul\":3769:3822   */\n      tag_120\n        /* \"#utility.yul\":3814:3821   */\n      dup8\n        /* \"#utility.yul\":3805:3811   */\n      dup3\n        /* \"#utility.yul\":3794:3803   */\n      dup9\n        /* \"#utility.yul\":3790:3812   */\n      add\n        /* \"#utility.yul\":3769:3822   */\n      tag_66\n      jump\t// in\n    tag_120:\n        /* \"#utility.yul\":3759:3822   */\n      swap4\n      pop\n        /* \"#utility.yul\":3714:3832   */\n      pop\n        /* \"#utility.yul\":3899:3901   */\n      0x40\n        /* \"#utility.yul\":3888:3897   */\n      dup6\n        /* \"#utility.yul\":3884:3902   */\n      add\n        /* \"#utility.yul\":3871:3903   */\n      calldataload\n        /* \"#utility.yul\":3930:3948   */\n      0xffffffffffffffff\n        /* \"#utility.yul\":3922:3928   */\n      dup2\n        /* \"#utility.yul\":3919:3949   */\n      gt\n        /* \"#utility.yul\":3916:4033   */\n      iszero\n      tag_121\n      jumpi\n        /* \"#utility.yul\":3952:4031   */\n      tag_122\n      tag_57\n      jump\t// in\n    tag_122:\n        /* \"#utility.yul\":3916:4033   */\n    tag_121:\n        /* \"#utility.yul\":4057:4135   */\n      tag_123\n        /* \"#utility.yul\":4127:4134   */\n      dup8\n        /* \"#utility.yul\":4118:4124   */\n      dup3\n        /* \"#utility.yul\":4107:4116   */\n      dup9\n        /* \"#utility.yul\":4103:4125   */\n      add\n        /* \"#utility.yul\":4057:4135   */\n      tag_68\n      jump\t// in\n    tag_123:\n        /* \"#utility.yul\":4047:4135   */\n      swap3\n      pop\n        /* \"#utility.yul\":3842:4145   */\n      pop\n        /* \"#utility.yul\":4184:4186   */\n      0x60\n        /* \"#utility.yul\":4210:4263   */\n      tag_124\n        /* \"#utility.yul\":4255:4262   */\n      dup8\n        /* \"#utility.yul\":4246:4252   */\n      dup3\n        /* \"#utility.yul\":4235:4244   */\n      dup9\n        /* \"#utility.yul\":4231:4253   */\n      add\n        /* \"#utility.yul\":4210:4263   */\n      tag_66\n      jump\t// in\n    tag_124:\n        /* \"#utility.yul\":4200:4263   */\n      swap2\n      pop\n        /* \"#utility.yul\":4155:4273   */\n      pop\n        /* \"#utility.yul\":3095:4280   */\n      swap3\n      swap6\n      swap2\n      swap5\n      pop\n      swap3\n      pop\n      jump\t// out\n        /* \"#utility.yul\":4286:4400   */\n    tag_69:\n        /* \"#utility.yul\":4353:4359   */\n      0x00\n        /* \"#utility.yul\":4387:4392   */\n      dup2\n        /* \"#utility.yul\":4381:4393   */\n      mload\n        /* \"#utility.yul\":4371:4393   */\n      swap1\n      pop\n        /* \"#utility.yul\":4286:4400   */\n      swap2\n      swap1\n      pop\n      jump\t// out\n        /* \"#utility.yul\":4406:4590   */\n    tag_70:\n        /* \"#utility.yul\":4505:4516   */\n      0x00\n        /* \"#utility.yul\":4539:4545   */\n      dup3\n        /* \"#utility.yul\":4534:4537   */\n      dup3\n        /* \"#utility.yul\":4527:4546   */\n      mstore\n        /* \"#utility.yul\":4579:4583   */\n      0x20\n        /* \"#utility.yul\":4574:4577   */\n      dup3\n        /* \"#utility.yul\":4570:4584   */\n      add\n        /* \"#utility.yul\":4555:4584   */\n      swap1\n      pop\n        /* \"#utility.yul\":4406:4590   */\n      swap3\n      swap2\n      pop\n      pop\n      jump\t// out\n        /* \"#utility.yul\":4596:4728   */\n    tag_71:\n        /* \"#utility.yul\":4663:4667   */\n      0x00\n        /* \"#utility.yul\":4686:4689   */\n      dup2\n        /* \"#utility.yul\":4678:4689   */\n      swap1\n      pop\n        /* \"#utility.yul\":4716:4720   */\n      0x20\n        /* \"#utility.yul\":4711:4714   */\n      dup3\n        /* \"#utility.yul\":4707:4721   */\n      add\n        /* \"#utility.yul\":4699:4721   */\n      swap1\n      pop\n        /* \"#utility.yul\":4596:4728   */\n      swap2\n      swap1\n      pop\n      jump\t// out\n        /* \"#utility.yul\":4734:4842   */\n    tag_72:\n        /* \"#utility.yul\":4811:4835   */\n      tag_129\n        /* \"#utility.yul\":4829:4834   */\n      dup2\n        /* \"#utility.yul\":4811:4835   */\n      tag_64\n      jump\t// in\n    tag_129:\n        /* \"#utility.yul\":4806:4809   */\n      dup3\n        /* \"#utility.yul\":4799:4836   */\n      mstore\n        /* \"#utility.yul\":4734:4842   */\n      pop\n      pop\n      jump\t// out\n        /* \"#utility.yul\":4848:5027   */\n    tag_73:\n        /* \"#utility.yul\":4917:4927   */\n      0x00\n        /* \"#utility.yul\":4938:4984   */\n      tag_131\n        /* \"#utility.yul\":4980:4983   */\n      dup4\n        /* \"#utility.yul\":4972:4978   */\n      dup4\n        /* \"#utility.yul\":4938:4984   */\n      tag_72\n      jump\t// in\n    tag_131:\n        /* \"#utility.yul\":5016:5020   */\n      0x20\n        /* \"#utility.yul\":5011:5014   */\n      dup4\n        /* \"#utility.yul\":5007:5021   */\n      add\n        /* \"#utility.yul\":4993:5021   */\n      swap1\n      pop\n        /* \"#utility.yul\":4848:5027   */\n      swap3\n      swap2\n      pop\n      pop\n      jump\t// out\n        /* \"#utility.yul\":5033:5146   */\n    tag_74:\n        /* \"#utility.yul\":5103:5107   */\n      0x00\n        /* \"#utility.yul\":5135:5139   */\n      0x20\n        /* \"#utility.yul\":5130:5133   */\n      dup3\n        /* \"#utility.yul\":5126:5140   */\n      add\n        /* \"#utility.yul\":5118:5140   */\n      swap1\n      pop\n        /* \"#utility.yul\":5033:5146   */\n      swap2\n      swap1\n      pop\n      jump\t// out\n        /* \"#utility.yul\":5182:5914   */\n    tag_75:\n        /* \"#utility.yul\":5301:5304   */\n      0x00\n        /* \"#utility.yul\":5330:5384   */\n      tag_134\n        /* \"#utility.yul\":5378:5383   */\n      dup3\n        /* \"#utility.yul\":5330:5384   */\n      tag_69\n      jump\t// in\n    tag_134:\n        /* \"#utility.yul\":5400:5486   */\n      tag_135\n        /* \"#utility.yul\":5479:5485   */\n      dup2\n        /* \"#utility.yul\":5474:5477   */\n      dup6\n        /* \"#utility.yul\":5400:5486   */\n      tag_70\n      jump\t// in\n    tag_135:\n        /* \"#utility.yul\":5393:5486   */\n      swap4\n      pop\n        /* \"#utility.yul\":5510:5566   */\n      tag_136\n        /* \"#utility.yul\":5560:5565   */\n      dup4\n        /* \"#utility.yul\":5510:5566   */\n      tag_71\n      jump\t// in\n    tag_136:\n        /* \"#utility.yul\":5589:5596   */\n      dup1\n        /* \"#utility.yul\":5620:5621   */\n      0x00\n        /* \"#utility.yul\":5605:5889   */\n    tag_137:\n        /* \"#utility.yul\":5630:5636   */\n      dup4\n        /* \"#utility.yul\":5627:5628   */\n      dup2\n        /* \"#utility.yul\":5624:5637   */\n      lt\n        /* \"#utility.yul\":5605:5889   */\n      iszero\n      tag_139\n      jumpi\n        /* \"#utility.yul\":5706:5712   */\n      dup2\n        /* \"#utility.yul\":5700:5713   */\n      mload\n        /* \"#utility.yul\":5733:5796   */\n      tag_140\n        /* \"#utility.yul\":5792:5795   */\n      dup9\n        /* \"#utility.yul\":5777:5790   */\n      dup3\n        /* \"#utility.yul\":5733:5796   */\n      tag_73\n      jump\t// in\n    tag_140:\n        /* \"#utility.yul\":5726:5796   */\n      swap8\n      pop\n        /* \"#utility.yul\":5819:5879   */\n      tag_141\n        /* \"#utility.yul\":5872:5878   */\n      dup4\n        /* \"#utility.yul\":5819:5879   */\n      tag_74\n      jump\t// in\n    tag_141:\n        /* \"#utility.yul\":5809:5879   */\n      swap3\n      pop\n        /* \"#utility.yul\":5665:5889   */\n      pop\n        /* \"#utility.yul\":5652:5653   */\n      0x01\n        /* \"#utility.yul\":5649:5650   */\n      dup2\n        /* \"#utility.yul\":5645:5654   */\n      add\n        /* \"#utility.yul\":5640:5654   */\n      swap1\n      pop\n        /* \"#utility.yul\":5605:5889   */\n      jump(tag_137)\n    tag_139:\n        /* \"#utility.yul\":5609:5623   */\n      pop\n        /* \"#utility.yul\":5905:5908   */\n      dup6\n        /* \"#utility.yul\":5898:5908   */\n      swap4\n      pop\n        /* \"#utility.yul\":5306:5914   */\n      pop\n      pop\n      pop\n        /* \"#utility.yul\":5182:5914   */\n      swap3\n      swap2\n      pop\n      pop\n      jump\t// out\n        /* \"#utility.yul\":5920:6293   */\n    tag_9:\n        /* \"#utility.yul\":6063:6067   */\n      0x00\n        /* \"#utility.yul\":6101:6103   */\n      0x20\n        /* \"#utility.yul\":6090:6099   */\n      dup3\n        /* \"#utility.yul\":6086:6104   */\n      add\n        /* \"#utility.yul\":6078:6104   */\n      swap1\n      pop\n        /* \"#utility.yul\":6150:6159   */\n      dup2\n        /* \"#utility.yul\":6144:6148   */\n      dup2\n        /* \"#utility.yul\":6140:6160   */\n      sub\n        /* \"#utility.yul\":6136:6137   */\n      0x00\n        /* \"#utility.yul\":6125:6134   */\n      dup4\n        /* \"#utility.yul\":6121:6138   */\n      add\n        /* \"#utility.yul\":6114:6161   */\n      mstore\n        /* \"#utility.yul\":6178:6286   */\n      tag_143\n        /* \"#utility.yul\":6281:6285   */\n      dup2\n        /* \"#utility.yul\":6272:6278   */\n      dup5\n        /* \"#utility.yul\":6178:6286   */\n      tag_75\n      jump\t// in\n    tag_143:\n        /* \"#utility.yul\":6170:6286   */\n      swap1\n      pop\n        /* \"#utility.yul\":5920:6293   */\n      swap3\n      swap2\n      pop\n      pop\n      jump\t// out\n        /* \"#utility.yul\":6299:6479   */\n    tag_76:\n        /* \"#utility.yul\":6347:6424   */\n      0x4e487b7100000000000000000000000000000000000000000000000000000000\n        /* \"#utility.yul\":6344:6345   */\n      0x00\n        /* \"#utility.yul\":6337:6425   */\n      mstore\n        /* \"#utility.yul\":6444:6448   */\n      0x11\n        /* \"#utility.yul\":6441:6442   */\n      0x04\n        /* \"#utility.yul\":6434:6449   */\n      mstore\n        /* \"#utility.yul\":6468:6472   */\n      0x24\n        /* \"#utility.yul\":6465:6466   */\n      0x00\n        /* \"#utility.yul\":6458:6473   */\n      revert\n        /* \"#utility.yul\":6485:6676   */\n    tag_12:\n        /* \"#utility.yul\":6525:6528   */\n      0x00\n        /* \"#utility.yul\":6544:6564   */\n      tag_146\n        /* \"#utility.yul\":6562:6563   */\n      dup3\n        /* \"#utility.yul\":6544:6564   */\n      tag_64\n      jump\t// in\n    tag_146:\n        /* \"#utility.yul\":6539:6564   */\n      swap2\n      pop\n        /* \"#utility.yul\":6578:6598   */\n      tag_147\n        /* \"#utility.yul\":6596:6597   */\n      dup4\n        /* \"#utility.yul\":6578:6598   */\n      tag_64\n      jump\t// in\n    tag_147:\n        /* \"#utility.yul\":6573:6598   */\n      swap3\n      pop\n        /* \"#utility.yul\":6621:6622   */\n      dup3\n        /* \"#utility.yul\":6618:6619   */\n      dup3\n        /* \"#utility.yul\":6614:6623   */\n      add\n        /* \"#utility.yul\":6607:6623   */\n      swap1\n      pop\n        /* \"#utility.yul\":6642:6645   */\n      dup1\n        /* \"#utility.yul\":6639:6640   */\n      dup3\n        /* \"#utility.yul\":6636:6646   */\n      gt\n        /* \"#utility.yul\":6633:6669   */\n      iszero\n      tag_148\n      jumpi\n        /* \"#utility.yul\":6649:6667   */\n      tag_149\n      tag_76\n      jump\t// in\n    tag_149:\n        /* \"#utility.yul\":6633:6669   */\n    tag_148:\n        /* \"#utility.yul\":6485:6676   */\n      swap3\n      swap2\n      pop\n      pop\n      jump\t// out\n        /* \"#utility.yul\":6682:6862   */\n    tag_22:\n        /* \"#utility.yul\":6730:6807   */\n      0x4e487b7100000000000000000000000000000000000000000000000000000000\n        /* \"#utility.yul\":6727:6728   */\n      0x00\n        /* \"#utility.yul\":6720:6808   */\n      mstore\n        /* \"#utility.yul\":6827:6831   */\n      0x32\n        /* \"#utility.yul\":6824:6825   */\n      0x04\n        /* \"#utility.yul\":6817:6832   */\n      mstore\n        /* \"#utility.yul\":6851:6855   */\n      0x24\n        /* \"#utility.yul\":6848:6849   */\n      0x00\n        /* \"#utility.yul\":6841:6856   */\n      revert\n        /* \"#utility.yul\":6868:7101   */\n    tag_31:\n        /* \"#utility.yul\":6907:6910   */\n      0x00\n        /* \"#utility.yul\":6930:6954   */\n      tag_152\n        /* \"#utility.yul\":6948:6953   */\n      dup3\n        /* \"#utility.yul\":6930:6954   */\n      tag_64\n      jump\t// in\n    tag_152:\n        /* \"#utility.yul\":6921:6954   */\n      swap2\n      pop\n        /* \"#utility.yul\":6976:7042   */\n      0xffffffffffffffffffffffffffffffffffffffffffffffffffffffffffffffff\n        /* \"#utility.yul\":6969:6974   */\n      dup3\n        /* \"#utility.yul\":6966:7043   */\n      sub\n        /* \"#utility.yul\":6963:7066   */\n      tag_153\n      jumpi\n        /* \"#utility.yul\":7046:7064   */\n      tag_154\n      tag_76\n      jump\t// in\n    tag_154:\n        /* \"#utility.yul\":6963:7066   */\n    tag_153:\n        /* \"#utility.yul\":7093:7094   */\n      0x01\n        /* \"#utility.yul\":7086:7091   */\n      dup3\n        /* \"#utility.yul\":7082:7095   */\n      add\n        /* \"#utility.yul\":7075:7095   */\n      swap1\n      pop\n        /* \"#utility.yul\":6868:7101   */\n      swap2\n      swap1\n      pop\n      jump\t// out\n\n    auxdata: 0xa2646970667358221220af3e97d1af52b7a0520e2001f897d48b8bac5436579c48f681bc2a8e56de8d8564736f6c634300081e0033\n}\n",
				"bytecode": {
					"linkReferences": {},
					"object": "6080604052348015600e575f5ffd5b506106a28061001c5f395ff3fe608060405234801561000f575f5ffd5b5060043610610029575f3560e01c8063d0c42f1a1461002d575b5f5ffd5b61004760048036038101906100429190610425565b61005d565b6040516100549190610578565b60405180910390f35b60605f828561006c91906105c5565b67ffffffffffffffff811115610085576100846102b6565b5b6040519080825280602002602001820160405280156100b35781602001602082028036833780820191505090505b5090505f5f90505f5f90505f5f90505b87831080156100d157508582105b156101ba578682815181106100e9576100e86105f8565b5b6020026020010151898481518110610104576101036105f8565b5b60200260200101511161015e57888381518110610124576101236105f8565b5b602002602001015184828151811061013f5761013e6105f8565b5b602002602001018181525050828061015690610625565b9350506101a7565b868281518110610171576101706105f8565b5b602002602001015184828151811061018c5761018b6105f8565b5b60200260200101818152505081806101a390610625565b9250505b80806101b290610625565b9150506100c3565b5b8783101561021e578883815181106101d6576101d56105f8565b5b60200260200101518482815181106101f1576101f06105f8565b5b602002602001018181525050828061020890610625565b935050808061021690610625565b9150506101bb565b5b858210156102825786828151811061023a576102396105f8565b5b6020026020010151848281518110610255576102546105f8565b5b602002602001018181525050818061026c90610625565b925050808061027a90610625565b91505061021f565b83945050505050949350505050565b5f604051905090565b5f5ffd5b5f5ffd5b5f5ffd5b5f601f19601f8301169050919050565b7f4e487b71000000000000000000000000000000000000000000000000000000005f52604160045260245ffd5b6102ec826102a6565b810181811067ffffffffffffffff8211171561030b5761030a6102b6565b5b80604052505050565b5f61031d610291565b905061032982826102e3565b919050565b5f67ffffffffffffffff821115610348576103476102b6565b5b602082029050602081019050919050565b5f5ffd5b5f819050919050565b61036f8161035d565b8114610379575f5ffd5b50565b5f8135905061038a81610366565b92915050565b5f6103a261039d8461032e565b610314565b905080838252602082019050602084028301858111156103c5576103c4610359565b5b835b818110156103ee57806103da888261037c565b8452602084019350506020810190506103c7565b5050509392505050565b5f82601f83011261040c5761040b6102a2565b5b813561041c848260208601610390565b91505092915050565b5f5f5f5f6080858703121561043d5761043c61029a565b5b5f85013567ffffffffffffffff81111561045a5761045961029e565b5b610466878288016103f8565b94505060206104778782880161037c565b935050604085013567ffffffffffffffff8111156104985761049761029e565b5b6104a4878288016103f8565b92505060606104b58782880161037c565b91505092959194509250565b5f81519050919050565b5f82825260208201905092915050565b5f819050602082019050919050565b6104f38161035d565b82525050565b5f61050483836104ea565b60208301905092915050565b5f602082019050919050565b5f610526826104c1565b61053081856104cb565b935061053b836104db565b805f5b8381101561056b57815161055288826104f9565b975061055d83610510565b92505060018101905061053e565b5085935050505092915050565b5f6020820190508181035f830152610590818461051c565b905092915050565b7f4e487b71000000000000000000000000000000000000000000000000000000005f52601160045260245ffd5b5f6105cf8261035d565b91506105da8361035d565b92508282019050808211156105f2576105f1610598565b5b92915050565b7f4e487b71000000000000000000000000000000000000000000000000000000005f52603260045260245ffd5b5f61062f8261035d565b91507fffffffffffffffffffffffffffffffffffffffffffffffffffffffffffffffff820361066157610660610598565b5b60018201905091905056fea2646970667358221220af3e97d1af52b7a0520e2001f897d48b8bac5436579c48f681bc2a8e56de8d8564736f6c634300081e0033",
					"opcodes": "PUSH1 0x80 PUSH1 0x40 MSTORE CALLVALUE DUP1 ISZERO PUSH1 0xE JUMPI PUSH0 PUSH0 REVERT JUMPDEST POP PUSH2 0x6A2 DUP1 PUSH2 0x1C PUSH0 CODECOPY PUSH0 RETURN INVALID PUSH1 0x80 PUSH1 0x40 MSTORE CALLVALUE DUP1 ISZERO PUSH2 0xF JUMPI PUSH0 PUSH0 REVERT JUMPDEST POP PUSH1 0x4 CALLDATASIZE LT PUSH2 0x29 JUMPI PUSH0 CALLDATALOAD PUSH1 0xE0 SHR DUP1 PUSH4 0xD0C42F1A EQ PUSH2 0x2D JUMPI JUMPDEST PUSH0 PUSH0 REVERT JUMPDEST PUSH2 0x47 PUSH1 0x4 DUP1 CALLDATASIZE SUB DUP2 ADD SWAP1 PUSH2 0x42 SWAP2 SWAP1 PUSH2 0x425 JUMP JUMPDEST PUSH2 0x5D JUMP JUMPDEST PUSH1 0x40 MLOAD PUSH2 0x54 SWAP2 SWAP1 PUSH2 0x578 JUMP JUMPDEST PUSH1 0x40 MLOAD DUP1 SWAP2 SUB SWAP1 RETURN JUMPDEST PUSH1 0x60 PUSH0 DUP3 DUP6 PUSH2 0x6C SWAP2 SWAP1 PUSH2 0x5C5 JUMP JUMPDEST PUSH8 0xFFFFFFFFFFFFFFFF DUP2 GT ISZERO PUSH2 0x85 JUMPI PUSH2 0x84 PUSH2 0x2B6 JUMP JUMPDEST JUMPDEST PUSH1 0x40 MLOAD SWAP1 DUP1 DUP3 MSTORE DUP1 PUSH1 0x20 MUL PUSH1 0x20 ADD DUP3 ADD PUSH1 0x40 MSTORE DUP1 ISZERO PUSH2 0xB3 JUMPI DUP2 PUSH1 0x20 ADD PUSH1 0x20 DUP3 MUL DUP1 CALLDATASIZE DUP4 CALLDATACOPY DUP1 DUP3 ADD SWAP2 POP POP SWAP1 POP JUMPDEST POP SWAP1 POP PUSH0 PUSH0 SWAP1 POP PUSH0 PUSH0 SWAP1 POP PUSH0 PUSH0 SWAP1 POP JUMPDEST DUP8 DUP4 LT DUP1 ISZERO PUSH2 0xD1 JUMPI POP DUP6 DUP3 LT JUMPDEST ISZERO PUSH2 0x1BA JUMPI DUP7 DUP3 DUP2 MLOAD DUP2 LT PUSH2 0xE9 JUMPI PUSH2 0xE8 PUSH2 0x5F8 JUMP JUMPDEST JUMPDEST PUSH1 0x20 MUL PUSH1 0x20 ADD ADD MLOAD DUP10 DUP5 DUP2 MLOAD DUP2 LT PUSH2 0x104 JUMPI PUSH2 0x103 PUSH2 0x5F8 JUMP JUMPDEST JUMPDEST PUSH1 0x20 MUL PUSH1 0x20 ADD ADD MLOAD GT PUSH2 0x15E JUMPI DUP9 DUP4 DUP2 MLOAD DUP2 LT PUSH2 0x124 JUMPI PUSH2 0x123 PUSH2 0x5F8 JUMP JUMPDEST JUMPDEST PUSH1 0x20 MUL PUSH1 0x20 ADD ADD MLOAD DUP5 DUP3 DUP2 MLOAD DUP2 LT PUSH2 0x13F JUMPI PUSH2 0x13E PUSH2 0x5F8 JUMP JUMPDEST JUMPDEST PUSH1 0x20 MUL PUSH1 0x20 ADD ADD DUP2 DUP2 MSTORE POP POP DUP3 DUP1 PUSH2 0x156 SWAP1 PUSH2 0x625 JUMP JUMPDEST SWAP4 POP POP PUSH2 0x1A7 JUMP JUMPDEST DUP7 DUP3 DUP2 MLOAD DUP2 LT PUSH2 0x171 JUMPI PUSH2 0x170 PUSH2 0x5F8 JUMP JUMPDEST JUMPDEST PUSH1 0x20 MUL PUSH1 0x20 ADD ADD MLOAD DUP5 DUP3 DUP2 MLOAD DUP2 LT PUSH2 0x18C JUMPI PUSH2 0x18B PUSH2 0x5F8 JUMP JUMPDEST JUMPDEST PUSH1 0x20 MUL PUSH1 0x20 ADD ADD DUP2 DUP2 MSTORE POP POP DUP2 DUP1 PUSH2 0x1A3 SWAP1 PUSH2 0x625 JUMP JUMPDEST SWAP3 POP POP JUMPDEST DUP1 DUP1 PUSH2 0x1B2 SWAP1 PUSH2 0x625 JUMP JUMPDEST SWAP2 POP POP PUSH2 0xC3 JUMP JUMPDEST JUMPDEST DUP8 DUP4 LT ISZERO PUSH2 0x21E JUMPI DUP9 DUP4 DUP2 MLOAD DUP2 LT PUSH2 0x1D6 JUMPI PUSH2 0x1D5 PUSH2 0x5F8 JUMP JUMPDEST JUMPDEST PUSH1 0x20 MUL PUSH1 0x20 ADD ADD MLOAD DUP5 DUP3 DUP2 MLOAD DUP2 LT PUSH2 0x1F1 JUMPI PUSH2 0x1F0 PUSH2 0x5F8 JUMP JUMPDEST JUMPDEST PUSH1 0x20 MUL PUSH1 0x20 ADD ADD DUP2 DUP2 MSTORE POP POP DUP3 DUP1 PUSH2 0x208 SWAP1 PUSH2 0x625 JUMP JUMPDEST SWAP4 POP POP DUP1 DUP1 PUSH2 0x216 SWAP1 PUSH2 0x625 JUMP JUMPDEST SWAP2 POP POP PUSH2 0x1BB JUMP JUMPDEST JUMPDEST DUP6 DUP3 LT ISZERO PUSH2 0x282 JUMPI DUP7 DUP3 DUP2 MLOAD DUP2 LT PUSH2 0x23A JUMPI PUSH2 0x239 PUSH2 0x5F8 JUMP JUMPDEST JUMPDEST PUSH1 0x20 MUL PUSH1 0x20 ADD ADD MLOAD DUP5 DUP3 DUP2 MLOAD DUP2 LT PUSH2 0x255 JUMPI PUSH2 0x254 PUSH2 0x5F8 JUMP JUMPDEST JUMPDEST PUSH1 0x20 MUL PUSH1 0x20 ADD ADD DUP2 DUP2 MSTORE POP POP DUP2 DUP1 PUSH2 0x26C SWAP1 PUSH2 0x625 JUMP JUMPDEST SWAP3 POP POP DUP1 DUP1 PUSH2 0x27A SWAP1 PUSH2 0x625 JUMP JUMPDEST SWAP2 POP POP PUSH2 0x21F JUMP JUMPDEST DUP4 SWAP5 POP POP POP POP POP SWAP5 SWAP4 POP POP POP POP JUMP JUMPDEST PUSH0 PUSH1 0x40 MLOAD SWAP1 POP SWAP1 JUMP JUMPDEST PUSH0 PUSH0 REVERT JUMPDEST PUSH0 PUSH0 REVERT JUMPDEST PUSH0 PUSH0 REVERT JUMPDEST PUSH0 PUSH1 0x1F NOT PUSH1 0x1F DUP4 ADD AND SWAP1 POP SWAP2 SWAP1 POP JUMP JUMPDEST PUSH32 0x4E487B7100000000000000000000000000000000000000000000000000000000 PUSH0 MSTORE PUSH1 0x41 PUSH1 0x4 MSTORE PUSH1 0x24 PUSH0 REVERT JUMPDEST PUSH2 0x2EC DUP3 PUSH2 0x2A6 JUMP JUMPDEST DUP2 ADD DUP2 DUP2 LT PUSH8 0xFFFFFFFFFFFFFFFF DUP3 GT OR ISZERO PUSH2 0x30B JUMPI PUSH2 0x30A PUSH2 0x2B6 JUMP JUMPDEST JUMPDEST DUP1 PUSH1 0x40 MSTORE POP POP POP JUMP JUMPDEST PUSH0 PUSH2 0x31D PUSH2 0x291 JUMP JUMPDEST SWAP1 POP PUSH2 0x329 DUP3 DUP3 PUSH2 0x2E3 JUMP JUMPDEST SWAP2 SWAP1 POP JUMP JUMPDEST PUSH0 PUSH8 0xFFFFFFFFFFFFFFFF DUP3 GT ISZERO PUSH2 0x348 JUMPI PUSH2 0x347 PUSH2 0x2B6 JUMP JUMPDEST JUMPDEST PUSH1 0x20 DUP3 MUL SWAP1 POP PUSH1 0x20 DUP2 ADD SWAP1 POP SWAP2 SWAP1 POP JUMP JUMPDEST PUSH0 PUSH0 REVERT JUMPDEST PUSH0 DUP2 SWAP1 POP SWAP2 SWAP1 POP JUMP JUMPDEST PUSH2 0x36F DUP2 PUSH2 0x35D JUMP JUMPDEST DUP2 EQ PUSH2 0x379 JUMPI PUSH0 PUSH0 REVERT JUMPDEST POP JUMP JUMPDEST PUSH0 DUP2 CALLDATALOAD SWAP1 POP PUSH2 0x38A DUP2 PUSH2 0x366 JUMP JUMPDEST SWAP3 SWAP2 POP POP JUMP JUMPDEST PUSH0 PUSH2 0x3A2 PUSH2 0x39D DUP5 PUSH2 0x32E JUMP JUMPDEST PUSH2 0x314 JUMP JUMPDEST SWAP1 POP DUP1 DUP4 DUP3 MSTORE PUSH1 0x20 DUP3 ADD SWAP1 POP PUSH1 0x20 DUP5 MUL DUP4 ADD DUP6 DUP2 GT ISZERO PUSH2 0x3C5 JUMPI PUSH2 0x3C4 PUSH2 0x359 JUMP JUMPDEST JUMPDEST DUP4 JUMPDEST DUP2 DUP2 LT ISZERO PUSH2 0x3EE JUMPI DUP1 PUSH2 0x3DA DUP9 DUP3 PUSH2 0x37C JUMP JUMPDEST DUP5 MSTORE PUSH1 0x20 DUP5 ADD SWAP4 POP POP PUSH1 0x20 DUP2 ADD SWAP1 POP PUSH2 0x3C7 JUMP JUMPDEST POP POP POP SWAP4 SWAP3 POP POP POP JUMP JUMPDEST PUSH0 DUP3 PUSH1 0x1F DUP4 ADD SLT PUSH2 0x40C JUMPI PUSH2 0x40B PUSH2 0x2A2 JUMP JUMPDEST JUMPDEST DUP2 CALLDATALOAD PUSH2 0x41C DUP5 DUP3 PUSH1 0x20 DUP7 ADD PUSH2 0x390 JUMP JUMPDEST SWAP2 POP POP SWAP3 SWAP2 POP POP JUMP JUMPDEST PUSH0 PUSH0 PUSH0 PUSH0 PUSH1 0x80 DUP6 DUP8 SUB SLT ISZERO PUSH2 0x43D JUMPI PUSH2 0x43C PUSH2 0x29A JUMP JUMPDEST JUMPDEST PUSH0 DUP6 ADD CALLDATALOAD PUSH8 0xFFFFFFFFFFFFFFFF DUP2 GT ISZERO PUSH2 0x45A JUMPI PUSH2 0x459 PUSH2 0x29E JUMP JUMPDEST JUMPDEST PUSH2 0x466 DUP8 DUP3 DUP9 ADD PUSH2 0x3F8 JUMP JUMPDEST SWAP5 POP POP PUSH1 0x20 PUSH2 0x477 DUP8 DUP3 DUP9 ADD PUSH2 0x37C JUMP JUMPDEST SWAP4 POP POP PUSH1 0x40 DUP6 ADD CALLDATALOAD PUSH8 0xFFFFFFFFFFFFFFFF DUP2 GT ISZERO PUSH2 0x498 JUMPI PUSH2 0x497 PUSH2 0x29E JUMP JUMPDEST JUMPDEST PUSH2 0x4A4 DUP8 DUP3 DUP9 ADD PUSH2 0x3F8 JUMP JUMPDEST SWAP3 POP POP PUSH1 0x60 PUSH2 0x4B5 DUP8 DUP3 DUP9 ADD PUSH2 0x37C JUMP JUMPDEST SWAP2 POP POP SWAP3 SWAP6 SWAP2 SWAP5 POP SWAP3 POP JUMP JUMPDEST PUSH0 DUP2 MLOAD SWAP1 POP SWAP2 SWAP1 POP JUMP JUMPDEST PUSH0 DUP3 DUP3 MSTORE PUSH1 0x20 DUP3 ADD SWAP1 POP SWAP3 SWAP2 POP POP JUMP JUMPDEST PUSH0 DUP2 SWAP1 POP PUSH1 0x20 DUP3 ADD SWAP1 POP SWAP2 SWAP1 POP JUMP JUMPDEST PUSH2 0x4F3 DUP2 PUSH2 0x35D JUMP JUMPDEST DUP3 MSTORE POP POP JUMP JUMPDEST PUSH0 PUSH2 0x504 DUP4 DUP4 PUSH2 0x4EA JUMP JUMPDEST PUSH1 0x20 DUP4 ADD SWAP1 POP SWAP3 SWAP2 POP POP JUMP JUMPDEST PUSH0 PUSH1 0x20 DUP3 ADD SWAP1 POP SWAP2 SWAP1 POP JUMP JUMPDEST PUSH0 PUSH2 0x526 DUP3 PUSH2 0x4C1 JUMP JUMPDEST PUSH2 0x530 DUP2 DUP6 PUSH2 0x4CB JUMP JUMPDEST SWAP4 POP PUSH2 0x53B DUP4 PUSH2 0x4DB JUMP JUMPDEST DUP1 PUSH0 JUMPDEST DUP4 DUP2 LT ISZERO PUSH2 0x56B JUMPI DUP2 MLOAD PUSH2 0x552 DUP9 DUP3 PUSH2 0x4F9 JUMP JUMPDEST SWAP8 POP PUSH2 0x55D DUP4 PUSH2 0x510 JUMP JUMPDEST SWAP3 POP POP PUSH1 0x1 DUP2 ADD SWAP1 POP PUSH2 0x53E JUMP JUMPDEST POP DUP6 SWAP4 POP POP POP POP SWAP3 SWAP2 POP POP JUMP JUMPDEST PUSH0 PUSH1 0x20 DUP3 ADD SWAP1 POP DUP2 DUP2 SUB PUSH0 DUP4 ADD MSTORE PUSH2 0x590 DUP2 DUP5 PUSH2 0x51C JUMP JUMPDEST SWAP1 POP SWAP3 SWAP2 POP POP JUMP JUMPDEST PUSH32 0x4E487B7100000000000000000000000000000000000000000000000000000000 PUSH0 MSTORE PUSH1 0x11 PUSH1 0x4 MSTORE PUSH1 0x24 PUSH0 REVERT JUMPDEST PUSH0 PUSH2 0x5CF DUP3 PUSH2 0x35D JUMP JUMPDEST SWAP2 POP PUSH2 0x5DA DUP4 PUSH2 0x35D JUMP JUMPDEST SWAP3 POP DUP3 DUP3 ADD SWAP1 POP DUP1 DUP3 GT ISZERO PUSH2 0x5F2 JUMPI PUSH2 0x5F1 PUSH2 0x598 JUMP JUMPDEST JUMPDEST SWAP3 SWAP2 POP POP JUMP JUMPDEST PUSH32 0x4E487B7100000000000000000000000000000000000000000000000000000000 PUSH0 MSTORE PUSH1 0x32 PUSH1 0x4 MSTORE PUSH1 0x24 PUSH0 REVERT JUMPDEST PUSH0 PUSH2 0x62F DUP3 PUSH2 0x35D JUMP JUMPDEST SWAP2 POP PUSH32 0xFFFFFFFFFFFFFFFFFFFFFFFFFFFFFFFFFFFFFFFFFFFFFFFFFFFFFFFFFFFFFFFF DUP3 SUB PUSH2 0x661 JUMPI PUSH2 0x660 PUSH2 0x598 JUMP JUMPDEST JUMPDEST PUSH1 0x1 DUP3 ADD SWAP1 POP SWAP2 SWAP1 POP JUMP INVALID LOG2 PUSH5 0x6970667358 0x22 SLT KECCAK256 0xAF RETURNDATACOPY SWAP8 DATALOADN 0xAF52 0xB7 LOG0 MSTORE 0xE KECCAK256 ADD EXTCALL SWAP8 0xD4 DUP12 DUP12 0xAC SLOAD CALLDATASIZE JUMPI SWAP13 BASEFEE 0xF6 DUP2 0xBC 0x2A DUP15 JUMP 0xDE DUP14 DUP6 PUSH5 0x736F6C6343 STOP ADDMOD 0x1E STOP CALLER "
				},
				"gasEstimates": {
					"creation": {
						"codeDepositCost": "339600",
						"executionCost": "378",
						"totalCost": "339978"
					},
					"external": {
						"merge(uint256[],uint256,uint256[],uint256)": "infinite"
					}
				},
				"methodIdentifiers": {
					"merge(uint256[],uint256,uint256[],uint256)": "d0c42f1a"
				}
			},
			"storageLayout": {
				"storage": [],
				"types": null
			},
			"userdoc": {
				"kind": "user",
				"methods": {},
				"version": 1
			}
		}
	}
}