{
	"assignments/first/03/03.sol": {
		"RomanToInteger": {
			"abi": [
				{
					"inputs": [],
					"name": "Test",
					"outputs": [],
					"stateMutability": "pure",
					"type": "function"
				},
				{
					"inputs": [
						{
							"internalType": "string",
							"name": "input",
							"type": "string"
						}
					],
					"name": "romanToInt",
					"outputs": [
						{
							"internalType": "uint256",
							"name": "",
							"type": "uint256"
						}
					],
					"stateMutability": "pure",
					"type": "function"
				}
			],
			"devdoc": {
				"kind": "dev",
				"methods": {},
				"version": 1
			},
			"evm": {
				"assembly": "    /* \"assignments/first/03/03.sol\":1171:2663  contract RomanToInteger {... */\n  mstore(0x40, 0x80)\n  callvalue\n  dup1\n  iszero\n  tag_1\n  jumpi\n  revert(0x00, 0x00)\ntag_1:\n  pop\n  dataSize(sub_0)\n  dup1\n  dataOffset(sub_0)\n  0x00\n  codecopy\n  0x00\n  return\nstop\n\nsub_0: assembly {\n        /* \"assignments/first/03/03.sol\":1171:2663  contract RomanToInteger {... */\n      mstore(0x40, 0x80)\n      callvalue\n      dup1\n      iszero\n      tag_1\n      jumpi\n      revert(0x00, 0x00)\n    tag_1:\n      pop\n      jumpi(tag_2, lt(calldatasize, 0x04))\n      shr(0xe0, calldataload(0x00))\n      dup1\n      0xa163a624\n      eq\n      tag_3\n      jumpi\n      dup1\n      0xcb159dfe\n      eq\n      tag_4\n      jumpi\n    tag_2:\n      revert(0x00, 0x00)\n        /* \"assignments/first/03/03.sol\":2399:2660  function Test() external pure {... */\n    tag_3:\n      tag_5\n      tag_6\n      jump\t// in\n    tag_5:\n      stop\n        /* \"assignments/first/03/03.sol\":1226:1991  function romanToInt(string memory input) pure public returns(uint256){... */\n    tag_4:\n      tag_7\n      0x04\n      dup1\n      calldatasize\n      sub\n      dup2\n      add\n      swap1\n      tag_8\n      swap2\n      swap1\n      tag_9\n      jump\t// in\n    tag_8:\n      tag_10\n      jump\t// in\n    tag_7:\n      mload(0x40)\n      tag_11\n      swap2\n      swap1\n      tag_12\n      jump\t// in\n    tag_11:\n      mload(0x40)\n      dup1\n      swap2\n      sub\n      swap1\n      return\n        /* \"assignments/first/03/03.sol\":2399:2660  function Test() external pure {... */\n    tag_6:\n        /* \"assignments/first/03/03.sol\":2469:2470  3 */\n      0x03\n        /* \"assignments/first/03/03.sol\":2448:2465  romanToInt(\"III\") */\n      tag_14\n      mload(0x40)\n      dup1\n      0x40\n      add\n      0x40\n      mstore\n      dup1\n      0x03\n      dup2\n      mstore\n      0x20\n      add\n      0x4949490000000000000000000000000000000000000000000000000000000000\n      dup2\n      mstore\n      pop\n        /* \"assignments/first/03/03.sol\":2448:2458  romanToInt */\n      tag_10\n        /* \"assignments/first/03/03.sol\":2448:2465  romanToInt(\"III\") */\n      jump\t// in\n    tag_14:\n        /* \"assignments/first/03/03.sol\":2448:2470  romanToInt(\"III\") == 3 */\n      eq\n        /* \"assignments/first/03/03.sol\":2440:2484  require(romanToInt(\"III\") == 3,\"test1 fail\") */\n      tag_15\n      jumpi\n      mload(0x40)\n      0x08c379a000000000000000000000000000000000000000000000000000000000\n      dup2\n      mstore\n      0x04\n      add\n      tag_16\n      swap1\n      tag_17\n      jump\t// in\n    tag_16:\n      mload(0x40)\n      dup1\n      swap2\n      sub\n      swap1\n      revert\n    tag_15:\n        /* \"assignments/first/03/03.sol\":2523:2524  4 */\n      0x04\n        /* \"assignments/first/03/03.sol\":2503:2519  romanToInt(\"IV\") */\n      tag_18\n      mload(0x40)\n      dup1\n      0x40\n      add\n      0x40\n      mstore\n      dup1\n      0x02\n      dup2\n      mstore\n      0x20\n      add\n      0x4956000000000000000000000000000000000000000000000000000000000000\n      dup2\n      mstore\n      pop\n        /* \"assignments/first/03/03.sol\":2503:2513  romanToInt */\n      tag_10\n        /* \"assignments/first/03/03.sol\":2503:2519  romanToInt(\"IV\") */\n      jump\t// in\n    tag_18:\n        /* \"assignments/first/03/03.sol\":2503:2524  romanToInt(\"IV\") == 4 */\n      eq\n        /* \"assignments/first/03/03.sol\":2495:2538  require(romanToInt(\"IV\") == 4,\"test2 fail\") */\n      tag_19\n      jumpi\n      mload(0x40)\n      0x08c379a000000000000000000000000000000000000000000000000000000000\n      dup2\n      mstore\n      0x04\n      add\n      tag_20\n      swap1\n      tag_21\n      jump\t// in\n    tag_20:\n      mload(0x40)\n      dup1\n      swap2\n      sub\n      swap1\n      revert\n    tag_19:\n        /* \"assignments/first/03/03.sol\":2580:2582  27 */\n      0x1b\n        /* \"assignments/first/03/03.sol\":2557:2576  romanToInt(\"XXVII\") */\n      tag_22\n      mload(0x40)\n      dup1\n      0x40\n      add\n      0x40\n      mstore\n      dup1\n      0x05\n      dup2\n      mstore\n      0x20\n      add\n      0x5858564949000000000000000000000000000000000000000000000000000000\n      dup2\n      mstore\n      pop\n        /* \"assignments/first/03/03.sol\":2557:2567  romanToInt */\n      tag_10\n        /* \"assignments/first/03/03.sol\":2557:2576  romanToInt(\"XXVII\") */\n      jump\t// in\n    tag_22:\n        /* \"assignments/first/03/03.sol\":2557:2582  romanToInt(\"XXVII\") == 27 */\n      eq\n        /* \"assignments/first/03/03.sol\":2549:2596  require(romanToInt(\"XXVII\") == 27,\"test3 fail\") */\n      tag_23\n      jumpi\n      mload(0x40)\n      0x08c379a000000000000000000000000000000000000000000000000000000000\n      dup2\n      mstore\n      0x04\n      add\n      tag_24\n      swap1\n      tag_25\n      jump\t// in\n    tag_24:\n      mload(0x40)\n      dup1\n      swap2\n      sub\n      swap1\n      revert\n    tag_23:\n        /* \"assignments/first/03/03.sol\":2636:2638  14 */\n      0x0e\n        /* \"assignments/first/03/03.sol\":2615:2632  romanToInt(\"XIV\") */\n      tag_26\n      mload(0x40)\n      dup1\n      0x40\n      add\n      0x40\n      mstore\n      dup1\n      0x03\n      dup2\n      mstore\n      0x20\n      add\n      0x5849560000000000000000000000000000000000000000000000000000000000\n      dup2\n      mstore\n      pop\n        /* \"assignments/first/03/03.sol\":2615:2625  romanToInt */\n      tag_10\n        /* \"assignments/first/03/03.sol\":2615:2632  romanToInt(\"XIV\") */\n      jump\t// in\n    tag_26:\n        /* \"assignments/first/03/03.sol\":2615:2638  romanToInt(\"XIV\") == 14 */\n      eq\n        /* \"assignments/first/03/03.sol\":2607:2652  require(romanToInt(\"XIV\") == 14,\"test4 fail\") */\n      tag_27\n      jumpi\n      mload(0x40)\n      0x08c379a000000000000000000000000000000000000000000000000000000000\n      dup2\n      mstore\n      0x04\n      add\n      tag_28\n      swap1\n      tag_29\n      jump\t// in\n    tag_28:\n      mload(0x40)\n      dup1\n      swap2\n      sub\n      swap1\n      revert\n    tag_27:\n        /* \"assignments/first/03/03.sol\":2399:2660  function Test() external pure {... */\n      jump\t// out\n        /* \"assignments/first/03/03.sol\":1226:1991  function romanToInt(string memory input) pure public returns(uint256){... */\n    tag_10:\n        /* \"assignments/first/03/03.sol\":1287:1294  uint256 */\n      0x00\n        /* \"assignments/first/03/03.sol\":1351:1374  bytes memory inputBytes */\n      0x00\n        /* \"assignments/first/03/03.sol\":1383:1388  input */\n      dup3\n        /* \"assignments/first/03/03.sol\":1351:1389  bytes memory inputBytes = bytes(input) */\n      swap1\n      pop\n        /* \"assignments/first/03/03.sol\":1400:1411  uint256 len */\n      0x00\n        /* \"assignments/first/03/03.sol\":1414:1424  inputBytes */\n      dup2\n        /* \"assignments/first/03/03.sol\":1414:1431  inputBytes.length */\n      mload\n        /* \"assignments/first/03/03.sol\":1400:1431  uint256 len = inputBytes.length */\n      swap1\n      pop\n        /* \"assignments/first/03/03.sol\":1442:1453  uint256 res */\n      0x00\n        /* \"assignments/first/03/03.sol\":1456:1457  0 */\n      0x00\n        /* \"assignments/first/03/03.sol\":1442:1457  uint256 res = 0 */\n      swap1\n      pop\n        /* \"assignments/first/03/03.sol\":1506:1515  uint256 i */\n      0x00\n        /* \"assignments/first/03/03.sol\":1516:1517  0 */\n      0x00\n        /* \"assignments/first/03/03.sol\":1506:1517  uint256 i=0 */\n      swap1\n      pop\n        /* \"assignments/first/03/03.sol\":1501:1963  for (uint256 i=0;i<len;i++) {... */\n    tag_31:\n        /* \"assignments/first/03/03.sol\":1520:1523  len */\n      dup3\n        /* \"assignments/first/03/03.sol\":1518:1519  i */\n      dup2\n        /* \"assignments/first/03/03.sol\":1518:1523  i<len */\n      lt\n        /* \"assignments/first/03/03.sol\":1501:1963  for (uint256 i=0;i<len;i++) {... */\n      iszero\n      tag_32\n      jumpi\n        /* \"assignments/first/03/03.sol\":1593:1604  uint256 cur */\n      0x00\n        /* \"assignments/first/03/03.sol\":1607:1632  _byteToInt(inputBytes[i]) */\n      tag_34\n        /* \"assignments/first/03/03.sol\":1618:1628  inputBytes */\n      dup6\n        /* \"assignments/first/03/03.sol\":1629:1630  i */\n      dup4\n        /* \"assignments/first/03/03.sol\":1618:1631  inputBytes[i] */\n      dup2\n      mload\n      dup2\n      lt\n      tag_35\n      jumpi\n      tag_36\n      tag_37\n      jump\t// in\n    tag_36:\n    tag_35:\n      0x20\n      add\n      add\n      mload\n      0xf8\n      shr\n      0xf8\n      shl\n        /* \"assignments/first/03/03.sol\":1607:1617  _byteToInt */\n      tag_38\n        /* \"assignments/first/03/03.sol\":1607:1632  _byteToInt(inputBytes[i]) */\n      jump\t// in\n    tag_34:\n        /* \"assignments/first/03/03.sol\":1593:1632  uint256 cur = _byteToInt(inputBytes[i]) */\n      swap1\n      pop\n        /* \"assignments/first/03/03.sol\":1655:1658  len */\n      dup4\n        /* \"assignments/first/03/03.sol\":1653:1654  1 */\n      0x01\n        /* \"assignments/first/03/03.sol\":1651:1652  i */\n      dup4\n        /* \"assignments/first/03/03.sol\":1651:1654  i+1 */\n      tag_39\n      swap2\n      swap1\n      tag_40\n      jump\t// in\n    tag_39:\n        /* \"assignments/first/03/03.sol\":1651:1658  i+1<len */\n      lt\n        /* \"assignments/first/03/03.sol\":1647:1927  if (i+1<len) {... */\n      iszero\n      tag_41\n      jumpi\n        /* \"assignments/first/03/03.sol\":1679:1691  uint256 next */\n      0x00\n        /* \"assignments/first/03/03.sol\":1694:1721  _byteToInt(inputBytes[i+1]) */\n      tag_42\n        /* \"assignments/first/03/03.sol\":1705:1715  inputBytes */\n      dup7\n        /* \"assignments/first/03/03.sol\":1718:1719  1 */\n      0x01\n        /* \"assignments/first/03/03.sol\":1716:1717  i */\n      dup6\n        /* \"assignments/first/03/03.sol\":1716:1719  i+1 */\n      tag_43\n      swap2\n      swap1\n      tag_40\n      jump\t// in\n    tag_43:\n        /* \"assignments/first/03/03.sol\":1705:1720  inputBytes[i+1] */\n      dup2\n      mload\n      dup2\n      lt\n      tag_44\n      jumpi\n      tag_45\n      tag_37\n      jump\t// in\n    tag_45:\n    tag_44:\n      0x20\n      add\n      add\n      mload\n      0xf8\n      shr\n      0xf8\n      shl\n        /* \"assignments/first/03/03.sol\":1694:1704  _byteToInt */\n      tag_38\n        /* \"assignments/first/03/03.sol\":1694:1721  _byteToInt(inputBytes[i+1]) */\n      jump\t// in\n    tag_42:\n        /* \"assignments/first/03/03.sol\":1679:1721  uint256 next = _byteToInt(inputBytes[i+1]) */\n      swap1\n      pop\n        /* \"assignments/first/03/03.sol\":1791:1795  next */\n      dup1\n        /* \"assignments/first/03/03.sol\":1785:1788  cur */\n      dup3\n        /* \"assignments/first/03/03.sol\":1785:1795  cur < next */\n      lt\n        /* \"assignments/first/03/03.sol\":1781:1912  if (cur < next) {... */\n      iszero\n      tag_46\n      jumpi\n        /* \"assignments/first/03/03.sol\":1832:1835  cur */\n      dup2\n        /* \"assignments/first/03/03.sol\":1827:1831  next */\n      dup2\n        /* \"assignments/first/03/03.sol\":1827:1835  next-cur */\n      tag_47\n      swap2\n      swap1\n      tag_48\n      jump\t// in\n    tag_47:\n        /* \"assignments/first/03/03.sol\":1820:1835  res += next-cur */\n      dup5\n      tag_49\n      swap2\n      swap1\n      tag_40\n      jump\t// in\n    tag_49:\n      swap4\n      pop\n        /* \"assignments/first/03/03.sol\":1858:1861  i++ */\n      dup3\n      dup1\n      tag_50\n      swap1\n      tag_51\n      jump\t// in\n    tag_50:\n      swap4\n      pop\n      pop\n        /* \"assignments/first/03/03.sol\":1884:1892  continue */\n      pop\n      pop\n      jump(tag_33)\n        /* \"assignments/first/03/03.sol\":1781:1912  if (cur < next) {... */\n    tag_46:\n        /* \"assignments/first/03/03.sol\":1660:1927  {... */\n      pop\n        /* \"assignments/first/03/03.sol\":1647:1927  if (i+1<len) {... */\n    tag_41:\n        /* \"assignments/first/03/03.sol\":1948:1951  cur */\n      dup1\n        /* \"assignments/first/03/03.sol\":1941:1951  res += cur */\n      dup4\n      tag_52\n      swap2\n      swap1\n      tag_40\n      jump\t// in\n    tag_52:\n      swap3\n      pop\n        /* \"assignments/first/03/03.sol\":1529:1963  {... */\n      pop\n        /* \"assignments/first/03/03.sol\":1501:1963  for (uint256 i=0;i<len;i++) {... */\n    tag_33:\n        /* \"assignments/first/03/03.sol\":1524:1527  i++ */\n      dup1\n      dup1\n      tag_53\n      swap1\n      tag_51\n      jump\t// in\n    tag_53:\n      swap2\n      pop\n      pop\n        /* \"assignments/first/03/03.sol\":1501:1963  for (uint256 i=0;i<len;i++) {... */\n      jump(tag_31)\n    tag_32:\n      pop\n        /* \"assignments/first/03/03.sol\":1980:1983  res */\n      dup1\n        /* \"assignments/first/03/03.sol\":1973:1983  return res */\n      swap4\n      pop\n      pop\n      pop\n      pop\n        /* \"assignments/first/03/03.sol\":1226:1991  function romanToInt(string memory input) pure public returns(uint256){... */\n      swap2\n      swap1\n      pop\n      jump\t// out\n        /* \"assignments/first/03/03.sol\":1999:2374  function _byteToInt(bytes1 char) private pure returns(uint256) {... */\n    tag_38:\n        /* \"assignments/first/03/03.sol\":2053:2060  uint256 */\n      0x00\n        /* \"assignments/first/03/03.sol\":2076:2087  char == 'I' */\n      0x4900000000000000000000000000000000000000000000000000000000000000\n        /* \"assignments/first/03/03.sol\":2076:2080  char */\n      dup3\n        /* \"assignments/first/03/03.sol\":2076:2087  char == 'I' */\n      not(0xffffffffffffffffffffffffffffffffffffffffffffffffffffffffffffff)\n      and\n      sub\n        /* \"assignments/first/03/03.sol\":2072:2097  if (char == 'I') return 1 */\n      tag_55\n      jumpi\n        /* \"assignments/first/03/03.sol\":2096:2097  1 */\n      0x01\n        /* \"assignments/first/03/03.sol\":2089:2097  return 1 */\n      swap1\n      pop\n      jump(tag_54)\n        /* \"assignments/first/03/03.sol\":2072:2097  if (char == 'I') return 1 */\n    tag_55:\n        /* \"assignments/first/03/03.sol\":2112:2123  char == 'V' */\n      0x5600000000000000000000000000000000000000000000000000000000000000\n        /* \"assignments/first/03/03.sol\":2112:2116  char */\n      dup3\n        /* \"assignments/first/03/03.sol\":2112:2123  char == 'V' */\n      not(0xffffffffffffffffffffffffffffffffffffffffffffffffffffffffffffff)\n      and\n      sub\n        /* \"assignments/first/03/03.sol\":2108:2133  if (char == 'V') return 5 */\n      tag_56\n      jumpi\n        /* \"assignments/first/03/03.sol\":2132:2133  5 */\n      0x05\n        /* \"assignments/first/03/03.sol\":2125:2133  return 5 */\n      swap1\n      pop\n      jump(tag_54)\n        /* \"assignments/first/03/03.sol\":2108:2133  if (char == 'V') return 5 */\n    tag_56:\n        /* \"assignments/first/03/03.sol\":2148:2159  char == 'X' */\n      0x5800000000000000000000000000000000000000000000000000000000000000\n        /* \"assignments/first/03/03.sol\":2148:2152  char */\n      dup3\n        /* \"assignments/first/03/03.sol\":2148:2159  char == 'X' */\n      not(0xffffffffffffffffffffffffffffffffffffffffffffffffffffffffffffff)\n      and\n      sub\n        /* \"assignments/first/03/03.sol\":2144:2170  if (char == 'X') return 10 */\n      tag_57\n      jumpi\n        /* \"assignments/first/03/03.sol\":2168:2170  10 */\n      0x0a\n        /* \"assignments/first/03/03.sol\":2161:2170  return 10 */\n      swap1\n      pop\n      jump(tag_54)\n        /* \"assignments/first/03/03.sol\":2144:2170  if (char == 'X') return 10 */\n    tag_57:\n        /* \"assignments/first/03/03.sol\":2185:2196  char == 'L' */\n      0x4c00000000000000000000000000000000000000000000000000000000000000\n        /* \"assignments/first/03/03.sol\":2185:2189  char */\n      dup3\n        /* \"assignments/first/03/03.sol\":2185:2196  char == 'L' */\n      not(0xffffffffffffffffffffffffffffffffffffffffffffffffffffffffffffff)\n      and\n      sub\n        /* \"assignments/first/03/03.sol\":2181:2207  if (char == 'L') return 50 */\n      tag_58\n      jumpi\n        /* \"assignments/first/03/03.sol\":2205:2207  50 */\n      0x32\n        /* \"assignments/first/03/03.sol\":2198:2207  return 50 */\n      swap1\n      pop\n      jump(tag_54)\n        /* \"assignments/first/03/03.sol\":2181:2207  if (char == 'L') return 50 */\n    tag_58:\n        /* \"assignments/first/03/03.sol\":2222:2233  char == 'C' */\n      0x4300000000000000000000000000000000000000000000000000000000000000\n        /* \"assignments/first/03/03.sol\":2222:2226  char */\n      dup3\n        /* \"assignments/first/03/03.sol\":2222:2233  char == 'C' */\n      not(0xffffffffffffffffffffffffffffffffffffffffffffffffffffffffffffff)\n      and\n      sub\n        /* \"assignments/first/03/03.sol\":2218:2245  if (char == 'C') return 100 */\n      tag_59\n      jumpi\n        /* \"assignments/first/03/03.sol\":2242:2245  100 */\n      0x64\n        /* \"assignments/first/03/03.sol\":2235:2245  return 100 */\n      swap1\n      pop\n      jump(tag_54)\n        /* \"assignments/first/03/03.sol\":2218:2245  if (char == 'C') return 100 */\n    tag_59:\n        /* \"assignments/first/03/03.sol\":2260:2271  char == 'D' */\n      0x4400000000000000000000000000000000000000000000000000000000000000\n        /* \"assignments/first/03/03.sol\":2260:2264  char */\n      dup3\n        /* \"assignments/first/03/03.sol\":2260:2271  char == 'D' */\n      not(0xffffffffffffffffffffffffffffffffffffffffffffffffffffffffffffff)\n      and\n      sub\n        /* \"assignments/first/03/03.sol\":2256:2283  if (char == 'D') return 500 */\n      tag_60\n      jumpi\n        /* \"assignments/first/03/03.sol\":2280:2283  500 */\n      0x01f4\n        /* \"assignments/first/03/03.sol\":2273:2283  return 500 */\n      swap1\n      pop\n      jump(tag_54)\n        /* \"assignments/first/03/03.sol\":2256:2283  if (char == 'D') return 500 */\n    tag_60:\n        /* \"assignments/first/03/03.sol\":2298:2309  char == 'M' */\n      0x4d00000000000000000000000000000000000000000000000000000000000000\n        /* \"assignments/first/03/03.sol\":2298:2302  char */\n      dup3\n        /* \"assignments/first/03/03.sol\":2298:2309  char == 'M' */\n      not(0xffffffffffffffffffffffffffffffffffffffffffffffffffffffffffffff)\n      and\n      sub\n        /* \"assignments/first/03/03.sol\":2294:2322  if (char == 'M') return 1000 */\n      tag_61\n      jumpi\n        /* \"assignments/first/03/03.sol\":2318:2322  1000 */\n      0x03e8\n        /* \"assignments/first/03/03.sol\":2311:2322  return 1000 */\n      swap1\n      pop\n      jump(tag_54)\n        /* \"assignments/first/03/03.sol\":2294:2322  if (char == 'M') return 1000 */\n    tag_61:\n        /* \"assignments/first/03/03.sol\":2333:2366  revert(\"Invalid Roman character\") */\n      mload(0x40)\n      0x08c379a000000000000000000000000000000000000000000000000000000000\n      dup2\n      mstore\n      0x04\n      add\n      tag_62\n      swap1\n      tag_63\n      jump\t// in\n    tag_62:\n      mload(0x40)\n      dup1\n      swap2\n      sub\n      swap1\n      revert\n        /* \"assignments/first/03/03.sol\":1999:2374  function _byteToInt(bytes1 char) private pure returns(uint256) {... */\n    tag_54:\n      swap2\n      swap1\n      pop\n      jump\t// out\n        /* \"#utility.yul\":7:82   */\n    tag_64:\n        /* \"#utility.yul\":40:46   */\n      0x00\n        /* \"#utility.yul\":73:75   */\n      0x40\n        /* \"#utility.yul\":67:76   */\n      mload\n        /* \"#utility.yul\":57:76   */\n      swap1\n      pop\n        /* \"#utility.yul\":7:82   */\n      swap1\n      jump\t// out\n        /* \"#utility.yul\":88:205   */\n    tag_65:\n        /* \"#utility.yul\":197:198   */\n      0x00\n        /* \"#utility.yul\":194:195   */\n      0x00\n        /* \"#utility.yul\":187:199   */\n      revert\n        /* \"#utility.yul\":211:328   */\n    tag_66:\n        /* \"#utility.yul\":320:321   */\n      0x00\n        /* \"#utility.yul\":317:318   */\n      0x00\n        /* \"#utility.yul\":310:322   */\n      revert\n        /* \"#utility.yul\":334:451   */\n    tag_67:\n        /* \"#utility.yul\":443:444   */\n      0x00\n        /* \"#utility.yul\":440:441   */\n      0x00\n        /* \"#utility.yul\":433:445   */\n      revert\n        /* \"#utility.yul\":457:574   */\n    tag_68:\n        /* \"#utility.yul\":566:567   */\n      0x00\n        /* \"#utility.yul\":563:564   */\n      0x00\n        /* \"#utility.yul\":556:568   */\n      revert\n        /* \"#utility.yul\":580:682   */\n    tag_69:\n        /* \"#utility.yul\":621:627   */\n      0x00\n        /* \"#utility.yul\":672:674   */\n      0x1f\n        /* \"#utility.yul\":668:675   */\n      not\n        /* \"#utility.yul\":663:665   */\n      0x1f\n        /* \"#utility.yul\":656:661   */\n      dup4\n        /* \"#utility.yul\":652:666   */\n      add\n        /* \"#utility.yul\":648:676   */\n      and\n        /* \"#utility.yul\":638:676   */\n      swap1\n      pop\n        /* \"#utility.yul\":580:682   */\n      swap2\n      swap1\n      pop\n      jump\t// out\n        /* \"#utility.yul\":688:868   */\n    tag_70:\n        /* \"#utility.yul\":736:813   */\n      0x4e487b7100000000000000000000000000000000000000000000000000000000\n        /* \"#utility.yul\":733:734   */\n      0x00\n        /* \"#utility.yul\":726:814   */\n      mstore\n        /* \"#utility.yul\":833:837   */\n      0x41\n        /* \"#utility.yul\":830:831   */\n      0x04\n        /* \"#utility.yul\":823:838   */\n      mstore\n        /* \"#utility.yul\":857:861   */\n      0x24\n        /* \"#utility.yul\":854:855   */\n      0x00\n        /* \"#utility.yul\":847:862   */\n      revert\n        /* \"#utility.yul\":874:1155   */\n    tag_71:\n        /* \"#utility.yul\":957:984   */\n      tag_100\n        /* \"#utility.yul\":979:983   */\n      dup3\n        /* \"#utility.yul\":957:984   */\n      tag_69\n      jump\t// in\n    tag_100:\n        /* \"#utility.yul\":949:955   */\n      dup2\n        /* \"#utility.yul\":945:985   */\n      add\n        /* \"#utility.yul\":1087:1093   */\n      dup2\n        /* \"#utility.yul\":1075:1085   */\n      dup2\n        /* \"#utility.yul\":1072:1094   */\n      lt\n        /* \"#utility.yul\":1051:1069   */\n      0xffffffffffffffff\n        /* \"#utility.yul\":1039:1049   */\n      dup3\n        /* \"#utility.yul\":1036:1070   */\n      gt\n        /* \"#utility.yul\":1033:1095   */\n      or\n        /* \"#utility.yul\":1030:1118   */\n      iszero\n      tag_101\n      jumpi\n        /* \"#utility.yul\":1098:1116   */\n      tag_102\n      tag_70\n      jump\t// in\n    tag_102:\n        /* \"#utility.yul\":1030:1118   */\n    tag_101:\n        /* \"#utility.yul\":1138:1148   */\n      dup1\n        /* \"#utility.yul\":1134:1136   */\n      0x40\n        /* \"#utility.yul\":1127:1149   */\n      mstore\n        /* \"#utility.yul\":917:1155   */\n      pop\n        /* \"#utility.yul\":874:1155   */\n      pop\n      pop\n      jump\t// out\n        /* \"#utility.yul\":1161:1290   */\n    tag_72:\n        /* \"#utility.yul\":1195:1201   */\n      0x00\n        /* \"#utility.yul\":1222:1242   */\n      tag_104\n      tag_64\n      jump\t// in\n    tag_104:\n        /* \"#utility.yul\":1212:1242   */\n      swap1\n      pop\n        /* \"#utility.yul\":1251:1284   */\n      tag_105\n        /* \"#utility.yul\":1279:1283   */\n      dup3\n        /* \"#utility.yul\":1271:1277   */\n      dup3\n        /* \"#utility.yul\":1251:1284   */\n      tag_71\n      jump\t// in\n    tag_105:\n        /* \"#utility.yul\":1161:1290   */\n      swap2\n      swap1\n      pop\n      jump\t// out\n        /* \"#utility.yul\":1296:1604   */\n    tag_73:\n        /* \"#utility.yul\":1358:1362   */\n      0x00\n        /* \"#utility.yul\":1448:1466   */\n      0xffffffffffffffff\n        /* \"#utility.yul\":1440:1446   */\n      dup3\n        /* \"#utility.yul\":1437:1467   */\n      gt\n        /* \"#utility.yul\":1434:1490   */\n      iszero\n      tag_107\n      jumpi\n        /* \"#utility.yul\":1470:1488   */\n      tag_108\n      tag_70\n      jump\t// in\n    tag_108:\n        /* \"#utility.yul\":1434:1490   */\n    tag_107:\n        /* \"#utility.yul\":1508:1537   */\n      tag_109\n        /* \"#utility.yul\":1530:1536   */\n      dup3\n        /* \"#utility.yul\":1508:1537   */\n      tag_69\n      jump\t// in\n    tag_109:\n        /* \"#utility.yul\":1500:1537   */\n      swap1\n      pop\n        /* \"#utility.yul\":1592:1596   */\n      0x20\n        /* \"#utility.yul\":1586:1590   */\n      dup2\n        /* \"#utility.yul\":1582:1597   */\n      add\n        /* \"#utility.yul\":1574:1597   */\n      swap1\n      pop\n        /* \"#utility.yul\":1296:1604   */\n      swap2\n      swap1\n      pop\n      jump\t// out\n        /* \"#utility.yul\":1610:1758   */\n    tag_74:\n        /* \"#utility.yul\":1708:1714   */\n      dup3\n        /* \"#utility.yul\":1703:1706   */\n      dup2\n        /* \"#utility.yul\":1698:1701   */\n      dup4\n        /* \"#utility.yul\":1685:1715   */\n      calldatacopy\n        /* \"#utility.yul\":1749:1750   */\n      0x00\n        /* \"#utility.yul\":1740:1746   */\n      dup4\n        /* \"#utility.yul\":1735:1738   */\n      dup4\n        /* \"#utility.yul\":1731:1747   */\n      add\n        /* \"#utility.yul\":1724:1751   */\n      mstore\n        /* \"#utility.yul\":1610:1758   */\n      pop\n      pop\n      pop\n      jump\t// out\n        /* \"#utility.yul\":1764:2189   */\n    tag_75:\n        /* \"#utility.yul\":1842:1847   */\n      0x00\n        /* \"#utility.yul\":1867:1933   */\n      tag_112\n        /* \"#utility.yul\":1883:1932   */\n      tag_113\n        /* \"#utility.yul\":1925:1931   */\n      dup5\n        /* \"#utility.yul\":1883:1932   */\n      tag_73\n      jump\t// in\n    tag_113:\n        /* \"#utility.yul\":1867:1933   */\n      tag_72\n      jump\t// in\n    tag_112:\n        /* \"#utility.yul\":1858:1933   */\n      swap1\n      pop\n        /* \"#utility.yul\":1956:1962   */\n      dup3\n        /* \"#utility.yul\":1949:1954   */\n      dup2\n        /* \"#utility.yul\":1942:1963   */\n      mstore\n        /* \"#utility.yul\":1994:1998   */\n      0x20\n        /* \"#utility.yul\":1987:1992   */\n      dup2\n        /* \"#utility.yul\":1983:1999   */\n      add\n        /* \"#utility.yul\":2032:2035   */\n      dup5\n        /* \"#utility.yul\":2023:2029   */\n      dup5\n        /* \"#utility.yul\":2018:2021   */\n      dup5\n        /* \"#utility.yul\":2014:2030   */\n      add\n        /* \"#utility.yul\":2011:2036   */\n      gt\n        /* \"#utility.yul\":2008:2120   */\n      iszero\n      tag_114\n      jumpi\n        /* \"#utility.yul\":2039:2118   */\n      tag_115\n      tag_68\n      jump\t// in\n    tag_115:\n        /* \"#utility.yul\":2008:2120   */\n    tag_114:\n        /* \"#utility.yul\":2129:2183   */\n      tag_116\n        /* \"#utility.yul\":2176:2182   */\n      dup5\n        /* \"#utility.yul\":2171:2174   */\n      dup3\n        /* \"#utility.yul\":2166:2169   */\n      dup6\n        /* \"#utility.yul\":2129:2183   */\n      tag_74\n      jump\t// in\n    tag_116:\n        /* \"#utility.yul\":1848:2189   */\n      pop\n        /* \"#utility.yul\":1764:2189   */\n      swap4\n      swap3\n      pop\n      pop\n      pop\n      jump\t// out\n        /* \"#utility.yul\":2209:2549   */\n    tag_76:\n        /* \"#utility.yul\":2265:2270   */\n      0x00\n        /* \"#utility.yul\":2314:2317   */\n      dup3\n        /* \"#utility.yul\":2307:2311   */\n      0x1f\n        /* \"#utility.yul\":2299:2305   */\n      dup4\n        /* \"#utility.yul\":2295:2312   */\n      add\n        /* \"#utility.yul\":2291:2318   */\n      slt\n        /* \"#utility.yul\":2281:2403   */\n      tag_118\n      jumpi\n        /* \"#utility.yul\":2322:2401   */\n      tag_119\n      tag_67\n      jump\t// in\n    tag_119:\n        /* \"#utility.yul\":2281:2403   */\n    tag_118:\n        /* \"#utility.yul\":2439:2445   */\n      dup2\n        /* \"#utility.yul\":2426:2446   */\n      calldataload\n        /* \"#utility.yul\":2464:2543   */\n      tag_120\n        /* \"#utility.yul\":2539:2542   */\n      dup5\n        /* \"#utility.yul\":2531:2537   */\n      dup3\n        /* \"#utility.yul\":2524:2528   */\n      0x20\n        /* \"#utility.yul\":2516:2522   */\n      dup7\n        /* \"#utility.yul\":2512:2529   */\n      add\n        /* \"#utility.yul\":2464:2543   */\n      tag_75\n      jump\t// in\n    tag_120:\n        /* \"#utility.yul\":2455:2543   */\n      swap2\n      pop\n        /* \"#utility.yul\":2271:2549   */\n      pop\n        /* \"#utility.yul\":2209:2549   */\n      swap3\n      swap2\n      pop\n      pop\n      jump\t// out\n        /* \"#utility.yul\":2555:3064   */\n    tag_9:\n        /* \"#utility.yul\":2624:2630   */\n      0x00\n        /* \"#utility.yul\":2673:2675   */\n      0x20\n        /* \"#utility.yul\":2661:2670   */\n      dup3\n        /* \"#utility.yul\":2652:2659   */\n      dup5\n        /* \"#utility.yul\":2648:2671   */\n      sub\n        /* \"#utility.yul\":2644:2676   */\n      slt\n        /* \"#utility.yul\":2641:2760   */\n      iszero\n      tag_122\n      jumpi\n        /* \"#utility.yul\":2679:2758   */\n      tag_123\n      tag_65\n      jump\t// in\n    tag_123:\n        /* \"#utility.yul\":2641:2760   */\n    tag_122:\n        /* \"#utility.yul\":2827:2828   */\n      0x00\n        /* \"#utility.yul\":2816:2825   */\n      dup3\n        /* \"#utility.yul\":2812:2829   */\n      add\n        /* \"#utility.yul\":2799:2830   */\n      calldataload\n        /* \"#utility.yul\":2857:2875   */\n      0xffffffffffffffff\n        /* \"#utility.yul\":2849:2855   */\n      dup2\n        /* \"#utility.yul\":2846:2876   */\n      gt\n        /* \"#utility.yul\":2843:2960   */\n      iszero\n      tag_124\n      jumpi\n        /* \"#utility.yul\":2879:2958   */\n      tag_125\n      tag_66\n      jump\t// in\n    tag_125:\n        /* \"#utility.yul\":2843:2960   */\n    tag_124:\n        /* \"#utility.yul\":2984:3047   */\n      tag_126\n        /* \"#utility.yul\":3039:3046   */\n      dup5\n        /* \"#utility.yul\":3030:3036   */\n      dup3\n        /* \"#utility.yul\":3019:3028   */\n      dup6\n        /* \"#utility.yul\":3015:3037   */\n      add\n        /* \"#utility.yul\":2984:3047   */\n      tag_76\n      jump\t// in\n    tag_126:\n        /* \"#utility.yul\":2974:3047   */\n      swap2\n      pop\n        /* \"#utility.yul\":2770:3057   */\n      pop\n        /* \"#utility.yul\":2555:3064   */\n      swap3\n      swap2\n      pop\n      pop\n      jump\t// out\n        /* \"#utility.yul\":3070:3147   */\n    tag_77:\n        /* \"#utility.yul\":3107:3114   */\n      0x00\n        /* \"#utility.yul\":3136:3141   */\n      dup2\n        /* \"#utility.yul\":3125:3141   */\n      swap1\n      pop\n        /* \"#utility.yul\":3070:3147   */\n      swap2\n      swap1\n      pop\n      jump\t// out\n        /* \"#utility.yul\":3153:3271   */\n    tag_78:\n        /* \"#utility.yul\":3240:3264   */\n      tag_129\n        /* \"#utility.yul\":3258:3263   */\n      dup2\n        /* \"#utility.yul\":3240:3264   */\n      tag_77\n      jump\t// in\n    tag_129:\n        /* \"#utility.yul\":3235:3238   */\n      dup3\n        /* \"#utility.yul\":3228:3265   */\n      mstore\n        /* \"#utility.yul\":3153:3271   */\n      pop\n      pop\n      jump\t// out\n        /* \"#utility.yul\":3277:3499   */\n    tag_12:\n        /* \"#utility.yul\":3370:3374   */\n      0x00\n        /* \"#utility.yul\":3408:3410   */\n      0x20\n        /* \"#utility.yul\":3397:3406   */\n      dup3\n        /* \"#utility.yul\":3393:3411   */\n      add\n        /* \"#utility.yul\":3385:3411   */\n      swap1\n      pop\n        /* \"#utility.yul\":3421:3492   */\n      tag_131\n        /* \"#utility.yul\":3489:3490   */\n      0x00\n        /* \"#utility.yul\":3478:3487   */\n      dup4\n        /* \"#utility.yul\":3474:3491   */\n      add\n        /* \"#utility.yul\":3465:3471   */\n      dup5\n        /* \"#utility.yul\":3421:3492   */\n      tag_78\n      jump\t// in\n    tag_131:\n        /* \"#utility.yul\":3277:3499   */\n      swap3\n      swap2\n      pop\n      pop\n      jump\t// out\n        /* \"#utility.yul\":3505:3674   */\n    tag_79:\n        /* \"#utility.yul\":3589:3600   */\n      0x00\n        /* \"#utility.yul\":3623:3629   */\n      dup3\n        /* \"#utility.yul\":3618:3621   */\n      dup3\n        /* \"#utility.yul\":3611:3630   */\n      mstore\n        /* \"#utility.yul\":3663:3667   */\n      0x20\n        /* \"#utility.yul\":3658:3661   */\n      dup3\n        /* \"#utility.yul\":3654:3668   */\n      add\n        /* \"#utility.yul\":3639:3668   */\n      swap1\n      pop\n        /* \"#utility.yul\":3505:3674   */\n      swap3\n      swap2\n      pop\n      pop\n      jump\t// out\n        /* \"#utility.yul\":3680:3840   */\n    tag_80:\n        /* \"#utility.yul\":3820:3832   */\n      0x7465737431206661696c00000000000000000000000000000000000000000000\n        /* \"#utility.yul\":3816:3817   */\n      0x00\n        /* \"#utility.yul\":3808:3814   */\n      dup3\n        /* \"#utility.yul\":3804:3818   */\n      add\n        /* \"#utility.yul\":3797:3833   */\n      mstore\n        /* \"#utility.yul\":3680:3840   */\n      pop\n      jump\t// out\n        /* \"#utility.yul\":3846:4212   */\n    tag_81:\n        /* \"#utility.yul\":3988:3991   */\n      0x00\n        /* \"#utility.yul\":4009:4076   */\n      tag_135\n        /* \"#utility.yul\":4073:4075   */\n      0x0a\n        /* \"#utility.yul\":4068:4071   */\n      dup4\n        /* \"#utility.yul\":4009:4076   */\n      tag_79\n      jump\t// in\n    tag_135:\n        /* \"#utility.yul\":4002:4076   */\n      swap2\n      pop\n        /* \"#utility.yul\":4085:4178   */\n      tag_136\n        /* \"#utility.yul\":4174:4177   */\n      dup3\n        /* \"#utility.yul\":4085:4178   */\n      tag_80\n      jump\t// in\n    tag_136:\n        /* \"#utility.yul\":4203:4205   */\n      0x20\n        /* \"#utility.yul\":4198:4201   */\n      dup3\n        /* \"#utility.yul\":4194:4206   */\n      add\n        /* \"#utility.yul\":4187:4206   */\n      swap1\n      pop\n        /* \"#utility.yul\":3846:4212   */\n      swap2\n      swap1\n      pop\n      jump\t// out\n        /* \"#utility.yul\":4218:4637   */\n    tag_17:\n        /* \"#utility.yul\":4384:4388   */\n      0x00\n        /* \"#utility.yul\":4422:4424   */\n      0x20\n        /* \"#utility.yul\":4411:4420   */\n      dup3\n        /* \"#utility.yul\":4407:4425   */\n      add\n        /* \"#utility.yul\":4399:4425   */\n      swap1\n      pop\n        /* \"#utility.yul\":4471:4480   */\n      dup2\n        /* \"#utility.yul\":4465:4469   */\n      dup2\n        /* \"#utility.yul\":4461:4481   */\n      sub\n        /* \"#utility.yul\":4457:4458   */\n      0x00\n        /* \"#utility.yul\":4446:4455   */\n      dup4\n        /* \"#utility.yul\":4442:4459   */\n      add\n        /* \"#utility.yul\":4435:4482   */\n      mstore\n        /* \"#utility.yul\":4499:4630   */\n      tag_138\n        /* \"#utility.yul\":4625:4629   */\n      dup2\n        /* \"#utility.yul\":4499:4630   */\n      tag_81\n      jump\t// in\n    tag_138:\n        /* \"#utility.yul\":4491:4630   */\n      swap1\n      pop\n        /* \"#utility.yul\":4218:4637   */\n      swap2\n      swap1\n      pop\n      jump\t// out\n        /* \"#utility.yul\":4643:4803   */\n    tag_82:\n        /* \"#utility.yul\":4783:4795   */\n      0x7465737432206661696c00000000000000000000000000000000000000000000\n        /* \"#utility.yul\":4779:4780   */\n      0x00\n        /* \"#utility.yul\":4771:4777   */\n      dup3\n        /* \"#utility.yul\":4767:4781   */\n      add\n        /* \"#utility.yul\":4760:4796   */\n      mstore\n        /* \"#utility.yul\":4643:4803   */\n      pop\n      jump\t// out\n        /* \"#utility.yul\":4809:5175   */\n    tag_83:\n        /* \"#utility.yul\":4951:4954   */\n      0x00\n        /* \"#utility.yul\":4972:5039   */\n      tag_141\n        /* \"#utility.yul\":5036:5038   */\n      0x0a\n        /* \"#utility.yul\":5031:5034   */\n      dup4\n        /* \"#utility.yul\":4972:5039   */\n      tag_79\n      jump\t// in\n    tag_141:\n        /* \"#utility.yul\":4965:5039   */\n      swap2\n      pop\n        /* \"#utility.yul\":5048:5141   */\n      tag_142\n        /* \"#utility.yul\":5137:5140   */\n      dup3\n        /* \"#utility.yul\":5048:5141   */\n      tag_82\n      jump\t// in\n    tag_142:\n        /* \"#utility.yul\":5166:5168   */\n      0x20\n        /* \"#utility.yul\":5161:5164   */\n      dup3\n        /* \"#utility.yul\":5157:5169   */\n      add\n        /* \"#utility.yul\":5150:5169   */\n      swap1\n      pop\n        /* \"#utility.yul\":4809:5175   */\n      swap2\n      swap1\n      pop\n      jump\t// out\n        /* \"#utility.yul\":5181:5600   */\n    tag_21:\n        /* \"#utility.yul\":5347:5351   */\n      0x00\n        /* \"#utility.yul\":5385:5387   */\n      0x20\n        /* \"#utility.yul\":5374:5383   */\n      dup3\n        /* \"#utility.yul\":5370:5388   */\n      add\n        /* \"#utility.yul\":5362:5388   */\n      swap1\n      pop\n        /* \"#utility.yul\":5434:5443   */\n      dup2\n        /* \"#utility.yul\":5428:5432   */\n      dup2\n        /* \"#utility.yul\":5424:5444   */\n      sub\n        /* \"#utility.yul\":5420:5421   */\n      0x00\n        /* \"#utility.yul\":5409:5418   */\n      dup4\n        /* \"#utility.yul\":5405:5422   */\n      add\n        /* \"#utility.yul\":5398:5445   */\n      mstore\n        /* \"#utility.yul\":5462:5593   */\n      tag_144\n        /* \"#utility.yul\":5588:5592   */\n      dup2\n        /* \"#utility.yul\":5462:5593   */\n      tag_83\n      jump\t// in\n    tag_144:\n        /* \"#utility.yul\":5454:5593   */\n      swap1\n      pop\n        /* \"#utility.yul\":5181:5600   */\n      swap2\n      swap1\n      pop\n      jump\t// out\n        /* \"#utility.yul\":5606:5766   */\n    tag_84:\n        /* \"#utility.yul\":5746:5758   */\n      0x7465737433206661696c00000000000000000000000000000000000000000000\n        /* \"#utility.yul\":5742:5743   */\n      0x00\n        /* \"#utility.yul\":5734:5740   */\n      dup3\n        /* \"#utility.yul\":5730:5744   */\n      add\n        /* \"#utility.yul\":5723:5759   */\n      mstore\n        /* \"#utility.yul\":5606:5766   */\n      pop\n      jump\t// out\n        /* \"#utility.yul\":5772:6138   */\n    tag_85:\n        /* \"#utility.yul\":5914:5917   */\n      0x00\n        /* \"#utility.yul\":5935:6002   */\n      tag_147\n        /* \"#utility.yul\":5999:6001   */\n      0x0a\n        /* \"#utility.yul\":5994:5997   */\n      dup4\n        /* \"#utility.yul\":5935:6002   */\n      tag_79\n      jump\t// in\n    tag_147:\n        /* \"#utility.yul\":5928:6002   */\n      swap2\n      pop\n        /* \"#utility.yul\":6011:6104   */\n      tag_148\n        /* \"#utility.yul\":6100:6103   */\n      dup3\n        /* \"#utility.yul\":6011:6104   */\n      tag_84\n      jump\t// in\n    tag_148:\n        /* \"#utility.yul\":6129:6131   */\n      0x20\n        /* \"#utility.yul\":6124:6127   */\n      dup3\n        /* \"#utility.yul\":6120:6132   */\n      add\n        /* \"#utility.yul\":6113:6132   */\n      swap1\n      pop\n        /* \"#utility.yul\":5772:6138   */\n      swap2\n      swap1\n      pop\n      jump\t// out\n        /* \"#utility.yul\":6144:6563   */\n    tag_25:\n        /* \"#utility.yul\":6310:6314   */\n      0x00\n        /* \"#utility.yul\":6348:6350   */\n      0x20\n        /* \"#utility.yul\":6337:6346   */\n      dup3\n        /* \"#utility.yul\":6333:6351   */\n      add\n        /* \"#utility.yul\":6325:6351   */\n      swap1\n      pop\n        /* \"#utility.yul\":6397:6406   */\n      dup2\n        /* \"#utility.yul\":6391:6395   */\n      dup2\n        /* \"#utility.yul\":6387:6407   */\n      sub\n        /* \"#utility.yul\":6383:6384   */\n      0x00\n        /* \"#utility.yul\":6372:6381   */\n      dup4\n        /* \"#utility.yul\":6368:6385   */\n      add\n        /* \"#utility.yul\":6361:6408   */\n      mstore\n        /* \"#utility.yul\":6425:6556   */\n      tag_150\n        /* \"#utility.yul\":6551:6555   */\n      dup2\n        /* \"#utility.yul\":6425:6556   */\n      tag_85\n      jump\t// in\n    tag_150:\n        /* \"#utility.yul\":6417:6556   */\n      swap1\n      pop\n        /* \"#utility.yul\":6144:6563   */\n      swap2\n      swap1\n      pop\n      jump\t// out\n        /* \"#utility.yul\":6569:6729   */\n    tag_86:\n        /* \"#utility.yul\":6709:6721   */\n      0x7465737434206661696c00000000000000000000000000000000000000000000\n        /* \"#utility.yul\":6705:6706   */\n      0x00\n        /* \"#utility.yul\":6697:6703   */\n      dup3\n        /* \"#utility.yul\":6693:6707   */\n      add\n        /* \"#utility.yul\":6686:6722   */\n      mstore\n        /* \"#utility.yul\":6569:6729   */\n      pop\n      jump\t// out\n        /* \"#utility.yul\":6735:7101   */\n    tag_87:\n        /* \"#utility.yul\":6877:6880   */\n      0x00\n        /* \"#utility.yul\":6898:6965   */\n      tag_153\n        /* \"#utility.yul\":6962:6964   */\n      0x0a\n        /* \"#utility.yul\":6957:6960   */\n      dup4\n        /* \"#utility.yul\":6898:6965   */\n      tag_79\n      jump\t// in\n    tag_153:\n        /* \"#utility.yul\":6891:6965   */\n      swap2\n      pop\n        /* \"#utility.yul\":6974:7067   */\n      tag_154\n        /* \"#utility.yul\":7063:7066   */\n      dup3\n        /* \"#utility.yul\":6974:7067   */\n      tag_86\n      jump\t// in\n    tag_154:\n        /* \"#utility.yul\":7092:7094   */\n      0x20\n        /* \"#utility.yul\":7087:7090   */\n      dup3\n        /* \"#utility.yul\":7083:7095   */\n      add\n        /* \"#utility.yul\":7076:7095   */\n      swap1\n      pop\n        /* \"#utility.yul\":6735:7101   */\n      swap2\n      swap1\n      pop\n      jump\t// out\n        /* \"#utility.yul\":7107:7526   */\n    tag_29:\n        /* \"#utility.yul\":7273:7277   */\n      0x00\n        /* \"#utility.yul\":7311:7313   */\n      0x20\n        /* \"#utility.yul\":7300:7309   */\n      dup3\n        /* \"#utility.yul\":7296:7314   */\n      add\n        /* \"#utility.yul\":7288:7314   */\n      swap1\n      pop\n        /* \"#utility.yul\":7360:7369   */\n      dup2\n        /* \"#utility.yul\":7354:7358   */\n      dup2\n        /* \"#utility.yul\":7350:7370   */\n      sub\n        /* \"#utility.yul\":7346:7347   */\n      0x00\n        /* \"#utility.yul\":7335:7344   */\n      dup4\n        /* \"#utility.yul\":7331:7348   */\n      add\n        /* \"#utility.yul\":7324:7371   */\n      mstore\n        /* \"#utility.yul\":7388:7519   */\n      tag_156\n        /* \"#utility.yul\":7514:7518   */\n      dup2\n        /* \"#utility.yul\":7388:7519   */\n      tag_87\n      jump\t// in\n    tag_156:\n        /* \"#utility.yul\":7380:7519   */\n      swap1\n      pop\n        /* \"#utility.yul\":7107:7526   */\n      swap2\n      swap1\n      pop\n      jump\t// out\n        /* \"#utility.yul\":7532:7712   */\n    tag_37:\n        /* \"#utility.yul\":7580:7657   */\n      0x4e487b7100000000000000000000000000000000000000000000000000000000\n        /* \"#utility.yul\":7577:7578   */\n      0x00\n        /* \"#utility.yul\":7570:7658   */\n      mstore\n        /* \"#utility.yul\":7677:7681   */\n      0x32\n        /* \"#utility.yul\":7674:7675   */\n      0x04\n        /* \"#utility.yul\":7667:7682   */\n      mstore\n        /* \"#utility.yul\":7701:7705   */\n      0x24\n        /* \"#utility.yul\":7698:7699   */\n      0x00\n        /* \"#utility.yul\":7691:7706   */\n      revert\n        /* \"#utility.yul\":7718:7898   */\n    tag_88:\n        /* \"#utility.yul\":7766:7843   */\n      0x4e487b7100000000000000000000000000000000000000000000000000000000\n        /* \"#utility.yul\":7763:7764   */\n      0x00\n        /* \"#utility.yul\":7756:7844   */\n      mstore\n        /* \"#utility.yul\":7863:7867   */\n      0x11\n        /* \"#utility.yul\":7860:7861   */\n      0x04\n        /* \"#utility.yul\":7853:7868   */\n      mstore\n        /* \"#utility.yul\":7887:7891   */\n      0x24\n        /* \"#utility.yul\":7884:7885   */\n      0x00\n        /* \"#utility.yul\":7877:7892   */\n      revert\n        /* \"#utility.yul\":7904:8095   */\n    tag_40:\n        /* \"#utility.yul\":7944:7947   */\n      0x00\n        /* \"#utility.yul\":7963:7983   */\n      tag_160\n        /* \"#utility.yul\":7981:7982   */\n      dup3\n        /* \"#utility.yul\":7963:7983   */\n      tag_77\n      jump\t// in\n    tag_160:\n        /* \"#utility.yul\":7958:7983   */\n      swap2\n      pop\n        /* \"#utility.yul\":7997:8017   */\n      tag_161\n        /* \"#utility.yul\":8015:8016   */\n      dup4\n        /* \"#utility.yul\":7997:8017   */\n      tag_77\n      jump\t// in\n    tag_161:\n        /* \"#utility.yul\":7992:8017   */\n      swap3\n      pop\n        /* \"#utility.yul\":8040:8041   */\n      dup3\n        /* \"#utility.yul\":8037:8038   */\n      dup3\n        /* \"#utility.yul\":8033:8042   */\n      add\n        /* \"#utility.yul\":8026:8042   */\n      swap1\n      pop\n        /* \"#utility.yul\":8061:8064   */\n      dup1\n        /* \"#utility.yul\":8058:8059   */\n      dup3\n        /* \"#utility.yul\":8055:8065   */\n      gt\n        /* \"#utility.yul\":8052:8088   */\n      iszero\n      tag_162\n      jumpi\n        /* \"#utility.yul\":8068:8086   */\n      tag_163\n      tag_88\n      jump\t// in\n    tag_163:\n        /* \"#utility.yul\":8052:8088   */\n    tag_162:\n        /* \"#utility.yul\":7904:8095   */\n      swap3\n      swap2\n      pop\n      pop\n      jump\t// out\n        /* \"#utility.yul\":8101:8295   */\n    tag_48:\n        /* \"#utility.yul\":8141:8145   */\n      0x00\n        /* \"#utility.yul\":8161:8181   */\n      tag_165\n        /* \"#utility.yul\":8179:8180   */\n      dup3\n        /* \"#utility.yul\":8161:8181   */\n      tag_77\n      jump\t// in\n    tag_165:\n        /* \"#utility.yul\":8156:8181   */\n      swap2\n      pop\n        /* \"#utility.yul\":8195:8215   */\n      tag_166\n        /* \"#utility.yul\":8213:8214   */\n      dup4\n        /* \"#utility.yul\":8195:8215   */\n      tag_77\n      jump\t// in\n    tag_166:\n        /* \"#utility.yul\":8190:8215   */\n      swap3\n      pop\n        /* \"#utility.yul\":8239:8240   */\n      dup3\n        /* \"#utility.yul\":8236:8237   */\n      dup3\n        /* \"#utility.yul\":8232:8241   */\n      sub\n        /* \"#utility.yul\":8224:8241   */\n      swap1\n      pop\n        /* \"#utility.yul\":8263:8264   */\n      dup2\n        /* \"#utility.yul\":8257:8261   */\n      dup2\n        /* \"#utility.yul\":8254:8265   */\n      gt\n        /* \"#utility.yul\":8251:8288   */\n      iszero\n      tag_167\n      jumpi\n        /* \"#utility.yul\":8268:8286   */\n      tag_168\n      tag_88\n      jump\t// in\n    tag_168:\n        /* \"#utility.yul\":8251:8288   */\n    tag_167:\n        /* \"#utility.yul\":8101:8295   */\n      swap3\n      swap2\n      pop\n      pop\n      jump\t// out\n        /* \"#utility.yul\":8301:8534   */\n    tag_51:\n        /* \"#utility.yul\":8340:8343   */\n      0x00\n        /* \"#utility.yul\":8363:8387   */\n      tag_170\n        /* \"#utility.yul\":8381:8386   */\n      dup3\n        /* \"#utility.yul\":8363:8387   */\n      tag_77\n      jump\t// in\n    tag_170:\n        /* \"#utility.yul\":8354:8387   */\n      swap2\n      pop\n        /* \"#utility.yul\":8409:8475   */\n      0xffffffffffffffffffffffffffffffffffffffffffffffffffffffffffffffff\n        /* \"#utility.yul\":8402:8407   */\n      dup3\n        /* \"#utility.yul\":8399:8476   */\n      sub\n        /* \"#utility.yul\":8396:8499   */\n      tag_171\n      jumpi\n        /* \"#utility.yul\":8479:8497   */\n      tag_172\n      tag_88\n      jump\t// in\n    tag_172:\n        /* \"#utility.yul\":8396:8499   */\n    tag_171:\n        /* \"#utility.yul\":8526:8527   */\n      0x01\n        /* \"#utility.yul\":8519:8524   */\n      dup3\n        /* \"#utility.yul\":8515:8528   */\n      add\n        /* \"#utility.yul\":8508:8528   */\n      swap1\n      pop\n        /* \"#utility.yul\":8301:8534   */\n      swap2\n      swap1\n      pop\n      jump\t// out\n        /* \"#utility.yul\":8540:8713   */\n    tag_89:\n        /* \"#utility.yul\":8680:8705   */\n      0x496e76616c696420526f6d616e20636861726163746572000000000000000000\n        /* \"#utility.yul\":8676:8677   */\n      0x00\n        /* \"#utility.yul\":8668:8674   */\n      dup3\n        /* \"#utility.yul\":8664:8678   */\n      add\n        /* \"#utility.yul\":8657:8706   */\n      mstore\n        /* \"#utility.yul\":8540:8713   */\n      pop\n      jump\t// out\n        /* \"#utility.yul\":8719:9085   */\n    tag_90:\n        /* \"#utility.yul\":8861:8864   */\n      0x00\n        /* \"#utility.yul\":8882:8949   */\n      tag_175\n        /* \"#utility.yul\":8946:8948   */\n      0x17\n        /* \"#utility.yul\":8941:8944   */\n      dup4\n        /* \"#utility.yul\":8882:8949   */\n      tag_79\n      jump\t// in\n    tag_175:\n        /* \"#utility.yul\":8875:8949   */\n      swap2\n      pop\n        /* \"#utility.yul\":8958:9051   */\n      tag_176\n        /* \"#utility.yul\":9047:9050   */\n      dup3\n        /* \"#utility.yul\":8958:9051   */\n      tag_89\n      jump\t// in\n    tag_176:\n        /* \"#utility.yul\":9076:9078   */\n      0x20\n        /* \"#utility.yul\":9071:9074   */\n      dup3\n        /* \"#utility.yul\":9067:9079   */\n      add\n        /* \"#utility.yul\":9060:9079   */\n      swap1\n      pop\n        /* \"#utility.yul\":8719:9085   */\n      swap2\n      swap1\n      pop\n      jump\t// out\n        /* \"#utility.yul\":9091:9510   */\n    tag_63:\n        /* \"#utility.yul\":9257:9261   */\n      0x00\n        /* \"#utility.yul\":9295:9297   */\n      0x20\n        /* \"#utility.yul\":9284:9293   */\n      dup3\n        /* \"#utility.yul\":9280:9298   */\n      add\n        /* \"#utility.yul\":9272:9298   */\n      swap1\n      pop\n        /* \"#utility.yul\":9344:9353   */\n      dup2\n        /* \"#utility.yul\":9338:9342   */\n      dup2\n        /* \"#utility.yul\":9334:9354   */\n      sub\n        /* \"#utility.yul\":9330:9331   */\n      0x00\n        /* \"#utility.yul\":9319:9328   */\n      dup4\n        /* \"#utility.yul\":9315:9332   */\n      add\n        /* \"#utility.yul\":9308:9355   */\n      mstore\n        /* \"#utility.yul\":9372:9503   */\n      tag_178\n        /* \"#utility.yul\":9498:9502   */\n      dup2\n        /* \"#utility.yul\":9372:9503   */\n      tag_90\n      jump\t// in\n    tag_178:\n        /* \"#utility.yul\":9364:9503   */\n      swap1\n      pop\n        /* \"#utility.yul\":9091:9510   */\n      swap2\n      swap1\n      pop\n      jump\t// out\n\n    auxdata: 0xa26469706673582212204b50ea98bff1b7c3072acf0bc05d90c43d1c45327005a9524a8b96d9b40bb24564736f6c634300081e0033\n}\n",
				"bytecode": {
					"linkReferences": {},
					"object": "6080604052348015600e575f5ffd5b50610b038061001c5f395ff3fe608060405234801561000f575f5ffd5b5060043610610034575f3560e01c8063a163a62414610038578063cb159dfe14610042575b5f5ffd5b610040610072565b005b61005c60048036038101906100579190610736565b610274565b6040516100699190610795565b60405180910390f35b60036100b26040518060400160405280600381526020017f4949490000000000000000000000000000000000000000000000000000000000815250610274565b146100f2576040517f08c379a00000000000000000000000000000000000000000000000000000000081526004016100e990610808565b60405180910390fd5b60046101326040518060400160405280600281526020017f4956000000000000000000000000000000000000000000000000000000000000815250610274565b14610172576040517f08c379a000000000000000000000000000000000000000000000000000000000815260040161016990610870565b60405180910390fd5b601b6101b26040518060400160405280600581526020017f5858564949000000000000000000000000000000000000000000000000000000815250610274565b146101f2576040517f08c379a00000000000000000000000000000000000000000000000000000000081526004016101e9906108d8565b60405180910390fd5b600e6102326040518060400160405280600381526020017f5849560000000000000000000000000000000000000000000000000000000000815250610274565b14610272576040517f08c379a000000000000000000000000000000000000000000000000000000000815260040161026990610940565b60405180910390fd5b565b5f5f8290505f815190505f5f90505f5f90505b8281101561035c575f6102b68583815181106102a6576102a561095e565b5b602001015160f81c60f81b610368565b9050836001836102c691906109b8565b1015610339575f6102ff866001856102de91906109b8565b815181106102ef576102ee61095e565b5b602001015160f81c60f81b610368565b90508082101561033757818161031591906109eb565b8461032091906109b8565b9350828061032d90610a1e565b9350505050610349565b505b808361034591906109b8565b9250505b808061035490610a1e565b915050610287565b50809350505050919050565b5f7f4900000000000000000000000000000000000000000000000000000000000000827effffffffffffffffffffffffffffffffffffffffffffffffffffffffffffff1916036103bb57600190506105e4565b7f5600000000000000000000000000000000000000000000000000000000000000827effffffffffffffffffffffffffffffffffffffffffffffffffffffffffffff19160361040d57600590506105e4565b7f5800000000000000000000000000000000000000000000000000000000000000827effffffffffffffffffffffffffffffffffffffffffffffffffffffffffffff19160361045f57600a90506105e4565b7f4c00000000000000000000000000000000000000000000000000000000000000827effffffffffffffffffffffffffffffffffffffffffffffffffffffffffffff1916036104b157603290506105e4565b7f4300000000000000000000000000000000000000000000000000000000000000827effffffffffffffffffffffffffffffffffffffffffffffffffffffffffffff19160361050357606490506105e4565b7f4400000000000000000000000000000000000000000000000000000000000000827effffffffffffffffffffffffffffffffffffffffffffffffffffffffffffff191603610556576101f490506105e4565b7f4d00000000000000000000000000000000000000000000000000000000000000827effffffffffffffffffffffffffffffffffffffffffffffffffffffffffffff1916036105a9576103e890506105e4565b6040517f08c379a00000000000000000000000000000000000000000000000000000000081526004016105db90610aaf565b60405180910390fd5b919050565b5f604051905090565b5f5ffd5b5f5ffd5b5f5ffd5b5f5ffd5b5f601f19601f8301169050919050565b7f4e487b71000000000000000000000000000000000000000000000000000000005f52604160045260245ffd5b61064882610602565b810181811067ffffffffffffffff8211171561066757610666610612565b5b80604052505050565b5f6106796105e9565b9050610685828261063f565b919050565b5f67ffffffffffffffff8211156106a4576106a3610612565b5b6106ad82610602565b9050602081019050919050565b828183375f83830152505050565b5f6106da6106d58461068a565b610670565b9050828152602081018484840111156106f6576106f56105fe565b5b6107018482856106ba565b509392505050565b5f82601f83011261071d5761071c6105fa565b5b813561072d8482602086016106c8565b91505092915050565b5f6020828403121561074b5761074a6105f2565b5b5f82013567ffffffffffffffff811115610768576107676105f6565b5b61077484828501610709565b91505092915050565b5f819050919050565b61078f8161077d565b82525050565b5f6020820190506107a85f830184610786565b92915050565b5f82825260208201905092915050565b7f7465737431206661696c000000000000000000000000000000000000000000005f82015250565b5f6107f2600a836107ae565b91506107fd826107be565b602082019050919050565b5f6020820190508181035f83015261081f816107e6565b9050919050565b7f7465737432206661696c000000000000000000000000000000000000000000005f82015250565b5f61085a600a836107ae565b915061086582610826565b602082019050919050565b5f6020820190508181035f8301526108878161084e565b9050919050565b7f7465737433206661696c000000000000000000000000000000000000000000005f82015250565b5f6108c2600a836107ae565b91506108cd8261088e565b602082019050919050565b5f6020820190508181035f8301526108ef816108b6565b9050919050565b7f7465737434206661696c000000000000000000000000000000000000000000005f82015250565b5f61092a600a836107ae565b9150610935826108f6565b602082019050919050565b5f6020820190508181035f8301526109578161091e565b9050919050565b7f4e487b71000000000000000000000000000000000000000000000000000000005f52603260045260245ffd5b7f4e487b71000000000000000000000000000000000000000000000000000000005f52601160045260245ffd5b5f6109c28261077d565b91506109cd8361077d565b92508282019050808211156109e5576109e461098b565b5b92915050565b5f6109f58261077d565b9150610a008361077d565b9250828203905081811115610a1857610a1761098b565b5b92915050565b5f610a288261077d565b91507fffffffffffffffffffffffffffffffffffffffffffffffffffffffffffffffff8203610a5a57610a5961098b565b5b600182019050919050565b7f496e76616c696420526f6d616e206368617261637465720000000000000000005f82015250565b5f610a996017836107ae565b9150610aa482610a65565b602082019050919050565b5f6020820190508181035f830152610ac681610a8d565b905091905056fea26469706673582212204b50ea98bff1b7c3072acf0bc05d90c43d1c45327005a9524a8b96d9b40bb24564736f6c634300081e0033",
					"opcodes": "PUSH1 0x80 PUSH1 0x40 MSTORE CALLVALUE DUP1 ISZERO PUSH1 0xE JUMPI PUSH0 PUSH0 REVERT JUMPDEST POP PUSH2 0xB03 DUP1 PUSH2 0x1C PUSH0 CODECOPY PUSH0 RETURN INVALID PUSH1 0x80 PUSH1 0x40 MSTORE CALLVALUE DUP1 ISZERO PUSH2 0xF JUMPI PUSH0 PUSH0 REVERT JUMPDEST POP PUSH1 0x4 CALLDATASIZE LT PUSH2 0x34 JUMPI PUSH0 CALLDATALOAD PUSH1 0xE0 SHR DUP1 PUSH4 0xA163A624 EQ PUSH2 0x38 JUMPI DUP1 PUSH4 0xCB159DFE EQ PUSH2 0x42 JUMPI JUMPDEST PUSH0 PUSH0 REVERT JUMPDEST PUSH2 0x40 PUSH2 0x72 JUMP JUMPDEST STOP JUMPDEST PUSH2 0x5C PUSH1 0x4 DUP1 CALLDATASIZE SUB DUP2 ADD SWAP1 PUSH2 0x57 SWAP2 SWAP1 PUSH2 0x736 JUMP JUMPDEST PUSH2 0x274 JUMP JUMPDEST PUSH1 0x40 MLOAD PUSH2 0x69 SWAP2 SWAP1 PUSH2 0x795 JUMP JUMPDEST PUSH1 0x40 MLOAD DUP1 SWAP2 SUB SWAP1 RETURN JUMPDEST PUSH1 0x3 PUSH2 0xB2 PUSH1 0x40 MLOAD DUP1 PUSH1 0x40 ADD PUSH1 0x40 MSTORE DUP1 PUSH1 0x3 DUP2 MSTORE PUSH1 0x20 ADD PUSH32 0x4949490000000000000000000000000000000000000000000000000000000000 DUP2 MSTORE POP PUSH2 0x274 JUMP JUMPDEST EQ PUSH2 0xF2 JUMPI PUSH1 0x40 MLOAD PUSH32 0x8C379A000000000000000000000000000000000000000000000000000000000 DUP2 MSTORE PUSH1 0x4 ADD PUSH2 0xE9 SWAP1 PUSH2 0x808 JUMP JUMPDEST PUSH1 0x40 MLOAD DUP1 SWAP2 SUB SWAP1 REVERT JUMPDEST PUSH1 0x4 PUSH2 0x132 PUSH1 0x40 MLOAD DUP1 PUSH1 0x40 ADD PUSH1 0x40 MSTORE DUP1 PUSH1 0x2 DUP2 MSTORE PUSH1 0x20 ADD PUSH32 0x4956000000000000000000000000000000000000000000000000000000000000 DUP2 MSTORE POP PUSH2 0x274 JUMP JUMPDEST EQ PUSH2 0x172 JUMPI PUSH1 0x40 MLOAD PUSH32 0x8C379A000000000000000000000000000000000000000000000000000000000 DUP2 MSTORE PUSH1 0x4 ADD PUSH2 0x169 SWAP1 PUSH2 0x870 JUMP JUMPDEST PUSH1 0x40 MLOAD DUP1 SWAP2 SUB SWAP1 REVERT JUMPDEST PUSH1 0x1B PUSH2 0x1B2 PUSH1 0x40 MLOAD DUP1 PUSH1 0x40 ADD PUSH1 0x40 MSTORE DUP1 PUSH1 0x5 DUP2 MSTORE PUSH1 0x20 ADD PUSH32 0x5858564949000000000000000000000000000000000000000000000000000000 DUP2 MSTORE POP PUSH2 0x274 JUMP JUMPDEST EQ PUSH2 0x1F2 JUMPI PUSH1 0x40 MLOAD PUSH32 0x8C379A000000000000000000000000000000000000000000000000000000000 DUP2 MSTORE PUSH1 0x4 ADD PUSH2 0x1E9 SWAP1 PUSH2 0x8D8 JUMP JUMPDEST PUSH1 0x40 MLOAD DUP1 SWAP2 SUB SWAP1 REVERT JUMPDEST PUSH1 0xE PUSH2 0x232 PUSH1 0x40 MLOAD DUP1 PUSH1 0x40 ADD PUSH1 0x40 MSTORE DUP1 PUSH1 0x3 DUP2 MSTORE PUSH1 0x20 ADD PUSH32 0x5849560000000000000000000000000000000000000000000000000000000000 DUP2 MSTORE POP PUSH2 0x274 JUMP JUMPDEST EQ PUSH2 0x272 JUMPI PUSH1 0x40 MLOAD PUSH32 0x8C379A000000000000000000000000000000000000000000000000000000000 DUP2 MSTORE PUSH1 0x4 ADD PUSH2 0x269 SWAP1 PUSH2 0x940 JUMP JUMPDEST PUSH1 0x40 MLOAD DUP1 SWAP2 SUB SWAP1 REVERT JUMPDEST JUMP JUMPDEST PUSH0 PUSH0 DUP3 SWAP1 POP PUSH0 DUP2 MLOAD SWAP1 POP PUSH0 PUSH0 SWAP1 POP PUSH0 PUSH0 SWAP1 POP JUMPDEST DUP3 DUP2 LT ISZERO PUSH2 0x35C JUMPI PUSH0 PUSH2 0x2B6 DUP6 DUP4 DUP2 MLOAD DUP2 LT PUSH2 0x2A6 JUMPI PUSH2 0x2A5 PUSH2 0x95E JUMP JUMPDEST JUMPDEST PUSH1 0x20 ADD ADD MLOAD PUSH1 0xF8 SHR PUSH1 0xF8 SHL PUSH2 0x368 JUMP JUMPDEST SWAP1 POP DUP4 PUSH1 0x1 DUP4 PUSH2 0x2C6 SWAP2 SWAP1 PUSH2 0x9B8 JUMP JUMPDEST LT ISZERO PUSH2 0x339 JUMPI PUSH0 PUSH2 0x2FF DUP7 PUSH1 0x1 DUP6 PUSH2 0x2DE SWAP2 SWAP1 PUSH2 0x9B8 JUMP JUMPDEST DUP2 MLOAD DUP2 LT PUSH2 0x2EF JUMPI PUSH2 0x2EE PUSH2 0x95E JUMP JUMPDEST JUMPDEST PUSH1 0x20 ADD ADD MLOAD PUSH1 0xF8 SHR PUSH1 0xF8 SHL PUSH2 0x368 JUMP JUMPDEST SWAP1 POP DUP1 DUP3 LT ISZERO PUSH2 0x337 JUMPI DUP2 DUP2 PUSH2 0x315 SWAP2 SWAP1 PUSH2 0x9EB JUMP JUMPDEST DUP5 PUSH2 0x320 SWAP2 SWAP1 PUSH2 0x9B8 JUMP JUMPDEST SWAP4 POP DUP3 DUP1 PUSH2 0x32D SWAP1 PUSH2 0xA1E JUMP JUMPDEST SWAP4 POP POP POP POP PUSH2 0x349 JUMP JUMPDEST POP JUMPDEST DUP1 DUP4 PUSH2 0x345 SWAP2 SWAP1 PUSH2 0x9B8 JUMP JUMPDEST SWAP3 POP POP JUMPDEST DUP1 DUP1 PUSH2 0x354 SWAP1 PUSH2 0xA1E JUMP JUMPDEST SWAP2 POP POP PUSH2 0x287 JUMP JUMPDEST POP DUP1 SWAP4 POP POP POP POP SWAP2 SWAP1 POP JUMP JUMPDEST PUSH0 PUSH32 0x4900000000000000000000000000000000000000000000000000000000000000 DUP3 PUSH31 0xFFFFFFFFFFFFFFFFFFFFFFFFFFFFFFFFFFFFFFFFFFFFFFFFFFFFFFFFFFFFFF NOT AND SUB PUSH2 0x3BB JUMPI PUSH1 0x1 SWAP1 POP PUSH2 0x5E4 JUMP JUMPDEST PUSH32 0x5600000000000000000000000000000000000000000000000000000000000000 DUP3 PUSH31 0xFFFFFFFFFFFFFFFFFFFFFFFFFFFFFFFFFFFFFFFFFFFFFFFFFFFFFFFFFFFFFF NOT AND SUB PUSH2 0x40D JUMPI PUSH1 0x5 SWAP1 POP PUSH2 0x5E4 JUMP JUMPDEST PUSH32 0x5800000000000000000000000000000000000000000000000000000000000000 DUP3 PUSH31 0xFFFFFFFFFFFFFFFFFFFFFFFFFFFFFFFFFFFFFFFFFFFFFFFFFFFFFFFFFFFFFF NOT AND SUB PUSH2 0x45F JUMPI PUSH1 0xA SWAP1 POP PUSH2 0x5E4 JUMP JUMPDEST PUSH32 0x4C00000000000000000000000000000000000000000000000000000000000000 DUP3 PUSH31 0xFFFFFFFFFFFFFFFFFFFFFFFFFFFFFFFFFFFFFFFFFFFFFFFFFFFFFFFFFFFFFF NOT AND SUB PUSH2 0x4B1 JUMPI PUSH1 0x32 SWAP1 POP PUSH2 0x5E4 JUMP JUMPDEST PUSH32 0x4300000000000000000000000000000000000000000000000000000000000000 DUP3 PUSH31 0xFFFFFFFFFFFFFFFFFFFFFFFFFFFFFFFFFFFFFFFFFFFFFFFFFFFFFFFFFFFFFF NOT AND SUB PUSH2 0x503 JUMPI PUSH1 0x64 SWAP1 POP PUSH2 0x5E4 JUMP JUMPDEST PUSH32 0x4400000000000000000000000000000000000000000000000000000000000000 DUP3 PUSH31 0xFFFFFFFFFFFFFFFFFFFFFFFFFFFFFFFFFFFFFFFFFFFFFFFFFFFFFFFFFFFFFF NOT AND SUB PUSH2 0x556 JUMPI PUSH2 0x1F4 SWAP1 POP PUSH2 0x5E4 JUMP JUMPDEST PUSH32 0x4D00000000000000000000000000000000000000000000000000000000000000 DUP3 PUSH31 0xFFFFFFFFFFFFFFFFFFFFFFFFFFFFFFFFFFFFFFFFFFFFFFFFFFFFFFFFFFFFFF NOT AND SUB PUSH2 0x5A9 JUMPI PUSH2 0x3E8 SWAP1 POP PUSH2 0x5E4 JUMP JUMPDEST PUSH1 0x40 MLOAD PUSH32 0x8C379A000000000000000000000000000000000000000000000000000000000 DUP2 MSTORE PUSH1 0x4 ADD PUSH2 0x5DB SWAP1 PUSH2 0xAAF JUMP JUMPDEST PUSH1 0x40 MLOAD DUP1 SWAP2 SUB SWAP1 REVERT JUMPDEST SWAP2 SWAP1 POP JUMP JUMPDEST PUSH0 PUSH1 0x40 MLOAD SWAP1 POP SWAP1 JUMP JUMPDEST PUSH0 PUSH0 REVERT JUMPDEST PUSH0 PUSH0 REVERT JUMPDEST PUSH0 PUSH0 REVERT JUMPDEST PUSH0 PUSH0 REVERT JUMPDEST PUSH0 PUSH1 0x1F NOT PUSH1 0x1F DUP4 ADD AND SWAP1 POP SWAP2 SWAP1 POP JUMP JUMPDEST PUSH32 0x4E487B7100000000000000000000000000000000000000000000000000000000 PUSH0 MSTORE PUSH1 0x41 PUSH1 0x4 MSTORE PUSH1 0x24 PUSH0 REVERT JUMPDEST PUSH2 0x648 DUP3 PUSH2 0x602 JUMP JUMPDEST DUP2 ADD DUP2 DUP2 LT PUSH8 0xFFFFFFFFFFFFFFFF DUP3 GT OR ISZERO PUSH2 0x667 JUMPI PUSH2 0x666 PUSH2 0x612 JUMP JUMPDEST JUMPDEST DUP1 PUSH1 0x40 MSTORE POP POP POP JUMP JUMPDEST PUSH0 PUSH2 0x679 PUSH2 0x5E9 JUMP JUMPDEST SWAP1 POP PUSH2 0x685 DUP3 DUP3 PUSH2 0x63F JUMP JUMPDEST SWAP2 SWAP1 POP JUMP JUMPDEST PUSH0 PUSH8 0xFFFFFFFFFFFFFFFF DUP3 GT ISZERO PUSH2 0x6A4 JUMPI PUSH2 0x6A3 PUSH2 0x612 JUMP JUMPDEST JUMPDEST PUSH2 0x6AD DUP3 PUSH2 0x602 JUMP JUMPDEST SWAP1 POP PUSH1 0x20 DUP2 ADD SWAP1 POP SWAP2 SWAP1 POP JUMP JUMPDEST DUP3 DUP2 DUP4 CALLDATACOPY PUSH0 DUP4 DUP4 ADD MSTORE POP POP POP JUMP JUMPDEST PUSH0 PUSH2 0x6DA PUSH2 0x6D5 DUP5 PUSH2 0x68A JUMP JUMPDEST PUSH2 0x670 JUMP JUMPDEST SWAP1 POP DUP3 DUP2 MSTORE PUSH1 0x20 DUP2 ADD DUP5 DUP5 DUP5 ADD GT ISZERO PUSH2 0x6F6 JUMPI PUSH2 0x6F5 PUSH2 0x5FE JUMP JUMPDEST JUMPDEST PUSH2 0x701 DUP5 DUP3 DUP6 PUSH2 0x6BA JUMP JUMPDEST POP SWAP4 SWAP3 POP POP POP JUMP JUMPDEST PUSH0 DUP3 PUSH1 0x1F DUP4 ADD SLT PUSH2 0x71D JUMPI PUSH2 0x71C PUSH2 0x5FA JUMP JUMPDEST JUMPDEST DUP2 CALLDATALOAD PUSH2 0x72D DUP5 DUP3 PUSH1 0x20 DUP7 ADD PUSH2 0x6C8 JUMP JUMPDEST SWAP2 POP POP SWAP3 SWAP2 POP POP JUMP JUMPDEST PUSH0 PUSH1 0x20 DUP3 DUP5 SUB SLT ISZERO PUSH2 0x74B JUMPI PUSH2 0x74A PUSH2 0x5F2 JUMP JUMPDEST JUMPDEST PUSH0 DUP3 ADD CALLDATALOAD PUSH8 0xFFFFFFFFFFFFFFFF DUP2 GT ISZERO PUSH2 0x768 JUMPI PUSH2 0x767 PUSH2 0x5F6 JUMP JUMPDEST JUMPDEST PUSH2 0x774 DUP5 DUP3 DUP6 ADD PUSH2 0x709 JUMP JUMPDEST SWAP2 POP POP SWAP3 SWAP2 POP POP JUMP JUMPDEST PUSH0 DUP2 SWAP1 POP SWAP2 SWAP1 POP JUMP JUMPDEST PUSH2 0x78F DUP2 PUSH2 0x77D JUMP JUMPDEST DUP3 MSTORE POP POP JUMP JUMPDEST PUSH0 PUSH1 0x20 DUP3 ADD SWAP1 POP PUSH2 0x7A8 PUSH0 DUP4 ADD DUP5 PUSH2 0x786 JUMP JUMPDEST SWAP3 SWAP2 POP POP JUMP JUMPDEST PUSH0 DUP3 DUP3 MSTORE PUSH1 0x20 DUP3 ADD SWAP1 POP SWAP3 SWAP2 POP POP JUMP JUMPDEST PUSH32 0x7465737431206661696C00000000000000000000000000000000000000000000 PUSH0 DUP3 ADD MSTORE POP JUMP JUMPDEST PUSH0 PUSH2 0x7F2 PUSH1 0xA DUP4 PUSH2 0x7AE JUMP JUMPDEST SWAP2 POP PUSH2 0x7FD DUP3 PUSH2 0x7BE JUMP JUMPDEST PUSH1 0x20 DUP3 ADD SWAP1 POP SWAP2 SWAP1 POP JUMP JUMPDEST PUSH0 PUSH1 0x20 DUP3 ADD SWAP1 POP DUP2 DUP2 SUB PUSH0 DUP4 ADD MSTORE PUSH2 0x81F DUP2 PUSH2 0x7E6 JUMP JUMPDEST SWAP1 POP SWAP2 SWAP1 POP JUMP JUMPDEST PUSH32 0x7465737432206661696C00000000000000000000000000000000000000000000 PUSH0 DUP3 ADD MSTORE POP JUMP JUMPDEST PUSH0 PUSH2 0x85A PUSH1 0xA DUP4 PUSH2 0x7AE JUMP JUMPDEST SWAP2 POP PUSH2 0x865 DUP3 PUSH2 0x826 JUMP JUMPDEST PUSH1 0x20 DUP3 ADD SWAP1 POP SWAP2 SWAP1 POP JUMP JUMPDEST PUSH0 PUSH1 0x20 DUP3 ADD SWAP1 POP DUP2 DUP2 SUB PUSH0 DUP4 ADD MSTORE PUSH2 0x887 DUP2 PUSH2 0x84E JUMP JUMPDEST SWAP1 POP SWAP2 SWAP1 POP JUMP JUMPDEST PUSH32 0x7465737433206661696C00000000000000000000000000000000000000000000 PUSH0 DUP3 ADD MSTORE POP JUMP JUMPDEST PUSH0 PUSH2 0x8C2 PUSH1 0xA DUP4 PUSH2 0x7AE JUMP JUMPDEST SWAP2 POP PUSH2 0x8CD DUP3 PUSH2 0x88E JUMP JUMPDEST PUSH1 0x20 DUP3 ADD SWAP1 POP SWAP2 SWAP1 POP JUMP JUMPDEST PUSH0 PUSH1 0x20 DUP3 ADD SWAP1 POP DUP2 DUP2 SUB PUSH0 DUP4 ADD MSTORE PUSH2 0x8EF DUP2 PUSH2 0x8B6 JUMP JUMPDEST SWAP1 POP SWAP2 SWAP1 POP JUMP JUMPDEST PUSH32 0x7465737434206661696C00000000000000000000000000000000000000000000 PUSH0 DUP3 ADD MSTORE POP JUMP JUMPDEST PUSH0 PUSH2 0x92A PUSH1 0xA DUP4 PUSH2 0x7AE JUMP JUMPDEST SWAP2 POP PUSH2 0x935 DUP3 PUSH2 0x8F6 JUMP JUMPDEST PUSH1 0x20 DUP3 ADD SWAP1 POP SWAP2 SWAP1 POP JUMP JUMPDEST PUSH0 PUSH1 0x20 DUP3 ADD SWAP1 POP DUP2 DUP2 SUB PUSH0 DUP4 ADD MSTORE PUSH2 0x957 DUP2 PUSH2 0x91E JUMP JUMPDEST SWAP1 POP SWAP2 SWAP1 POP JUMP JUMPDEST PUSH32 0x4E487B7100000000000000000000000000000000000000000000000000000000 PUSH0 MSTORE PUSH1 0x32 PUSH1 0x4 MSTORE PUSH1 0x24 PUSH0 REVERT JUMPDEST PUSH32 0x4E487B7100000000000000000000000000000000000000000000000000000000 PUSH0 MSTORE PUSH1 0x11 PUSH1 0x4 MSTORE PUSH1 0x24 PUSH0 REVERT JUMPDEST PUSH0 PUSH2 0x9C2 DUP3 PUSH2 0x77D JUMP JUMPDEST SWAP2 POP PUSH2 0x9CD DUP4 PUSH2 0x77D JUMP JUMPDEST SWAP3 POP DUP3 DUP3 ADD SWAP1 POP DUP1 DUP3 GT ISZERO PUSH2 0x9E5 JUMPI PUSH2 0x9E4 PUSH2 0x98B JUMP JUMPDEST JUMPDEST SWAP3 SWAP2 POP POP JUMP JUMPDEST PUSH0 PUSH2 0x9F5 DUP3 PUSH2 0x77D JUMP JUMPDEST SWAP2 POP PUSH2 0xA00 DUP4 PUSH2 0x77D JUMP JUMPDEST SWAP3 POP DUP3 DUP3 SUB SWAP1 POP DUP2 DUP2 GT ISZERO PUSH2 0xA18 JUMPI PUSH2 0xA17 PUSH2 0x98B JUMP JUMPDEST JUMPDEST SWAP3 SWAP2 POP POP JUMP JUMPDEST PUSH0 PUSH2 0xA28 DUP3 PUSH2 0x77D JUMP JUMPDEST SWAP2 POP PUSH32 0xFFFFFFFFFFFFFFFFFFFFFFFFFFFFFFFFFFFFFFFFFFFFFFFFFFFFFFFFFFFFFFFF DUP3 SUB PUSH2 0xA5A JUMPI PUSH2 0xA59 PUSH2 0x98B JUMP JUMPDEST JUMPDEST PUSH1 0x1 DUP3 ADD SWAP1 POP SWAP2 SWAP1 POP JUMP JUMPDEST PUSH32 0x496E76616C696420526F6D616E20636861726163746572000000000000000000 PUSH0 DUP3 ADD MSTORE POP JUMP JUMPDEST PUSH0 PUSH2 0xA99 PUSH1 0x17 DUP4 PUSH2 0x7AE JUMP JUMPDEST SWAP2 POP PUSH2 0xAA4 DUP3 PUSH2 0xA65 JUMP JUMPDEST PUSH1 0x20 DUP3 ADD SWAP1 POP SWAP2 SWAP1 POP JUMP JUMPDEST PUSH0 PUSH1 0x20 DUP3 ADD SWAP1 POP DUP2 DUP2 SUB PUSH0 DUP4 ADD MSTORE PUSH2 0xAC6 DUP2 PUSH2 0xA8D JUMP JUMPDEST SWAP1 POP SWAP2 SWAP1 POP JUMP INVALID LOG2 PUSH5 0x6970667358 0x22 SLT KECCAK256 0x4B POP 0xEA SWAP9 0xBF CALL 0xB7 0xC3 SMOD 0x2A 0xCF SIGNEXTEND 0xC0 TSTORE SWAP1 0xC4 RETURNDATASIZE SHR GASLIMIT ORIGIN PUSH17 0x5A9524A8B96D9B40BB24564736F6C6343 STOP ADDMOD 0x1E STOP CALLER "
				},
				"gasEstimates": {
					"creation": {
						"codeDepositCost": "563800",
						"executionCost": "598",
						"totalCost": "564398"
					},
					"external": {
						"Test()": "infinite",
						"romanToInt(string)": "infinite"
					},
					"internal": {
						"_byteToInt(bytes1)": "infinite"
					}
				},
				"methodIdentifiers": {
					"Test()": "a163a624",
					"romanToInt(string)": "cb159dfe"
				}
			},
			"storageLayout": {
				"storage": [],
				"types": null
			},
			"userdoc": {
				"kind": "user",
				"methods": {},
				"version": 1
			}
		}
	}
}