{
	"assignments/first/06/06..sol": {
		"BinarySearch": {
			"abi": [
				{
					"inputs": [
						{
							"internalType": "uint256[]",
							"name": "arr",
							"type": "uint256[]"
						},
						{
							"internalType": "uint256",
							"name": "target",
							"type": "uint256"
						}
					],
					"name": "binarySearch",
					"outputs": [
						{
							"internalType": "uint256",
							"name": "",
							"type": "uint256"
						}
					],
					"stateMutability": "pure",
					"type": "function"
				},
				{
					"inputs": [
						{
							"internalType": "uint256[]",
							"name": "arr",
							"type": "uint256[]"
						},
						{
							"internalType": "uint256",
							"name": "target",
							"type": "uint256"
						}
					],
					"name": "lowerBound",
					"outputs": [
						{
							"internalType": "uint256",
							"name": "",
							"type": "uint256"
						}
					],
					"stateMutability": "pure",
					"type": "function"
				},
				{
					"inputs": [
						{
							"internalType": "uint256[]",
							"name": "arr",
							"type": "uint256[]"
						},
						{
							"internalType": "uint256",
							"name": "target",
							"type": "uint256"
						}
					],
					"name": "searchRange",
					"outputs": [
						{
							"internalType": "uint256",
							"name": "start",
							"type": "uint256"
						},
						{
							"internalType": "uint256",
							"name": "end",
							"type": "uint256"
						}
					],
					"stateMutability": "pure",
					"type": "function"
				},
				{
					"inputs": [],
					"name": "testBinarySearch",
					"outputs": [],
					"stateMutability": "pure",
					"type": "function"
				},
				{
					"inputs": [
						{
							"internalType": "uint256[]",
							"name": "arr",
							"type": "uint256[]"
						},
						{
							"internalType": "uint256",
							"name": "target",
							"type": "uint256"
						}
					],
					"name": "upperBound",
					"outputs": [
						{
							"internalType": "uint256",
							"name": "",
							"type": "uint256"
						}
					],
					"stateMutability": "pure",
					"type": "function"
				}
			],
			"devdoc": {
				"kind": "dev",
				"methods": {
					"binarySearch(uint256[],uint256)": {
						"params": {
							"arr": "已排序的升序数组",
							"target": "要查找的目标值"
						},
						"returns": {
							"_0": "目标值的索引（找到时）或 type(uint).max（未找到时）"
						}
					},
					"lowerBound(uint256[],uint256)": {
						"params": {
							"arr": "已排序的升序数组",
							"target": "目标值"
						},
						"returns": {
							"_0": "第一个大于等于目标的元素索引"
						}
					},
					"searchRange(uint256[],uint256)": {
						"params": {
							"arr": "已排序的升序数组",
							"target": "目标值"
						},
						"returns": {
							"end": "第一个大于目标的索引",
							"start": "第一个等于目标的索引"
						}
					},
					"upperBound(uint256[],uint256)": {
						"params": {
							"arr": "已排序的升序数组",
							"target": "目标值"
						},
						"returns": {
							"_0": "第一个大于目标的元素索引"
						}
					}
				},
				"version": 1
			},
			"evm": {
				"assembly": "    /* \"assignments/first/06/06..sol\":162:5315  contract BinarySearch {... */\n  mstore(0x40, 0x80)\n  callvalue\n  dup1\n  iszero\n  tag_1\n  jumpi\n  revert(0x00, 0x00)\ntag_1:\n  pop\n  dataSize(sub_0)\n  dup1\n  dataOffset(sub_0)\n  0x00\n  codecopy\n  0x00\n  return\nstop\n\nsub_0: assembly {\n        /* \"assignments/first/06/06..sol\":162:5315  contract BinarySearch {... */\n      mstore(0x40, 0x80)\n      callvalue\n      dup1\n      iszero\n      tag_1\n      jumpi\n      revert(0x00, 0x00)\n    tag_1:\n      pop\n      jumpi(tag_2, lt(calldatasize, 0x04))\n      shr(0xe0, calldataload(0x00))\n      dup1\n      0x1aeb63ba\n      eq\n      tag_3\n      jumpi\n      dup1\n      0x63b7c492\n      eq\n      tag_4\n      jumpi\n      dup1\n      0x6b215484\n      eq\n      tag_5\n      jumpi\n      dup1\n      0xb12601da\n      eq\n      tag_6\n      jumpi\n      dup1\n      0xe4f2b5d8\n      eq\n      tag_7\n      jumpi\n    tag_2:\n      revert(0x00, 0x00)\n        /* \"assignments/first/06/06..sol\":2673:3049  function searchRange(uint[] memory arr, uint target) public pure returns (uint start, uint end) {... */\n    tag_3:\n      tag_8\n      0x04\n      dup1\n      calldatasize\n      sub\n      dup2\n      add\n      swap1\n      tag_9\n      swap2\n      swap1\n      tag_10\n      jump\t// in\n    tag_9:\n      tag_11\n      jump\t// in\n    tag_8:\n      mload(0x40)\n      tag_12\n      swap3\n      swap2\n      swap1\n      tag_13\n      jump\t// in\n    tag_12:\n      mload(0x40)\n      dup1\n      swap2\n      sub\n      swap1\n      return\n        /* \"assignments/first/06/06..sol\":1228:1703  function lowerBound(uint[] memory arr, uint target) public pure returns (uint) {... */\n    tag_4:\n      tag_14\n      0x04\n      dup1\n      calldatasize\n      sub\n      dup2\n      add\n      swap1\n      tag_15\n      swap2\n      swap1\n      tag_10\n      jump\t// in\n    tag_15:\n      tag_16\n      jump\t// in\n    tag_14:\n      mload(0x40)\n      tag_17\n      swap2\n      swap1\n      tag_18\n      jump\t// in\n    tag_17:\n      mload(0x40)\n      dup1\n      swap2\n      sub\n      swap1\n      return\n        /* \"assignments/first/06/06..sol\":1927:2403  function upperBound(uint[] memory arr, uint target) public pure returns (uint) {... */\n    tag_5:\n      tag_19\n      0x04\n      dup1\n      calldatasize\n      sub\n      dup2\n      add\n      swap1\n      tag_20\n      swap2\n      swap1\n      tag_10\n      jump\t// in\n    tag_20:\n      tag_21\n      jump\t// in\n    tag_19:\n      mload(0x40)\n      tag_22\n      swap2\n      swap1\n      tag_18\n      jump\t// in\n    tag_22:\n      mload(0x40)\n      dup1\n      swap2\n      sub\n      swap1\n      return\n        /* \"assignments/first/06/06..sol\":437:992  function binarySearch(uint[] memory arr, uint target) public pure returns (uint) {... */\n    tag_6:\n      tag_23\n      0x04\n      dup1\n      calldatasize\n      sub\n      dup2\n      add\n      swap1\n      tag_24\n      swap2\n      swap1\n      tag_10\n      jump\t// in\n    tag_24:\n      tag_25\n      jump\t// in\n    tag_23:\n      mload(0x40)\n      tag_26\n      swap2\n      swap1\n      tag_18\n      jump\t// in\n    tag_26:\n      mload(0x40)\n      dup1\n      swap2\n      sub\n      swap1\n      return\n        /* \"assignments/first/06/06..sol\":3078:5312  function testBinarySearch() public pure {... */\n    tag_7:\n      tag_27\n      tag_28\n      jump\t// in\n    tag_27:\n      stop\n        /* \"assignments/first/06/06..sol\":2673:3049  function searchRange(uint[] memory arr, uint target) public pure returns (uint start, uint end) {... */\n    tag_11:\n        /* \"assignments/first/06/06..sol\":2747:2757  uint start */\n      0x00\n        /* \"assignments/first/06/06..sol\":2759:2767  uint end */\n      0x00\n        /* \"assignments/first/06/06..sol\":2788:2811  lowerBound(arr, target) */\n      tag_30\n        /* \"assignments/first/06/06..sol\":2799:2802  arr */\n      dup5\n        /* \"assignments/first/06/06..sol\":2804:2810  target */\n      dup5\n        /* \"assignments/first/06/06..sol\":2788:2798  lowerBound */\n      tag_16\n        /* \"assignments/first/06/06..sol\":2788:2811  lowerBound(arr, target) */\n      jump\t// in\n    tag_30:\n        /* \"assignments/first/06/06..sol\":2780:2811  start = lowerBound(arr, target) */\n      swap2\n      pop\n        /* \"assignments/first/06/06..sol\":2828:2851  upperBound(arr, target) */\n      tag_31\n        /* \"assignments/first/06/06..sol\":2839:2842  arr */\n      dup5\n        /* \"assignments/first/06/06..sol\":2844:2850  target */\n      dup5\n        /* \"assignments/first/06/06..sol\":2828:2838  upperBound */\n      tag_21\n        /* \"assignments/first/06/06..sol\":2828:2851  upperBound(arr, target) */\n      jump\t// in\n    tag_31:\n        /* \"assignments/first/06/06..sol\":2822:2851  end = upperBound(arr, target) */\n      swap1\n      pop\n        /* \"assignments/first/06/06..sol\":2922:2925  arr */\n      dup4\n        /* \"assignments/first/06/06..sol\":2922:2932  arr.length */\n      mload\n        /* \"assignments/first/06/06..sol\":2913:2918  start */\n      dup3\n        /* \"assignments/first/06/06..sol\":2913:2932  start == arr.length */\n      eq\n        /* \"assignments/first/06/06..sol\":2913:2956  start == arr.length || arr[start] != target */\n      dup1\n      tag_32\n      jumpi\n      pop\n        /* \"assignments/first/06/06..sol\":2950:2956  target */\n      dup3\n        /* \"assignments/first/06/06..sol\":2936:2939  arr */\n      dup5\n        /* \"assignments/first/06/06..sol\":2940:2945  start */\n      dup4\n        /* \"assignments/first/06/06..sol\":2936:2946  arr[start] */\n      dup2\n      mload\n      dup2\n      lt\n      tag_33\n      jumpi\n      tag_34\n      tag_35\n      jump\t// in\n    tag_34:\n    tag_33:\n      0x20\n      mul\n      0x20\n      add\n      add\n      mload\n        /* \"assignments/first/06/06..sol\":2936:2956  arr[start] != target */\n      eq\n      iszero\n        /* \"assignments/first/06/06..sol\":2913:2956  start == arr.length || arr[start] != target */\n    tag_32:\n        /* \"assignments/first/06/06..sol\":2909:3042  if (start == arr.length || arr[start] != target) {... */\n      iszero\n      tag_36\n      jumpi\n        /* \"assignments/first/06/06..sol\":2981:2995  type(uint).max */\n      0xffffffffffffffffffffffffffffffffffffffffffffffffffffffffffffffff\n        /* \"assignments/first/06/06..sol\":2973:2995  start = type(uint).max */\n      swap2\n      pop\n        /* \"assignments/first/06/06..sol\":3016:3030  type(uint).max */\n      0xffffffffffffffffffffffffffffffffffffffffffffffffffffffffffffffff\n        /* \"assignments/first/06/06..sol\":3010:3030  end = type(uint).max */\n      swap1\n      pop\n        /* \"assignments/first/06/06..sol\":2909:3042  if (start == arr.length || arr[start] != target) {... */\n    tag_36:\n        /* \"assignments/first/06/06..sol\":2673:3049  function searchRange(uint[] memory arr, uint target) public pure returns (uint start, uint end) {... */\n      swap3\n      pop\n      swap3\n      swap1\n      pop\n      jump\t// out\n        /* \"assignments/first/06/06..sol\":1228:1703  function lowerBound(uint[] memory arr, uint target) public pure returns (uint) {... */\n    tag_16:\n        /* \"assignments/first/06/06..sol\":1301:1305  uint */\n      0x00\n        /* \"assignments/first/06/06..sol\":1318:1327  uint left */\n      0x00\n        /* \"assignments/first/06/06..sol\":1330:1331  0 */\n      0x00\n        /* \"assignments/first/06/06..sol\":1318:1331  uint left = 0 */\n      swap1\n      pop\n        /* \"assignments/first/06/06..sol\":1342:1352  uint right */\n      0x00\n        /* \"assignments/first/06/06..sol\":1355:1358  arr */\n      dup5\n        /* \"assignments/first/06/06..sol\":1355:1365  arr.length */\n      mload\n        /* \"assignments/first/06/06..sol\":1342:1365  uint right = arr.length */\n      swap1\n      pop\n        /* \"assignments/first/06/06..sol\":1386:1622  while (left < right) {... */\n    tag_38:\n        /* \"assignments/first/06/06..sol\":1400:1405  right */\n      dup1\n        /* \"assignments/first/06/06..sol\":1393:1397  left */\n      dup3\n        /* \"assignments/first/06/06..sol\":1393:1405  left < right */\n      lt\n        /* \"assignments/first/06/06..sol\":1386:1622  while (left < right) {... */\n      iszero\n      tag_39\n      jumpi\n        /* \"assignments/first/06/06..sol\":1422:1430  uint mid */\n      0x00\n        /* \"assignments/first/06/06..sol\":1457:1458  2 */\n      0x02\n        /* \"assignments/first/06/06..sol\":1449:1453  left */\n      dup4\n        /* \"assignments/first/06/06..sol\":1441:1446  right */\n      dup4\n        /* \"assignments/first/06/06..sol\":1441:1453  right - left */\n      tag_40\n      swap2\n      swap1\n      tag_41\n      jump\t// in\n    tag_40:\n        /* \"assignments/first/06/06..sol\":1440:1458  (right - left) / 2 */\n      tag_42\n      swap2\n      swap1\n      tag_43\n      jump\t// in\n    tag_42:\n        /* \"assignments/first/06/06..sol\":1433:1437  left */\n      dup4\n        /* \"assignments/first/06/06..sol\":1433:1458  left + (right - left) / 2 */\n      tag_44\n      swap2\n      swap1\n      tag_45\n      jump\t// in\n    tag_44:\n        /* \"assignments/first/06/06..sol\":1422:1458  uint mid = left + (right - left) / 2 */\n      swap1\n      pop\n        /* \"assignments/first/06/06..sol\":1502:1508  target */\n      dup5\n        /* \"assignments/first/06/06..sol\":1491:1494  arr */\n      dup7\n        /* \"assignments/first/06/06..sol\":1495:1498  mid */\n      dup3\n        /* \"assignments/first/06/06..sol\":1491:1499  arr[mid] */\n      dup2\n      mload\n      dup2\n      lt\n      tag_46\n      jumpi\n      tag_47\n      tag_35\n      jump\t// in\n    tag_47:\n    tag_46:\n      0x20\n      mul\n      0x20\n      add\n      add\n      mload\n        /* \"assignments/first/06/06..sol\":1491:1508  arr[mid] < target */\n      lt\n        /* \"assignments/first/06/06..sol\":1487:1611  if (arr[mid] < target) {... */\n      iszero\n      tag_48\n      jumpi\n        /* \"assignments/first/06/06..sol\":1542:1543  1 */\n      0x01\n        /* \"assignments/first/06/06..sol\":1536:1539  mid */\n      dup2\n        /* \"assignments/first/06/06..sol\":1536:1543  mid + 1 */\n      tag_49\n      swap2\n      swap1\n      tag_45\n      jump\t// in\n    tag_49:\n        /* \"assignments/first/06/06..sol\":1529:1543  left = mid + 1 */\n      swap3\n      pop\n        /* \"assignments/first/06/06..sol\":1487:1611  if (arr[mid] < target) {... */\n      jump(tag_50)\n    tag_48:\n        /* \"assignments/first/06/06..sol\":1592:1595  mid */\n      dup1\n        /* \"assignments/first/06/06..sol\":1584:1595  right = mid */\n      swap2\n      pop\n        /* \"assignments/first/06/06..sol\":1487:1611  if (arr[mid] < target) {... */\n    tag_50:\n        /* \"assignments/first/06/06..sol\":1407:1622  {... */\n      pop\n        /* \"assignments/first/06/06..sol\":1386:1622  while (left < right) {... */\n      jump(tag_38)\n    tag_39:\n        /* \"assignments/first/06/06..sol\":1649:1653  left */\n      dup2\n        /* \"assignments/first/06/06..sol\":1642:1653  return left */\n      swap3\n      pop\n      pop\n      pop\n        /* \"assignments/first/06/06..sol\":1228:1703  function lowerBound(uint[] memory arr, uint target) public pure returns (uint) {... */\n      swap3\n      swap2\n      pop\n      pop\n      jump\t// out\n        /* \"assignments/first/06/06..sol\":1927:2403  function upperBound(uint[] memory arr, uint target) public pure returns (uint) {... */\n    tag_21:\n        /* \"assignments/first/06/06..sol\":2000:2004  uint */\n      0x00\n        /* \"assignments/first/06/06..sol\":2017:2026  uint left */\n      0x00\n        /* \"assignments/first/06/06..sol\":2029:2030  0 */\n      0x00\n        /* \"assignments/first/06/06..sol\":2017:2030  uint left = 0 */\n      swap1\n      pop\n        /* \"assignments/first/06/06..sol\":2041:2051  uint right */\n      0x00\n        /* \"assignments/first/06/06..sol\":2054:2057  arr */\n      dup5\n        /* \"assignments/first/06/06..sol\":2054:2064  arr.length */\n      mload\n        /* \"assignments/first/06/06..sol\":2041:2064  uint right = arr.length */\n      swap1\n      pop\n        /* \"assignments/first/06/06..sol\":2085:2322  while (left < right) {... */\n    tag_52:\n        /* \"assignments/first/06/06..sol\":2099:2104  right */\n      dup1\n        /* \"assignments/first/06/06..sol\":2092:2096  left */\n      dup3\n        /* \"assignments/first/06/06..sol\":2092:2104  left < right */\n      lt\n        /* \"assignments/first/06/06..sol\":2085:2322  while (left < right) {... */\n      iszero\n      tag_53\n      jumpi\n        /* \"assignments/first/06/06..sol\":2121:2129  uint mid */\n      0x00\n        /* \"assignments/first/06/06..sol\":2156:2157  2 */\n      0x02\n        /* \"assignments/first/06/06..sol\":2148:2152  left */\n      dup4\n        /* \"assignments/first/06/06..sol\":2140:2145  right */\n      dup4\n        /* \"assignments/first/06/06..sol\":2140:2152  right - left */\n      tag_54\n      swap2\n      swap1\n      tag_41\n      jump\t// in\n    tag_54:\n        /* \"assignments/first/06/06..sol\":2139:2157  (right - left) / 2 */\n      tag_55\n      swap2\n      swap1\n      tag_43\n      jump\t// in\n    tag_55:\n        /* \"assignments/first/06/06..sol\":2132:2136  left */\n      dup4\n        /* \"assignments/first/06/06..sol\":2132:2157  left + (right - left) / 2 */\n      tag_56\n      swap2\n      swap1\n      tag_45\n      jump\t// in\n    tag_56:\n        /* \"assignments/first/06/06..sol\":2121:2157  uint mid = left + (right - left) / 2 */\n      swap1\n      pop\n        /* \"assignments/first/06/06..sol\":2202:2208  target */\n      dup5\n        /* \"assignments/first/06/06..sol\":2190:2193  arr */\n      dup7\n        /* \"assignments/first/06/06..sol\":2194:2197  mid */\n      dup3\n        /* \"assignments/first/06/06..sol\":2190:2198  arr[mid] */\n      dup2\n      mload\n      dup2\n      lt\n      tag_57\n      jumpi\n      tag_58\n      tag_35\n      jump\t// in\n    tag_58:\n    tag_57:\n      0x20\n      mul\n      0x20\n      add\n      add\n      mload\n        /* \"assignments/first/06/06..sol\":2190:2208  arr[mid] <= target */\n      gt\n        /* \"assignments/first/06/06..sol\":2186:2311  if (arr[mid] <= target) {... */\n      tag_59\n      jumpi\n        /* \"assignments/first/06/06..sol\":2242:2243  1 */\n      0x01\n        /* \"assignments/first/06/06..sol\":2236:2239  mid */\n      dup2\n        /* \"assignments/first/06/06..sol\":2236:2243  mid + 1 */\n      tag_60\n      swap2\n      swap1\n      tag_45\n      jump\t// in\n    tag_60:\n        /* \"assignments/first/06/06..sol\":2229:2243  left = mid + 1 */\n      swap3\n      pop\n        /* \"assignments/first/06/06..sol\":2186:2311  if (arr[mid] <= target) {... */\n      jump(tag_61)\n    tag_59:\n        /* \"assignments/first/06/06..sol\":2292:2295  mid */\n      dup1\n        /* \"assignments/first/06/06..sol\":2284:2295  right = mid */\n      swap2\n      pop\n        /* \"assignments/first/06/06..sol\":2186:2311  if (arr[mid] <= target) {... */\n    tag_61:\n        /* \"assignments/first/06/06..sol\":2106:2322  {... */\n      pop\n        /* \"assignments/first/06/06..sol\":2085:2322  while (left < right) {... */\n      jump(tag_52)\n    tag_53:\n        /* \"assignments/first/06/06..sol\":2349:2353  left */\n      dup2\n        /* \"assignments/first/06/06..sol\":2342:2353  return left */\n      swap3\n      pop\n      pop\n      pop\n        /* \"assignments/first/06/06..sol\":1927:2403  function upperBound(uint[] memory arr, uint target) public pure returns (uint) {... */\n      swap3\n      swap2\n      pop\n      pop\n      jump\t// out\n        /* \"assignments/first/06/06..sol\":437:992  function binarySearch(uint[] memory arr, uint target) public pure returns (uint) {... */\n    tag_25:\n        /* \"assignments/first/06/06..sol\":512:516  uint */\n      0x00\n        /* \"assignments/first/06/06..sol\":529:538  uint left */\n      0x00\n        /* \"assignments/first/06/06..sol\":541:542  0 */\n      0x00\n        /* \"assignments/first/06/06..sol\":529:542  uint left = 0 */\n      swap1\n      pop\n        /* \"assignments/first/06/06..sol\":553:563  uint right */\n      0x00\n        /* \"assignments/first/06/06..sol\":566:569  arr */\n      dup5\n        /* \"assignments/first/06/06..sol\":566:576  arr.length */\n      mload\n        /* \"assignments/first/06/06..sol\":553:576  uint right = arr.length */\n      swap1\n      pop\n        /* \"assignments/first/06/06..sol\":597:930  while (left < right) {... */\n    tag_63:\n        /* \"assignments/first/06/06..sol\":611:616  right */\n      dup1\n        /* \"assignments/first/06/06..sol\":604:608  left */\n      dup3\n        /* \"assignments/first/06/06..sol\":604:616  left < right */\n      lt\n        /* \"assignments/first/06/06..sol\":597:930  while (left < right) {... */\n      iszero\n      tag_64\n      jumpi\n        /* \"assignments/first/06/06..sol\":633:641  uint mid */\n      0x00\n        /* \"assignments/first/06/06..sol\":668:669  2 */\n      0x02\n        /* \"assignments/first/06/06..sol\":660:664  left */\n      dup4\n        /* \"assignments/first/06/06..sol\":652:657  right */\n      dup4\n        /* \"assignments/first/06/06..sol\":652:664  right - left */\n      tag_65\n      swap2\n      swap1\n      tag_41\n      jump\t// in\n    tag_65:\n        /* \"assignments/first/06/06..sol\":651:669  (right - left) / 2 */\n      tag_66\n      swap2\n      swap1\n      tag_43\n      jump\t// in\n    tag_66:\n        /* \"assignments/first/06/06..sol\":644:648  left */\n      dup4\n        /* \"assignments/first/06/06..sol\":644:669  left + (right - left) / 2 */\n      tag_67\n      swap2\n      swap1\n      tag_45\n      jump\t// in\n    tag_67:\n        /* \"assignments/first/06/06..sol\":633:669  uint mid = left + (right - left) / 2 */\n      swap1\n      pop\n        /* \"assignments/first/06/06..sol\":714:720  target */\n      dup5\n        /* \"assignments/first/06/06..sol\":702:705  arr */\n      dup7\n        /* \"assignments/first/06/06..sol\":706:709  mid */\n      dup3\n        /* \"assignments/first/06/06..sol\":702:710  arr[mid] */\n      dup2\n      mload\n      dup2\n      lt\n      tag_68\n      jumpi\n      tag_69\n      tag_35\n      jump\t// in\n    tag_69:\n    tag_68:\n      0x20\n      mul\n      0x20\n      add\n      add\n      mload\n        /* \"assignments/first/06/06..sol\":702:720  arr[mid] == target */\n      sub\n        /* \"assignments/first/06/06..sol\":698:767  if (arr[mid] == target) {... */\n      tag_70\n      jumpi\n        /* \"assignments/first/06/06..sol\":748:751  mid */\n      dup1\n        /* \"assignments/first/06/06..sol\":741:751  return mid */\n      swap4\n      pop\n      pop\n      pop\n      pop\n      jump(tag_62)\n        /* \"assignments/first/06/06..sol\":698:767  if (arr[mid] == target) {... */\n    tag_70:\n        /* \"assignments/first/06/06..sol\":810:816  target */\n      dup5\n        /* \"assignments/first/06/06..sol\":799:802  arr */\n      dup7\n        /* \"assignments/first/06/06..sol\":803:806  mid */\n      dup3\n        /* \"assignments/first/06/06..sol\":799:807  arr[mid] */\n      dup2\n      mload\n      dup2\n      lt\n      tag_71\n      jumpi\n      tag_72\n      tag_35\n      jump\t// in\n    tag_72:\n    tag_71:\n      0x20\n      mul\n      0x20\n      add\n      add\n      mload\n        /* \"assignments/first/06/06..sol\":799:816  arr[mid] < target */\n      lt\n        /* \"assignments/first/06/06..sol\":795:919  if (arr[mid] < target) {... */\n      iszero\n      tag_73\n      jumpi\n        /* \"assignments/first/06/06..sol\":850:851  1 */\n      0x01\n        /* \"assignments/first/06/06..sol\":844:847  mid */\n      dup2\n        /* \"assignments/first/06/06..sol\":844:851  mid + 1 */\n      tag_74\n      swap2\n      swap1\n      tag_45\n      jump\t// in\n    tag_74:\n        /* \"assignments/first/06/06..sol\":837:851  left = mid + 1 */\n      swap3\n      pop\n        /* \"assignments/first/06/06..sol\":795:919  if (arr[mid] < target) {... */\n      jump(tag_75)\n    tag_73:\n        /* \"assignments/first/06/06..sol\":900:903  mid */\n      dup1\n        /* \"assignments/first/06/06..sol\":892:903  right = mid */\n      swap2\n      pop\n        /* \"assignments/first/06/06..sol\":795:919  if (arr[mid] < target) {... */\n    tag_75:\n        /* \"assignments/first/06/06..sol\":618:930  {... */\n      pop\n        /* \"assignments/first/06/06..sol\":597:930  while (left < right) {... */\n      jump(tag_63)\n    tag_64:\n        /* \"assignments/first/06/06..sol\":957:971  type(uint).max */\n      0xffffffffffffffffffffffffffffffffffffffffffffffffffffffffffffffff\n        /* \"assignments/first/06/06..sol\":950:971  return type(uint).max */\n      swap3\n      pop\n      pop\n      pop\n        /* \"assignments/first/06/06..sol\":437:992  function binarySearch(uint[] memory arr, uint target) public pure returns (uint) {... */\n    tag_62:\n      swap3\n      swap2\n      pop\n      pop\n      jump\t// out\n        /* \"assignments/first/06/06..sol\":3078:5312  function testBinarySearch() public pure {... */\n    tag_28:\n        /* \"assignments/first/06/06..sol\":3129:3146  uint[] memory arr */\n      0x00\n        /* \"assignments/first/06/06..sol\":3160:3162  10 */\n      0x0a\n        /* \"assignments/first/06/06..sol\":3149:3163  new uint[](10) */\n      0xffffffffffffffff\n      dup2\n      gt\n      iszero\n      tag_77\n      jumpi\n      tag_78\n      tag_79\n      jump\t// in\n    tag_78:\n    tag_77:\n      mload(0x40)\n      swap1\n      dup1\n      dup3\n      mstore\n      dup1\n      0x20\n      mul\n      0x20\n      add\n      dup3\n      add\n      0x40\n      mstore\n      dup1\n      iszero\n      tag_80\n      jumpi\n      dup2\n      0x20\n      add\n      0x20\n      dup3\n      mul\n      dup1\n      calldatasize\n      dup4\n      calldatacopy\n      dup1\n      dup3\n      add\n      swap2\n      pop\n      pop\n      swap1\n      pop\n    tag_80:\n      pop\n        /* \"assignments/first/06/06..sol\":3129:3163  uint[] memory arr = new uint[](10) */\n      swap1\n      pop\n        /* \"assignments/first/06/06..sol\":3183:3185  10 */\n      0x0a\n        /* \"assignments/first/06/06..sol\":3174:3177  arr */\n      dup2\n        /* \"assignments/first/06/06..sol\":3178:3179  0 */\n      0x00\n        /* \"assignments/first/06/06..sol\":3174:3180  arr[0] */\n      dup2\n      mload\n      dup2\n      lt\n      tag_81\n      jumpi\n      tag_82\n      tag_35\n      jump\t// in\n    tag_82:\n    tag_81:\n      0x20\n      mul\n      0x20\n      add\n      add\n        /* \"assignments/first/06/06..sol\":3174:3185  arr[0] = 10 */\n      dup2\n      dup2\n      mstore\n      pop\n      pop\n        /* \"assignments/first/06/06..sol\":3205:3207  20 */\n      0x14\n        /* \"assignments/first/06/06..sol\":3196:3199  arr */\n      dup2\n        /* \"assignments/first/06/06..sol\":3200:3201  1 */\n      0x01\n        /* \"assignments/first/06/06..sol\":3196:3202  arr[1] */\n      dup2\n      mload\n      dup2\n      lt\n      tag_83\n      jumpi\n      tag_84\n      tag_35\n      jump\t// in\n    tag_84:\n    tag_83:\n      0x20\n      mul\n      0x20\n      add\n      add\n        /* \"assignments/first/06/06..sol\":3196:3207  arr[1] = 20 */\n      dup2\n      dup2\n      mstore\n      pop\n      pop\n        /* \"assignments/first/06/06..sol\":3227:3229  30 */\n      0x1e\n        /* \"assignments/first/06/06..sol\":3218:3221  arr */\n      dup2\n        /* \"assignments/first/06/06..sol\":3222:3223  2 */\n      0x02\n        /* \"assignments/first/06/06..sol\":3218:3224  arr[2] */\n      dup2\n      mload\n      dup2\n      lt\n      tag_85\n      jumpi\n      tag_86\n      tag_35\n      jump\t// in\n    tag_86:\n    tag_85:\n      0x20\n      mul\n      0x20\n      add\n      add\n        /* \"assignments/first/06/06..sol\":3218:3229  arr[2] = 30 */\n      dup2\n      dup2\n      mstore\n      pop\n      pop\n        /* \"assignments/first/06/06..sol\":3249:3251  40 */\n      0x28\n        /* \"assignments/first/06/06..sol\":3240:3243  arr */\n      dup2\n        /* \"assignments/first/06/06..sol\":3244:3245  3 */\n      0x03\n        /* \"assignments/first/06/06..sol\":3240:3246  arr[3] */\n      dup2\n      mload\n      dup2\n      lt\n      tag_87\n      jumpi\n      tag_88\n      tag_35\n      jump\t// in\n    tag_88:\n    tag_87:\n      0x20\n      mul\n      0x20\n      add\n      add\n        /* \"assignments/first/06/06..sol\":3240:3251  arr[3] = 40 */\n      dup2\n      dup2\n      mstore\n      pop\n      pop\n        /* \"assignments/first/06/06..sol\":3271:3273  50 */\n      0x32\n        /* \"assignments/first/06/06..sol\":3262:3265  arr */\n      dup2\n        /* \"assignments/first/06/06..sol\":3266:3267  4 */\n      0x04\n        /* \"assignments/first/06/06..sol\":3262:3268  arr[4] */\n      dup2\n      mload\n      dup2\n      lt\n      tag_89\n      jumpi\n      tag_90\n      tag_35\n      jump\t// in\n    tag_90:\n    tag_89:\n      0x20\n      mul\n      0x20\n      add\n      add\n        /* \"assignments/first/06/06..sol\":3262:3273  arr[4] = 50 */\n      dup2\n      dup2\n      mstore\n      pop\n      pop\n        /* \"assignments/first/06/06..sol\":3293:3295  60 */\n      0x3c\n        /* \"assignments/first/06/06..sol\":3284:3287  arr */\n      dup2\n        /* \"assignments/first/06/06..sol\":3288:3289  5 */\n      0x05\n        /* \"assignments/first/06/06..sol\":3284:3290  arr[5] */\n      dup2\n      mload\n      dup2\n      lt\n      tag_91\n      jumpi\n      tag_92\n      tag_35\n      jump\t// in\n    tag_92:\n    tag_91:\n      0x20\n      mul\n      0x20\n      add\n      add\n        /* \"assignments/first/06/06..sol\":3284:3295  arr[5] = 60 */\n      dup2\n      dup2\n      mstore\n      pop\n      pop\n        /* \"assignments/first/06/06..sol\":3315:3317  70 */\n      0x46\n        /* \"assignments/first/06/06..sol\":3306:3309  arr */\n      dup2\n        /* \"assignments/first/06/06..sol\":3310:3311  6 */\n      0x06\n        /* \"assignments/first/06/06..sol\":3306:3312  arr[6] */\n      dup2\n      mload\n      dup2\n      lt\n      tag_93\n      jumpi\n      tag_94\n      tag_35\n      jump\t// in\n    tag_94:\n    tag_93:\n      0x20\n      mul\n      0x20\n      add\n      add\n        /* \"assignments/first/06/06..sol\":3306:3317  arr[6] = 70 */\n      dup2\n      dup2\n      mstore\n      pop\n      pop\n        /* \"assignments/first/06/06..sol\":3337:3339  80 */\n      0x50\n        /* \"assignments/first/06/06..sol\":3328:3331  arr */\n      dup2\n        /* \"assignments/first/06/06..sol\":3332:3333  7 */\n      0x07\n        /* \"assignments/first/06/06..sol\":3328:3334  arr[7] */\n      dup2\n      mload\n      dup2\n      lt\n      tag_95\n      jumpi\n      tag_96\n      tag_35\n      jump\t// in\n    tag_96:\n    tag_95:\n      0x20\n      mul\n      0x20\n      add\n      add\n        /* \"assignments/first/06/06..sol\":3328:3339  arr[7] = 80 */\n      dup2\n      dup2\n      mstore\n      pop\n      pop\n        /* \"assignments/first/06/06..sol\":3359:3361  90 */\n      0x5a\n        /* \"assignments/first/06/06..sol\":3350:3353  arr */\n      dup2\n        /* \"assignments/first/06/06..sol\":3354:3355  8 */\n      0x08\n        /* \"assignments/first/06/06..sol\":3350:3356  arr[8] */\n      dup2\n      mload\n      dup2\n      lt\n      tag_97\n      jumpi\n      tag_98\n      tag_35\n      jump\t// in\n    tag_98:\n    tag_97:\n      0x20\n      mul\n      0x20\n      add\n      add\n        /* \"assignments/first/06/06..sol\":3350:3361  arr[8] = 90 */\n      dup2\n      dup2\n      mstore\n      pop\n      pop\n        /* \"assignments/first/06/06..sol\":3381:3384  100 */\n      0x64\n        /* \"assignments/first/06/06..sol\":3372:3375  arr */\n      dup2\n        /* \"assignments/first/06/06..sol\":3376:3377  9 */\n      0x09\n        /* \"assignments/first/06/06..sol\":3372:3378  arr[9] */\n      dup2\n      mload\n      dup2\n      lt\n      tag_99\n      jumpi\n      tag_100\n      tag_35\n      jump\t// in\n    tag_100:\n    tag_99:\n      0x20\n      mul\n      0x20\n      add\n      add\n        /* \"assignments/first/06/06..sol\":3372:3384  arr[9] = 100 */\n      dup2\n      dup2\n      mstore\n      pop\n      pop\n        /* \"assignments/first/06/06..sol\":3469:3470  4 */\n      0x04\n        /* \"assignments/first/06/06..sol\":3444:3465  binarySearch(arr, 50) */\n      tag_101\n        /* \"assignments/first/06/06..sol\":3457:3460  arr */\n      dup3\n        /* \"assignments/first/06/06..sol\":3462:3464  50 */\n      0x32\n        /* \"assignments/first/06/06..sol\":3444:3456  binarySearch */\n      tag_25\n        /* \"assignments/first/06/06..sol\":3444:3465  binarySearch(arr, 50) */\n      jump\t// in\n    tag_101:\n        /* \"assignments/first/06/06..sol\":3444:3470  binarySearch(arr, 50) == 4 */\n      eq\n        /* \"assignments/first/06/06..sol\":3436:3488  require(binarySearch(arr, 50) == 4, \"Test 1 failed\") */\n      tag_102\n      jumpi\n      mload(0x40)\n      0x08c379a000000000000000000000000000000000000000000000000000000000\n      dup2\n      mstore\n      0x04\n      add\n      tag_103\n      swap1\n      tag_104\n      jump\t// in\n    tag_103:\n      mload(0x40)\n      dup1\n      swap2\n      sub\n      swap1\n      revert\n    tag_102:\n        /* \"assignments/first/06/06..sol\":3532:3533  0 */\n      0x00\n        /* \"assignments/first/06/06..sol\":3507:3528  binarySearch(arr, 10) */\n      tag_105\n        /* \"assignments/first/06/06..sol\":3520:3523  arr */\n      dup3\n        /* \"assignments/first/06/06..sol\":3525:3527  10 */\n      0x0a\n        /* \"assignments/first/06/06..sol\":3507:3519  binarySearch */\n      tag_25\n        /* \"assignments/first/06/06..sol\":3507:3528  binarySearch(arr, 10) */\n      jump\t// in\n    tag_105:\n        /* \"assignments/first/06/06..sol\":3507:3533  binarySearch(arr, 10) == 0 */\n      eq\n        /* \"assignments/first/06/06..sol\":3499:3551  require(binarySearch(arr, 10) == 0, \"Test 2 failed\") */\n      tag_106\n      jumpi\n      mload(0x40)\n      0x08c379a000000000000000000000000000000000000000000000000000000000\n      dup2\n      mstore\n      0x04\n      add\n      tag_107\n      swap1\n      tag_108\n      jump\t// in\n    tag_107:\n      mload(0x40)\n      dup1\n      swap2\n      sub\n      swap1\n      revert\n    tag_106:\n        /* \"assignments/first/06/06..sol\":3596:3597  9 */\n      0x09\n        /* \"assignments/first/06/06..sol\":3570:3592  binarySearch(arr, 100) */\n      tag_109\n        /* \"assignments/first/06/06..sol\":3583:3586  arr */\n      dup3\n        /* \"assignments/first/06/06..sol\":3588:3591  100 */\n      0x64\n        /* \"assignments/first/06/06..sol\":3570:3582  binarySearch */\n      tag_25\n        /* \"assignments/first/06/06..sol\":3570:3592  binarySearch(arr, 100) */\n      jump\t// in\n    tag_109:\n        /* \"assignments/first/06/06..sol\":3570:3597  binarySearch(arr, 100) == 9 */\n      eq\n        /* \"assignments/first/06/06..sol\":3562:3615  require(binarySearch(arr, 100) == 9, \"Test 3 failed\") */\n      tag_110\n      jumpi\n      mload(0x40)\n      0x08c379a000000000000000000000000000000000000000000000000000000000\n      dup2\n      mstore\n      0x04\n      add\n      tag_111\n      swap1\n      tag_112\n      jump\t// in\n    tag_111:\n      mload(0x40)\n      dup1\n      swap2\n      sub\n      swap1\n      revert\n    tag_110:\n        /* \"assignments/first/06/06..sol\":3659:3673  type(uint).max */\n      0xffffffffffffffffffffffffffffffffffffffffffffffffffffffffffffffff\n        /* \"assignments/first/06/06..sol\":3634:3655  binarySearch(arr, 55) */\n      tag_113\n        /* \"assignments/first/06/06..sol\":3647:3650  arr */\n      dup3\n        /* \"assignments/first/06/06..sol\":3652:3654  55 */\n      0x37\n        /* \"assignments/first/06/06..sol\":3634:3646  binarySearch */\n      tag_25\n        /* \"assignments/first/06/06..sol\":3634:3655  binarySearch(arr, 55) */\n      jump\t// in\n    tag_113:\n        /* \"assignments/first/06/06..sol\":3634:3673  binarySearch(arr, 55) == type(uint).max */\n      eq\n        /* \"assignments/first/06/06..sol\":3626:3691  require(binarySearch(arr, 55) == type(uint).max, \"Test 4 failed\") */\n      tag_114\n      jumpi\n      mload(0x40)\n      0x08c379a000000000000000000000000000000000000000000000000000000000\n      dup2\n      mstore\n      0x04\n      add\n      tag_115\n      swap1\n      tag_116\n      jump\t// in\n    tag_115:\n      mload(0x40)\n      dup1\n      swap2\n      sub\n      swap1\n      revert\n    tag_114:\n        /* \"assignments/first/06/06..sol\":3774:3775  3 */\n      0x03\n        /* \"assignments/first/06/06..sol\":3751:3770  lowerBound(arr, 35) */\n      tag_117\n        /* \"assignments/first/06/06..sol\":3762:3765  arr */\n      dup3\n        /* \"assignments/first/06/06..sol\":3767:3769  35 */\n      0x23\n        /* \"assignments/first/06/06..sol\":3751:3761  lowerBound */\n      tag_16\n        /* \"assignments/first/06/06..sol\":3751:3770  lowerBound(arr, 35) */\n      jump\t// in\n    tag_117:\n        /* \"assignments/first/06/06..sol\":3751:3775  lowerBound(arr, 35) == 3 */\n      eq\n        /* \"assignments/first/06/06..sol\":3743:3793  require(lowerBound(arr, 35) == 3, \"Test 5 failed\") */\n      tag_118\n      jumpi\n      mload(0x40)\n      0x08c379a000000000000000000000000000000000000000000000000000000000\n      dup2\n      mstore\n      0x04\n      add\n      tag_119\n      swap1\n      tag_120\n      jump\t// in\n    tag_119:\n      mload(0x40)\n      dup1\n      swap2\n      sub\n      swap1\n      revert\n    tag_118:\n        /* \"assignments/first/06/06..sol\":3835:3836  4 */\n      0x04\n        /* \"assignments/first/06/06..sol\":3812:3831  lowerBound(arr, 50) */\n      tag_121\n        /* \"assignments/first/06/06..sol\":3823:3826  arr */\n      dup3\n        /* \"assignments/first/06/06..sol\":3828:3830  50 */\n      0x32\n        /* \"assignments/first/06/06..sol\":3812:3822  lowerBound */\n      tag_16\n        /* \"assignments/first/06/06..sol\":3812:3831  lowerBound(arr, 50) */\n      jump\t// in\n    tag_121:\n        /* \"assignments/first/06/06..sol\":3812:3836  lowerBound(arr, 50) == 4 */\n      eq\n        /* \"assignments/first/06/06..sol\":3804:3854  require(lowerBound(arr, 50) == 4, \"Test 6 failed\") */\n      tag_122\n      jumpi\n      mload(0x40)\n      0x08c379a000000000000000000000000000000000000000000000000000000000\n      dup2\n      mstore\n      0x04\n      add\n      tag_123\n      swap1\n      tag_124\n      jump\t// in\n    tag_123:\n      mload(0x40)\n      dup1\n      swap2\n      sub\n      swap1\n      revert\n    tag_122:\n        /* \"assignments/first/06/06..sol\":3897:3899  10 */\n      0x0a\n        /* \"assignments/first/06/06..sol\":3873:3893  lowerBound(arr, 105) */\n      tag_125\n        /* \"assignments/first/06/06..sol\":3884:3887  arr */\n      dup3\n        /* \"assignments/first/06/06..sol\":3889:3892  105 */\n      0x69\n        /* \"assignments/first/06/06..sol\":3873:3883  lowerBound */\n      tag_16\n        /* \"assignments/first/06/06..sol\":3873:3893  lowerBound(arr, 105) */\n      jump\t// in\n    tag_125:\n        /* \"assignments/first/06/06..sol\":3873:3899  lowerBound(arr, 105) == 10 */\n      eq\n        /* \"assignments/first/06/06..sol\":3865:3917  require(lowerBound(arr, 105) == 10, \"Test 7 failed\") */\n      tag_126\n      jumpi\n      mload(0x40)\n      0x08c379a000000000000000000000000000000000000000000000000000000000\n      dup2\n      mstore\n      0x04\n      add\n      tag_127\n      swap1\n      tag_128\n      jump\t// in\n    tag_127:\n      mload(0x40)\n      dup1\n      swap2\n      sub\n      swap1\n      revert\n    tag_126:\n        /* \"assignments/first/06/06..sol\":3969:3970  5 */\n      0x05\n        /* \"assignments/first/06/06..sol\":3946:3965  upperBound(arr, 50) */\n      tag_129\n        /* \"assignments/first/06/06..sol\":3957:3960  arr */\n      dup3\n        /* \"assignments/first/06/06..sol\":3962:3964  50 */\n      0x32\n        /* \"assignments/first/06/06..sol\":3946:3956  upperBound */\n      tag_21\n        /* \"assignments/first/06/06..sol\":3946:3965  upperBound(arr, 50) */\n      jump\t// in\n    tag_129:\n        /* \"assignments/first/06/06..sol\":3946:3970  upperBound(arr, 50) == 5 */\n      eq\n        /* \"assignments/first/06/06..sol\":3938:3988  require(upperBound(arr, 50) == 5, \"Test 8 failed\") */\n      tag_130\n      jumpi\n      mload(0x40)\n      0x08c379a000000000000000000000000000000000000000000000000000000000\n      dup2\n      mstore\n      0x04\n      add\n      tag_131\n      swap1\n      tag_132\n      jump\t// in\n    tag_131:\n      mload(0x40)\n      dup1\n      swap2\n      sub\n      swap1\n      revert\n    tag_130:\n        /* \"assignments/first/06/06..sol\":4031:4033  10 */\n      0x0a\n        /* \"assignments/first/06/06..sol\":4007:4027  upperBound(arr, 100) */\n      tag_133\n        /* \"assignments/first/06/06..sol\":4018:4021  arr */\n      dup3\n        /* \"assignments/first/06/06..sol\":4023:4026  100 */\n      0x64\n        /* \"assignments/first/06/06..sol\":4007:4017  upperBound */\n      tag_21\n        /* \"assignments/first/06/06..sol\":4007:4027  upperBound(arr, 100) */\n      jump\t// in\n    tag_133:\n        /* \"assignments/first/06/06..sol\":4007:4033  upperBound(arr, 100) == 10 */\n      eq\n        /* \"assignments/first/06/06..sol\":3999:4051  require(upperBound(arr, 100) == 10, \"Test 9 failed\") */\n      tag_134\n      jumpi\n      mload(0x40)\n      0x08c379a000000000000000000000000000000000000000000000000000000000\n      dup2\n      mstore\n      0x04\n      add\n      tag_135\n      swap1\n      tag_136\n      jump\t// in\n    tag_135:\n      mload(0x40)\n      dup1\n      swap2\n      sub\n      swap1\n      revert\n    tag_134:\n        /* \"assignments/first/06/06..sol\":4092:4093  0 */\n      0x00\n        /* \"assignments/first/06/06..sol\":4070:4088  upperBound(arr, 5) */\n      tag_137\n        /* \"assignments/first/06/06..sol\":4081:4084  arr */\n      dup3\n        /* \"assignments/first/06/06..sol\":4086:4087  5 */\n      0x05\n        /* \"assignments/first/06/06..sol\":4070:4080  upperBound */\n      tag_21\n        /* \"assignments/first/06/06..sol\":4070:4088  upperBound(arr, 5) */\n      jump\t// in\n    tag_137:\n        /* \"assignments/first/06/06..sol\":4070:4093  upperBound(arr, 5) == 0 */\n      eq\n        /* \"assignments/first/06/06..sol\":4062:4112  require(upperBound(arr, 5) == 0, \"Test 10 failed\") */\n      tag_138\n      jumpi\n      mload(0x40)\n      0x08c379a000000000000000000000000000000000000000000000000000000000\n      dup2\n      mstore\n      0x04\n      add\n      tag_139\n      swap1\n      tag_140\n      jump\t// in\n    tag_139:\n      mload(0x40)\n      dup1\n      swap2\n      sub\n      swap1\n      revert\n    tag_138:\n        /* \"assignments/first/06/06..sol\":4165:4175  uint start */\n      0x00\n        /* \"assignments/first/06/06..sol\":4177:4185  uint end */\n      0x00\n        /* \"assignments/first/06/06..sol\":4189:4209  searchRange(arr, 50) */\n      tag_141\n        /* \"assignments/first/06/06..sol\":4201:4204  arr */\n      dup4\n        /* \"assignments/first/06/06..sol\":4206:4208  50 */\n      0x32\n        /* \"assignments/first/06/06..sol\":4189:4200  searchRange */\n      tag_11\n        /* \"assignments/first/06/06..sol\":4189:4209  searchRange(arr, 50) */\n      jump\t// in\n    tag_141:\n        /* \"assignments/first/06/06..sol\":4164:4209  (uint start, uint end) = searchRange(arr, 50) */\n      swap2\n      pop\n      swap2\n      pop\n        /* \"assignments/first/06/06..sol\":4237:4238  4 */\n      0x04\n        /* \"assignments/first/06/06..sol\":4228:4233  start */\n      dup3\n        /* \"assignments/first/06/06..sol\":4228:4238  start == 4 */\n      eq\n        /* \"assignments/first/06/06..sol\":4228:4250  start == 4 && end == 5 */\n      dup1\n      iszero\n      tag_142\n      jumpi\n      pop\n        /* \"assignments/first/06/06..sol\":4249:4250  5 */\n      0x05\n        /* \"assignments/first/06/06..sol\":4242:4245  end */\n      dup2\n        /* \"assignments/first/06/06..sol\":4242:4250  end == 5 */\n      eq\n        /* \"assignments/first/06/06..sol\":4228:4250  start == 4 && end == 5 */\n    tag_142:\n        /* \"assignments/first/06/06..sol\":4220:4269  require(start == 4 && end == 5, \"Test 11 failed\") */\n      tag_143\n      jumpi\n      mload(0x40)\n      0x08c379a000000000000000000000000000000000000000000000000000000000\n      dup2\n      mstore\n      0x04\n      add\n      tag_144\n      swap1\n      tag_145\n      jump\t// in\n    tag_144:\n      mload(0x40)\n      dup1\n      swap2\n      sub\n      swap1\n      revert\n    tag_143:\n        /* \"assignments/first/06/06..sol\":4305:4325  searchRange(arr, 35) */\n      tag_146\n        /* \"assignments/first/06/06..sol\":4317:4320  arr */\n      dup4\n        /* \"assignments/first/06/06..sol\":4322:4324  35 */\n      0x23\n        /* \"assignments/first/06/06..sol\":4305:4316  searchRange */\n      tag_11\n        /* \"assignments/first/06/06..sol\":4305:4325  searchRange(arr, 35) */\n      jump\t// in\n    tag_146:\n        /* \"assignments/first/06/06..sol\":4290:4325  (start, end) = searchRange(arr, 35) */\n      dup1\n      swap3\n      pop\n      dup2\n      swap4\n      pop\n      pop\n      pop\n        /* \"assignments/first/06/06..sol\":4353:4367  type(uint).max */\n      0xffffffffffffffffffffffffffffffffffffffffffffffffffffffffffffffff\n        /* \"assignments/first/06/06..sol\":4344:4349  start */\n      dup3\n        /* \"assignments/first/06/06..sol\":4344:4367  start == type(uint).max */\n      eq\n        /* \"assignments/first/06/06..sol\":4344:4392  start == type(uint).max && end == type(uint).max */\n      dup1\n      iszero\n      tag_147\n      jumpi\n      pop\n        /* \"assignments/first/06/06..sol\":4378:4392  type(uint).max */\n      0xffffffffffffffffffffffffffffffffffffffffffffffffffffffffffffffff\n        /* \"assignments/first/06/06..sol\":4371:4374  end */\n      dup2\n        /* \"assignments/first/06/06..sol\":4371:4392  end == type(uint).max */\n      eq\n        /* \"assignments/first/06/06..sol\":4344:4392  start == type(uint).max && end == type(uint).max */\n    tag_147:\n        /* \"assignments/first/06/06..sol\":4336:4411  require(start == type(uint).max && end == type(uint).max, \"Test 12 failed\") */\n      tag_148\n      jumpi\n      mload(0x40)\n      0x08c379a000000000000000000000000000000000000000000000000000000000\n      dup2\n      mstore\n      0x04\n      add\n      tag_149\n      swap1\n      tag_150\n      jump\t// in\n    tag_149:\n      mload(0x40)\n      dup1\n      swap2\n      sub\n      swap1\n      revert\n    tag_148:\n        /* \"assignments/first/06/06..sol\":4463:4483  uint[] memory dupArr */\n      0x00\n        /* \"assignments/first/06/06..sol\":4497:4498  5 */\n      0x05\n        /* \"assignments/first/06/06..sol\":4486:4499  new uint[](5) */\n      0xffffffffffffffff\n      dup2\n      gt\n      iszero\n      tag_151\n      jumpi\n      tag_152\n      tag_79\n      jump\t// in\n    tag_152:\n    tag_151:\n      mload(0x40)\n      swap1\n      dup1\n      dup3\n      mstore\n      dup1\n      0x20\n      mul\n      0x20\n      add\n      dup3\n      add\n      0x40\n      mstore\n      dup1\n      iszero\n      tag_153\n      jumpi\n      dup2\n      0x20\n      add\n      0x20\n      dup3\n      mul\n      dup1\n      calldatasize\n      dup4\n      calldatacopy\n      dup1\n      dup3\n      add\n      swap2\n      pop\n      pop\n      swap1\n      pop\n    tag_153:\n      pop\n        /* \"assignments/first/06/06..sol\":4463:4499  uint[] memory dupArr = new uint[](5) */\n      swap1\n      pop\n        /* \"assignments/first/06/06..sol\":4522:4524  10 */\n      0x0a\n        /* \"assignments/first/06/06..sol\":4510:4516  dupArr */\n      dup2\n        /* \"assignments/first/06/06..sol\":4517:4518  0 */\n      0x00\n        /* \"assignments/first/06/06..sol\":4510:4519  dupArr[0] */\n      dup2\n      mload\n      dup2\n      lt\n      tag_154\n      jumpi\n      tag_155\n      tag_35\n      jump\t// in\n    tag_155:\n    tag_154:\n      0x20\n      mul\n      0x20\n      add\n      add\n        /* \"assignments/first/06/06..sol\":4510:4524  dupArr[0] = 10 */\n      dup2\n      dup2\n      mstore\n      pop\n      pop\n        /* \"assignments/first/06/06..sol\":4547:4549  20 */\n      0x14\n        /* \"assignments/first/06/06..sol\":4535:4541  dupArr */\n      dup2\n        /* \"assignments/first/06/06..sol\":4542:4543  1 */\n      0x01\n        /* \"assignments/first/06/06..sol\":4535:4544  dupArr[1] */\n      dup2\n      mload\n      dup2\n      lt\n      tag_156\n      jumpi\n      tag_157\n      tag_35\n      jump\t// in\n    tag_157:\n    tag_156:\n      0x20\n      mul\n      0x20\n      add\n      add\n        /* \"assignments/first/06/06..sol\":4535:4549  dupArr[1] = 20 */\n      dup2\n      dup2\n      mstore\n      pop\n      pop\n        /* \"assignments/first/06/06..sol\":4572:4574  20 */\n      0x14\n        /* \"assignments/first/06/06..sol\":4560:4566  dupArr */\n      dup2\n        /* \"assignments/first/06/06..sol\":4567:4568  2 */\n      0x02\n        /* \"assignments/first/06/06..sol\":4560:4569  dupArr[2] */\n      dup2\n      mload\n      dup2\n      lt\n      tag_158\n      jumpi\n      tag_159\n      tag_35\n      jump\t// in\n    tag_159:\n    tag_158:\n      0x20\n      mul\n      0x20\n      add\n      add\n        /* \"assignments/first/06/06..sol\":4560:4574  dupArr[2] = 20 */\n      dup2\n      dup2\n      mstore\n      pop\n      pop\n        /* \"assignments/first/06/06..sol\":4597:4599  20 */\n      0x14\n        /* \"assignments/first/06/06..sol\":4585:4591  dupArr */\n      dup2\n        /* \"assignments/first/06/06..sol\":4592:4593  3 */\n      0x03\n        /* \"assignments/first/06/06..sol\":4585:4594  dupArr[3] */\n      dup2\n      mload\n      dup2\n      lt\n      tag_160\n      jumpi\n      tag_161\n      tag_35\n      jump\t// in\n    tag_161:\n    tag_160:\n      0x20\n      mul\n      0x20\n      add\n      add\n        /* \"assignments/first/06/06..sol\":4585:4599  dupArr[3] = 20 */\n      dup2\n      dup2\n      mstore\n      pop\n      pop\n        /* \"assignments/first/06/06..sol\":4622:4624  30 */\n      0x1e\n        /* \"assignments/first/06/06..sol\":4610:4616  dupArr */\n      dup2\n        /* \"assignments/first/06/06..sol\":4617:4618  4 */\n      0x04\n        /* \"assignments/first/06/06..sol\":4610:4619  dupArr[4] */\n      dup2\n      mload\n      dup2\n      lt\n      tag_162\n      jumpi\n      tag_163\n      tag_35\n      jump\t// in\n    tag_163:\n    tag_162:\n      0x20\n      mul\n      0x20\n      add\n      add\n        /* \"assignments/first/06/06..sol\":4610:4624  dupArr[4] = 30 */\n      dup2\n      dup2\n      mstore\n      pop\n      pop\n        /* \"assignments/first/06/06..sol\":4679:4680  1 */\n      0x01\n        /* \"assignments/first/06/06..sol\":4653:4675  lowerBound(dupArr, 20) */\n      tag_164\n        /* \"assignments/first/06/06..sol\":4664:4670  dupArr */\n      dup3\n        /* \"assignments/first/06/06..sol\":4672:4674  20 */\n      0x14\n        /* \"assignments/first/06/06..sol\":4653:4663  lowerBound */\n      tag_16\n        /* \"assignments/first/06/06..sol\":4653:4675  lowerBound(dupArr, 20) */\n      jump\t// in\n    tag_164:\n        /* \"assignments/first/06/06..sol\":4653:4680  lowerBound(dupArr, 20) == 1 */\n      eq\n        /* \"assignments/first/06/06..sol\":4645:4699  require(lowerBound(dupArr, 20) == 1, \"Test 13 failed\") */\n      tag_165\n      jumpi\n      mload(0x40)\n      0x08c379a000000000000000000000000000000000000000000000000000000000\n      dup2\n      mstore\n      0x04\n      add\n      tag_166\n      swap1\n      tag_167\n      jump\t// in\n    tag_166:\n      mload(0x40)\n      dup1\n      swap2\n      sub\n      swap1\n      revert\n    tag_165:\n        /* \"assignments/first/06/06..sol\":4744:4745  4 */\n      0x04\n        /* \"assignments/first/06/06..sol\":4718:4740  upperBound(dupArr, 20) */\n      tag_168\n        /* \"assignments/first/06/06..sol\":4729:4735  dupArr */\n      dup3\n        /* \"assignments/first/06/06..sol\":4737:4739  20 */\n      0x14\n        /* \"assignments/first/06/06..sol\":4718:4728  upperBound */\n      tag_21\n        /* \"assignments/first/06/06..sol\":4718:4740  upperBound(dupArr, 20) */\n      jump\t// in\n    tag_168:\n        /* \"assignments/first/06/06..sol\":4718:4745  upperBound(dupArr, 20) == 4 */\n      eq\n        /* \"assignments/first/06/06..sol\":4710:4764  require(upperBound(dupArr, 20) == 4, \"Test 14 failed\") */\n      tag_169\n      jumpi\n      mload(0x40)\n      0x08c379a000000000000000000000000000000000000000000000000000000000\n      dup2\n      mstore\n      0x04\n      add\n      tag_170\n      swap1\n      tag_171\n      jump\t// in\n    tag_170:\n      mload(0x40)\n      dup1\n      swap2\n      sub\n      swap1\n      revert\n    tag_169:\n        /* \"assignments/first/06/06..sol\":4800:4823  searchRange(dupArr, 20) */\n      tag_172\n        /* \"assignments/first/06/06..sol\":4812:4818  dupArr */\n      dup2\n        /* \"assignments/first/06/06..sol\":4820:4822  20 */\n      0x14\n        /* \"assignments/first/06/06..sol\":4800:4811  searchRange */\n      tag_11\n        /* \"assignments/first/06/06..sol\":4800:4823  searchRange(dupArr, 20) */\n      jump\t// in\n    tag_172:\n        /* \"assignments/first/06/06..sol\":4785:4823  (start, end) = searchRange(dupArr, 20) */\n      dup1\n      swap4\n      pop\n      dup2\n      swap5\n      pop\n      pop\n      pop\n        /* \"assignments/first/06/06..sol\":4851:4852  1 */\n      0x01\n        /* \"assignments/first/06/06..sol\":4842:4847  start */\n      dup4\n        /* \"assignments/first/06/06..sol\":4842:4852  start == 1 */\n      eq\n        /* \"assignments/first/06/06..sol\":4842:4864  start == 1 && end == 4 */\n      dup1\n      iszero\n      tag_173\n      jumpi\n      pop\n        /* \"assignments/first/06/06..sol\":4863:4864  4 */\n      0x04\n        /* \"assignments/first/06/06..sol\":4856:4859  end */\n      dup3\n        /* \"assignments/first/06/06..sol\":4856:4864  end == 4 */\n      eq\n        /* \"assignments/first/06/06..sol\":4842:4864  start == 1 && end == 4 */\n    tag_173:\n        /* \"assignments/first/06/06..sol\":4834:4883  require(start == 1 && end == 4, \"Test 15 failed\") */\n      tag_174\n      jumpi\n      mload(0x40)\n      0x08c379a000000000000000000000000000000000000000000000000000000000\n      dup2\n      mstore\n      0x04\n      add\n      tag_175\n      swap1\n      tag_176\n      jump\t// in\n    tag_175:\n      mload(0x40)\n      dup1\n      swap2\n      sub\n      swap1\n      revert\n    tag_174:\n        /* \"assignments/first/06/06..sol\":4932:4951  uint[] memory empty */\n      0x00\n        /* \"assignments/first/06/06..sol\":4965:4966  0 */\n      0x00\n        /* \"assignments/first/06/06..sol\":4954:4967  new uint[](0) */\n      0xffffffffffffffff\n      dup2\n      gt\n      iszero\n      tag_177\n      jumpi\n      tag_178\n      tag_79\n      jump\t// in\n    tag_178:\n    tag_177:\n      mload(0x40)\n      swap1\n      dup1\n      dup3\n      mstore\n      dup1\n      0x20\n      mul\n      0x20\n      add\n      dup3\n      add\n      0x40\n      mstore\n      dup1\n      iszero\n      tag_179\n      jumpi\n      dup2\n      0x20\n      add\n      0x20\n      dup3\n      mul\n      dup1\n      calldatasize\n      dup4\n      calldatacopy\n      dup1\n      dup3\n      add\n      swap2\n      pop\n      pop\n      swap1\n      pop\n    tag_179:\n      pop\n        /* \"assignments/first/06/06..sol\":4932:4967  uint[] memory empty = new uint[](0) */\n      swap1\n      pop\n        /* \"assignments/first/06/06..sol\":5012:5026  type(uint).max */\n      0xffffffffffffffffffffffffffffffffffffffffffffffffffffffffffffffff\n        /* \"assignments/first/06/06..sol\":4986:5008  binarySearch(empty, 5) */\n      tag_180\n        /* \"assignments/first/06/06..sol\":4999:5004  empty */\n      dup3\n        /* \"assignments/first/06/06..sol\":5006:5007  5 */\n      0x05\n        /* \"assignments/first/06/06..sol\":4986:4998  binarySearch */\n      tag_25\n        /* \"assignments/first/06/06..sol\":4986:5008  binarySearch(empty, 5) */\n      jump\t// in\n    tag_180:\n        /* \"assignments/first/06/06..sol\":4986:5026  binarySearch(empty, 5) == type(uint).max */\n      eq\n        /* \"assignments/first/06/06..sol\":4978:5045  require(binarySearch(empty, 5) == type(uint).max, \"Test 16 failed\") */\n      tag_181\n      jumpi\n      mload(0x40)\n      0x08c379a000000000000000000000000000000000000000000000000000000000\n      dup2\n      mstore\n      0x04\n      add\n      tag_182\n      swap1\n      tag_183\n      jump\t// in\n    tag_182:\n      mload(0x40)\n      dup1\n      swap2\n      sub\n      swap1\n      revert\n    tag_181:\n        /* \"assignments/first/06/06..sol\":5088:5089  0 */\n      0x00\n        /* \"assignments/first/06/06..sol\":5064:5084  lowerBound(empty, 5) */\n      tag_184\n        /* \"assignments/first/06/06..sol\":5075:5080  empty */\n      dup3\n        /* \"assignments/first/06/06..sol\":5082:5083  5 */\n      0x05\n        /* \"assignments/first/06/06..sol\":5064:5074  lowerBound */\n      tag_16\n        /* \"assignments/first/06/06..sol\":5064:5084  lowerBound(empty, 5) */\n      jump\t// in\n    tag_184:\n        /* \"assignments/first/06/06..sol\":5064:5089  lowerBound(empty, 5) == 0 */\n      eq\n        /* \"assignments/first/06/06..sol\":5056:5108  require(lowerBound(empty, 5) == 0, \"Test 17 failed\") */\n      tag_185\n      jumpi\n      mload(0x40)\n      0x08c379a000000000000000000000000000000000000000000000000000000000\n      dup2\n      mstore\n      0x04\n      add\n      tag_186\n      swap1\n      tag_187\n      jump\t// in\n    tag_186:\n      mload(0x40)\n      dup1\n      swap2\n      sub\n      swap1\n      revert\n    tag_185:\n        /* \"assignments/first/06/06..sol\":5151:5152  0 */\n      0x00\n        /* \"assignments/first/06/06..sol\":5127:5147  upperBound(empty, 5) */\n      tag_188\n        /* \"assignments/first/06/06..sol\":5138:5143  empty */\n      dup3\n        /* \"assignments/first/06/06..sol\":5145:5146  5 */\n      0x05\n        /* \"assignments/first/06/06..sol\":5127:5137  upperBound */\n      tag_21\n        /* \"assignments/first/06/06..sol\":5127:5147  upperBound(empty, 5) */\n      jump\t// in\n    tag_188:\n        /* \"assignments/first/06/06..sol\":5127:5152  upperBound(empty, 5) == 0 */\n      eq\n        /* \"assignments/first/06/06..sol\":5119:5171  require(upperBound(empty, 5) == 0, \"Test 18 failed\") */\n      tag_189\n      jumpi\n      mload(0x40)\n      0x08c379a000000000000000000000000000000000000000000000000000000000\n      dup2\n      mstore\n      0x04\n      add\n      tag_190\n      swap1\n      tag_191\n      jump\t// in\n    tag_190:\n      mload(0x40)\n      dup1\n      swap2\n      sub\n      swap1\n      revert\n    tag_189:\n        /* \"assignments/first/06/06..sol\":5197:5218  searchRange(empty, 5) */\n      tag_192\n        /* \"assignments/first/06/06..sol\":5209:5214  empty */\n      dup2\n        /* \"assignments/first/06/06..sol\":5216:5217  5 */\n      0x05\n        /* \"assignments/first/06/06..sol\":5197:5208  searchRange */\n      tag_11\n        /* \"assignments/first/06/06..sol\":5197:5218  searchRange(empty, 5) */\n      jump\t// in\n    tag_192:\n        /* \"assignments/first/06/06..sol\":5182:5218  (start, end) = searchRange(empty, 5) */\n      dup1\n      swap5\n      pop\n      dup2\n      swap6\n      pop\n      pop\n      pop\n        /* \"assignments/first/06/06..sol\":5246:5260  type(uint).max */\n      0xffffffffffffffffffffffffffffffffffffffffffffffffffffffffffffffff\n        /* \"assignments/first/06/06..sol\":5237:5242  start */\n      dup5\n        /* \"assignments/first/06/06..sol\":5237:5260  start == type(uint).max */\n      eq\n        /* \"assignments/first/06/06..sol\":5237:5285  start == type(uint).max && end == type(uint).max */\n      dup1\n      iszero\n      tag_193\n      jumpi\n      pop\n        /* \"assignments/first/06/06..sol\":5271:5285  type(uint).max */\n      0xffffffffffffffffffffffffffffffffffffffffffffffffffffffffffffffff\n        /* \"assignments/first/06/06..sol\":5264:5267  end */\n      dup4\n        /* \"assignments/first/06/06..sol\":5264:5285  end == type(uint).max */\n      eq\n        /* \"assignments/first/06/06..sol\":5237:5285  start == type(uint).max && end == type(uint).max */\n    tag_193:\n        /* \"assignments/first/06/06..sol\":5229:5304  require(start == type(uint).max && end == type(uint).max, \"Test 19 failed\") */\n      tag_194\n      jumpi\n      mload(0x40)\n      0x08c379a000000000000000000000000000000000000000000000000000000000\n      dup2\n      mstore\n      0x04\n      add\n      tag_195\n      swap1\n      tag_196\n      jump\t// in\n    tag_195:\n      mload(0x40)\n      dup1\n      swap2\n      sub\n      swap1\n      revert\n    tag_194:\n        /* \"assignments/first/06/06..sol\":3118:5312  {... */\n      pop\n      pop\n      pop\n      pop\n      pop\n        /* \"assignments/first/06/06..sol\":3078:5312  function testBinarySearch() public pure {... */\n      jump\t// out\n        /* \"#utility.yul\":7:82   */\n    tag_197:\n        /* \"#utility.yul\":40:46   */\n      0x00\n        /* \"#utility.yul\":73:75   */\n      0x40\n        /* \"#utility.yul\":67:76   */\n      mload\n        /* \"#utility.yul\":57:76   */\n      swap1\n      pop\n        /* \"#utility.yul\":7:82   */\n      swap1\n      jump\t// out\n        /* \"#utility.yul\":88:205   */\n    tag_198:\n        /* \"#utility.yul\":197:198   */\n      0x00\n        /* \"#utility.yul\":194:195   */\n      0x00\n        /* \"#utility.yul\":187:199   */\n      revert\n        /* \"#utility.yul\":211:328   */\n    tag_199:\n        /* \"#utility.yul\":320:321   */\n      0x00\n        /* \"#utility.yul\":317:318   */\n      0x00\n        /* \"#utility.yul\":310:322   */\n      revert\n        /* \"#utility.yul\":334:451   */\n    tag_200:\n        /* \"#utility.yul\":443:444   */\n      0x00\n        /* \"#utility.yul\":440:441   */\n      0x00\n        /* \"#utility.yul\":433:445   */\n      revert\n        /* \"#utility.yul\":457:559   */\n    tag_201:\n        /* \"#utility.yul\":498:504   */\n      0x00\n        /* \"#utility.yul\":549:551   */\n      0x1f\n        /* \"#utility.yul\":545:552   */\n      not\n        /* \"#utility.yul\":540:542   */\n      0x1f\n        /* \"#utility.yul\":533:538   */\n      dup4\n        /* \"#utility.yul\":529:543   */\n      add\n        /* \"#utility.yul\":525:553   */\n      and\n        /* \"#utility.yul\":515:553   */\n      swap1\n      pop\n        /* \"#utility.yul\":457:559   */\n      swap2\n      swap1\n      pop\n      jump\t// out\n        /* \"#utility.yul\":565:745   */\n    tag_79:\n        /* \"#utility.yul\":613:690   */\n      0x4e487b7100000000000000000000000000000000000000000000000000000000\n        /* \"#utility.yul\":610:611   */\n      0x00\n        /* \"#utility.yul\":603:691   */\n      mstore\n        /* \"#utility.yul\":710:714   */\n      0x41\n        /* \"#utility.yul\":707:708   */\n      0x04\n        /* \"#utility.yul\":700:715   */\n      mstore\n        /* \"#utility.yul\":734:738   */\n      0x24\n        /* \"#utility.yul\":731:732   */\n      0x00\n        /* \"#utility.yul\":724:739   */\n      revert\n        /* \"#utility.yul\":751:1032   */\n    tag_202:\n        /* \"#utility.yul\":834:861   */\n      tag_261\n        /* \"#utility.yul\":856:860   */\n      dup3\n        /* \"#utility.yul\":834:861   */\n      tag_201\n      jump\t// in\n    tag_261:\n        /* \"#utility.yul\":826:832   */\n      dup2\n        /* \"#utility.yul\":822:862   */\n      add\n        /* \"#utility.yul\":964:970   */\n      dup2\n        /* \"#utility.yul\":952:962   */\n      dup2\n        /* \"#utility.yul\":949:971   */\n      lt\n        /* \"#utility.yul\":928:946   */\n      0xffffffffffffffff\n        /* \"#utility.yul\":916:926   */\n      dup3\n        /* \"#utility.yul\":913:947   */\n      gt\n        /* \"#utility.yul\":910:972   */\n      or\n        /* \"#utility.yul\":907:995   */\n      iszero\n      tag_262\n      jumpi\n        /* \"#utility.yul\":975:993   */\n      tag_263\n      tag_79\n      jump\t// in\n    tag_263:\n        /* \"#utility.yul\":907:995   */\n    tag_262:\n        /* \"#utility.yul\":1015:1025   */\n      dup1\n        /* \"#utility.yul\":1011:1013   */\n      0x40\n        /* \"#utility.yul\":1004:1026   */\n      mstore\n        /* \"#utility.yul\":794:1032   */\n      pop\n        /* \"#utility.yul\":751:1032   */\n      pop\n      pop\n      jump\t// out\n        /* \"#utility.yul\":1038:1167   */\n    tag_203:\n        /* \"#utility.yul\":1072:1078   */\n      0x00\n        /* \"#utility.yul\":1099:1119   */\n      tag_265\n      tag_197\n      jump\t// in\n    tag_265:\n        /* \"#utility.yul\":1089:1119   */\n      swap1\n      pop\n        /* \"#utility.yul\":1128:1161   */\n      tag_266\n        /* \"#utility.yul\":1156:1160   */\n      dup3\n        /* \"#utility.yul\":1148:1154   */\n      dup3\n        /* \"#utility.yul\":1128:1161   */\n      tag_202\n      jump\t// in\n    tag_266:\n        /* \"#utility.yul\":1038:1167   */\n      swap2\n      swap1\n      pop\n      jump\t// out\n        /* \"#utility.yul\":1173:1484   */\n    tag_204:\n        /* \"#utility.yul\":1250:1254   */\n      0x00\n        /* \"#utility.yul\":1340:1358   */\n      0xffffffffffffffff\n        /* \"#utility.yul\":1332:1338   */\n      dup3\n        /* \"#utility.yul\":1329:1359   */\n      gt\n        /* \"#utility.yul\":1326:1382   */\n      iszero\n      tag_268\n      jumpi\n        /* \"#utility.yul\":1362:1380   */\n      tag_269\n      tag_79\n      jump\t// in\n    tag_269:\n        /* \"#utility.yul\":1326:1382   */\n    tag_268:\n        /* \"#utility.yul\":1412:1416   */\n      0x20\n        /* \"#utility.yul\":1404:1410   */\n      dup3\n        /* \"#utility.yul\":1400:1417   */\n      mul\n        /* \"#utility.yul\":1392:1417   */\n      swap1\n      pop\n        /* \"#utility.yul\":1472:1476   */\n      0x20\n        /* \"#utility.yul\":1466:1470   */\n      dup2\n        /* \"#utility.yul\":1462:1477   */\n      add\n        /* \"#utility.yul\":1454:1477   */\n      swap1\n      pop\n        /* \"#utility.yul\":1173:1484   */\n      swap2\n      swap1\n      pop\n      jump\t// out\n        /* \"#utility.yul\":1490:1607   */\n    tag_205:\n        /* \"#utility.yul\":1599:1600   */\n      0x00\n        /* \"#utility.yul\":1596:1597   */\n      0x00\n        /* \"#utility.yul\":1589:1601   */\n      revert\n        /* \"#utility.yul\":1613:1690   */\n    tag_206:\n        /* \"#utility.yul\":1650:1657   */\n      0x00\n        /* \"#utility.yul\":1679:1684   */\n      dup2\n        /* \"#utility.yul\":1668:1684   */\n      swap1\n      pop\n        /* \"#utility.yul\":1613:1690   */\n      swap2\n      swap1\n      pop\n      jump\t// out\n        /* \"#utility.yul\":1696:1818   */\n    tag_207:\n        /* \"#utility.yul\":1769:1793   */\n      tag_273\n        /* \"#utility.yul\":1787:1792   */\n      dup2\n        /* \"#utility.yul\":1769:1793   */\n      tag_206\n      jump\t// in\n    tag_273:\n        /* \"#utility.yul\":1762:1767   */\n      dup2\n        /* \"#utility.yul\":1759:1794   */\n      eq\n        /* \"#utility.yul\":1749:1812   */\n      tag_274\n      jumpi\n        /* \"#utility.yul\":1808:1809   */\n      0x00\n        /* \"#utility.yul\":1805:1806   */\n      0x00\n        /* \"#utility.yul\":1798:1810   */\n      revert\n        /* \"#utility.yul\":1749:1812   */\n    tag_274:\n        /* \"#utility.yul\":1696:1818   */\n      pop\n      jump\t// out\n        /* \"#utility.yul\":1824:1963   */\n    tag_208:\n        /* \"#utility.yul\":1870:1875   */\n      0x00\n        /* \"#utility.yul\":1908:1914   */\n      dup2\n        /* \"#utility.yul\":1895:1915   */\n      calldataload\n        /* \"#utility.yul\":1886:1915   */\n      swap1\n      pop\n        /* \"#utility.yul\":1924:1957   */\n      tag_276\n        /* \"#utility.yul\":1951:1956   */\n      dup2\n        /* \"#utility.yul\":1924:1957   */\n      tag_207\n      jump\t// in\n    tag_276:\n        /* \"#utility.yul\":1824:1963   */\n      swap3\n      swap2\n      pop\n      pop\n      jump\t// out\n        /* \"#utility.yul\":1986:2696   */\n    tag_209:\n        /* \"#utility.yul\":2082:2087   */\n      0x00\n        /* \"#utility.yul\":2107:2188   */\n      tag_278\n        /* \"#utility.yul\":2123:2187   */\n      tag_279\n        /* \"#utility.yul\":2180:2186   */\n      dup5\n        /* \"#utility.yul\":2123:2187   */\n      tag_204\n      jump\t// in\n    tag_279:\n        /* \"#utility.yul\":2107:2188   */\n      tag_203\n      jump\t// in\n    tag_278:\n        /* \"#utility.yul\":2098:2188   */\n      swap1\n      pop\n        /* \"#utility.yul\":2208:2213   */\n      dup1\n        /* \"#utility.yul\":2237:2243   */\n      dup4\n        /* \"#utility.yul\":2230:2235   */\n      dup3\n        /* \"#utility.yul\":2223:2244   */\n      mstore\n        /* \"#utility.yul\":2271:2275   */\n      0x20\n        /* \"#utility.yul\":2264:2269   */\n      dup3\n        /* \"#utility.yul\":2260:2276   */\n      add\n        /* \"#utility.yul\":2253:2276   */\n      swap1\n      pop\n        /* \"#utility.yul\":2324:2328   */\n      0x20\n        /* \"#utility.yul\":2316:2322   */\n      dup5\n        /* \"#utility.yul\":2312:2329   */\n      mul\n        /* \"#utility.yul\":2304:2310   */\n      dup4\n        /* \"#utility.yul\":2300:2330   */\n      add\n        /* \"#utility.yul\":2353:2356   */\n      dup6\n        /* \"#utility.yul\":2345:2351   */\n      dup2\n        /* \"#utility.yul\":2342:2357   */\n      gt\n        /* \"#utility.yul\":2339:2461   */\n      iszero\n      tag_280\n      jumpi\n        /* \"#utility.yul\":2372:2451   */\n      tag_281\n      tag_205\n      jump\t// in\n    tag_281:\n        /* \"#utility.yul\":2339:2461   */\n    tag_280:\n        /* \"#utility.yul\":2487:2493   */\n      dup4\n        /* \"#utility.yul\":2470:2690   */\n    tag_282:\n        /* \"#utility.yul\":2504:2510   */\n      dup2\n        /* \"#utility.yul\":2499:2502   */\n      dup2\n        /* \"#utility.yul\":2496:2511   */\n      lt\n        /* \"#utility.yul\":2470:2690   */\n      iszero\n      tag_284\n      jumpi\n        /* \"#utility.yul\":2579:2582   */\n      dup1\n        /* \"#utility.yul\":2608:2645   */\n      tag_285\n        /* \"#utility.yul\":2641:2644   */\n      dup9\n        /* \"#utility.yul\":2629:2639   */\n      dup3\n        /* \"#utility.yul\":2608:2645   */\n      tag_208\n      jump\t// in\n    tag_285:\n        /* \"#utility.yul\":2603:2606   */\n      dup5\n        /* \"#utility.yul\":2596:2646   */\n      mstore\n        /* \"#utility.yul\":2675:2679   */\n      0x20\n        /* \"#utility.yul\":2670:2673   */\n      dup5\n        /* \"#utility.yul\":2666:2680   */\n      add\n        /* \"#utility.yul\":2659:2680   */\n      swap4\n      pop\n        /* \"#utility.yul\":2546:2690   */\n      pop\n        /* \"#utility.yul\":2530:2534   */\n      0x20\n        /* \"#utility.yul\":2525:2528   */\n      dup2\n        /* \"#utility.yul\":2521:2535   */\n      add\n        /* \"#utility.yul\":2514:2535   */\n      swap1\n      pop\n        /* \"#utility.yul\":2470:2690   */\n      jump(tag_282)\n    tag_284:\n        /* \"#utility.yul\":2474:2495   */\n      pop\n        /* \"#utility.yul\":2088:2696   */\n      pop\n      pop\n        /* \"#utility.yul\":1986:2696   */\n      swap4\n      swap3\n      pop\n      pop\n      pop\n      jump\t// out\n        /* \"#utility.yul\":2719:3089   */\n    tag_210:\n        /* \"#utility.yul\":2790:2795   */\n      0x00\n        /* \"#utility.yul\":2839:2842   */\n      dup3\n        /* \"#utility.yul\":2832:2836   */\n      0x1f\n        /* \"#utility.yul\":2824:2830   */\n      dup4\n        /* \"#utility.yul\":2820:2837   */\n      add\n        /* \"#utility.yul\":2816:2843   */\n      slt\n        /* \"#utility.yul\":2806:2928   */\n      tag_287\n      jumpi\n        /* \"#utility.yul\":2847:2926   */\n      tag_288\n      tag_200\n      jump\t// in\n    tag_288:\n        /* \"#utility.yul\":2806:2928   */\n    tag_287:\n        /* \"#utility.yul\":2964:2970   */\n      dup2\n        /* \"#utility.yul\":2951:2971   */\n      calldataload\n        /* \"#utility.yul\":2989:3083   */\n      tag_289\n        /* \"#utility.yul\":3079:3082   */\n      dup5\n        /* \"#utility.yul\":3071:3077   */\n      dup3\n        /* \"#utility.yul\":3064:3068   */\n      0x20\n        /* \"#utility.yul\":3056:3062   */\n      dup7\n        /* \"#utility.yul\":3052:3069   */\n      add\n        /* \"#utility.yul\":2989:3083   */\n      tag_209\n      jump\t// in\n    tag_289:\n        /* \"#utility.yul\":2980:3083   */\n      swap2\n      pop\n        /* \"#utility.yul\":2796:3089   */\n      pop\n        /* \"#utility.yul\":2719:3089   */\n      swap3\n      swap2\n      pop\n      pop\n      jump\t// out\n        /* \"#utility.yul\":3095:3779   */\n    tag_10:\n        /* \"#utility.yul\":3188:3194   */\n      0x00\n        /* \"#utility.yul\":3196:3202   */\n      0x00\n        /* \"#utility.yul\":3245:3247   */\n      0x40\n        /* \"#utility.yul\":3233:3242   */\n      dup4\n        /* \"#utility.yul\":3224:3231   */\n      dup6\n        /* \"#utility.yul\":3220:3243   */\n      sub\n        /* \"#utility.yul\":3216:3248   */\n      slt\n        /* \"#utility.yul\":3213:3332   */\n      iszero\n      tag_291\n      jumpi\n        /* \"#utility.yul\":3251:3330   */\n      tag_292\n      tag_198\n      jump\t// in\n    tag_292:\n        /* \"#utility.yul\":3213:3332   */\n    tag_291:\n        /* \"#utility.yul\":3399:3400   */\n      0x00\n        /* \"#utility.yul\":3388:3397   */\n      dup4\n        /* \"#utility.yul\":3384:3401   */\n      add\n        /* \"#utility.yul\":3371:3402   */\n      calldataload\n        /* \"#utility.yul\":3429:3447   */\n      0xffffffffffffffff\n        /* \"#utility.yul\":3421:3427   */\n      dup2\n        /* \"#utility.yul\":3418:3448   */\n      gt\n        /* \"#utility.yul\":3415:3532   */\n      iszero\n      tag_293\n      jumpi\n        /* \"#utility.yul\":3451:3530   */\n      tag_294\n      tag_199\n      jump\t// in\n    tag_294:\n        /* \"#utility.yul\":3415:3532   */\n    tag_293:\n        /* \"#utility.yul\":3556:3634   */\n      tag_295\n        /* \"#utility.yul\":3626:3633   */\n      dup6\n        /* \"#utility.yul\":3617:3623   */\n      dup3\n        /* \"#utility.yul\":3606:3615   */\n      dup7\n        /* \"#utility.yul\":3602:3624   */\n      add\n        /* \"#utility.yul\":3556:3634   */\n      tag_210\n      jump\t// in\n    tag_295:\n        /* \"#utility.yul\":3546:3634   */\n      swap3\n      pop\n        /* \"#utility.yul\":3342:3644   */\n      pop\n        /* \"#utility.yul\":3683:3685   */\n      0x20\n        /* \"#utility.yul\":3709:3762   */\n      tag_296\n        /* \"#utility.yul\":3754:3761   */\n      dup6\n        /* \"#utility.yul\":3745:3751   */\n      dup3\n        /* \"#utility.yul\":3734:3743   */\n      dup7\n        /* \"#utility.yul\":3730:3752   */\n      add\n        /* \"#utility.yul\":3709:3762   */\n      tag_208\n      jump\t// in\n    tag_296:\n        /* \"#utility.yul\":3699:3762   */\n      swap2\n      pop\n        /* \"#utility.yul\":3654:3772   */\n      pop\n        /* \"#utility.yul\":3095:3779   */\n      swap3\n      pop\n      swap3\n      swap1\n      pop\n      jump\t// out\n        /* \"#utility.yul\":3785:3903   */\n    tag_211:\n        /* \"#utility.yul\":3872:3896   */\n      tag_298\n        /* \"#utility.yul\":3890:3895   */\n      dup2\n        /* \"#utility.yul\":3872:3896   */\n      tag_206\n      jump\t// in\n    tag_298:\n        /* \"#utility.yul\":3867:3870   */\n      dup3\n        /* \"#utility.yul\":3860:3897   */\n      mstore\n        /* \"#utility.yul\":3785:3903   */\n      pop\n      pop\n      jump\t// out\n        /* \"#utility.yul\":3909:4241   */\n    tag_13:\n        /* \"#utility.yul\":4030:4034   */\n      0x00\n        /* \"#utility.yul\":4068:4070   */\n      0x40\n        /* \"#utility.yul\":4057:4066   */\n      dup3\n        /* \"#utility.yul\":4053:4071   */\n      add\n        /* \"#utility.yul\":4045:4071   */\n      swap1\n      pop\n        /* \"#utility.yul\":4081:4152   */\n      tag_300\n        /* \"#utility.yul\":4149:4150   */\n      0x00\n        /* \"#utility.yul\":4138:4147   */\n      dup4\n        /* \"#utility.yul\":4134:4151   */\n      add\n        /* \"#utility.yul\":4125:4131   */\n      dup6\n        /* \"#utility.yul\":4081:4152   */\n      tag_211\n      jump\t// in\n    tag_300:\n        /* \"#utility.yul\":4162:4234   */\n      tag_301\n        /* \"#utility.yul\":4230:4232   */\n      0x20\n        /* \"#utility.yul\":4219:4228   */\n      dup4\n        /* \"#utility.yul\":4215:4233   */\n      add\n        /* \"#utility.yul\":4206:4212   */\n      dup5\n        /* \"#utility.yul\":4162:4234   */\n      tag_211\n      jump\t// in\n    tag_301:\n        /* \"#utility.yul\":3909:4241   */\n      swap4\n      swap3\n      pop\n      pop\n      pop\n      jump\t// out\n        /* \"#utility.yul\":4247:4469   */\n    tag_18:\n        /* \"#utility.yul\":4340:4344   */\n      0x00\n        /* \"#utility.yul\":4378:4380   */\n      0x20\n        /* \"#utility.yul\":4367:4376   */\n      dup3\n        /* \"#utility.yul\":4363:4381   */\n      add\n        /* \"#utility.yul\":4355:4381   */\n      swap1\n      pop\n        /* \"#utility.yul\":4391:4462   */\n      tag_303\n        /* \"#utility.yul\":4459:4460   */\n      0x00\n        /* \"#utility.yul\":4448:4457   */\n      dup4\n        /* \"#utility.yul\":4444:4461   */\n      add\n        /* \"#utility.yul\":4435:4441   */\n      dup5\n        /* \"#utility.yul\":4391:4462   */\n      tag_211\n      jump\t// in\n    tag_303:\n        /* \"#utility.yul\":4247:4469   */\n      swap3\n      swap2\n      pop\n      pop\n      jump\t// out\n        /* \"#utility.yul\":4475:4655   */\n    tag_35:\n        /* \"#utility.yul\":4523:4600   */\n      0x4e487b7100000000000000000000000000000000000000000000000000000000\n        /* \"#utility.yul\":4520:4521   */\n      0x00\n        /* \"#utility.yul\":4513:4601   */\n      mstore\n        /* \"#utility.yul\":4620:4624   */\n      0x32\n        /* \"#utility.yul\":4617:4618   */\n      0x04\n        /* \"#utility.yul\":4610:4625   */\n      mstore\n        /* \"#utility.yul\":4644:4648   */\n      0x24\n        /* \"#utility.yul\":4641:4642   */\n      0x00\n        /* \"#utility.yul\":4634:4649   */\n      revert\n        /* \"#utility.yul\":4661:4841   */\n    tag_212:\n        /* \"#utility.yul\":4709:4786   */\n      0x4e487b7100000000000000000000000000000000000000000000000000000000\n        /* \"#utility.yul\":4706:4707   */\n      0x00\n        /* \"#utility.yul\":4699:4787   */\n      mstore\n        /* \"#utility.yul\":4806:4810   */\n      0x11\n        /* \"#utility.yul\":4803:4804   */\n      0x04\n        /* \"#utility.yul\":4796:4811   */\n      mstore\n        /* \"#utility.yul\":4830:4834   */\n      0x24\n        /* \"#utility.yul\":4827:4828   */\n      0x00\n        /* \"#utility.yul\":4820:4835   */\n      revert\n        /* \"#utility.yul\":4847:5041   */\n    tag_41:\n        /* \"#utility.yul\":4887:4891   */\n      0x00\n        /* \"#utility.yul\":4907:4927   */\n      tag_307\n        /* \"#utility.yul\":4925:4926   */\n      dup3\n        /* \"#utility.yul\":4907:4927   */\n      tag_206\n      jump\t// in\n    tag_307:\n        /* \"#utility.yul\":4902:4927   */\n      swap2\n      pop\n        /* \"#utility.yul\":4941:4961   */\n      tag_308\n        /* \"#utility.yul\":4959:4960   */\n      dup4\n        /* \"#utility.yul\":4941:4961   */\n      tag_206\n      jump\t// in\n    tag_308:\n        /* \"#utility.yul\":4936:4961   */\n      swap3\n      pop\n        /* \"#utility.yul\":4985:4986   */\n      dup3\n        /* \"#utility.yul\":4982:4983   */\n      dup3\n        /* \"#utility.yul\":4978:4987   */\n      sub\n        /* \"#utility.yul\":4970:4987   */\n      swap1\n      pop\n        /* \"#utility.yul\":5009:5010   */\n      dup2\n        /* \"#utility.yul\":5003:5007   */\n      dup2\n        /* \"#utility.yul\":5000:5011   */\n      gt\n        /* \"#utility.yul\":4997:5034   */\n      iszero\n      tag_309\n      jumpi\n        /* \"#utility.yul\":5014:5032   */\n      tag_310\n      tag_212\n      jump\t// in\n    tag_310:\n        /* \"#utility.yul\":4997:5034   */\n    tag_309:\n        /* \"#utility.yul\":4847:5041   */\n      swap3\n      swap2\n      pop\n      pop\n      jump\t// out\n        /* \"#utility.yul\":5047:5227   */\n    tag_213:\n        /* \"#utility.yul\":5095:5172   */\n      0x4e487b7100000000000000000000000000000000000000000000000000000000\n        /* \"#utility.yul\":5092:5093   */\n      0x00\n        /* \"#utility.yul\":5085:5173   */\n      mstore\n        /* \"#utility.yul\":5192:5196   */\n      0x12\n        /* \"#utility.yul\":5189:5190   */\n      0x04\n        /* \"#utility.yul\":5182:5197   */\n      mstore\n        /* \"#utility.yul\":5216:5220   */\n      0x24\n        /* \"#utility.yul\":5213:5214   */\n      0x00\n        /* \"#utility.yul\":5206:5221   */\n      revert\n        /* \"#utility.yul\":5233:5418   */\n    tag_43:\n        /* \"#utility.yul\":5273:5274   */\n      0x00\n        /* \"#utility.yul\":5290:5310   */\n      tag_313\n        /* \"#utility.yul\":5308:5309   */\n      dup3\n        /* \"#utility.yul\":5290:5310   */\n      tag_206\n      jump\t// in\n    tag_313:\n        /* \"#utility.yul\":5285:5310   */\n      swap2\n      pop\n        /* \"#utility.yul\":5324:5344   */\n      tag_314\n        /* \"#utility.yul\":5342:5343   */\n      dup4\n        /* \"#utility.yul\":5324:5344   */\n      tag_206\n      jump\t// in\n    tag_314:\n        /* \"#utility.yul\":5319:5344   */\n      swap3\n      pop\n        /* \"#utility.yul\":5363:5364   */\n      dup3\n        /* \"#utility.yul\":5353:5388   */\n      tag_315\n      jumpi\n        /* \"#utility.yul\":5368:5386   */\n      tag_316\n      tag_213\n      jump\t// in\n    tag_316:\n        /* \"#utility.yul\":5353:5388   */\n    tag_315:\n        /* \"#utility.yul\":5410:5411   */\n      dup3\n        /* \"#utility.yul\":5407:5408   */\n      dup3\n        /* \"#utility.yul\":5403:5412   */\n      div\n        /* \"#utility.yul\":5398:5412   */\n      swap1\n      pop\n        /* \"#utility.yul\":5233:5418   */\n      swap3\n      swap2\n      pop\n      pop\n      jump\t// out\n        /* \"#utility.yul\":5424:5615   */\n    tag_45:\n        /* \"#utility.yul\":5464:5467   */\n      0x00\n        /* \"#utility.yul\":5483:5503   */\n      tag_318\n        /* \"#utility.yul\":5501:5502   */\n      dup3\n        /* \"#utility.yul\":5483:5503   */\n      tag_206\n      jump\t// in\n    tag_318:\n        /* \"#utility.yul\":5478:5503   */\n      swap2\n      pop\n        /* \"#utility.yul\":5517:5537   */\n      tag_319\n        /* \"#utility.yul\":5535:5536   */\n      dup4\n        /* \"#utility.yul\":5517:5537   */\n      tag_206\n      jump\t// in\n    tag_319:\n        /* \"#utility.yul\":5512:5537   */\n      swap3\n      pop\n        /* \"#utility.yul\":5560:5561   */\n      dup3\n        /* \"#utility.yul\":5557:5558   */\n      dup3\n        /* \"#utility.yul\":5553:5562   */\n      add\n        /* \"#utility.yul\":5546:5562   */\n      swap1\n      pop\n        /* \"#utility.yul\":5581:5584   */\n      dup1\n        /* \"#utility.yul\":5578:5579   */\n      dup3\n        /* \"#utility.yul\":5575:5585   */\n      gt\n        /* \"#utility.yul\":5572:5608   */\n      iszero\n      tag_320\n      jumpi\n        /* \"#utility.yul\":5588:5606   */\n      tag_321\n      tag_212\n      jump\t// in\n    tag_321:\n        /* \"#utility.yul\":5572:5608   */\n    tag_320:\n        /* \"#utility.yul\":5424:5615   */\n      swap3\n      swap2\n      pop\n      pop\n      jump\t// out\n        /* \"#utility.yul\":5621:5790   */\n    tag_214:\n        /* \"#utility.yul\":5705:5716   */\n      0x00\n        /* \"#utility.yul\":5739:5745   */\n      dup3\n        /* \"#utility.yul\":5734:5737   */\n      dup3\n        /* \"#utility.yul\":5727:5746   */\n      mstore\n        /* \"#utility.yul\":5779:5783   */\n      0x20\n        /* \"#utility.yul\":5774:5777   */\n      dup3\n        /* \"#utility.yul\":5770:5784   */\n      add\n        /* \"#utility.yul\":5755:5784   */\n      swap1\n      pop\n        /* \"#utility.yul\":5621:5790   */\n      swap3\n      swap2\n      pop\n      pop\n      jump\t// out\n        /* \"#utility.yul\":5796:5959   */\n    tag_215:\n        /* \"#utility.yul\":5936:5951   */\n      0x546573742031206661696c656400000000000000000000000000000000000000\n        /* \"#utility.yul\":5932:5933   */\n      0x00\n        /* \"#utility.yul\":5924:5930   */\n      dup3\n        /* \"#utility.yul\":5920:5934   */\n      add\n        /* \"#utility.yul\":5913:5952   */\n      mstore\n        /* \"#utility.yul\":5796:5959   */\n      pop\n      jump\t// out\n        /* \"#utility.yul\":5965:6331   */\n    tag_216:\n        /* \"#utility.yul\":6107:6110   */\n      0x00\n        /* \"#utility.yul\":6128:6195   */\n      tag_325\n        /* \"#utility.yul\":6192:6194   */\n      0x0d\n        /* \"#utility.yul\":6187:6190   */\n      dup4\n        /* \"#utility.yul\":6128:6195   */\n      tag_214\n      jump\t// in\n    tag_325:\n        /* \"#utility.yul\":6121:6195   */\n      swap2\n      pop\n        /* \"#utility.yul\":6204:6297   */\n      tag_326\n        /* \"#utility.yul\":6293:6296   */\n      dup3\n        /* \"#utility.yul\":6204:6297   */\n      tag_215\n      jump\t// in\n    tag_326:\n        /* \"#utility.yul\":6322:6324   */\n      0x20\n        /* \"#utility.yul\":6317:6320   */\n      dup3\n        /* \"#utility.yul\":6313:6325   */\n      add\n        /* \"#utility.yul\":6306:6325   */\n      swap1\n      pop\n        /* \"#utility.yul\":5965:6331   */\n      swap2\n      swap1\n      pop\n      jump\t// out\n        /* \"#utility.yul\":6337:6756   */\n    tag_104:\n        /* \"#utility.yul\":6503:6507   */\n      0x00\n        /* \"#utility.yul\":6541:6543   */\n      0x20\n        /* \"#utility.yul\":6530:6539   */\n      dup3\n        /* \"#utility.yul\":6526:6544   */\n      add\n        /* \"#utility.yul\":6518:6544   */\n      swap1\n      pop\n        /* \"#utility.yul\":6590:6599   */\n      dup2\n        /* \"#utility.yul\":6584:6588   */\n      dup2\n        /* \"#utility.yul\":6580:6600   */\n      sub\n        /* \"#utility.yul\":6576:6577   */\n      0x00\n        /* \"#utility.yul\":6565:6574   */\n      dup4\n        /* \"#utility.yul\":6561:6578   */\n      add\n        /* \"#utility.yul\":6554:6601   */\n      mstore\n        /* \"#utility.yul\":6618:6749   */\n      tag_328\n        /* \"#utility.yul\":6744:6748   */\n      dup2\n        /* \"#utility.yul\":6618:6749   */\n      tag_216\n      jump\t// in\n    tag_328:\n        /* \"#utility.yul\":6610:6749   */\n      swap1\n      pop\n        /* \"#utility.yul\":6337:6756   */\n      swap2\n      swap1\n      pop\n      jump\t// out\n        /* \"#utility.yul\":6762:6925   */\n    tag_217:\n        /* \"#utility.yul\":6902:6917   */\n      0x546573742032206661696c656400000000000000000000000000000000000000\n        /* \"#utility.yul\":6898:6899   */\n      0x00\n        /* \"#utility.yul\":6890:6896   */\n      dup3\n        /* \"#utility.yul\":6886:6900   */\n      add\n        /* \"#utility.yul\":6879:6918   */\n      mstore\n        /* \"#utility.yul\":6762:6925   */\n      pop\n      jump\t// out\n        /* \"#utility.yul\":6931:7297   */\n    tag_218:\n        /* \"#utility.yul\":7073:7076   */\n      0x00\n        /* \"#utility.yul\":7094:7161   */\n      tag_331\n        /* \"#utility.yul\":7158:7160   */\n      0x0d\n        /* \"#utility.yul\":7153:7156   */\n      dup4\n        /* \"#utility.yul\":7094:7161   */\n      tag_214\n      jump\t// in\n    tag_331:\n        /* \"#utility.yul\":7087:7161   */\n      swap2\n      pop\n        /* \"#utility.yul\":7170:7263   */\n      tag_332\n        /* \"#utility.yul\":7259:7262   */\n      dup3\n        /* \"#utility.yul\":7170:7263   */\n      tag_217\n      jump\t// in\n    tag_332:\n        /* \"#utility.yul\":7288:7290   */\n      0x20\n        /* \"#utility.yul\":7283:7286   */\n      dup3\n        /* \"#utility.yul\":7279:7291   */\n      add\n        /* \"#utility.yul\":7272:7291   */\n      swap1\n      pop\n        /* \"#utility.yul\":6931:7297   */\n      swap2\n      swap1\n      pop\n      jump\t// out\n        /* \"#utility.yul\":7303:7722   */\n    tag_108:\n        /* \"#utility.yul\":7469:7473   */\n      0x00\n        /* \"#utility.yul\":7507:7509   */\n      0x20\n        /* \"#utility.yul\":7496:7505   */\n      dup3\n        /* \"#utility.yul\":7492:7510   */\n      add\n        /* \"#utility.yul\":7484:7510   */\n      swap1\n      pop\n        /* \"#utility.yul\":7556:7565   */\n      dup2\n        /* \"#utility.yul\":7550:7554   */\n      dup2\n        /* \"#utility.yul\":7546:7566   */\n      sub\n        /* \"#utility.yul\":7542:7543   */\n      0x00\n        /* \"#utility.yul\":7531:7540   */\n      dup4\n        /* \"#utility.yul\":7527:7544   */\n      add\n        /* \"#utility.yul\":7520:7567   */\n      mstore\n        /* \"#utility.yul\":7584:7715   */\n      tag_334\n        /* \"#utility.yul\":7710:7714   */\n      dup2\n        /* \"#utility.yul\":7584:7715   */\n      tag_218\n      jump\t// in\n    tag_334:\n        /* \"#utility.yul\":7576:7715   */\n      swap1\n      pop\n        /* \"#utility.yul\":7303:7722   */\n      swap2\n      swap1\n      pop\n      jump\t// out\n        /* \"#utility.yul\":7728:7891   */\n    tag_219:\n        /* \"#utility.yul\":7868:7883   */\n      0x546573742033206661696c656400000000000000000000000000000000000000\n        /* \"#utility.yul\":7864:7865   */\n      0x00\n        /* \"#utility.yul\":7856:7862   */\n      dup3\n        /* \"#utility.yul\":7852:7866   */\n      add\n        /* \"#utility.yul\":7845:7884   */\n      mstore\n        /* \"#utility.yul\":7728:7891   */\n      pop\n      jump\t// out\n        /* \"#utility.yul\":7897:8263   */\n    tag_220:\n        /* \"#utility.yul\":8039:8042   */\n      0x00\n        /* \"#utility.yul\":8060:8127   */\n      tag_337\n        /* \"#utility.yul\":8124:8126   */\n      0x0d\n        /* \"#utility.yul\":8119:8122   */\n      dup4\n        /* \"#utility.yul\":8060:8127   */\n      tag_214\n      jump\t// in\n    tag_337:\n        /* \"#utility.yul\":8053:8127   */\n      swap2\n      pop\n        /* \"#utility.yul\":8136:8229   */\n      tag_338\n        /* \"#utility.yul\":8225:8228   */\n      dup3\n        /* \"#utility.yul\":8136:8229   */\n      tag_219\n      jump\t// in\n    tag_338:\n        /* \"#utility.yul\":8254:8256   */\n      0x20\n        /* \"#utility.yul\":8249:8252   */\n      dup3\n        /* \"#utility.yul\":8245:8257   */\n      add\n        /* \"#utility.yul\":8238:8257   */\n      swap1\n      pop\n        /* \"#utility.yul\":7897:8263   */\n      swap2\n      swap1\n      pop\n      jump\t// out\n        /* \"#utility.yul\":8269:8688   */\n    tag_112:\n        /* \"#utility.yul\":8435:8439   */\n      0x00\n        /* \"#utility.yul\":8473:8475   */\n      0x20\n        /* \"#utility.yul\":8462:8471   */\n      dup3\n        /* \"#utility.yul\":8458:8476   */\n      add\n        /* \"#utility.yul\":8450:8476   */\n      swap1\n      pop\n        /* \"#utility.yul\":8522:8531   */\n      dup2\n        /* \"#utility.yul\":8516:8520   */\n      dup2\n        /* \"#utility.yul\":8512:8532   */\n      sub\n        /* \"#utility.yul\":8508:8509   */\n      0x00\n        /* \"#utility.yul\":8497:8506   */\n      dup4\n        /* \"#utility.yul\":8493:8510   */\n      add\n        /* \"#utility.yul\":8486:8533   */\n      mstore\n        /* \"#utility.yul\":8550:8681   */\n      tag_340\n        /* \"#utility.yul\":8676:8680   */\n      dup2\n        /* \"#utility.yul\":8550:8681   */\n      tag_220\n      jump\t// in\n    tag_340:\n        /* \"#utility.yul\":8542:8681   */\n      swap1\n      pop\n        /* \"#utility.yul\":8269:8688   */\n      swap2\n      swap1\n      pop\n      jump\t// out\n        /* \"#utility.yul\":8694:8857   */\n    tag_221:\n        /* \"#utility.yul\":8834:8849   */\n      0x546573742034206661696c656400000000000000000000000000000000000000\n        /* \"#utility.yul\":8830:8831   */\n      0x00\n        /* \"#utility.yul\":8822:8828   */\n      dup3\n        /* \"#utility.yul\":8818:8832   */\n      add\n        /* \"#utility.yul\":8811:8850   */\n      mstore\n        /* \"#utility.yul\":8694:8857   */\n      pop\n      jump\t// out\n        /* \"#utility.yul\":8863:9229   */\n    tag_222:\n        /* \"#utility.yul\":9005:9008   */\n      0x00\n        /* \"#utility.yul\":9026:9093   */\n      tag_343\n        /* \"#utility.yul\":9090:9092   */\n      0x0d\n        /* \"#utility.yul\":9085:9088   */\n      dup4\n        /* \"#utility.yul\":9026:9093   */\n      tag_214\n      jump\t// in\n    tag_343:\n        /* \"#utility.yul\":9019:9093   */\n      swap2\n      pop\n        /* \"#utility.yul\":9102:9195   */\n      tag_344\n        /* \"#utility.yul\":9191:9194   */\n      dup3\n        /* \"#utility.yul\":9102:9195   */\n      tag_221\n      jump\t// in\n    tag_344:\n        /* \"#utility.yul\":9220:9222   */\n      0x20\n        /* \"#utility.yul\":9215:9218   */\n      dup3\n        /* \"#utility.yul\":9211:9223   */\n      add\n        /* \"#utility.yul\":9204:9223   */\n      swap1\n      pop\n        /* \"#utility.yul\":8863:9229   */\n      swap2\n      swap1\n      pop\n      jump\t// out\n        /* \"#utility.yul\":9235:9654   */\n    tag_116:\n        /* \"#utility.yul\":9401:9405   */\n      0x00\n        /* \"#utility.yul\":9439:9441   */\n      0x20\n        /* \"#utility.yul\":9428:9437   */\n      dup3\n        /* \"#utility.yul\":9424:9442   */\n      add\n        /* \"#utility.yul\":9416:9442   */\n      swap1\n      pop\n        /* \"#utility.yul\":9488:9497   */\n      dup2\n        /* \"#utility.yul\":9482:9486   */\n      dup2\n        /* \"#utility.yul\":9478:9498   */\n      sub\n        /* \"#utility.yul\":9474:9475   */\n      0x00\n        /* \"#utility.yul\":9463:9472   */\n      dup4\n        /* \"#utility.yul\":9459:9476   */\n      add\n        /* \"#utility.yul\":9452:9499   */\n      mstore\n        /* \"#utility.yul\":9516:9647   */\n      tag_346\n        /* \"#utility.yul\":9642:9646   */\n      dup2\n        /* \"#utility.yul\":9516:9647   */\n      tag_222\n      jump\t// in\n    tag_346:\n        /* \"#utility.yul\":9508:9647   */\n      swap1\n      pop\n        /* \"#utility.yul\":9235:9654   */\n      swap2\n      swap1\n      pop\n      jump\t// out\n        /* \"#utility.yul\":9660:9823   */\n    tag_223:\n        /* \"#utility.yul\":9800:9815   */\n      0x546573742035206661696c656400000000000000000000000000000000000000\n        /* \"#utility.yul\":9796:9797   */\n      0x00\n        /* \"#utility.yul\":9788:9794   */\n      dup3\n        /* \"#utility.yul\":9784:9798   */\n      add\n        /* \"#utility.yul\":9777:9816   */\n      mstore\n        /* \"#utility.yul\":9660:9823   */\n      pop\n      jump\t// out\n        /* \"#utility.yul\":9829:10195   */\n    tag_224:\n        /* \"#utility.yul\":9971:9974   */\n      0x00\n        /* \"#utility.yul\":9992:10059   */\n      tag_349\n        /* \"#utility.yul\":10056:10058   */\n      0x0d\n        /* \"#utility.yul\":10051:10054   */\n      dup4\n        /* \"#utility.yul\":9992:10059   */\n      tag_214\n      jump\t// in\n    tag_349:\n        /* \"#utility.yul\":9985:10059   */\n      swap2\n      pop\n        /* \"#utility.yul\":10068:10161   */\n      tag_350\n        /* \"#utility.yul\":10157:10160   */\n      dup3\n        /* \"#utility.yul\":10068:10161   */\n      tag_223\n      jump\t// in\n    tag_350:\n        /* \"#utility.yul\":10186:10188   */\n      0x20\n        /* \"#utility.yul\":10181:10184   */\n      dup3\n        /* \"#utility.yul\":10177:10189   */\n      add\n        /* \"#utility.yul\":10170:10189   */\n      swap1\n      pop\n        /* \"#utility.yul\":9829:10195   */\n      swap2\n      swap1\n      pop\n      jump\t// out\n        /* \"#utility.yul\":10201:10620   */\n    tag_120:\n        /* \"#utility.yul\":10367:10371   */\n      0x00\n        /* \"#utility.yul\":10405:10407   */\n      0x20\n        /* \"#utility.yul\":10394:10403   */\n      dup3\n        /* \"#utility.yul\":10390:10408   */\n      add\n        /* \"#utility.yul\":10382:10408   */\n      swap1\n      pop\n        /* \"#utility.yul\":10454:10463   */\n      dup2\n        /* \"#utility.yul\":10448:10452   */\n      dup2\n        /* \"#utility.yul\":10444:10464   */\n      sub\n        /* \"#utility.yul\":10440:10441   */\n      0x00\n        /* \"#utility.yul\":10429:10438   */\n      dup4\n        /* \"#utility.yul\":10425:10442   */\n      add\n        /* \"#utility.yul\":10418:10465   */\n      mstore\n        /* \"#utility.yul\":10482:10613   */\n      tag_352\n        /* \"#utility.yul\":10608:10612   */\n      dup2\n        /* \"#utility.yul\":10482:10613   */\n      tag_224\n      jump\t// in\n    tag_352:\n        /* \"#utility.yul\":10474:10613   */\n      swap1\n      pop\n        /* \"#utility.yul\":10201:10620   */\n      swap2\n      swap1\n      pop\n      jump\t// out\n        /* \"#utility.yul\":10626:10789   */\n    tag_225:\n        /* \"#utility.yul\":10766:10781   */\n      0x546573742036206661696c656400000000000000000000000000000000000000\n        /* \"#utility.yul\":10762:10763   */\n      0x00\n        /* \"#utility.yul\":10754:10760   */\n      dup3\n        /* \"#utility.yul\":10750:10764   */\n      add\n        /* \"#utility.yul\":10743:10782   */\n      mstore\n        /* \"#utility.yul\":10626:10789   */\n      pop\n      jump\t// out\n        /* \"#utility.yul\":10795:11161   */\n    tag_226:\n        /* \"#utility.yul\":10937:10940   */\n      0x00\n        /* \"#utility.yul\":10958:11025   */\n      tag_355\n        /* \"#utility.yul\":11022:11024   */\n      0x0d\n        /* \"#utility.yul\":11017:11020   */\n      dup4\n        /* \"#utility.yul\":10958:11025   */\n      tag_214\n      jump\t// in\n    tag_355:\n        /* \"#utility.yul\":10951:11025   */\n      swap2\n      pop\n        /* \"#utility.yul\":11034:11127   */\n      tag_356\n        /* \"#utility.yul\":11123:11126   */\n      dup3\n        /* \"#utility.yul\":11034:11127   */\n      tag_225\n      jump\t// in\n    tag_356:\n        /* \"#utility.yul\":11152:11154   */\n      0x20\n        /* \"#utility.yul\":11147:11150   */\n      dup3\n        /* \"#utility.yul\":11143:11155   */\n      add\n        /* \"#utility.yul\":11136:11155   */\n      swap1\n      pop\n        /* \"#utility.yul\":10795:11161   */\n      swap2\n      swap1\n      pop\n      jump\t// out\n        /* \"#utility.yul\":11167:11586   */\n    tag_124:\n        /* \"#utility.yul\":11333:11337   */\n      0x00\n        /* \"#utility.yul\":11371:11373   */\n      0x20\n        /* \"#utility.yul\":11360:11369   */\n      dup3\n        /* \"#utility.yul\":11356:11374   */\n      add\n        /* \"#utility.yul\":11348:11374   */\n      swap1\n      pop\n        /* \"#utility.yul\":11420:11429   */\n      dup2\n        /* \"#utility.yul\":11414:11418   */\n      dup2\n        /* \"#utility.yul\":11410:11430   */\n      sub\n        /* \"#utility.yul\":11406:11407   */\n      0x00\n        /* \"#utility.yul\":11395:11404   */\n      dup4\n        /* \"#utility.yul\":11391:11408   */\n      add\n        /* \"#utility.yul\":11384:11431   */\n      mstore\n        /* \"#utility.yul\":11448:11579   */\n      tag_358\n        /* \"#utility.yul\":11574:11578   */\n      dup2\n        /* \"#utility.yul\":11448:11579   */\n      tag_226\n      jump\t// in\n    tag_358:\n        /* \"#utility.yul\":11440:11579   */\n      swap1\n      pop\n        /* \"#utility.yul\":11167:11586   */\n      swap2\n      swap1\n      pop\n      jump\t// out\n        /* \"#utility.yul\":11592:11755   */\n    tag_227:\n        /* \"#utility.yul\":11732:11747   */\n      0x546573742037206661696c656400000000000000000000000000000000000000\n        /* \"#utility.yul\":11728:11729   */\n      0x00\n        /* \"#utility.yul\":11720:11726   */\n      dup3\n        /* \"#utility.yul\":11716:11730   */\n      add\n        /* \"#utility.yul\":11709:11748   */\n      mstore\n        /* \"#utility.yul\":11592:11755   */\n      pop\n      jump\t// out\n        /* \"#utility.yul\":11761:12127   */\n    tag_228:\n        /* \"#utility.yul\":11903:11906   */\n      0x00\n        /* \"#utility.yul\":11924:11991   */\n      tag_361\n        /* \"#utility.yul\":11988:11990   */\n      0x0d\n        /* \"#utility.yul\":11983:11986   */\n      dup4\n        /* \"#utility.yul\":11924:11991   */\n      tag_214\n      jump\t// in\n    tag_361:\n        /* \"#utility.yul\":11917:11991   */\n      swap2\n      pop\n        /* \"#utility.yul\":12000:12093   */\n      tag_362\n        /* \"#utility.yul\":12089:12092   */\n      dup3\n        /* \"#utility.yul\":12000:12093   */\n      tag_227\n      jump\t// in\n    tag_362:\n        /* \"#utility.yul\":12118:12120   */\n      0x20\n        /* \"#utility.yul\":12113:12116   */\n      dup3\n        /* \"#utility.yul\":12109:12121   */\n      add\n        /* \"#utility.yul\":12102:12121   */\n      swap1\n      pop\n        /* \"#utility.yul\":11761:12127   */\n      swap2\n      swap1\n      pop\n      jump\t// out\n        /* \"#utility.yul\":12133:12552   */\n    tag_128:\n        /* \"#utility.yul\":12299:12303   */\n      0x00\n        /* \"#utility.yul\":12337:12339   */\n      0x20\n        /* \"#utility.yul\":12326:12335   */\n      dup3\n        /* \"#utility.yul\":12322:12340   */\n      add\n        /* \"#utility.yul\":12314:12340   */\n      swap1\n      pop\n        /* \"#utility.yul\":12386:12395   */\n      dup2\n        /* \"#utility.yul\":12380:12384   */\n      dup2\n        /* \"#utility.yul\":12376:12396   */\n      sub\n        /* \"#utility.yul\":12372:12373   */\n      0x00\n        /* \"#utility.yul\":12361:12370   */\n      dup4\n        /* \"#utility.yul\":12357:12374   */\n      add\n        /* \"#utility.yul\":12350:12397   */\n      mstore\n        /* \"#utility.yul\":12414:12545   */\n      tag_364\n        /* \"#utility.yul\":12540:12544   */\n      dup2\n        /* \"#utility.yul\":12414:12545   */\n      tag_228\n      jump\t// in\n    tag_364:\n        /* \"#utility.yul\":12406:12545   */\n      swap1\n      pop\n        /* \"#utility.yul\":12133:12552   */\n      swap2\n      swap1\n      pop\n      jump\t// out\n        /* \"#utility.yul\":12558:12721   */\n    tag_229:\n        /* \"#utility.yul\":12698:12713   */\n      0x546573742038206661696c656400000000000000000000000000000000000000\n        /* \"#utility.yul\":12694:12695   */\n      0x00\n        /* \"#utility.yul\":12686:12692   */\n      dup3\n        /* \"#utility.yul\":12682:12696   */\n      add\n        /* \"#utility.yul\":12675:12714   */\n      mstore\n        /* \"#utility.yul\":12558:12721   */\n      pop\n      jump\t// out\n        /* \"#utility.yul\":12727:13093   */\n    tag_230:\n        /* \"#utility.yul\":12869:12872   */\n      0x00\n        /* \"#utility.yul\":12890:12957   */\n      tag_367\n        /* \"#utility.yul\":12954:12956   */\n      0x0d\n        /* \"#utility.yul\":12949:12952   */\n      dup4\n        /* \"#utility.yul\":12890:12957   */\n      tag_214\n      jump\t// in\n    tag_367:\n        /* \"#utility.yul\":12883:12957   */\n      swap2\n      pop\n        /* \"#utility.yul\":12966:13059   */\n      tag_368\n        /* \"#utility.yul\":13055:13058   */\n      dup3\n        /* \"#utility.yul\":12966:13059   */\n      tag_229\n      jump\t// in\n    tag_368:\n        /* \"#utility.yul\":13084:13086   */\n      0x20\n        /* \"#utility.yul\":13079:13082   */\n      dup3\n        /* \"#utility.yul\":13075:13087   */\n      add\n        /* \"#utility.yul\":13068:13087   */\n      swap1\n      pop\n        /* \"#utility.yul\":12727:13093   */\n      swap2\n      swap1\n      pop\n      jump\t// out\n        /* \"#utility.yul\":13099:13518   */\n    tag_132:\n        /* \"#utility.yul\":13265:13269   */\n      0x00\n        /* \"#utility.yul\":13303:13305   */\n      0x20\n        /* \"#utility.yul\":13292:13301   */\n      dup3\n        /* \"#utility.yul\":13288:13306   */\n      add\n        /* \"#utility.yul\":13280:13306   */\n      swap1\n      pop\n        /* \"#utility.yul\":13352:13361   */\n      dup2\n        /* \"#utility.yul\":13346:13350   */\n      dup2\n        /* \"#utility.yul\":13342:13362   */\n      sub\n        /* \"#utility.yul\":13338:13339   */\n      0x00\n        /* \"#utility.yul\":13327:13336   */\n      dup4\n        /* \"#utility.yul\":13323:13340   */\n      add\n        /* \"#utility.yul\":13316:13363   */\n      mstore\n        /* \"#utility.yul\":13380:13511   */\n      tag_370\n        /* \"#utility.yul\":13506:13510   */\n      dup2\n        /* \"#utility.yul\":13380:13511   */\n      tag_230\n      jump\t// in\n    tag_370:\n        /* \"#utility.yul\":13372:13511   */\n      swap1\n      pop\n        /* \"#utility.yul\":13099:13518   */\n      swap2\n      swap1\n      pop\n      jump\t// out\n        /* \"#utility.yul\":13524:13687   */\n    tag_231:\n        /* \"#utility.yul\":13664:13679   */\n      0x546573742039206661696c656400000000000000000000000000000000000000\n        /* \"#utility.yul\":13660:13661   */\n      0x00\n        /* \"#utility.yul\":13652:13658   */\n      dup3\n        /* \"#utility.yul\":13648:13662   */\n      add\n        /* \"#utility.yul\":13641:13680   */\n      mstore\n        /* \"#utility.yul\":13524:13687   */\n      pop\n      jump\t// out\n        /* \"#utility.yul\":13693:14059   */\n    tag_232:\n        /* \"#utility.yul\":13835:13838   */\n      0x00\n        /* \"#utility.yul\":13856:13923   */\n      tag_373\n        /* \"#utility.yul\":13920:13922   */\n      0x0d\n        /* \"#utility.yul\":13915:13918   */\n      dup4\n        /* \"#utility.yul\":13856:13923   */\n      tag_214\n      jump\t// in\n    tag_373:\n        /* \"#utility.yul\":13849:13923   */\n      swap2\n      pop\n        /* \"#utility.yul\":13932:14025   */\n      tag_374\n        /* \"#utility.yul\":14021:14024   */\n      dup3\n        /* \"#utility.yul\":13932:14025   */\n      tag_231\n      jump\t// in\n    tag_374:\n        /* \"#utility.yul\":14050:14052   */\n      0x20\n        /* \"#utility.yul\":14045:14048   */\n      dup3\n        /* \"#utility.yul\":14041:14053   */\n      add\n        /* \"#utility.yul\":14034:14053   */\n      swap1\n      pop\n        /* \"#utility.yul\":13693:14059   */\n      swap2\n      swap1\n      pop\n      jump\t// out\n        /* \"#utility.yul\":14065:14484   */\n    tag_136:\n        /* \"#utility.yul\":14231:14235   */\n      0x00\n        /* \"#utility.yul\":14269:14271   */\n      0x20\n        /* \"#utility.yul\":14258:14267   */\n      dup3\n        /* \"#utility.yul\":14254:14272   */\n      add\n        /* \"#utility.yul\":14246:14272   */\n      swap1\n      pop\n        /* \"#utility.yul\":14318:14327   */\n      dup2\n        /* \"#utility.yul\":14312:14316   */\n      dup2\n        /* \"#utility.yul\":14308:14328   */\n      sub\n        /* \"#utility.yul\":14304:14305   */\n      0x00\n        /* \"#utility.yul\":14293:14302   */\n      dup4\n        /* \"#utility.yul\":14289:14306   */\n      add\n        /* \"#utility.yul\":14282:14329   */\n      mstore\n        /* \"#utility.yul\":14346:14477   */\n      tag_376\n        /* \"#utility.yul\":14472:14476   */\n      dup2\n        /* \"#utility.yul\":14346:14477   */\n      tag_232\n      jump\t// in\n    tag_376:\n        /* \"#utility.yul\":14338:14477   */\n      swap1\n      pop\n        /* \"#utility.yul\":14065:14484   */\n      swap2\n      swap1\n      pop\n      jump\t// out\n        /* \"#utility.yul\":14490:14654   */\n    tag_233:\n        /* \"#utility.yul\":14630:14646   */\n      0x54657374203130206661696c6564000000000000000000000000000000000000\n        /* \"#utility.yul\":14626:14627   */\n      0x00\n        /* \"#utility.yul\":14618:14624   */\n      dup3\n        /* \"#utility.yul\":14614:14628   */\n      add\n        /* \"#utility.yul\":14607:14647   */\n      mstore\n        /* \"#utility.yul\":14490:14654   */\n      pop\n      jump\t// out\n        /* \"#utility.yul\":14660:15026   */\n    tag_234:\n        /* \"#utility.yul\":14802:14805   */\n      0x00\n        /* \"#utility.yul\":14823:14890   */\n      tag_379\n        /* \"#utility.yul\":14887:14889   */\n      0x0e\n        /* \"#utility.yul\":14882:14885   */\n      dup4\n        /* \"#utility.yul\":14823:14890   */\n      tag_214\n      jump\t// in\n    tag_379:\n        /* \"#utility.yul\":14816:14890   */\n      swap2\n      pop\n        /* \"#utility.yul\":14899:14992   */\n      tag_380\n        /* \"#utility.yul\":14988:14991   */\n      dup3\n        /* \"#utility.yul\":14899:14992   */\n      tag_233\n      jump\t// in\n    tag_380:\n        /* \"#utility.yul\":15017:15019   */\n      0x20\n        /* \"#utility.yul\":15012:15015   */\n      dup3\n        /* \"#utility.yul\":15008:15020   */\n      add\n        /* \"#utility.yul\":15001:15020   */\n      swap1\n      pop\n        /* \"#utility.yul\":14660:15026   */\n      swap2\n      swap1\n      pop\n      jump\t// out\n        /* \"#utility.yul\":15032:15451   */\n    tag_140:\n        /* \"#utility.yul\":15198:15202   */\n      0x00\n        /* \"#utility.yul\":15236:15238   */\n      0x20\n        /* \"#utility.yul\":15225:15234   */\n      dup3\n        /* \"#utility.yul\":15221:15239   */\n      add\n        /* \"#utility.yul\":15213:15239   */\n      swap1\n      pop\n        /* \"#utility.yul\":15285:15294   */\n      dup2\n        /* \"#utility.yul\":15279:15283   */\n      dup2\n        /* \"#utility.yul\":15275:15295   */\n      sub\n        /* \"#utility.yul\":15271:15272   */\n      0x00\n        /* \"#utility.yul\":15260:15269   */\n      dup4\n        /* \"#utility.yul\":15256:15273   */\n      add\n        /* \"#utility.yul\":15249:15296   */\n      mstore\n        /* \"#utility.yul\":15313:15444   */\n      tag_382\n        /* \"#utility.yul\":15439:15443   */\n      dup2\n        /* \"#utility.yul\":15313:15444   */\n      tag_234\n      jump\t// in\n    tag_382:\n        /* \"#utility.yul\":15305:15444   */\n      swap1\n      pop\n        /* \"#utility.yul\":15032:15451   */\n      swap2\n      swap1\n      pop\n      jump\t// out\n        /* \"#utility.yul\":15457:15621   */\n    tag_235:\n        /* \"#utility.yul\":15597:15613   */\n      0x54657374203131206661696c6564000000000000000000000000000000000000\n        /* \"#utility.yul\":15593:15594   */\n      0x00\n        /* \"#utility.yul\":15585:15591   */\n      dup3\n        /* \"#utility.yul\":15581:15595   */\n      add\n        /* \"#utility.yul\":15574:15614   */\n      mstore\n        /* \"#utility.yul\":15457:15621   */\n      pop\n      jump\t// out\n        /* \"#utility.yul\":15627:15993   */\n    tag_236:\n        /* \"#utility.yul\":15769:15772   */\n      0x00\n        /* \"#utility.yul\":15790:15857   */\n      tag_385\n        /* \"#utility.yul\":15854:15856   */\n      0x0e\n        /* \"#utility.yul\":15849:15852   */\n      dup4\n        /* \"#utility.yul\":15790:15857   */\n      tag_214\n      jump\t// in\n    tag_385:\n        /* \"#utility.yul\":15783:15857   */\n      swap2\n      pop\n        /* \"#utility.yul\":15866:15959   */\n      tag_386\n        /* \"#utility.yul\":15955:15958   */\n      dup3\n        /* \"#utility.yul\":15866:15959   */\n      tag_235\n      jump\t// in\n    tag_386:\n        /* \"#utility.yul\":15984:15986   */\n      0x20\n        /* \"#utility.yul\":15979:15982   */\n      dup3\n        /* \"#utility.yul\":15975:15987   */\n      add\n        /* \"#utility.yul\":15968:15987   */\n      swap1\n      pop\n        /* \"#utility.yul\":15627:15993   */\n      swap2\n      swap1\n      pop\n      jump\t// out\n        /* \"#utility.yul\":15999:16418   */\n    tag_145:\n        /* \"#utility.yul\":16165:16169   */\n      0x00\n        /* \"#utility.yul\":16203:16205   */\n      0x20\n        /* \"#utility.yul\":16192:16201   */\n      dup3\n        /* \"#utility.yul\":16188:16206   */\n      add\n        /* \"#utility.yul\":16180:16206   */\n      swap1\n      pop\n        /* \"#utility.yul\":16252:16261   */\n      dup2\n        /* \"#utility.yul\":16246:16250   */\n      dup2\n        /* \"#utility.yul\":16242:16262   */\n      sub\n        /* \"#utility.yul\":16238:16239   */\n      0x00\n        /* \"#utility.yul\":16227:16236   */\n      dup4\n        /* \"#utility.yul\":16223:16240   */\n      add\n        /* \"#utility.yul\":16216:16263   */\n      mstore\n        /* \"#utility.yul\":16280:16411   */\n      tag_388\n        /* \"#utility.yul\":16406:16410   */\n      dup2\n        /* \"#utility.yul\":16280:16411   */\n      tag_236\n      jump\t// in\n    tag_388:\n        /* \"#utility.yul\":16272:16411   */\n      swap1\n      pop\n        /* \"#utility.yul\":15999:16418   */\n      swap2\n      swap1\n      pop\n      jump\t// out\n        /* \"#utility.yul\":16424:16588   */\n    tag_237:\n        /* \"#utility.yul\":16564:16580   */\n      0x54657374203132206661696c6564000000000000000000000000000000000000\n        /* \"#utility.yul\":16560:16561   */\n      0x00\n        /* \"#utility.yul\":16552:16558   */\n      dup3\n        /* \"#utility.yul\":16548:16562   */\n      add\n        /* \"#utility.yul\":16541:16581   */\n      mstore\n        /* \"#utility.yul\":16424:16588   */\n      pop\n      jump\t// out\n        /* \"#utility.yul\":16594:16960   */\n    tag_238:\n        /* \"#utility.yul\":16736:16739   */\n      0x00\n        /* \"#utility.yul\":16757:16824   */\n      tag_391\n        /* \"#utility.yul\":16821:16823   */\n      0x0e\n        /* \"#utility.yul\":16816:16819   */\n      dup4\n        /* \"#utility.yul\":16757:16824   */\n      tag_214\n      jump\t// in\n    tag_391:\n        /* \"#utility.yul\":16750:16824   */\n      swap2\n      pop\n        /* \"#utility.yul\":16833:16926   */\n      tag_392\n        /* \"#utility.yul\":16922:16925   */\n      dup3\n        /* \"#utility.yul\":16833:16926   */\n      tag_237\n      jump\t// in\n    tag_392:\n        /* \"#utility.yul\":16951:16953   */\n      0x20\n        /* \"#utility.yul\":16946:16949   */\n      dup3\n        /* \"#utility.yul\":16942:16954   */\n      add\n        /* \"#utility.yul\":16935:16954   */\n      swap1\n      pop\n        /* \"#utility.yul\":16594:16960   */\n      swap2\n      swap1\n      pop\n      jump\t// out\n        /* \"#utility.yul\":16966:17385   */\n    tag_150:\n        /* \"#utility.yul\":17132:17136   */\n      0x00\n        /* \"#utility.yul\":17170:17172   */\n      0x20\n        /* \"#utility.yul\":17159:17168   */\n      dup3\n        /* \"#utility.yul\":17155:17173   */\n      add\n        /* \"#utility.yul\":17147:17173   */\n      swap1\n      pop\n        /* \"#utility.yul\":17219:17228   */\n      dup2\n        /* \"#utility.yul\":17213:17217   */\n      dup2\n        /* \"#utility.yul\":17209:17229   */\n      sub\n        /* \"#utility.yul\":17205:17206   */\n      0x00\n        /* \"#utility.yul\":17194:17203   */\n      dup4\n        /* \"#utility.yul\":17190:17207   */\n      add\n        /* \"#utility.yul\":17183:17230   */\n      mstore\n        /* \"#utility.yul\":17247:17378   */\n      tag_394\n        /* \"#utility.yul\":17373:17377   */\n      dup2\n        /* \"#utility.yul\":17247:17378   */\n      tag_238\n      jump\t// in\n    tag_394:\n        /* \"#utility.yul\":17239:17378   */\n      swap1\n      pop\n        /* \"#utility.yul\":16966:17385   */\n      swap2\n      swap1\n      pop\n      jump\t// out\n        /* \"#utility.yul\":17391:17555   */\n    tag_239:\n        /* \"#utility.yul\":17531:17547   */\n      0x54657374203133206661696c6564000000000000000000000000000000000000\n        /* \"#utility.yul\":17527:17528   */\n      0x00\n        /* \"#utility.yul\":17519:17525   */\n      dup3\n        /* \"#utility.yul\":17515:17529   */\n      add\n        /* \"#utility.yul\":17508:17548   */\n      mstore\n        /* \"#utility.yul\":17391:17555   */\n      pop\n      jump\t// out\n        /* \"#utility.yul\":17561:17927   */\n    tag_240:\n        /* \"#utility.yul\":17703:17706   */\n      0x00\n        /* \"#utility.yul\":17724:17791   */\n      tag_397\n        /* \"#utility.yul\":17788:17790   */\n      0x0e\n        /* \"#utility.yul\":17783:17786   */\n      dup4\n        /* \"#utility.yul\":17724:17791   */\n      tag_214\n      jump\t// in\n    tag_397:\n        /* \"#utility.yul\":17717:17791   */\n      swap2\n      pop\n        /* \"#utility.yul\":17800:17893   */\n      tag_398\n        /* \"#utility.yul\":17889:17892   */\n      dup3\n        /* \"#utility.yul\":17800:17893   */\n      tag_239\n      jump\t// in\n    tag_398:\n        /* \"#utility.yul\":17918:17920   */\n      0x20\n        /* \"#utility.yul\":17913:17916   */\n      dup3\n        /* \"#utility.yul\":17909:17921   */\n      add\n        /* \"#utility.yul\":17902:17921   */\n      swap1\n      pop\n        /* \"#utility.yul\":17561:17927   */\n      swap2\n      swap1\n      pop\n      jump\t// out\n        /* \"#utility.yul\":17933:18352   */\n    tag_167:\n        /* \"#utility.yul\":18099:18103   */\n      0x00\n        /* \"#utility.yul\":18137:18139   */\n      0x20\n        /* \"#utility.yul\":18126:18135   */\n      dup3\n        /* \"#utility.yul\":18122:18140   */\n      add\n        /* \"#utility.yul\":18114:18140   */\n      swap1\n      pop\n        /* \"#utility.yul\":18186:18195   */\n      dup2\n        /* \"#utility.yul\":18180:18184   */\n      dup2\n        /* \"#utility.yul\":18176:18196   */\n      sub\n        /* \"#utility.yul\":18172:18173   */\n      0x00\n        /* \"#utility.yul\":18161:18170   */\n      dup4\n        /* \"#utility.yul\":18157:18174   */\n      add\n        /* \"#utility.yul\":18150:18197   */\n      mstore\n        /* \"#utility.yul\":18214:18345   */\n      tag_400\n        /* \"#utility.yul\":18340:18344   */\n      dup2\n        /* \"#utility.yul\":18214:18345   */\n      tag_240\n      jump\t// in\n    tag_400:\n        /* \"#utility.yul\":18206:18345   */\n      swap1\n      pop\n        /* \"#utility.yul\":17933:18352   */\n      swap2\n      swap1\n      pop\n      jump\t// out\n        /* \"#utility.yul\":18358:18522   */\n    tag_241:\n        /* \"#utility.yul\":18498:18514   */\n      0x54657374203134206661696c6564000000000000000000000000000000000000\n        /* \"#utility.yul\":18494:18495   */\n      0x00\n        /* \"#utility.yul\":18486:18492   */\n      dup3\n        /* \"#utility.yul\":18482:18496   */\n      add\n        /* \"#utility.yul\":18475:18515   */\n      mstore\n        /* \"#utility.yul\":18358:18522   */\n      pop\n      jump\t// out\n        /* \"#utility.yul\":18528:18894   */\n    tag_242:\n        /* \"#utility.yul\":18670:18673   */\n      0x00\n        /* \"#utility.yul\":18691:18758   */\n      tag_403\n        /* \"#utility.yul\":18755:18757   */\n      0x0e\n        /* \"#utility.yul\":18750:18753   */\n      dup4\n        /* \"#utility.yul\":18691:18758   */\n      tag_214\n      jump\t// in\n    tag_403:\n        /* \"#utility.yul\":18684:18758   */\n      swap2\n      pop\n        /* \"#utility.yul\":18767:18860   */\n      tag_404\n        /* \"#utility.yul\":18856:18859   */\n      dup3\n        /* \"#utility.yul\":18767:18860   */\n      tag_241\n      jump\t// in\n    tag_404:\n        /* \"#utility.yul\":18885:18887   */\n      0x20\n        /* \"#utility.yul\":18880:18883   */\n      dup3\n        /* \"#utility.yul\":18876:18888   */\n      add\n        /* \"#utility.yul\":18869:18888   */\n      swap1\n      pop\n        /* \"#utility.yul\":18528:18894   */\n      swap2\n      swap1\n      pop\n      jump\t// out\n        /* \"#utility.yul\":18900:19319   */\n    tag_171:\n        /* \"#utility.yul\":19066:19070   */\n      0x00\n        /* \"#utility.yul\":19104:19106   */\n      0x20\n        /* \"#utility.yul\":19093:19102   */\n      dup3\n        /* \"#utility.yul\":19089:19107   */\n      add\n        /* \"#utility.yul\":19081:19107   */\n      swap1\n      pop\n        /* \"#utility.yul\":19153:19162   */\n      dup2\n        /* \"#utility.yul\":19147:19151   */\n      dup2\n        /* \"#utility.yul\":19143:19163   */\n      sub\n        /* \"#utility.yul\":19139:19140   */\n      0x00\n        /* \"#utility.yul\":19128:19137   */\n      dup4\n        /* \"#utility.yul\":19124:19141   */\n      add\n        /* \"#utility.yul\":19117:19164   */\n      mstore\n        /* \"#utility.yul\":19181:19312   */\n      tag_406\n        /* \"#utility.yul\":19307:19311   */\n      dup2\n        /* \"#utility.yul\":19181:19312   */\n      tag_242\n      jump\t// in\n    tag_406:\n        /* \"#utility.yul\":19173:19312   */\n      swap1\n      pop\n        /* \"#utility.yul\":18900:19319   */\n      swap2\n      swap1\n      pop\n      jump\t// out\n        /* \"#utility.yul\":19325:19489   */\n    tag_243:\n        /* \"#utility.yul\":19465:19481   */\n      0x54657374203135206661696c6564000000000000000000000000000000000000\n        /* \"#utility.yul\":19461:19462   */\n      0x00\n        /* \"#utility.yul\":19453:19459   */\n      dup3\n        /* \"#utility.yul\":19449:19463   */\n      add\n        /* \"#utility.yul\":19442:19482   */\n      mstore\n        /* \"#utility.yul\":19325:19489   */\n      pop\n      jump\t// out\n        /* \"#utility.yul\":19495:19861   */\n    tag_244:\n        /* \"#utility.yul\":19637:19640   */\n      0x00\n        /* \"#utility.yul\":19658:19725   */\n      tag_409\n        /* \"#utility.yul\":19722:19724   */\n      0x0e\n        /* \"#utility.yul\":19717:19720   */\n      dup4\n        /* \"#utility.yul\":19658:19725   */\n      tag_214\n      jump\t// in\n    tag_409:\n        /* \"#utility.yul\":19651:19725   */\n      swap2\n      pop\n        /* \"#utility.yul\":19734:19827   */\n      tag_410\n        /* \"#utility.yul\":19823:19826   */\n      dup3\n        /* \"#utility.yul\":19734:19827   */\n      tag_243\n      jump\t// in\n    tag_410:\n        /* \"#utility.yul\":19852:19854   */\n      0x20\n        /* \"#utility.yul\":19847:19850   */\n      dup3\n        /* \"#utility.yul\":19843:19855   */\n      add\n        /* \"#utility.yul\":19836:19855   */\n      swap1\n      pop\n        /* \"#utility.yul\":19495:19861   */\n      swap2\n      swap1\n      pop\n      jump\t// out\n        /* \"#utility.yul\":19867:20286   */\n    tag_176:\n        /* \"#utility.yul\":20033:20037   */\n      0x00\n        /* \"#utility.yul\":20071:20073   */\n      0x20\n        /* \"#utility.yul\":20060:20069   */\n      dup3\n        /* \"#utility.yul\":20056:20074   */\n      add\n        /* \"#utility.yul\":20048:20074   */\n      swap1\n      pop\n        /* \"#utility.yul\":20120:20129   */\n      dup2\n        /* \"#utility.yul\":20114:20118   */\n      dup2\n        /* \"#utility.yul\":20110:20130   */\n      sub\n        /* \"#utility.yul\":20106:20107   */\n      0x00\n        /* \"#utility.yul\":20095:20104   */\n      dup4\n        /* \"#utility.yul\":20091:20108   */\n      add\n        /* \"#utility.yul\":20084:20131   */\n      mstore\n        /* \"#utility.yul\":20148:20279   */\n      tag_412\n        /* \"#utility.yul\":20274:20278   */\n      dup2\n        /* \"#utility.yul\":20148:20279   */\n      tag_244\n      jump\t// in\n    tag_412:\n        /* \"#utility.yul\":20140:20279   */\n      swap1\n      pop\n        /* \"#utility.yul\":19867:20286   */\n      swap2\n      swap1\n      pop\n      jump\t// out\n        /* \"#utility.yul\":20292:20456   */\n    tag_245:\n        /* \"#utility.yul\":20432:20448   */\n      0x54657374203136206661696c6564000000000000000000000000000000000000\n        /* \"#utility.yul\":20428:20429   */\n      0x00\n        /* \"#utility.yul\":20420:20426   */\n      dup3\n        /* \"#utility.yul\":20416:20430   */\n      add\n        /* \"#utility.yul\":20409:20449   */\n      mstore\n        /* \"#utility.yul\":20292:20456   */\n      pop\n      jump\t// out\n        /* \"#utility.yul\":20462:20828   */\n    tag_246:\n        /* \"#utility.yul\":20604:20607   */\n      0x00\n        /* \"#utility.yul\":20625:20692   */\n      tag_415\n        /* \"#utility.yul\":20689:20691   */\n      0x0e\n        /* \"#utility.yul\":20684:20687   */\n      dup4\n        /* \"#utility.yul\":20625:20692   */\n      tag_214\n      jump\t// in\n    tag_415:\n        /* \"#utility.yul\":20618:20692   */\n      swap2\n      pop\n        /* \"#utility.yul\":20701:20794   */\n      tag_416\n        /* \"#utility.yul\":20790:20793   */\n      dup3\n        /* \"#utility.yul\":20701:20794   */\n      tag_245\n      jump\t// in\n    tag_416:\n        /* \"#utility.yul\":20819:20821   */\n      0x20\n        /* \"#utility.yul\":20814:20817   */\n      dup3\n        /* \"#utility.yul\":20810:20822   */\n      add\n        /* \"#utility.yul\":20803:20822   */\n      swap1\n      pop\n        /* \"#utility.yul\":20462:20828   */\n      swap2\n      swap1\n      pop\n      jump\t// out\n        /* \"#utility.yul\":20834:21253   */\n    tag_183:\n        /* \"#utility.yul\":21000:21004   */\n      0x00\n        /* \"#utility.yul\":21038:21040   */\n      0x20\n        /* \"#utility.yul\":21027:21036   */\n      dup3\n        /* \"#utility.yul\":21023:21041   */\n      add\n        /* \"#utility.yul\":21015:21041   */\n      swap1\n      pop\n        /* \"#utility.yul\":21087:21096   */\n      dup2\n        /* \"#utility.yul\":21081:21085   */\n      dup2\n        /* \"#utility.yul\":21077:21097   */\n      sub\n        /* \"#utility.yul\":21073:21074   */\n      0x00\n        /* \"#utility.yul\":21062:21071   */\n      dup4\n        /* \"#utility.yul\":21058:21075   */\n      add\n        /* \"#utility.yul\":21051:21098   */\n      mstore\n        /* \"#utility.yul\":21115:21246   */\n      tag_418\n        /* \"#utility.yul\":21241:21245   */\n      dup2\n        /* \"#utility.yul\":21115:21246   */\n      tag_246\n      jump\t// in\n    tag_418:\n        /* \"#utility.yul\":21107:21246   */\n      swap1\n      pop\n        /* \"#utility.yul\":20834:21253   */\n      swap2\n      swap1\n      pop\n      jump\t// out\n        /* \"#utility.yul\":21259:21423   */\n    tag_247:\n        /* \"#utility.yul\":21399:21415   */\n      0x54657374203137206661696c6564000000000000000000000000000000000000\n        /* \"#utility.yul\":21395:21396   */\n      0x00\n        /* \"#utility.yul\":21387:21393   */\n      dup3\n        /* \"#utility.yul\":21383:21397   */\n      add\n        /* \"#utility.yul\":21376:21416   */\n      mstore\n        /* \"#utility.yul\":21259:21423   */\n      pop\n      jump\t// out\n        /* \"#utility.yul\":21429:21795   */\n    tag_248:\n        /* \"#utility.yul\":21571:21574   */\n      0x00\n        /* \"#utility.yul\":21592:21659   */\n      tag_421\n        /* \"#utility.yul\":21656:21658   */\n      0x0e\n        /* \"#utility.yul\":21651:21654   */\n      dup4\n        /* \"#utility.yul\":21592:21659   */\n      tag_214\n      jump\t// in\n    tag_421:\n        /* \"#utility.yul\":21585:21659   */\n      swap2\n      pop\n        /* \"#utility.yul\":21668:21761   */\n      tag_422\n        /* \"#utility.yul\":21757:21760   */\n      dup3\n        /* \"#utility.yul\":21668:21761   */\n      tag_247\n      jump\t// in\n    tag_422:\n        /* \"#utility.yul\":21786:21788   */\n      0x20\n        /* \"#utility.yul\":21781:21784   */\n      dup3\n        /* \"#utility.yul\":21777:21789   */\n      add\n        /* \"#utility.yul\":21770:21789   */\n      swap1\n      pop\n        /* \"#utility.yul\":21429:21795   */\n      swap2\n      swap1\n      pop\n      jump\t// out\n        /* \"#utility.yul\":21801:22220   */\n    tag_187:\n        /* \"#utility.yul\":21967:21971   */\n      0x00\n        /* \"#utility.yul\":22005:22007   */\n      0x20\n        /* \"#utility.yul\":21994:22003   */\n      dup3\n        /* \"#utility.yul\":21990:22008   */\n      add\n        /* \"#utility.yul\":21982:22008   */\n      swap1\n      pop\n        /* \"#utility.yul\":22054:22063   */\n      dup2\n        /* \"#utility.yul\":22048:22052   */\n      dup2\n        /* \"#utility.yul\":22044:22064   */\n      sub\n        /* \"#utility.yul\":22040:22041   */\n      0x00\n        /* \"#utility.yul\":22029:22038   */\n      dup4\n        /* \"#utility.yul\":22025:22042   */\n      add\n        /* \"#utility.yul\":22018:22065   */\n      mstore\n        /* \"#utility.yul\":22082:22213   */\n      tag_424\n        /* \"#utility.yul\":22208:22212   */\n      dup2\n        /* \"#utility.yul\":22082:22213   */\n      tag_248\n      jump\t// in\n    tag_424:\n        /* \"#utility.yul\":22074:22213   */\n      swap1\n      pop\n        /* \"#utility.yul\":21801:22220   */\n      swap2\n      swap1\n      pop\n      jump\t// out\n        /* \"#utility.yul\":22226:22390   */\n    tag_249:\n        /* \"#utility.yul\":22366:22382   */\n      0x54657374203138206661696c6564000000000000000000000000000000000000\n        /* \"#utility.yul\":22362:22363   */\n      0x00\n        /* \"#utility.yul\":22354:22360   */\n      dup3\n        /* \"#utility.yul\":22350:22364   */\n      add\n        /* \"#utility.yul\":22343:22383   */\n      mstore\n        /* \"#utility.yul\":22226:22390   */\n      pop\n      jump\t// out\n        /* \"#utility.yul\":22396:22762   */\n    tag_250:\n        /* \"#utility.yul\":22538:22541   */\n      0x00\n        /* \"#utility.yul\":22559:22626   */\n      tag_427\n        /* \"#utility.yul\":22623:22625   */\n      0x0e\n        /* \"#utility.yul\":22618:22621   */\n      dup4\n        /* \"#utility.yul\":22559:22626   */\n      tag_214\n      jump\t// in\n    tag_427:\n        /* \"#utility.yul\":22552:22626   */\n      swap2\n      pop\n        /* \"#utility.yul\":22635:22728   */\n      tag_428\n        /* \"#utility.yul\":22724:22727   */\n      dup3\n        /* \"#utility.yul\":22635:22728   */\n      tag_249\n      jump\t// in\n    tag_428:\n        /* \"#utility.yul\":22753:22755   */\n      0x20\n        /* \"#utility.yul\":22748:22751   */\n      dup3\n        /* \"#utility.yul\":22744:22756   */\n      add\n        /* \"#utility.yul\":22737:22756   */\n      swap1\n      pop\n        /* \"#utility.yul\":22396:22762   */\n      swap2\n      swap1\n      pop\n      jump\t// out\n        /* \"#utility.yul\":22768:23187   */\n    tag_191:\n        /* \"#utility.yul\":22934:22938   */\n      0x00\n        /* \"#utility.yul\":22972:22974   */\n      0x20\n        /* \"#utility.yul\":22961:22970   */\n      dup3\n        /* \"#utility.yul\":22957:22975   */\n      add\n        /* \"#utility.yul\":22949:22975   */\n      swap1\n      pop\n        /* \"#utility.yul\":23021:23030   */\n      dup2\n        /* \"#utility.yul\":23015:23019   */\n      dup2\n        /* \"#utility.yul\":23011:23031   */\n      sub\n        /* \"#utility.yul\":23007:23008   */\n      0x00\n        /* \"#utility.yul\":22996:23005   */\n      dup4\n        /* \"#utility.yul\":22992:23009   */\n      add\n        /* \"#utility.yul\":22985:23032   */\n      mstore\n        /* \"#utility.yul\":23049:23180   */\n      tag_430\n        /* \"#utility.yul\":23175:23179   */\n      dup2\n        /* \"#utility.yul\":23049:23180   */\n      tag_250\n      jump\t// in\n    tag_430:\n        /* \"#utility.yul\":23041:23180   */\n      swap1\n      pop\n        /* \"#utility.yul\":22768:23187   */\n      swap2\n      swap1\n      pop\n      jump\t// out\n        /* \"#utility.yul\":23193:23357   */\n    tag_251:\n        /* \"#utility.yul\":23333:23349   */\n      0x54657374203139206661696c6564000000000000000000000000000000000000\n        /* \"#utility.yul\":23329:23330   */\n      0x00\n        /* \"#utility.yul\":23321:23327   */\n      dup3\n        /* \"#utility.yul\":23317:23331   */\n      add\n        /* \"#utility.yul\":23310:23350   */\n      mstore\n        /* \"#utility.yul\":23193:23357   */\n      pop\n      jump\t// out\n        /* \"#utility.yul\":23363:23729   */\n    tag_252:\n        /* \"#utility.yul\":23505:23508   */\n      0x00\n        /* \"#utility.yul\":23526:23593   */\n      tag_433\n        /* \"#utility.yul\":23590:23592   */\n      0x0e\n        /* \"#utility.yul\":23585:23588   */\n      dup4\n        /* \"#utility.yul\":23526:23593   */\n      tag_214\n      jump\t// in\n    tag_433:\n        /* \"#utility.yul\":23519:23593   */\n      swap2\n      pop\n        /* \"#utility.yul\":23602:23695   */\n      tag_434\n        /* \"#utility.yul\":23691:23694   */\n      dup3\n        /* \"#utility.yul\":23602:23695   */\n      tag_251\n      jump\t// in\n    tag_434:\n        /* \"#utility.yul\":23720:23722   */\n      0x20\n        /* \"#utility.yul\":23715:23718   */\n      dup3\n        /* \"#utility.yul\":23711:23723   */\n      add\n        /* \"#utility.yul\":23704:23723   */\n      swap1\n      pop\n        /* \"#utility.yul\":23363:23729   */\n      swap2\n      swap1\n      pop\n      jump\t// out\n        /* \"#utility.yul\":23735:24154   */\n    tag_196:\n        /* \"#utility.yul\":23901:23905   */\n      0x00\n        /* \"#utility.yul\":23939:23941   */\n      0x20\n        /* \"#utility.yul\":23928:23937   */\n      dup3\n        /* \"#utility.yul\":23924:23942   */\n      add\n        /* \"#utility.yul\":23916:23942   */\n      swap1\n      pop\n        /* \"#utility.yul\":23988:23997   */\n      dup2\n        /* \"#utility.yul\":23982:23986   */\n      dup2\n        /* \"#utility.yul\":23978:23998   */\n      sub\n        /* \"#utility.yul\":23974:23975   */\n      0x00\n        /* \"#utility.yul\":23963:23972   */\n      dup4\n        /* \"#utility.yul\":23959:23976   */\n      add\n        /* \"#utility.yul\":23952:23999   */\n      mstore\n        /* \"#utility.yul\":24016:24147   */\n      tag_436\n        /* \"#utility.yul\":24142:24146   */\n      dup2\n        /* \"#utility.yul\":24016:24147   */\n      tag_252\n      jump\t// in\n    tag_436:\n        /* \"#utility.yul\":24008:24147   */\n      swap1\n      pop\n        /* \"#utility.yul\":23735:24154   */\n      swap2\n      swap1\n      pop\n      jump\t// out\n\n    auxdata: 0xa26469706673582212201cadfe36c39443c6f67db474b1c1944acd1c6a938df33dfbd53756c04a2ba8ed64736f6c634300081e0033\n}\n",
				"bytecode": {
					"linkReferences": {},
					"object": "6080604052348015600e575f5ffd5b506118928061001c5f395ff3fe608060405234801561000f575f5ffd5b5060043610610055575f3560e01c80631aeb63ba1461005957806363b7c4921461008a5780636b215484146100ba578063b12601da146100ea578063e4f2b5d81461011a575b5f5ffd5b610073600480360381019061006e9190610ece565b610124565b604051610081929190610f37565b60405180910390f35b6100a4600480360381019061009f9190610ece565b6101ba565b6040516100b19190610f5e565b60405180910390f35b6100d460048036038101906100cf9190610ece565b61023e565b6040516100e19190610f5e565b60405180910390f35b61010460048036038101906100ff9190610ece565b6102c1565b6040516101119190610f5e565b60405180910390f35b610122610392565b005b5f5f61013084846101ba565b915061013c848461023e565b9050835182148061016757508284838151811061015c5761015b610f77565b5b602002602001015114155b156101b3577fffffffffffffffffffffffffffffffffffffffffffffffffffffffffffffffff91507fffffffffffffffffffffffffffffffffffffffffffffffffffffffffffffffff90505b9250929050565b5f5f5f90505f845190505b80821015610233575f600283836101dc9190610fd1565b6101e69190611031565b836101f19190611061565b90508486828151811061020757610206610f77565b5b60200260200101511015610229576001816102229190611061565b925061022d565b8091505b506101c5565b819250505092915050565b5f5f5f90505f845190505b808210156102b6575f600283836102609190610fd1565b61026a9190611031565b836102759190611061565b90508486828151811061028b5761028a610f77565b5b6020026020010151116102ac576001816102a59190611061565b92506102b0565b8091505b50610249565b819250505092915050565b5f5f5f90505f845190505b80821015610366575f600283836102e39190610fd1565b6102ed9190611031565b836102f89190611061565b90508486828151811061030e5761030d610f77565b5b6020026020010151036103265780935050505061038c565b8486828151811061033a57610339610f77565b5b6020026020010151101561035c576001816103559190611061565b9250610360565b8091505b506102cc565b7fffffffffffffffffffffffffffffffffffffffffffffffffffffffffffffffff925050505b92915050565b5f600a67ffffffffffffffff8111156103ae576103ad610d5f565b5b6040519080825280602002602001820160405280156103dc5781602001602082028036833780820191505090505b509050600a815f815181106103f4576103f3610f77565b5b60200260200101818152505060148160018151811061041657610415610f77565b5b602002602001018181525050601e8160028151811061043857610437610f77565b5b60200260200101818152505060288160038151811061045a57610459610f77565b5b60200260200101818152505060328160048151811061047c5761047b610f77565b5b602002602001018181525050603c8160058151811061049e5761049d610f77565b5b6020026020010181815250506046816006815181106104c0576104bf610f77565b5b6020026020010181815250506050816007815181106104e2576104e1610f77565b5b602002602001018181525050605a8160088151811061050457610503610f77565b5b60200260200101818152505060648160098151811061052657610525610f77565b5b602002602001018181525050600461053f8260326102c1565b1461057f576040517f08c379a0000000000000000000000000000000000000000000000000000000008152600401610576906110ee565b60405180910390fd5b5f61058b82600a6102c1565b146105cb576040517f08c379a00000000000000000000000000000000000000000000000000000000081526004016105c290611156565b60405180910390fd5b60096105d88260646102c1565b14610618576040517f08c379a000000000000000000000000000000000000000000000000000000000815260040161060f906111be565b60405180910390fd5b7fffffffffffffffffffffffffffffffffffffffffffffffffffffffffffffffff6106448260376102c1565b14610684576040517f08c379a000000000000000000000000000000000000000000000000000000000815260040161067b90611226565b60405180910390fd5b60036106918260236101ba565b146106d1576040517f08c379a00000000000000000000000000000000000000000000000000000000081526004016106c89061128e565b60405180910390fd5b60046106de8260326101ba565b1461071e576040517f08c379a0000000000000000000000000000000000000000000000000000000008152600401610715906112f6565b60405180910390fd5b600a61072b8260696101ba565b1461076b576040517f08c379a00000000000000000000000000000000000000000000000000000000081526004016107629061135e565b60405180910390fd5b600561077882603261023e565b146107b8576040517f08c379a00000000000000000000000000000000000000000000000000000000081526004016107af906113c6565b60405180910390fd5b600a6107c582606461023e565b14610805576040517f08c379a00000000000000000000000000000000000000000000000000000000081526004016107fc9061142e565b60405180910390fd5b5f61081182600561023e565b14610851576040517f08c379a000000000000000000000000000000000000000000000000000000000815260040161084890611496565b60405180910390fd5b5f5f61085e836032610124565b915091506004821480156108725750600581145b6108b1576040517f08c379a00000000000000000000000000000000000000000000000000000000081526004016108a8906114fe565b60405180910390fd5b6108bc836023610124565b80925081935050507fffffffffffffffffffffffffffffffffffffffffffffffffffffffffffffffff8214801561091257507fffffffffffffffffffffffffffffffffffffffffffffffffffffffffffffffff81145b610951576040517f08c379a000000000000000000000000000000000000000000000000000000000815260040161094890611566565b60405180910390fd5b5f600567ffffffffffffffff81111561096d5761096c610d5f565b5b60405190808252806020026020018201604052801561099b5781602001602082028036833780820191505090505b509050600a815f815181106109b3576109b2610f77565b5b6020026020010181815250506014816001815181106109d5576109d4610f77565b5b6020026020010181815250506014816002815181106109f7576109f6610f77565b5b602002602001018181525050601481600381518110610a1957610a18610f77565b5b602002602001018181525050601e81600481518110610a3b57610a3a610f77565b5b6020026020010181815250506001610a548260146101ba565b14610a94576040517f08c379a0000000000000000000000000000000000000000000000000000000008152600401610a8b906115ce565b60405180910390fd5b6004610aa182601461023e565b14610ae1576040517f08c379a0000000000000000000000000000000000000000000000000000000008152600401610ad890611636565b60405180910390fd5b610aec816014610124565b8093508194505050600183148015610b045750600482145b610b43576040517f08c379a0000000000000000000000000000000000000000000000000000000008152600401610b3a9061169e565b60405180910390fd5b5f5f67ffffffffffffffff811115610b5e57610b5d610d5f565b5b604051908082528060200260200182016040528015610b8c5781602001602082028036833780820191505090505b5090507fffffffffffffffffffffffffffffffffffffffffffffffffffffffffffffffff610bbb8260056102c1565b14610bfb576040517f08c379a0000000000000000000000000000000000000000000000000000000008152600401610bf290611706565b60405180910390fd5b5f610c078260056101ba565b14610c47576040517f08c379a0000000000000000000000000000000000000000000000000000000008152600401610c3e9061176e565b60405180910390fd5b5f610c5382600561023e565b14610c93576040517f08c379a0000000000000000000000000000000000000000000000000000000008152600401610c8a906117d6565b60405180910390fd5b610c9e816005610124565b80945081955050507fffffffffffffffffffffffffffffffffffffffffffffffffffffffffffffffff84148015610cf457507fffffffffffffffffffffffffffffffffffffffffffffffffffffffffffffffff83145b610d33576040517f08c379a0000000000000000000000000000000000000000000000000000000008152600401610d2a9061183e565b60405180910390fd5b5050505050565b5f604051905090565b5f5ffd5b5f5ffd5b5f5ffd5b5f601f19601f8301169050919050565b7f4e487b71000000000000000000000000000000000000000000000000000000005f52604160045260245ffd5b610d9582610d4f565b810181811067ffffffffffffffff82111715610db457610db3610d5f565b5b80604052505050565b5f610dc6610d3a565b9050610dd28282610d8c565b919050565b5f67ffffffffffffffff821115610df157610df0610d5f565b5b602082029050602081019050919050565b5f5ffd5b5f819050919050565b610e1881610e06565b8114610e22575f5ffd5b50565b5f81359050610e3381610e0f565b92915050565b5f610e4b610e4684610dd7565b610dbd565b90508083825260208201905060208402830185811115610e6e57610e6d610e02565b5b835b81811015610e975780610e838882610e25565b845260208401935050602081019050610e70565b5050509392505050565b5f82601f830112610eb557610eb4610d4b565b5b8135610ec5848260208601610e39565b91505092915050565b5f5f60408385031215610ee457610ee3610d43565b5b5f83013567ffffffffffffffff811115610f0157610f00610d47565b5b610f0d85828601610ea1565b9250506020610f1e85828601610e25565b9150509250929050565b610f3181610e06565b82525050565b5f604082019050610f4a5f830185610f28565b610f576020830184610f28565b9392505050565b5f602082019050610f715f830184610f28565b92915050565b7f4e487b71000000000000000000000000000000000000000000000000000000005f52603260045260245ffd5b7f4e487b71000000000000000000000000000000000000000000000000000000005f52601160045260245ffd5b5f610fdb82610e06565b9150610fe683610e06565b9250828203905081811115610ffe57610ffd610fa4565b5b92915050565b7f4e487b71000000000000000000000000000000000000000000000000000000005f52601260045260245ffd5b5f61103b82610e06565b915061104683610e06565b92508261105657611055611004565b5b828204905092915050565b5f61106b82610e06565b915061107683610e06565b925082820190508082111561108e5761108d610fa4565b5b92915050565b5f82825260208201905092915050565b7f546573742031206661696c6564000000000000000000000000000000000000005f82015250565b5f6110d8600d83611094565b91506110e3826110a4565b602082019050919050565b5f6020820190508181035f830152611105816110cc565b9050919050565b7f546573742032206661696c6564000000000000000000000000000000000000005f82015250565b5f611140600d83611094565b915061114b8261110c565b602082019050919050565b5f6020820190508181035f83015261116d81611134565b9050919050565b7f546573742033206661696c6564000000000000000000000000000000000000005f82015250565b5f6111a8600d83611094565b91506111b382611174565b602082019050919050565b5f6020820190508181035f8301526111d58161119c565b9050919050565b7f546573742034206661696c6564000000000000000000000000000000000000005f82015250565b5f611210600d83611094565b915061121b826111dc565b602082019050919050565b5f6020820190508181035f83015261123d81611204565b9050919050565b7f546573742035206661696c6564000000000000000000000000000000000000005f82015250565b5f611278600d83611094565b915061128382611244565b602082019050919050565b5f6020820190508181035f8301526112a58161126c565b9050919050565b7f546573742036206661696c6564000000000000000000000000000000000000005f82015250565b5f6112e0600d83611094565b91506112eb826112ac565b602082019050919050565b5f6020820190508181035f83015261130d816112d4565b9050919050565b7f546573742037206661696c6564000000000000000000000000000000000000005f82015250565b5f611348600d83611094565b915061135382611314565b602082019050919050565b5f6020820190508181035f8301526113758161133c565b9050919050565b7f546573742038206661696c6564000000000000000000000000000000000000005f82015250565b5f6113b0600d83611094565b91506113bb8261137c565b602082019050919050565b5f6020820190508181035f8301526113dd816113a4565b9050919050565b7f546573742039206661696c6564000000000000000000000000000000000000005f82015250565b5f611418600d83611094565b9150611423826113e4565b602082019050919050565b5f6020820190508181035f8301526114458161140c565b9050919050565b7f54657374203130206661696c65640000000000000000000000000000000000005f82015250565b5f611480600e83611094565b915061148b8261144c565b602082019050919050565b5f6020820190508181035f8301526114ad81611474565b9050919050565b7f54657374203131206661696c65640000000000000000000000000000000000005f82015250565b5f6114e8600e83611094565b91506114f3826114b4565b602082019050919050565b5f6020820190508181035f830152611515816114dc565b9050919050565b7f54657374203132206661696c65640000000000000000000000000000000000005f82015250565b5f611550600e83611094565b915061155b8261151c565b602082019050919050565b5f6020820190508181035f83015261157d81611544565b9050919050565b7f54657374203133206661696c65640000000000000000000000000000000000005f82015250565b5f6115b8600e83611094565b91506115c382611584565b602082019050919050565b5f6020820190508181035f8301526115e5816115ac565b9050919050565b7f54657374203134206661696c65640000000000000000000000000000000000005f82015250565b5f611620600e83611094565b915061162b826115ec565b602082019050919050565b5f6020820190508181035f83015261164d81611614565b9050919050565b7f54657374203135206661696c65640000000000000000000000000000000000005f82015250565b5f611688600e83611094565b915061169382611654565b602082019050919050565b5f6020820190508181035f8301526116b58161167c565b9050919050565b7f54657374203136206661696c65640000000000000000000000000000000000005f82015250565b5f6116f0600e83611094565b91506116fb826116bc565b602082019050919050565b5f6020820190508181035f83015261171d816116e4565b9050919050565b7f54657374203137206661696c65640000000000000000000000000000000000005f82015250565b5f611758600e83611094565b915061176382611724565b602082019050919050565b5f6020820190508181035f8301526117858161174c565b9050919050565b7f54657374203138206661696c65640000000000000000000000000000000000005f82015250565b5f6117c0600e83611094565b91506117cb8261178c565b602082019050919050565b5f6020820190508181035f8301526117ed816117b4565b9050919050565b7f54657374203139206661696c65640000000000000000000000000000000000005f82015250565b5f611828600e83611094565b9150611833826117f4565b602082019050919050565b5f6020820190508181035f8301526118558161181c565b905091905056fea26469706673582212201cadfe36c39443c6f67db474b1c1944acd1c6a938df33dfbd53756c04a2ba8ed64736f6c634300081e0033",
					"opcodes": "PUSH1 0x80 PUSH1 0x40 MSTORE CALLVALUE DUP1 ISZERO PUSH1 0xE JUMPI PUSH0 PUSH0 REVERT JUMPDEST POP PUSH2 0x1892 DUP1 PUSH2 0x1C PUSH0 CODECOPY PUSH0 RETURN INVALID PUSH1 0x80 PUSH1 0x40 MSTORE CALLVALUE DUP1 ISZERO PUSH2 0xF JUMPI PUSH0 PUSH0 REVERT JUMPDEST POP PUSH1 0x4 CALLDATASIZE LT PUSH2 0x55 JUMPI PUSH0 CALLDATALOAD PUSH1 0xE0 SHR DUP1 PUSH4 0x1AEB63BA EQ PUSH2 0x59 JUMPI DUP1 PUSH4 0x63B7C492 EQ PUSH2 0x8A JUMPI DUP1 PUSH4 0x6B215484 EQ PUSH2 0xBA JUMPI DUP1 PUSH4 0xB12601DA EQ PUSH2 0xEA JUMPI DUP1 PUSH4 0xE4F2B5D8 EQ PUSH2 0x11A JUMPI JUMPDEST PUSH0 PUSH0 REVERT JUMPDEST PUSH2 0x73 PUSH1 0x4 DUP1 CALLDATASIZE SUB DUP2 ADD SWAP1 PUSH2 0x6E SWAP2 SWAP1 PUSH2 0xECE JUMP JUMPDEST PUSH2 0x124 JUMP JUMPDEST PUSH1 0x40 MLOAD PUSH2 0x81 SWAP3 SWAP2 SWAP1 PUSH2 0xF37 JUMP JUMPDEST PUSH1 0x40 MLOAD DUP1 SWAP2 SUB SWAP1 RETURN JUMPDEST PUSH2 0xA4 PUSH1 0x4 DUP1 CALLDATASIZE SUB DUP2 ADD SWAP1 PUSH2 0x9F SWAP2 SWAP1 PUSH2 0xECE JUMP JUMPDEST PUSH2 0x1BA JUMP JUMPDEST PUSH1 0x40 MLOAD PUSH2 0xB1 SWAP2 SWAP1 PUSH2 0xF5E JUMP JUMPDEST PUSH1 0x40 MLOAD DUP1 SWAP2 SUB SWAP1 RETURN JUMPDEST PUSH2 0xD4 PUSH1 0x4 DUP1 CALLDATASIZE SUB DUP2 ADD SWAP1 PUSH2 0xCF SWAP2 SWAP1 PUSH2 0xECE JUMP JUMPDEST PUSH2 0x23E JUMP JUMPDEST PUSH1 0x40 MLOAD PUSH2 0xE1 SWAP2 SWAP1 PUSH2 0xF5E JUMP JUMPDEST PUSH1 0x40 MLOAD DUP1 SWAP2 SUB SWAP1 RETURN JUMPDEST PUSH2 0x104 PUSH1 0x4 DUP1 CALLDATASIZE SUB DUP2 ADD SWAP1 PUSH2 0xFF SWAP2 SWAP1 PUSH2 0xECE JUMP JUMPDEST PUSH2 0x2C1 JUMP JUMPDEST PUSH1 0x40 MLOAD PUSH2 0x111 SWAP2 SWAP1 PUSH2 0xF5E JUMP JUMPDEST PUSH1 0x40 MLOAD DUP1 SWAP2 SUB SWAP1 RETURN JUMPDEST PUSH2 0x122 PUSH2 0x392 JUMP JUMPDEST STOP JUMPDEST PUSH0 PUSH0 PUSH2 0x130 DUP5 DUP5 PUSH2 0x1BA JUMP JUMPDEST SWAP2 POP PUSH2 0x13C DUP5 DUP5 PUSH2 0x23E JUMP JUMPDEST SWAP1 POP DUP4 MLOAD DUP3 EQ DUP1 PUSH2 0x167 JUMPI POP DUP3 DUP5 DUP4 DUP2 MLOAD DUP2 LT PUSH2 0x15C JUMPI PUSH2 0x15B PUSH2 0xF77 JUMP JUMPDEST JUMPDEST PUSH1 0x20 MUL PUSH1 0x20 ADD ADD MLOAD EQ ISZERO JUMPDEST ISZERO PUSH2 0x1B3 JUMPI PUSH32 0xFFFFFFFFFFFFFFFFFFFFFFFFFFFFFFFFFFFFFFFFFFFFFFFFFFFFFFFFFFFFFFFF SWAP2 POP PUSH32 0xFFFFFFFFFFFFFFFFFFFFFFFFFFFFFFFFFFFFFFFFFFFFFFFFFFFFFFFFFFFFFFFF SWAP1 POP JUMPDEST SWAP3 POP SWAP3 SWAP1 POP JUMP JUMPDEST PUSH0 PUSH0 PUSH0 SWAP1 POP PUSH0 DUP5 MLOAD SWAP1 POP JUMPDEST DUP1 DUP3 LT ISZERO PUSH2 0x233 JUMPI PUSH0 PUSH1 0x2 DUP4 DUP4 PUSH2 0x1DC SWAP2 SWAP1 PUSH2 0xFD1 JUMP JUMPDEST PUSH2 0x1E6 SWAP2 SWAP1 PUSH2 0x1031 JUMP JUMPDEST DUP4 PUSH2 0x1F1 SWAP2 SWAP1 PUSH2 0x1061 JUMP JUMPDEST SWAP1 POP DUP5 DUP7 DUP3 DUP2 MLOAD DUP2 LT PUSH2 0x207 JUMPI PUSH2 0x206 PUSH2 0xF77 JUMP JUMPDEST JUMPDEST PUSH1 0x20 MUL PUSH1 0x20 ADD ADD MLOAD LT ISZERO PUSH2 0x229 JUMPI PUSH1 0x1 DUP2 PUSH2 0x222 SWAP2 SWAP1 PUSH2 0x1061 JUMP JUMPDEST SWAP3 POP PUSH2 0x22D JUMP JUMPDEST DUP1 SWAP2 POP JUMPDEST POP PUSH2 0x1C5 JUMP JUMPDEST DUP2 SWAP3 POP POP POP SWAP3 SWAP2 POP POP JUMP JUMPDEST PUSH0 PUSH0 PUSH0 SWAP1 POP PUSH0 DUP5 MLOAD SWAP1 POP JUMPDEST DUP1 DUP3 LT ISZERO PUSH2 0x2B6 JUMPI PUSH0 PUSH1 0x2 DUP4 DUP4 PUSH2 0x260 SWAP2 SWAP1 PUSH2 0xFD1 JUMP JUMPDEST PUSH2 0x26A SWAP2 SWAP1 PUSH2 0x1031 JUMP JUMPDEST DUP4 PUSH2 0x275 SWAP2 SWAP1 PUSH2 0x1061 JUMP JUMPDEST SWAP1 POP DUP5 DUP7 DUP3 DUP2 MLOAD DUP2 LT PUSH2 0x28B JUMPI PUSH2 0x28A PUSH2 0xF77 JUMP JUMPDEST JUMPDEST PUSH1 0x20 MUL PUSH1 0x20 ADD ADD MLOAD GT PUSH2 0x2AC JUMPI PUSH1 0x1 DUP2 PUSH2 0x2A5 SWAP2 SWAP1 PUSH2 0x1061 JUMP JUMPDEST SWAP3 POP PUSH2 0x2B0 JUMP JUMPDEST DUP1 SWAP2 POP JUMPDEST POP PUSH2 0x249 JUMP JUMPDEST DUP2 SWAP3 POP POP POP SWAP3 SWAP2 POP POP JUMP JUMPDEST PUSH0 PUSH0 PUSH0 SWAP1 POP PUSH0 DUP5 MLOAD SWAP1 POP JUMPDEST DUP1 DUP3 LT ISZERO PUSH2 0x366 JUMPI PUSH0 PUSH1 0x2 DUP4 DUP4 PUSH2 0x2E3 SWAP2 SWAP1 PUSH2 0xFD1 JUMP JUMPDEST PUSH2 0x2ED SWAP2 SWAP1 PUSH2 0x1031 JUMP JUMPDEST DUP4 PUSH2 0x2F8 SWAP2 SWAP1 PUSH2 0x1061 JUMP JUMPDEST SWAP1 POP DUP5 DUP7 DUP3 DUP2 MLOAD DUP2 LT PUSH2 0x30E JUMPI PUSH2 0x30D PUSH2 0xF77 JUMP JUMPDEST JUMPDEST PUSH1 0x20 MUL PUSH1 0x20 ADD ADD MLOAD SUB PUSH2 0x326 JUMPI DUP1 SWAP4 POP POP POP POP PUSH2 0x38C JUMP JUMPDEST DUP5 DUP7 DUP3 DUP2 MLOAD DUP2 LT PUSH2 0x33A JUMPI PUSH2 0x339 PUSH2 0xF77 JUMP JUMPDEST JUMPDEST PUSH1 0x20 MUL PUSH1 0x20 ADD ADD MLOAD LT ISZERO PUSH2 0x35C JUMPI PUSH1 0x1 DUP2 PUSH2 0x355 SWAP2 SWAP1 PUSH2 0x1061 JUMP JUMPDEST SWAP3 POP PUSH2 0x360 JUMP JUMPDEST DUP1 SWAP2 POP JUMPDEST POP PUSH2 0x2CC JUMP JUMPDEST PUSH32 0xFFFFFFFFFFFFFFFFFFFFFFFFFFFFFFFFFFFFFFFFFFFFFFFFFFFFFFFFFFFFFFFF SWAP3 POP POP POP JUMPDEST SWAP3 SWAP2 POP POP JUMP JUMPDEST PUSH0 PUSH1 0xA PUSH8 0xFFFFFFFFFFFFFFFF DUP2 GT ISZERO PUSH2 0x3AE JUMPI PUSH2 0x3AD PUSH2 0xD5F JUMP JUMPDEST JUMPDEST PUSH1 0x40 MLOAD SWAP1 DUP1 DUP3 MSTORE DUP1 PUSH1 0x20 MUL PUSH1 0x20 ADD DUP3 ADD PUSH1 0x40 MSTORE DUP1 ISZERO PUSH2 0x3DC JUMPI DUP2 PUSH1 0x20 ADD PUSH1 0x20 DUP3 MUL DUP1 CALLDATASIZE DUP4 CALLDATACOPY DUP1 DUP3 ADD SWAP2 POP POP SWAP1 POP JUMPDEST POP SWAP1 POP PUSH1 0xA DUP2 PUSH0 DUP2 MLOAD DUP2 LT PUSH2 0x3F4 JUMPI PUSH2 0x3F3 PUSH2 0xF77 JUMP JUMPDEST JUMPDEST PUSH1 0x20 MUL PUSH1 0x20 ADD ADD DUP2 DUP2 MSTORE POP POP PUSH1 0x14 DUP2 PUSH1 0x1 DUP2 MLOAD DUP2 LT PUSH2 0x416 JUMPI PUSH2 0x415 PUSH2 0xF77 JUMP JUMPDEST JUMPDEST PUSH1 0x20 MUL PUSH1 0x20 ADD ADD DUP2 DUP2 MSTORE POP POP PUSH1 0x1E DUP2 PUSH1 0x2 DUP2 MLOAD DUP2 LT PUSH2 0x438 JUMPI PUSH2 0x437 PUSH2 0xF77 JUMP JUMPDEST JUMPDEST PUSH1 0x20 MUL PUSH1 0x20 ADD ADD DUP2 DUP2 MSTORE POP POP PUSH1 0x28 DUP2 PUSH1 0x3 DUP2 MLOAD DUP2 LT PUSH2 0x45A JUMPI PUSH2 0x459 PUSH2 0xF77 JUMP JUMPDEST JUMPDEST PUSH1 0x20 MUL PUSH1 0x20 ADD ADD DUP2 DUP2 MSTORE POP POP PUSH1 0x32 DUP2 PUSH1 0x4 DUP2 MLOAD DUP2 LT PUSH2 0x47C JUMPI PUSH2 0x47B PUSH2 0xF77 JUMP JUMPDEST JUMPDEST PUSH1 0x20 MUL PUSH1 0x20 ADD ADD DUP2 DUP2 MSTORE POP POP PUSH1 0x3C DUP2 PUSH1 0x5 DUP2 MLOAD DUP2 LT PUSH2 0x49E JUMPI PUSH2 0x49D PUSH2 0xF77 JUMP JUMPDEST JUMPDEST PUSH1 0x20 MUL PUSH1 0x20 ADD ADD DUP2 DUP2 MSTORE POP POP PUSH1 0x46 DUP2 PUSH1 0x6 DUP2 MLOAD DUP2 LT PUSH2 0x4C0 JUMPI PUSH2 0x4BF PUSH2 0xF77 JUMP JUMPDEST JUMPDEST PUSH1 0x20 MUL PUSH1 0x20 ADD ADD DUP2 DUP2 MSTORE POP POP PUSH1 0x50 DUP2 PUSH1 0x7 DUP2 MLOAD DUP2 LT PUSH2 0x4E2 JUMPI PUSH2 0x4E1 PUSH2 0xF77 JUMP JUMPDEST JUMPDEST PUSH1 0x20 MUL PUSH1 0x20 ADD ADD DUP2 DUP2 MSTORE POP POP PUSH1 0x5A DUP2 PUSH1 0x8 DUP2 MLOAD DUP2 LT PUSH2 0x504 JUMPI PUSH2 0x503 PUSH2 0xF77 JUMP JUMPDEST JUMPDEST PUSH1 0x20 MUL PUSH1 0x20 ADD ADD DUP2 DUP2 MSTORE POP POP PUSH1 0x64 DUP2 PUSH1 0x9 DUP2 MLOAD DUP2 LT PUSH2 0x526 JUMPI PUSH2 0x525 PUSH2 0xF77 JUMP JUMPDEST JUMPDEST PUSH1 0x20 MUL PUSH1 0x20 ADD ADD DUP2 DUP2 MSTORE POP POP PUSH1 0x4 PUSH2 0x53F DUP3 PUSH1 0x32 PUSH2 0x2C1 JUMP JUMPDEST EQ PUSH2 0x57F JUMPI PUSH1 0x40 MLOAD PUSH32 0x8C379A000000000000000000000000000000000000000000000000000000000 DUP2 MSTORE PUSH1 0x4 ADD PUSH2 0x576 SWAP1 PUSH2 0x10EE JUMP JUMPDEST PUSH1 0x40 MLOAD DUP1 SWAP2 SUB SWAP1 REVERT JUMPDEST PUSH0 PUSH2 0x58B DUP3 PUSH1 0xA PUSH2 0x2C1 JUMP JUMPDEST EQ PUSH2 0x5CB JUMPI PUSH1 0x40 MLOAD PUSH32 0x8C379A000000000000000000000000000000000000000000000000000000000 DUP2 MSTORE PUSH1 0x4 ADD PUSH2 0x5C2 SWAP1 PUSH2 0x1156 JUMP JUMPDEST PUSH1 0x40 MLOAD DUP1 SWAP2 SUB SWAP1 REVERT JUMPDEST PUSH1 0x9 PUSH2 0x5D8 DUP3 PUSH1 0x64 PUSH2 0x2C1 JUMP JUMPDEST EQ PUSH2 0x618 JUMPI PUSH1 0x40 MLOAD PUSH32 0x8C379A000000000000000000000000000000000000000000000000000000000 DUP2 MSTORE PUSH1 0x4 ADD PUSH2 0x60F SWAP1 PUSH2 0x11BE JUMP JUMPDEST PUSH1 0x40 MLOAD DUP1 SWAP2 SUB SWAP1 REVERT JUMPDEST PUSH32 0xFFFFFFFFFFFFFFFFFFFFFFFFFFFFFFFFFFFFFFFFFFFFFFFFFFFFFFFFFFFFFFFF PUSH2 0x644 DUP3 PUSH1 0x37 PUSH2 0x2C1 JUMP JUMPDEST EQ PUSH2 0x684 JUMPI PUSH1 0x40 MLOAD PUSH32 0x8C379A000000000000000000000000000000000000000000000000000000000 DUP2 MSTORE PUSH1 0x4 ADD PUSH2 0x67B SWAP1 PUSH2 0x1226 JUMP JUMPDEST PUSH1 0x40 MLOAD DUP1 SWAP2 SUB SWAP1 REVERT JUMPDEST PUSH1 0x3 PUSH2 0x691 DUP3 PUSH1 0x23 PUSH2 0x1BA JUMP JUMPDEST EQ PUSH2 0x6D1 JUMPI PUSH1 0x40 MLOAD PUSH32 0x8C379A000000000000000000000000000000000000000000000000000000000 DUP2 MSTORE PUSH1 0x4 ADD PUSH2 0x6C8 SWAP1 PUSH2 0x128E JUMP JUMPDEST PUSH1 0x40 MLOAD DUP1 SWAP2 SUB SWAP1 REVERT JUMPDEST PUSH1 0x4 PUSH2 0x6DE DUP3 PUSH1 0x32 PUSH2 0x1BA JUMP JUMPDEST EQ PUSH2 0x71E JUMPI PUSH1 0x40 MLOAD PUSH32 0x8C379A000000000000000000000000000000000000000000000000000000000 DUP2 MSTORE PUSH1 0x4 ADD PUSH2 0x715 SWAP1 PUSH2 0x12F6 JUMP JUMPDEST PUSH1 0x40 MLOAD DUP1 SWAP2 SUB SWAP1 REVERT JUMPDEST PUSH1 0xA PUSH2 0x72B DUP3 PUSH1 0x69 PUSH2 0x1BA JUMP JUMPDEST EQ PUSH2 0x76B JUMPI PUSH1 0x40 MLOAD PUSH32 0x8C379A000000000000000000000000000000000000000000000000000000000 DUP2 MSTORE PUSH1 0x4 ADD PUSH2 0x762 SWAP1 PUSH2 0x135E JUMP JUMPDEST PUSH1 0x40 MLOAD DUP1 SWAP2 SUB SWAP1 REVERT JUMPDEST PUSH1 0x5 PUSH2 0x778 DUP3 PUSH1 0x32 PUSH2 0x23E JUMP JUMPDEST EQ PUSH2 0x7B8 JUMPI PUSH1 0x40 MLOAD PUSH32 0x8C379A000000000000000000000000000000000000000000000000000000000 DUP2 MSTORE PUSH1 0x4 ADD PUSH2 0x7AF SWAP1 PUSH2 0x13C6 JUMP JUMPDEST PUSH1 0x40 MLOAD DUP1 SWAP2 SUB SWAP1 REVERT JUMPDEST PUSH1 0xA PUSH2 0x7C5 DUP3 PUSH1 0x64 PUSH2 0x23E JUMP JUMPDEST EQ PUSH2 0x805 JUMPI PUSH1 0x40 MLOAD PUSH32 0x8C379A000000000000000000000000000000000000000000000000000000000 DUP2 MSTORE PUSH1 0x4 ADD PUSH2 0x7FC SWAP1 PUSH2 0x142E JUMP JUMPDEST PUSH1 0x40 MLOAD DUP1 SWAP2 SUB SWAP1 REVERT JUMPDEST PUSH0 PUSH2 0x811 DUP3 PUSH1 0x5 PUSH2 0x23E JUMP JUMPDEST EQ PUSH2 0x851 JUMPI PUSH1 0x40 MLOAD PUSH32 0x8C379A000000000000000000000000000000000000000000000000000000000 DUP2 MSTORE PUSH1 0x4 ADD PUSH2 0x848 SWAP1 PUSH2 0x1496 JUMP JUMPDEST PUSH1 0x40 MLOAD DUP1 SWAP2 SUB SWAP1 REVERT JUMPDEST PUSH0 PUSH0 PUSH2 0x85E DUP4 PUSH1 0x32 PUSH2 0x124 JUMP JUMPDEST SWAP2 POP SWAP2 POP PUSH1 0x4 DUP3 EQ DUP1 ISZERO PUSH2 0x872 JUMPI POP PUSH1 0x5 DUP2 EQ JUMPDEST PUSH2 0x8B1 JUMPI PUSH1 0x40 MLOAD PUSH32 0x8C379A000000000000000000000000000000000000000000000000000000000 DUP2 MSTORE PUSH1 0x4 ADD PUSH2 0x8A8 SWAP1 PUSH2 0x14FE JUMP JUMPDEST PUSH1 0x40 MLOAD DUP1 SWAP2 SUB SWAP1 REVERT JUMPDEST PUSH2 0x8BC DUP4 PUSH1 0x23 PUSH2 0x124 JUMP JUMPDEST DUP1 SWAP3 POP DUP2 SWAP4 POP POP POP PUSH32 0xFFFFFFFFFFFFFFFFFFFFFFFFFFFFFFFFFFFFFFFFFFFFFFFFFFFFFFFFFFFFFFFF DUP3 EQ DUP1 ISZERO PUSH2 0x912 JUMPI POP PUSH32 0xFFFFFFFFFFFFFFFFFFFFFFFFFFFFFFFFFFFFFFFFFFFFFFFFFFFFFFFFFFFFFFFF DUP2 EQ JUMPDEST PUSH2 0x951 JUMPI PUSH1 0x40 MLOAD PUSH32 0x8C379A000000000000000000000000000000000000000000000000000000000 DUP2 MSTORE PUSH1 0x4 ADD PUSH2 0x948 SWAP1 PUSH2 0x1566 JUMP JUMPDEST PUSH1 0x40 MLOAD DUP1 SWAP2 SUB SWAP1 REVERT JUMPDEST PUSH0 PUSH1 0x5 PUSH8 0xFFFFFFFFFFFFFFFF DUP2 GT ISZERO PUSH2 0x96D JUMPI PUSH2 0x96C PUSH2 0xD5F JUMP JUMPDEST JUMPDEST PUSH1 0x40 MLOAD SWAP1 DUP1 DUP3 MSTORE DUP1 PUSH1 0x20 MUL PUSH1 0x20 ADD DUP3 ADD PUSH1 0x40 MSTORE DUP1 ISZERO PUSH2 0x99B JUMPI DUP2 PUSH1 0x20 ADD PUSH1 0x20 DUP3 MUL DUP1 CALLDATASIZE DUP4 CALLDATACOPY DUP1 DUP3 ADD SWAP2 POP POP SWAP1 POP JUMPDEST POP SWAP1 POP PUSH1 0xA DUP2 PUSH0 DUP2 MLOAD DUP2 LT PUSH2 0x9B3 JUMPI PUSH2 0x9B2 PUSH2 0xF77 JUMP JUMPDEST JUMPDEST PUSH1 0x20 MUL PUSH1 0x20 ADD ADD DUP2 DUP2 MSTORE POP POP PUSH1 0x14 DUP2 PUSH1 0x1 DUP2 MLOAD DUP2 LT PUSH2 0x9D5 JUMPI PUSH2 0x9D4 PUSH2 0xF77 JUMP JUMPDEST JUMPDEST PUSH1 0x20 MUL PUSH1 0x20 ADD ADD DUP2 DUP2 MSTORE POP POP PUSH1 0x14 DUP2 PUSH1 0x2 DUP2 MLOAD DUP2 LT PUSH2 0x9F7 JUMPI PUSH2 0x9F6 PUSH2 0xF77 JUMP JUMPDEST JUMPDEST PUSH1 0x20 MUL PUSH1 0x20 ADD ADD DUP2 DUP2 MSTORE POP POP PUSH1 0x14 DUP2 PUSH1 0x3 DUP2 MLOAD DUP2 LT PUSH2 0xA19 JUMPI PUSH2 0xA18 PUSH2 0xF77 JUMP JUMPDEST JUMPDEST PUSH1 0x20 MUL PUSH1 0x20 ADD ADD DUP2 DUP2 MSTORE POP POP PUSH1 0x1E DUP2 PUSH1 0x4 DUP2 MLOAD DUP2 LT PUSH2 0xA3B JUMPI PUSH2 0xA3A PUSH2 0xF77 JUMP JUMPDEST JUMPDEST PUSH1 0x20 MUL PUSH1 0x20 ADD ADD DUP2 DUP2 MSTORE POP POP PUSH1 0x1 PUSH2 0xA54 DUP3 PUSH1 0x14 PUSH2 0x1BA JUMP JUMPDEST EQ PUSH2 0xA94 JUMPI PUSH1 0x40 MLOAD PUSH32 0x8C379A000000000000000000000000000000000000000000000000000000000 DUP2 MSTORE PUSH1 0x4 ADD PUSH2 0xA8B SWAP1 PUSH2 0x15CE JUMP JUMPDEST PUSH1 0x40 MLOAD DUP1 SWAP2 SUB SWAP1 REVERT JUMPDEST PUSH1 0x4 PUSH2 0xAA1 DUP3 PUSH1 0x14 PUSH2 0x23E JUMP JUMPDEST EQ PUSH2 0xAE1 JUMPI PUSH1 0x40 MLOAD PUSH32 0x8C379A000000000000000000000000000000000000000000000000000000000 DUP2 MSTORE PUSH1 0x4 ADD PUSH2 0xAD8 SWAP1 PUSH2 0x1636 JUMP JUMPDEST PUSH1 0x40 MLOAD DUP1 SWAP2 SUB SWAP1 REVERT JUMPDEST PUSH2 0xAEC DUP2 PUSH1 0x14 PUSH2 0x124 JUMP JUMPDEST DUP1 SWAP4 POP DUP2 SWAP5 POP POP POP PUSH1 0x1 DUP4 EQ DUP1 ISZERO PUSH2 0xB04 JUMPI POP PUSH1 0x4 DUP3 EQ JUMPDEST PUSH2 0xB43 JUMPI PUSH1 0x40 MLOAD PUSH32 0x8C379A000000000000000000000000000000000000000000000000000000000 DUP2 MSTORE PUSH1 0x4 ADD PUSH2 0xB3A SWAP1 PUSH2 0x169E JUMP JUMPDEST PUSH1 0x40 MLOAD DUP1 SWAP2 SUB SWAP1 REVERT JUMPDEST PUSH0 PUSH0 PUSH8 0xFFFFFFFFFFFFFFFF DUP2 GT ISZERO PUSH2 0xB5E JUMPI PUSH2 0xB5D PUSH2 0xD5F JUMP JUMPDEST JUMPDEST PUSH1 0x40 MLOAD SWAP1 DUP1 DUP3 MSTORE DUP1 PUSH1 0x20 MUL PUSH1 0x20 ADD DUP3 ADD PUSH1 0x40 MSTORE DUP1 ISZERO PUSH2 0xB8C JUMPI DUP2 PUSH1 0x20 ADD PUSH1 0x20 DUP3 MUL DUP1 CALLDATASIZE DUP4 CALLDATACOPY DUP1 DUP3 ADD SWAP2 POP POP SWAP1 POP JUMPDEST POP SWAP1 POP PUSH32 0xFFFFFFFFFFFFFFFFFFFFFFFFFFFFFFFFFFFFFFFFFFFFFFFFFFFFFFFFFFFFFFFF PUSH2 0xBBB DUP3 PUSH1 0x5 PUSH2 0x2C1 JUMP JUMPDEST EQ PUSH2 0xBFB JUMPI PUSH1 0x40 MLOAD PUSH32 0x8C379A000000000000000000000000000000000000000000000000000000000 DUP2 MSTORE PUSH1 0x4 ADD PUSH2 0xBF2 SWAP1 PUSH2 0x1706 JUMP JUMPDEST PUSH1 0x40 MLOAD DUP1 SWAP2 SUB SWAP1 REVERT JUMPDEST PUSH0 PUSH2 0xC07 DUP3 PUSH1 0x5 PUSH2 0x1BA JUMP JUMPDEST EQ PUSH2 0xC47 JUMPI PUSH1 0x40 MLOAD PUSH32 0x8C379A000000000000000000000000000000000000000000000000000000000 DUP2 MSTORE PUSH1 0x4 ADD PUSH2 0xC3E SWAP1 PUSH2 0x176E JUMP JUMPDEST PUSH1 0x40 MLOAD DUP1 SWAP2 SUB SWAP1 REVERT JUMPDEST PUSH0 PUSH2 0xC53 DUP3 PUSH1 0x5 PUSH2 0x23E JUMP JUMPDEST EQ PUSH2 0xC93 JUMPI PUSH1 0x40 MLOAD PUSH32 0x8C379A000000000000000000000000000000000000000000000000000000000 DUP2 MSTORE PUSH1 0x4 ADD PUSH2 0xC8A SWAP1 PUSH2 0x17D6 JUMP JUMPDEST PUSH1 0x40 MLOAD DUP1 SWAP2 SUB SWAP1 REVERT JUMPDEST PUSH2 0xC9E DUP2 PUSH1 0x5 PUSH2 0x124 JUMP JUMPDEST DUP1 SWAP5 POP DUP2 SWAP6 POP POP POP PUSH32 0xFFFFFFFFFFFFFFFFFFFFFFFFFFFFFFFFFFFFFFFFFFFFFFFFFFFFFFFFFFFFFFFF DUP5 EQ DUP1 ISZERO PUSH2 0xCF4 JUMPI POP PUSH32 0xFFFFFFFFFFFFFFFFFFFFFFFFFFFFFFFFFFFFFFFFFFFFFFFFFFFFFFFFFFFFFFFF DUP4 EQ JUMPDEST PUSH2 0xD33 JUMPI PUSH1 0x40 MLOAD PUSH32 0x8C379A000000000000000000000000000000000000000000000000000000000 DUP2 MSTORE PUSH1 0x4 ADD PUSH2 0xD2A SWAP1 PUSH2 0x183E JUMP JUMPDEST PUSH1 0x40 MLOAD DUP1 SWAP2 SUB SWAP1 REVERT JUMPDEST POP POP POP POP POP JUMP JUMPDEST PUSH0 PUSH1 0x40 MLOAD SWAP1 POP SWAP1 JUMP JUMPDEST PUSH0 PUSH0 REVERT JUMPDEST PUSH0 PUSH0 REVERT JUMPDEST PUSH0 PUSH0 REVERT JUMPDEST PUSH0 PUSH1 0x1F NOT PUSH1 0x1F DUP4 ADD AND SWAP1 POP SWAP2 SWAP1 POP JUMP JUMPDEST PUSH32 0x4E487B7100000000000000000000000000000000000000000000000000000000 PUSH0 MSTORE PUSH1 0x41 PUSH1 0x4 MSTORE PUSH1 0x24 PUSH0 REVERT JUMPDEST PUSH2 0xD95 DUP3 PUSH2 0xD4F JUMP JUMPDEST DUP2 ADD DUP2 DUP2 LT PUSH8 0xFFFFFFFFFFFFFFFF DUP3 GT OR ISZERO PUSH2 0xDB4 JUMPI PUSH2 0xDB3 PUSH2 0xD5F JUMP JUMPDEST JUMPDEST DUP1 PUSH1 0x40 MSTORE POP POP POP JUMP JUMPDEST PUSH0 PUSH2 0xDC6 PUSH2 0xD3A JUMP JUMPDEST SWAP1 POP PUSH2 0xDD2 DUP3 DUP3 PUSH2 0xD8C JUMP JUMPDEST SWAP2 SWAP1 POP JUMP JUMPDEST PUSH0 PUSH8 0xFFFFFFFFFFFFFFFF DUP3 GT ISZERO PUSH2 0xDF1 JUMPI PUSH2 0xDF0 PUSH2 0xD5F JUMP JUMPDEST JUMPDEST PUSH1 0x20 DUP3 MUL SWAP1 POP PUSH1 0x20 DUP2 ADD SWAP1 POP SWAP2 SWAP1 POP JUMP JUMPDEST PUSH0 PUSH0 REVERT JUMPDEST PUSH0 DUP2 SWAP1 POP SWAP2 SWAP1 POP JUMP JUMPDEST PUSH2 0xE18 DUP2 PUSH2 0xE06 JUMP JUMPDEST DUP2 EQ PUSH2 0xE22 JUMPI PUSH0 PUSH0 REVERT JUMPDEST POP JUMP JUMPDEST PUSH0 DUP2 CALLDATALOAD SWAP1 POP PUSH2 0xE33 DUP2 PUSH2 0xE0F JUMP JUMPDEST SWAP3 SWAP2 POP POP JUMP JUMPDEST PUSH0 PUSH2 0xE4B PUSH2 0xE46 DUP5 PUSH2 0xDD7 JUMP JUMPDEST PUSH2 0xDBD JUMP JUMPDEST SWAP1 POP DUP1 DUP4 DUP3 MSTORE PUSH1 0x20 DUP3 ADD SWAP1 POP PUSH1 0x20 DUP5 MUL DUP4 ADD DUP6 DUP2 GT ISZERO PUSH2 0xE6E JUMPI PUSH2 0xE6D PUSH2 0xE02 JUMP JUMPDEST JUMPDEST DUP4 JUMPDEST DUP2 DUP2 LT ISZERO PUSH2 0xE97 JUMPI DUP1 PUSH2 0xE83 DUP9 DUP3 PUSH2 0xE25 JUMP JUMPDEST DUP5 MSTORE PUSH1 0x20 DUP5 ADD SWAP4 POP POP PUSH1 0x20 DUP2 ADD SWAP1 POP PUSH2 0xE70 JUMP JUMPDEST POP POP POP SWAP4 SWAP3 POP POP POP JUMP JUMPDEST PUSH0 DUP3 PUSH1 0x1F DUP4 ADD SLT PUSH2 0xEB5 JUMPI PUSH2 0xEB4 PUSH2 0xD4B JUMP JUMPDEST JUMPDEST DUP2 CALLDATALOAD PUSH2 0xEC5 DUP5 DUP3 PUSH1 0x20 DUP7 ADD PUSH2 0xE39 JUMP JUMPDEST SWAP2 POP POP SWAP3 SWAP2 POP POP JUMP JUMPDEST PUSH0 PUSH0 PUSH1 0x40 DUP4 DUP6 SUB SLT ISZERO PUSH2 0xEE4 JUMPI PUSH2 0xEE3 PUSH2 0xD43 JUMP JUMPDEST JUMPDEST PUSH0 DUP4 ADD CALLDATALOAD PUSH8 0xFFFFFFFFFFFFFFFF DUP2 GT ISZERO PUSH2 0xF01 JUMPI PUSH2 0xF00 PUSH2 0xD47 JUMP JUMPDEST JUMPDEST PUSH2 0xF0D DUP6 DUP3 DUP7 ADD PUSH2 0xEA1 JUMP JUMPDEST SWAP3 POP POP PUSH1 0x20 PUSH2 0xF1E DUP6 DUP3 DUP7 ADD PUSH2 0xE25 JUMP JUMPDEST SWAP2 POP POP SWAP3 POP SWAP3 SWAP1 POP JUMP JUMPDEST PUSH2 0xF31 DUP2 PUSH2 0xE06 JUMP JUMPDEST DUP3 MSTORE POP POP JUMP JUMPDEST PUSH0 PUSH1 0x40 DUP3 ADD SWAP1 POP PUSH2 0xF4A PUSH0 DUP4 ADD DUP6 PUSH2 0xF28 JUMP JUMPDEST PUSH2 0xF57 PUSH1 0x20 DUP4 ADD DUP5 PUSH2 0xF28 JUMP JUMPDEST SWAP4 SWAP3 POP POP POP JUMP JUMPDEST PUSH0 PUSH1 0x20 DUP3 ADD SWAP1 POP PUSH2 0xF71 PUSH0 DUP4 ADD DUP5 PUSH2 0xF28 JUMP JUMPDEST SWAP3 SWAP2 POP POP JUMP JUMPDEST PUSH32 0x4E487B7100000000000000000000000000000000000000000000000000000000 PUSH0 MSTORE PUSH1 0x32 PUSH1 0x4 MSTORE PUSH1 0x24 PUSH0 REVERT JUMPDEST PUSH32 0x4E487B7100000000000000000000000000000000000000000000000000000000 PUSH0 MSTORE PUSH1 0x11 PUSH1 0x4 MSTORE PUSH1 0x24 PUSH0 REVERT JUMPDEST PUSH0 PUSH2 0xFDB DUP3 PUSH2 0xE06 JUMP JUMPDEST SWAP2 POP PUSH2 0xFE6 DUP4 PUSH2 0xE06 JUMP JUMPDEST SWAP3 POP DUP3 DUP3 SUB SWAP1 POP DUP2 DUP2 GT ISZERO PUSH2 0xFFE JUMPI PUSH2 0xFFD PUSH2 0xFA4 JUMP JUMPDEST JUMPDEST SWAP3 SWAP2 POP POP JUMP JUMPDEST PUSH32 0x4E487B7100000000000000000000000000000000000000000000000000000000 PUSH0 MSTORE PUSH1 0x12 PUSH1 0x4 MSTORE PUSH1 0x24 PUSH0 REVERT JUMPDEST PUSH0 PUSH2 0x103B DUP3 PUSH2 0xE06 JUMP JUMPDEST SWAP2 POP PUSH2 0x1046 DUP4 PUSH2 0xE06 JUMP JUMPDEST SWAP3 POP DUP3 PUSH2 0x1056 JUMPI PUSH2 0x1055 PUSH2 0x1004 JUMP JUMPDEST JUMPDEST DUP3 DUP3 DIV SWAP1 POP SWAP3 SWAP2 POP POP JUMP JUMPDEST PUSH0 PUSH2 0x106B DUP3 PUSH2 0xE06 JUMP JUMPDEST SWAP2 POP PUSH2 0x1076 DUP4 PUSH2 0xE06 JUMP JUMPDEST SWAP3 POP DUP3 DUP3 ADD SWAP1 POP DUP1 DUP3 GT ISZERO PUSH2 0x108E JUMPI PUSH2 0x108D PUSH2 0xFA4 JUMP JUMPDEST JUMPDEST SWAP3 SWAP2 POP POP JUMP JUMPDEST PUSH0 DUP3 DUP3 MSTORE PUSH1 0x20 DUP3 ADD SWAP1 POP SWAP3 SWAP2 POP POP JUMP JUMPDEST PUSH32 0x546573742031206661696C656400000000000000000000000000000000000000 PUSH0 DUP3 ADD MSTORE POP JUMP JUMPDEST PUSH0 PUSH2 0x10D8 PUSH1 0xD DUP4 PUSH2 0x1094 JUMP JUMPDEST SWAP2 POP PUSH2 0x10E3 DUP3 PUSH2 0x10A4 JUMP JUMPDEST PUSH1 0x20 DUP3 ADD SWAP1 POP SWAP2 SWAP1 POP JUMP JUMPDEST PUSH0 PUSH1 0x20 DUP3 ADD SWAP1 POP DUP2 DUP2 SUB PUSH0 DUP4 ADD MSTORE PUSH2 0x1105 DUP2 PUSH2 0x10CC JUMP JUMPDEST SWAP1 POP SWAP2 SWAP1 POP JUMP JUMPDEST PUSH32 0x546573742032206661696C656400000000000000000000000000000000000000 PUSH0 DUP3 ADD MSTORE POP JUMP JUMPDEST PUSH0 PUSH2 0x1140 PUSH1 0xD DUP4 PUSH2 0x1094 JUMP JUMPDEST SWAP2 POP PUSH2 0x114B DUP3 PUSH2 0x110C JUMP JUMPDEST PUSH1 0x20 DUP3 ADD SWAP1 POP SWAP2 SWAP1 POP JUMP JUMPDEST PUSH0 PUSH1 0x20 DUP3 ADD SWAP1 POP DUP2 DUP2 SUB PUSH0 DUP4 ADD MSTORE PUSH2 0x116D DUP2 PUSH2 0x1134 JUMP JUMPDEST SWAP1 POP SWAP2 SWAP1 POP JUMP JUMPDEST PUSH32 0x546573742033206661696C656400000000000000000000000000000000000000 PUSH0 DUP3 ADD MSTORE POP JUMP JUMPDEST PUSH0 PUSH2 0x11A8 PUSH1 0xD DUP4 PUSH2 0x1094 JUMP JUMPDEST SWAP2 POP PUSH2 0x11B3 DUP3 PUSH2 0x1174 JUMP JUMPDEST PUSH1 0x20 DUP3 ADD SWAP1 POP SWAP2 SWAP1 POP JUMP JUMPDEST PUSH0 PUSH1 0x20 DUP3 ADD SWAP1 POP DUP2 DUP2 SUB PUSH0 DUP4 ADD MSTORE PUSH2 0x11D5 DUP2 PUSH2 0x119C JUMP JUMPDEST SWAP1 POP SWAP2 SWAP1 POP JUMP JUMPDEST PUSH32 0x546573742034206661696C656400000000000000000000000000000000000000 PUSH0 DUP3 ADD MSTORE POP JUMP JUMPDEST PUSH0 PUSH2 0x1210 PUSH1 0xD DUP4 PUSH2 0x1094 JUMP JUMPDEST SWAP2 POP PUSH2 0x121B DUP3 PUSH2 0x11DC JUMP JUMPDEST PUSH1 0x20 DUP3 ADD SWAP1 POP SWAP2 SWAP1 POP JUMP JUMPDEST PUSH0 PUSH1 0x20 DUP3 ADD SWAP1 POP DUP2 DUP2 SUB PUSH0 DUP4 ADD MSTORE PUSH2 0x123D DUP2 PUSH2 0x1204 JUMP JUMPDEST SWAP1 POP SWAP2 SWAP1 POP JUMP JUMPDEST PUSH32 0x546573742035206661696C656400000000000000000000000000000000000000 PUSH0 DUP3 ADD MSTORE POP JUMP JUMPDEST PUSH0 PUSH2 0x1278 PUSH1 0xD DUP4 PUSH2 0x1094 JUMP JUMPDEST SWAP2 POP PUSH2 0x1283 DUP3 PUSH2 0x1244 JUMP JUMPDEST PUSH1 0x20 DUP3 ADD SWAP1 POP SWAP2 SWAP1 POP JUMP JUMPDEST PUSH0 PUSH1 0x20 DUP3 ADD SWAP1 POP DUP2 DUP2 SUB PUSH0 DUP4 ADD MSTORE PUSH2 0x12A5 DUP2 PUSH2 0x126C JUMP JUMPDEST SWAP1 POP SWAP2 SWAP1 POP JUMP JUMPDEST PUSH32 0x546573742036206661696C656400000000000000000000000000000000000000 PUSH0 DUP3 ADD MSTORE POP JUMP JUMPDEST PUSH0 PUSH2 0x12E0 PUSH1 0xD DUP4 PUSH2 0x1094 JUMP JUMPDEST SWAP2 POP PUSH2 0x12EB DUP3 PUSH2 0x12AC JUMP JUMPDEST PUSH1 0x20 DUP3 ADD SWAP1 POP SWAP2 SWAP1 POP JUMP JUMPDEST PUSH0 PUSH1 0x20 DUP3 ADD SWAP1 POP DUP2 DUP2 SUB PUSH0 DUP4 ADD MSTORE PUSH2 0x130D DUP2 PUSH2 0x12D4 JUMP JUMPDEST SWAP1 POP SWAP2 SWAP1 POP JUMP JUMPDEST PUSH32 0x546573742037206661696C656400000000000000000000000000000000000000 PUSH0 DUP3 ADD MSTORE POP JUMP JUMPDEST PUSH0 PUSH2 0x1348 PUSH1 0xD DUP4 PUSH2 0x1094 JUMP JUMPDEST SWAP2 POP PUSH2 0x1353 DUP3 PUSH2 0x1314 JUMP JUMPDEST PUSH1 0x20 DUP3 ADD SWAP1 POP SWAP2 SWAP1 POP JUMP JUMPDEST PUSH0 PUSH1 0x20 DUP3 ADD SWAP1 POP DUP2 DUP2 SUB PUSH0 DUP4 ADD MSTORE PUSH2 0x1375 DUP2 PUSH2 0x133C JUMP JUMPDEST SWAP1 POP SWAP2 SWAP1 POP JUMP JUMPDEST PUSH32 0x546573742038206661696C656400000000000000000000000000000000000000 PUSH0 DUP3 ADD MSTORE POP JUMP JUMPDEST PUSH0 PUSH2 0x13B0 PUSH1 0xD DUP4 PUSH2 0x1094 JUMP JUMPDEST SWAP2 POP PUSH2 0x13BB DUP3 PUSH2 0x137C JUMP JUMPDEST PUSH1 0x20 DUP3 ADD SWAP1 POP SWAP2 SWAP1 POP JUMP JUMPDEST PUSH0 PUSH1 0x20 DUP3 ADD SWAP1 POP DUP2 DUP2 SUB PUSH0 DUP4 ADD MSTORE PUSH2 0x13DD DUP2 PUSH2 0x13A4 JUMP JUMPDEST SWAP1 POP SWAP2 SWAP1 POP JUMP JUMPDEST PUSH32 0x546573742039206661696C656400000000000000000000000000000000000000 PUSH0 DUP3 ADD MSTORE POP JUMP JUMPDEST PUSH0 PUSH2 0x1418 PUSH1 0xD DUP4 PUSH2 0x1094 JUMP JUMPDEST SWAP2 POP PUSH2 0x1423 DUP3 PUSH2 0x13E4 JUMP JUMPDEST PUSH1 0x20 DUP3 ADD SWAP1 POP SWAP2 SWAP1 POP JUMP JUMPDEST PUSH0 PUSH1 0x20 DUP3 ADD SWAP1 POP DUP2 DUP2 SUB PUSH0 DUP4 ADD MSTORE PUSH2 0x1445 DUP2 PUSH2 0x140C JUMP JUMPDEST SWAP1 POP SWAP2 SWAP1 POP JUMP JUMPDEST PUSH32 0x54657374203130206661696C6564000000000000000000000000000000000000 PUSH0 DUP3 ADD MSTORE POP JUMP JUMPDEST PUSH0 PUSH2 0x1480 PUSH1 0xE DUP4 PUSH2 0x1094 JUMP JUMPDEST SWAP2 POP PUSH2 0x148B DUP3 PUSH2 0x144C JUMP JUMPDEST PUSH1 0x20 DUP3 ADD SWAP1 POP SWAP2 SWAP1 POP JUMP JUMPDEST PUSH0 PUSH1 0x20 DUP3 ADD SWAP1 POP DUP2 DUP2 SUB PUSH0 DUP4 ADD MSTORE PUSH2 0x14AD DUP2 PUSH2 0x1474 JUMP JUMPDEST SWAP1 POP SWAP2 SWAP1 POP JUMP JUMPDEST PUSH32 0x54657374203131206661696C6564000000000000000000000000000000000000 PUSH0 DUP3 ADD MSTORE POP JUMP JUMPDEST PUSH0 PUSH2 0x14E8 PUSH1 0xE DUP4 PUSH2 0x1094 JUMP JUMPDEST SWAP2 POP PUSH2 0x14F3 DUP3 PUSH2 0x14B4 JUMP JUMPDEST PUSH1 0x20 DUP3 ADD SWAP1 POP SWAP2 SWAP1 POP JUMP JUMPDEST PUSH0 PUSH1 0x20 DUP3 ADD SWAP1 POP DUP2 DUP2 SUB PUSH0 DUP4 ADD MSTORE PUSH2 0x1515 DUP2 PUSH2 0x14DC JUMP JUMPDEST SWAP1 POP SWAP2 SWAP1 POP JUMP JUMPDEST PUSH32 0x54657374203132206661696C6564000000000000000000000000000000000000 PUSH0 DUP3 ADD MSTORE POP JUMP JUMPDEST PUSH0 PUSH2 0x1550 PUSH1 0xE DUP4 PUSH2 0x1094 JUMP JUMPDEST SWAP2 POP PUSH2 0x155B DUP3 PUSH2 0x151C JUMP JUMPDEST PUSH1 0x20 DUP3 ADD SWAP1 POP SWAP2 SWAP1 POP JUMP JUMPDEST PUSH0 PUSH1 0x20 DUP3 ADD SWAP1 POP DUP2 DUP2 SUB PUSH0 DUP4 ADD MSTORE PUSH2 0x157D DUP2 PUSH2 0x1544 JUMP JUMPDEST SWAP1 POP SWAP2 SWAP1 POP JUMP JUMPDEST PUSH32 0x54657374203133206661696C6564000000000000000000000000000000000000 PUSH0 DUP3 ADD MSTORE POP JUMP JUMPDEST PUSH0 PUSH2 0x15B8 PUSH1 0xE DUP4 PUSH2 0x1094 JUMP JUMPDEST SWAP2 POP PUSH2 0x15C3 DUP3 PUSH2 0x1584 JUMP JUMPDEST PUSH1 0x20 DUP3 ADD SWAP1 POP SWAP2 SWAP1 POP JUMP JUMPDEST PUSH0 PUSH1 0x20 DUP3 ADD SWAP1 POP DUP2 DUP2 SUB PUSH0 DUP4 ADD MSTORE PUSH2 0x15E5 DUP2 PUSH2 0x15AC JUMP JUMPDEST SWAP1 POP SWAP2 SWAP1 POP JUMP JUMPDEST PUSH32 0x54657374203134206661696C6564000000000000000000000000000000000000 PUSH0 DUP3 ADD MSTORE POP JUMP JUMPDEST PUSH0 PUSH2 0x1620 PUSH1 0xE DUP4 PUSH2 0x1094 JUMP JUMPDEST SWAP2 POP PUSH2 0x162B DUP3 PUSH2 0x15EC JUMP JUMPDEST PUSH1 0x20 DUP3 ADD SWAP1 POP SWAP2 SWAP1 POP JUMP JUMPDEST PUSH0 PUSH1 0x20 DUP3 ADD SWAP1 POP DUP2 DUP2 SUB PUSH0 DUP4 ADD MSTORE PUSH2 0x164D DUP2 PUSH2 0x1614 JUMP JUMPDEST SWAP1 POP SWAP2 SWAP1 POP JUMP JUMPDEST PUSH32 0x54657374203135206661696C6564000000000000000000000000000000000000 PUSH0 DUP3 ADD MSTORE POP JUMP JUMPDEST PUSH0 PUSH2 0x1688 PUSH1 0xE DUP4 PUSH2 0x1094 JUMP JUMPDEST SWAP2 POP PUSH2 0x1693 DUP3 PUSH2 0x1654 JUMP JUMPDEST PUSH1 0x20 DUP3 ADD SWAP1 POP SWAP2 SWAP1 POP JUMP JUMPDEST PUSH0 PUSH1 0x20 DUP3 ADD SWAP1 POP DUP2 DUP2 SUB PUSH0 DUP4 ADD MSTORE PUSH2 0x16B5 DUP2 PUSH2 0x167C JUMP JUMPDEST SWAP1 POP SWAP2 SWAP1 POP JUMP JUMPDEST PUSH32 0x54657374203136206661696C6564000000000000000000000000000000000000 PUSH0 DUP3 ADD MSTORE POP JUMP JUMPDEST PUSH0 PUSH2 0x16F0 PUSH1 0xE DUP4 PUSH2 0x1094 JUMP JUMPDEST SWAP2 POP PUSH2 0x16FB DUP3 PUSH2 0x16BC JUMP JUMPDEST PUSH1 0x20 DUP3 ADD SWAP1 POP SWAP2 SWAP1 POP JUMP JUMPDEST PUSH0 PUSH1 0x20 DUP3 ADD SWAP1 POP DUP2 DUP2 SUB PUSH0 DUP4 ADD MSTORE PUSH2 0x171D DUP2 PUSH2 0x16E4 JUMP JUMPDEST SWAP1 POP SWAP2 SWAP1 POP JUMP JUMPDEST PUSH32 0x54657374203137206661696C6564000000000000000000000000000000000000 PUSH0 DUP3 ADD MSTORE POP JUMP JUMPDEST PUSH0 PUSH2 0x1758 PUSH1 0xE DUP4 PUSH2 0x1094 JUMP JUMPDEST SWAP2 POP PUSH2 0x1763 DUP3 PUSH2 0x1724 JUMP JUMPDEST PUSH1 0x20 DUP3 ADD SWAP1 POP SWAP2 SWAP1 POP JUMP JUMPDEST PUSH0 PUSH1 0x20 DUP3 ADD SWAP1 POP DUP2 DUP2 SUB PUSH0 DUP4 ADD MSTORE PUSH2 0x1785 DUP2 PUSH2 0x174C JUMP JUMPDEST SWAP1 POP SWAP2 SWAP1 POP JUMP JUMPDEST PUSH32 0x54657374203138206661696C6564000000000000000000000000000000000000 PUSH0 DUP3 ADD MSTORE POP JUMP JUMPDEST PUSH0 PUSH2 0x17C0 PUSH1 0xE DUP4 PUSH2 0x1094 JUMP JUMPDEST SWAP2 POP PUSH2 0x17CB DUP3 PUSH2 0x178C JUMP JUMPDEST PUSH1 0x20 DUP3 ADD SWAP1 POP SWAP2 SWAP1 POP JUMP JUMPDEST PUSH0 PUSH1 0x20 DUP3 ADD SWAP1 POP DUP2 DUP2 SUB PUSH0 DUP4 ADD MSTORE PUSH2 0x17ED DUP2 PUSH2 0x17B4 JUMP JUMPDEST SWAP1 POP SWAP2 SWAP1 POP JUMP JUMPDEST PUSH32 0x54657374203139206661696C6564000000000000000000000000000000000000 PUSH0 DUP3 ADD MSTORE POP JUMP JUMPDEST PUSH0 PUSH2 0x1828 PUSH1 0xE DUP4 PUSH2 0x1094 JUMP JUMPDEST SWAP2 POP PUSH2 0x1833 DUP3 PUSH2 0x17F4 JUMP JUMPDEST PUSH1 0x20 DUP3 ADD SWAP1 POP SWAP2 SWAP1 POP JUMP JUMPDEST PUSH0 PUSH1 0x20 DUP3 ADD SWAP1 POP DUP2 DUP2 SUB PUSH0 DUP4 ADD MSTORE PUSH2 0x1855 DUP2 PUSH2 0x181C JUMP JUMPDEST SWAP1 POP SWAP2 SWAP1 POP JUMP INVALID LOG2 PUSH5 0x6970667358 0x22 SLT KECCAK256 SHR 0xAD INVALID CALLDATASIZE 0xC3 SWAP5 NUMBER 0xC6 0xF6 PUSH30 0xB474B1C1944ACD1C6A938DF33DFBD53756C04A2BA8ED64736F6C63430008 0x1E STOP CALLER "
				},
				"gasEstimates": {
					"creation": {
						"codeDepositCost": "1258000",
						"executionCost": "1306",
						"totalCost": "1259306"
					},
					"external": {
						"binarySearch(uint256[],uint256)": "infinite",
						"lowerBound(uint256[],uint256)": "infinite",
						"searchRange(uint256[],uint256)": "infinite",
						"testBinarySearch()": "infinite",
						"upperBound(uint256[],uint256)": "infinite"
					}
				},
				"methodIdentifiers": {
					"binarySearch(uint256[],uint256)": "b12601da",
					"lowerBound(uint256[],uint256)": "63b7c492",
					"searchRange(uint256[],uint256)": "1aeb63ba",
					"testBinarySearch()": "e4f2b5d8",
					"upperBound(uint256[],uint256)": "6b215484"
				}
			},
			"storageLayout": {
				"storage": [],
				"types": null
			},
			"userdoc": {
				"kind": "user",
				"methods": {
					"binarySearch(uint256[],uint256)": {
						"notice": "标准二分查找（升序数组） "
					},
					"lowerBound(uint256[],uint256)": {
						"notice": "查找第一个大于等于目标的元素（左边界） "
					},
					"searchRange(uint256[],uint256)": {
						"notice": "查找目标值范围 [lowerBound, upperBound) "
					},
					"upperBound(uint256[],uint256)": {
						"notice": "查找第一个大于目标的元素（右边界） "
					}
				},
				"version": 1
			}
		}
	}
}