{
	"data": {
		"bytecode": {
			"linkReferences": {},
			"object": "6080604052348015600e575f5ffd5b50611ef98061001c5f395ff3fe608060405234801561000f575f5ffd5b5060043610610034575f3560e01c80639f19e9ab14610038578063b3c4c94714610042575b5f5ffd5b610040610072565b005b61005c60048036038101906100579190611377565b610bde565b60405161006991906114dd565b60405180910390f35b5f600667ffffffffffffffff81111561008e5761008d6111d3565b5b6040519080825280602002602001820160405280156100bc5781602001602082028036833780820191505090505b5090506001815f815181106100d4576100d36114fd565b5b6020026020010181815250506003816001815181106100f6576100f56114fd565b5b602002602001018181525050600581600281518110610118576101176114fd565b5b6020026020010181815250505f600367ffffffffffffffff8111156101405761013f6111d3565b5b60405190808252806020026020018201604052801561016e5781602001602082028036833780820191505090505b5090506002815f81518110610186576101856114fd565b5b6020026020010181815250506004816001815181106101a8576101a76114fd565b5b6020026020010181815250506006816002815181106101ca576101c96114fd565b5b6020026020010181815250506101e68260038360036001610bde565b506001825f815181106101fc576101fb6114fd565b5b602002602001015114610244576040517f08c379a000000000000000000000000000000000000000000000000000000000815260040161023b90611584565b60405180910390fd5b60028260018151811061025a576102596114fd565b5b6020026020010151146102a2576040517f08c379a0000000000000000000000000000000000000000000000000000000008152600401610299906115ec565b60405180910390fd5b6003826002815181106102b8576102b76114fd565b5b602002602001015114610300576040517f08c379a00000000000000000000000000000000000000000000000000000000081526004016102f790611654565b60405180910390fd5b600482600381518110610316576103156114fd565b5b60200260200101511461035e576040517f08c379a0000000000000000000000000000000000000000000000000000000008152600401610355906116bc565b60405180910390fd5b600582600481518110610374576103736114fd565b5b6020026020010151146103bc576040517f08c379a00000000000000000000000000000000000000000000000000000000081526004016103b390611724565b60405180910390fd5b6006826005815181106103d2576103d16114fd565b5b60200260200101511461041a576040517f08c379a00000000000000000000000000000000000000000000000000000000081526004016104119061178c565b60405180910390fd5b600367ffffffffffffffff811115610435576104346111d3565b5b6040519080825280602002602001820160405280156104635781602001602082028036833780820191505090505b509150600a825f8151811061047b5761047a6114fd565b5b60200260200101818152505060148260018151811061049d5761049c6114fd565b5b602002602001018181525050601e826002815181106104bf576104be6114fd565b5b602002602001018181525050600267ffffffffffffffff8111156104e6576104e56111d3565b5b6040519080825280602002602001820160405280156105145781602001602082028036833780820191505090505b509050600f815f8151811061052c5761052b6114fd565b5b60200260200101818152505060198160018151811061054e5761054d6114fd565b5b6020026020010181815250505f61056a8360038460025f610bde565b905060058151146105b0576040517f08c379a00000000000000000000000000000000000000000000000000000000081526004016105a7906117f4565b60405180910390fd5b600a815f815181106105c5576105c46114fd565b5b60200260200101511461060d576040517f08c379a00000000000000000000000000000000000000000000000000000000081526004016106049061185c565b60405180910390fd5b600f81600181518110610623576106226114fd565b5b60200260200101511461066b576040517f08c379a0000000000000000000000000000000000000000000000000000000008152600401610662906118c4565b60405180910390fd5b601481600281518110610681576106806114fd565b5b6020026020010151146106c9576040517f08c379a00000000000000000000000000000000000000000000000000000000081526004016106c09061192c565b60405180910390fd5b6019816003815181106106df576106de6114fd565b5b602002602001015114610727576040517f08c379a000000000000000000000000000000000000000000000000000000000815260040161071e90611994565b60405180910390fd5b601e8160048151811061073d5761073c6114fd565b5b602002602001015114610785576040517f08c379a000000000000000000000000000000000000000000000000000000000815260040161077c906119fc565b60405180910390fd5b5f67ffffffffffffffff81111561079f5761079e6111d3565b5b6040519080825280602002602001820160405280156107cd5781602001602082028036833780820191505090505b509250600267ffffffffffffffff8111156107eb576107ea6111d3565b5b6040519080825280602002602001820160405280156108195781602001602082028036833780820191505090505b5091506005825f81518110610831576108306114fd565b5b602002602001018181525050600a82600181518110610853576108526114fd565b5b60200260200101818152505061086d835f8460025f610bde565b905060028151146108b3576040517f08c379a00000000000000000000000000000000000000000000000000000000081526004016108aa90611a64565b60405180910390fd5b6005815f815181106108c8576108c76114fd565b5b602002602001015114610910576040517f08c379a000000000000000000000000000000000000000000000000000000000815260040161090790611acc565b60405180910390fd5b600a81600181518110610926576109256114fd565b5b60200260200101511461096e576040517f08c379a000000000000000000000000000000000000000000000000000000000815260040161096590611b34565b60405180910390fd5b600367ffffffffffffffff811115610989576109886111d3565b5b6040519080825280602002602001820160405280156109b75781602001602082028036833780820191505090505b5092506064835f815181106109cf576109ce6114fd565b5b60200260200101818152505060c8836001815181106109f1576109f06114fd565b5b60200260200101818152505061012c83600281518110610a1457610a136114fd565b5b6020026020010181815250505f67ffffffffffffffff811115610a3a57610a396111d3565b5b604051908082528060200260200182016040528015610a685781602001602082028036833780820191505090505b509150610a79836003845f5f610bde565b90506003815114610abf576040517f08c379a0000000000000000000000000000000000000000000000000000000008152600401610ab690611b9c565b60405180910390fd5b6064815f81518110610ad457610ad36114fd565b5b602002602001015114610b1c576040517f08c379a0000000000000000000000000000000000000000000000000000000008152600401610b1390611c04565b60405180910390fd5b60c881600181518110610b3257610b316114fd565b5b602002602001015114610b7a576040517f08c379a0000000000000000000000000000000000000000000000000000000008152600401610b7190611c6c565b60405180910390fd5b61012c81600281518110610b9157610b906114fd565b5b602002602001015114610bd9576040517f08c379a0000000000000000000000000000000000000000000000000000000008152600401610bd090611cd4565b60405180910390fd5b505050565b606085518386610bee9190611d1f565b1115610c2f576040517f08c379a0000000000000000000000000000000000000000000000000000000008152600401610c2690611d9c565b60405180910390fd5b8284511015610c73576040517f08c379a0000000000000000000000000000000000000000000000000000000008152600401610c6a90611e04565b60405180910390fd5b8115610cd557610c8586868686610ced565b5f67ffffffffffffffff811115610c9f57610c9e6111d3565b5b604051908082528060200260200182016040528015610ccd5781602001602082028036833780820191505090505b509050610ce4565b610ce186868686610f7c565b90505b95945050505050565b5f600184610cfb9190611e22565b90505f600183610d0b9190611e22565b90505f60018487610d1c9190611d1f565b610d269190611e22565b90505b7fffffffffffffffffffffffffffffffffffffffffffffffffffffffffffffffff8314158015610d7957507fffffffffffffffffffffffffffffffffffffffffffffffffffffffffffffffff8214155b15610ec157848281518110610d9157610d906114fd565b5b6020026020010151878481518110610dac57610dab6114fd565b5b60200260200101511115610e3657868381518110610dcd57610dcc6114fd565b5b6020026020010151878281518110610de857610de76114fd565b5b6020026020010181815250505f8311610e21577fffffffffffffffffffffffffffffffffffffffffffffffffffffffffffffffff610e2f565b600183610e2e9190611e22565b5b9250610eae565b848281518110610e4957610e486114fd565b5b6020026020010151878281518110610e6457610e636114fd565b5b6020026020010181815250505f8211610e9d577fffffffffffffffffffffffffffffffffffffffffffffffffffffffffffffffff610eab565b600182610eaa9190611e22565b5b91505b8080610eb990611e55565b915050610d29565b5b7fffffffffffffffffffffffffffffffffffffffffffffffffffffffffffffffff8214610f7357848281518110610efc57610efb6114fd565b5b6020026020010151878281518110610f1757610f166114fd565b5b6020026020010181815250505f8211610f50577fffffffffffffffffffffffffffffffffffffffffffffffffffffffffffffffff610f5e565b600182610f5d9190611e22565b5b91508080610f6b90611e55565b915050610ec2565b50505050505050565b60605f8285610f8b9190611d1f565b67ffffffffffffffff811115610fa457610fa36111d3565b5b604051908082528060200260200182016040528015610fd25781602001602082028036833780820191505090505b5090505f5f90505f5f90505f5f90505b8783108015610ff057508582105b156110df57868281518110611008576110076114fd565b5b6020026020010151898481518110611023576110226114fd565b5b6020026020010151116110875788838061103c90611e7c565b94508151811061104f5761104e6114fd565b5b602002602001015184828061106390611e7c565b935081518110611076576110756114fd565b5b6020026020010181815250506110da565b86828061109390611e7c565b9350815181106110a6576110a56114fd565b5b60200260200101518482806110ba90611e7c565b9350815181106110cd576110cc6114fd565b5b6020026020010181815250505b610fe2565b5b8783101561113f578883806110f490611e7c565b945081518110611107576111066114fd565b5b602002602001015184828061111b90611e7c565b93508151811061112e5761112d6114fd565b5b6020026020010181815250506110e0565b5b8582101561119f5786828061115490611e7c565b935081518110611167576111666114fd565b5b602002602001015184828061117b90611e7c565b93508151811061118e5761118d6114fd565b5b602002602001018181525050611140565b83945050505050949350505050565b5f604051905090565b5f5ffd5b5f5ffd5b5f5ffd5b5f601f19601f8301169050919050565b7f4e487b71000000000000000000000000000000000000000000000000000000005f52604160045260245ffd5b611209826111c3565b810181811067ffffffffffffffff82111715611228576112276111d3565b5b80604052505050565b5f61123a6111ae565b90506112468282611200565b919050565b5f67ffffffffffffffff821115611265576112646111d3565b5b602082029050602081019050919050565b5f5ffd5b5f819050919050565b61128c8161127a565b8114611296575f5ffd5b50565b5f813590506112a781611283565b92915050565b5f6112bf6112ba8461124b565b611231565b905080838252602082019050602084028301858111156112e2576112e1611276565b5b835b8181101561130b57806112f78882611299565b8452602084019350506020810190506112e4565b5050509392505050565b5f82601f830112611329576113286111bf565b5b81356113398482602086016112ad565b91505092915050565b5f8115159050919050565b61135681611342565b8114611360575f5ffd5b50565b5f813590506113718161134d565b92915050565b5f5f5f5f5f60a086880312156113905761138f6111b7565b5b5f86013567ffffffffffffffff8111156113ad576113ac6111bb565b5b6113b988828901611315565b95505060206113ca88828901611299565b945050604086013567ffffffffffffffff8111156113eb576113ea6111bb565b5b6113f788828901611315565b935050606061140888828901611299565b925050608061141988828901611363565b9150509295509295909350565b5f81519050919050565b5f82825260208201905092915050565b5f819050602082019050919050565b6114588161127a565b82525050565b5f611469838361144f565b60208301905092915050565b5f602082019050919050565b5f61148b82611426565b6114958185611430565b93506114a083611440565b805f5b838110156114d05781516114b7888261145e565b97506114c283611475565b9250506001810190506114a3565b5085935050505092915050565b5f6020820190508181035f8301526114f58184611481565b905092915050565b7f4e487b71000000000000000000000000000000000000000000000000000000005f52603260045260245ffd5b5f82825260208201905092915050565b7f54657374313a20696e64657830000000000000000000000000000000000000005f82015250565b5f61156e600d8361152a565b91506115798261153a565b602082019050919050565b5f6020820190508181035f83015261159b81611562565b9050919050565b7f54657374313a20696e64657831000000000000000000000000000000000000005f82015250565b5f6115d6600d8361152a565b91506115e1826115a2565b602082019050919050565b5f6020820190508181035f830152611603816115ca565b9050919050565b7f54657374313a20696e64657832000000000000000000000000000000000000005f82015250565b5f61163e600d8361152a565b91506116498261160a565b602082019050919050565b5f6020820190508181035f83015261166b81611632565b9050919050565b7f54657374313a20696e64657833000000000000000000000000000000000000005f82015250565b5f6116a6600d8361152a565b91506116b182611672565b602082019050919050565b5f6020820190508181035f8301526116d38161169a565b9050919050565b7f54657374313a20696e64657834000000000000000000000000000000000000005f82015250565b5f61170e600d8361152a565b9150611719826116da565b602082019050919050565b5f6020820190508181035f83015261173b81611702565b9050919050565b7f54657374313a20696e64657835000000000000000000000000000000000000005f82015250565b5f611776600d8361152a565b915061178182611742565b602082019050919050565b5f6020820190508181035f8301526117a38161176a565b9050919050565b7f54657374323a206c656e677468000000000000000000000000000000000000005f82015250565b5f6117de600d8361152a565b91506117e9826117aa565b602082019050919050565b5f6020820190508181035f83015261180b816117d2565b9050919050565b7f54657374323a20696e64657830000000000000000000000000000000000000005f82015250565b5f611846600d8361152a565b915061185182611812565b602082019050919050565b5f6020820190508181035f8301526118738161183a565b9050919050565b7f54657374323a20696e64657831000000000000000000000000000000000000005f82015250565b5f6118ae600d8361152a565b91506118b98261187a565b602082019050919050565b5f6020820190508181035f8301526118db816118a2565b9050919050565b7f54657374323a20696e64657832000000000000000000000000000000000000005f82015250565b5f611916600d8361152a565b9150611921826118e2565b602082019050919050565b5f6020820190508181035f8301526119438161190a565b9050919050565b7f54657374323a20696e64657833000000000000000000000000000000000000005f82015250565b5f61197e600d8361152a565b91506119898261194a565b602082019050919050565b5f6020820190508181035f8301526119ab81611972565b9050919050565b7f54657374323a20696e64657834000000000000000000000000000000000000005f82015250565b5f6119e6600d8361152a565b91506119f1826119b2565b602082019050919050565b5f6020820190508181035f830152611a13816119da565b9050919050565b7f54657374333a206c656e677468000000000000000000000000000000000000005f82015250565b5f611a4e600d8361152a565b9150611a5982611a1a565b602082019050919050565b5f6020820190508181035f830152611a7b81611a42565b9050919050565b7f54657374333a20696e64657830000000000000000000000000000000000000005f82015250565b5f611ab6600d8361152a565b9150611ac182611a82565b602082019050919050565b5f6020820190508181035f830152611ae381611aaa565b9050919050565b7f54657374333a20696e64657831000000000000000000000000000000000000005f82015250565b5f611b1e600d8361152a565b9150611b2982611aea565b602082019050919050565b5f6020820190508181035f830152611b4b81611b12565b9050919050565b7f54657374343a206c656e677468000000000000000000000000000000000000005f82015250565b5f611b86600d8361152a565b9150611b9182611b52565b602082019050919050565b5f6020820190508181035f830152611bb381611b7a565b9050919050565b7f54657374343a20696e64657830000000000000000000000000000000000000005f82015250565b5f611bee600d8361152a565b9150611bf982611bba565b602082019050919050565b5f6020820190508181035f830152611c1b81611be2565b9050919050565b7f54657374343a20696e64657831000000000000000000000000000000000000005f82015250565b5f611c56600d8361152a565b9150611c6182611c22565b602082019050919050565b5f6020820190508181035f830152611c8381611c4a565b9050919050565b7f54657374343a20696e64657832000000000000000000000000000000000000005f82015250565b5f611cbe600d8361152a565b9150611cc982611c8a565b602082019050919050565b5f6020820190508181035f830152611ceb81611cb2565b9050919050565b7f4e487b71000000000000000000000000000000000000000000000000000000005f52601160045260245ffd5b5f611d298261127a565b9150611d348361127a565b9250828201905080821115611d4c57611d4b611cf2565b5b92915050565b7f6e756d733120696e73756666696369656e7420636170616369747900000000005f82015250565b5f611d86601b8361152a565b9150611d9182611d52565b602082019050919050565b5f6020820190508181035f830152611db381611d7a565b9050919050565b7f6e756d7332206c656e677468206d69736d6174636800000000000000000000005f82015250565b5f611dee60158361152a565b9150611df982611dba565b602082019050919050565b5f6020820190508181035f830152611e1b81611de2565b9050919050565b5f611e2c8261127a565b9150611e378361127a565b9250828203905081811115611e4f57611e4e611cf2565b5b92915050565b5f611e5f8261127a565b91505f8203611e7157611e70611cf2565b5b600182039050919050565b5f611e868261127a565b91507fffffffffffffffffffffffffffffffffffffffffffffffffffffffffffffffff8203611eb857611eb7611cf2565b5b60018201905091905056fea2646970667358221220ef3d9b679fde200dd4ec778d39a92670541955b3085686cfc3829a1e75627ba864736f6c634300081e0033",
			"opcodes": "PUSH1 0x80 PUSH1 0x40 MSTORE CALLVALUE DUP1 ISZERO PUSH1 0xE JUMPI PUSH0 PUSH0 REVERT JUMPDEST POP PUSH2 0x1EF9 DUP1 PUSH2 0x1C PUSH0 CODECOPY PUSH0 RETURN INVALID PUSH1 0x80 PUSH1 0x40 MSTORE CALLVALUE DUP1 ISZERO PUSH2 0xF JUMPI PUSH0 PUSH0 REVERT JUMPDEST POP PUSH1 0x4 CALLDATASIZE LT PUSH2 0x34 JUMPI PUSH0 CALLDATALOAD PUSH1 0xE0 SHR DUP1 PUSH4 0x9F19E9AB EQ PUSH2 0x38 JUMPI DUP1 PUSH4 0xB3C4C947 EQ PUSH2 0x42 JUMPI JUMPDEST PUSH0 PUSH0 REVERT JUMPDEST PUSH2 0x40 PUSH2 0x72 JUMP JUMPDEST STOP JUMPDEST PUSH2 0x5C PUSH1 0x4 DUP1 CALLDATASIZE SUB DUP2 ADD SWAP1 PUSH2 0x57 SWAP2 SWAP1 PUSH2 0x1377 JUMP JUMPDEST PUSH2 0xBDE JUMP JUMPDEST PUSH1 0x40 MLOAD PUSH2 0x69 SWAP2 SWAP1 PUSH2 0x14DD JUMP JUMPDEST PUSH1 0x40 MLOAD DUP1 SWAP2 SUB SWAP1 RETURN JUMPDEST PUSH0 PUSH1 0x6 PUSH8 0xFFFFFFFFFFFFFFFF DUP2 GT ISZERO PUSH2 0x8E JUMPI PUSH2 0x8D PUSH2 0x11D3 JUMP JUMPDEST JUMPDEST PUSH1 0x40 MLOAD SWAP1 DUP1 DUP3 MSTORE DUP1 PUSH1 0x20 MUL PUSH1 0x20 ADD DUP3 ADD PUSH1 0x40 MSTORE DUP1 ISZERO PUSH2 0xBC JUMPI DUP2 PUSH1 0x20 ADD PUSH1 0x20 DUP3 MUL DUP1 CALLDATASIZE DUP4 CALLDATACOPY DUP1 DUP3 ADD SWAP2 POP POP SWAP1 POP JUMPDEST POP SWAP1 POP PUSH1 0x1 DUP2 PUSH0 DUP2 MLOAD DUP2 LT PUSH2 0xD4 JUMPI PUSH2 0xD3 PUSH2 0x14FD JUMP JUMPDEST JUMPDEST PUSH1 0x20 MUL PUSH1 0x20 ADD ADD DUP2 DUP2 MSTORE POP POP PUSH1 0x3 DUP2 PUSH1 0x1 DUP2 MLOAD DUP2 LT PUSH2 0xF6 JUMPI PUSH2 0xF5 PUSH2 0x14FD JUMP JUMPDEST JUMPDEST PUSH1 0x20 MUL PUSH1 0x20 ADD ADD DUP2 DUP2 MSTORE POP POP PUSH1 0x5 DUP2 PUSH1 0x2 DUP2 MLOAD DUP2 LT PUSH2 0x118 JUMPI PUSH2 0x117 PUSH2 0x14FD JUMP JUMPDEST JUMPDEST PUSH1 0x20 MUL PUSH1 0x20 ADD ADD DUP2 DUP2 MSTORE POP POP PUSH0 PUSH1 0x3 PUSH8 0xFFFFFFFFFFFFFFFF DUP2 GT ISZERO PUSH2 0x140 JUMPI PUSH2 0x13F PUSH2 0x11D3 JUMP JUMPDEST JUMPDEST PUSH1 0x40 MLOAD SWAP1 DUP1 DUP3 MSTORE DUP1 PUSH1 0x20 MUL PUSH1 0x20 ADD DUP3 ADD PUSH1 0x40 MSTORE DUP1 ISZERO PUSH2 0x16E JUMPI DUP2 PUSH1 0x20 ADD PUSH1 0x20 DUP3 MUL DUP1 CALLDATASIZE DUP4 CALLDATACOPY DUP1 DUP3 ADD SWAP2 POP POP SWAP1 POP JUMPDEST POP SWAP1 POP PUSH1 0x2 DUP2 PUSH0 DUP2 MLOAD DUP2 LT PUSH2 0x186 JUMPI PUSH2 0x185 PUSH2 0x14FD JUMP JUMPDEST JUMPDEST PUSH1 0x20 MUL PUSH1 0x20 ADD ADD DUP2 DUP2 MSTORE POP POP PUSH1 0x4 DUP2 PUSH1 0x1 DUP2 MLOAD DUP2 LT PUSH2 0x1A8 JUMPI PUSH2 0x1A7 PUSH2 0x14FD JUMP JUMPDEST JUMPDEST PUSH1 0x20 MUL PUSH1 0x20 ADD ADD DUP2 DUP2 MSTORE POP POP PUSH1 0x6 DUP2 PUSH1 0x2 DUP2 MLOAD DUP2 LT PUSH2 0x1CA JUMPI PUSH2 0x1C9 PUSH2 0x14FD JUMP JUMPDEST JUMPDEST PUSH1 0x20 MUL PUSH1 0x20 ADD ADD DUP2 DUP2 MSTORE POP POP PUSH2 0x1E6 DUP3 PUSH1 0x3 DUP4 PUSH1 0x3 PUSH1 0x1 PUSH2 0xBDE JUMP JUMPDEST POP PUSH1 0x1 DUP3 PUSH0 DUP2 MLOAD DUP2 LT PUSH2 0x1FC JUMPI PUSH2 0x1FB PUSH2 0x14FD JUMP JUMPDEST JUMPDEST PUSH1 0x20 MUL PUSH1 0x20 ADD ADD MLOAD EQ PUSH2 0x244 JUMPI PUSH1 0x40 MLOAD PUSH32 0x8C379A000000000000000000000000000000000000000000000000000000000 DUP2 MSTORE PUSH1 0x4 ADD PUSH2 0x23B SWAP1 PUSH2 0x1584 JUMP JUMPDEST PUSH1 0x40 MLOAD DUP1 SWAP2 SUB SWAP1 REVERT JUMPDEST PUSH1 0x2 DUP3 PUSH1 0x1 DUP2 MLOAD DUP2 LT PUSH2 0x25A JUMPI PUSH2 0x259 PUSH2 0x14FD JUMP JUMPDEST JUMPDEST PUSH1 0x20 MUL PUSH1 0x20 ADD ADD MLOAD EQ PUSH2 0x2A2 JUMPI PUSH1 0x40 MLOAD PUSH32 0x8C379A000000000000000000000000000000000000000000000000000000000 DUP2 MSTORE PUSH1 0x4 ADD PUSH2 0x299 SWAP1 PUSH2 0x15EC JUMP JUMPDEST PUSH1 0x40 MLOAD DUP1 SWAP2 SUB SWAP1 REVERT JUMPDEST PUSH1 0x3 DUP3 PUSH1 0x2 DUP2 MLOAD DUP2 LT PUSH2 0x2B8 JUMPI PUSH2 0x2B7 PUSH2 0x14FD JUMP JUMPDEST JUMPDEST PUSH1 0x20 MUL PUSH1 0x20 ADD ADD MLOAD EQ PUSH2 0x300 JUMPI PUSH1 0x40 MLOAD PUSH32 0x8C379A000000000000000000000000000000000000000000000000000000000 DUP2 MSTORE PUSH1 0x4 ADD PUSH2 0x2F7 SWAP1 PUSH2 0x1654 JUMP JUMPDEST PUSH1 0x40 MLOAD DUP1 SWAP2 SUB SWAP1 REVERT JUMPDEST PUSH1 0x4 DUP3 PUSH1 0x3 DUP2 MLOAD DUP2 LT PUSH2 0x316 JUMPI PUSH2 0x315 PUSH2 0x14FD JUMP JUMPDEST JUMPDEST PUSH1 0x20 MUL PUSH1 0x20 ADD ADD MLOAD EQ PUSH2 0x35E JUMPI PUSH1 0x40 MLOAD PUSH32 0x8C379A000000000000000000000000000000000000000000000000000000000 DUP2 MSTORE PUSH1 0x4 ADD PUSH2 0x355 SWAP1 PUSH2 0x16BC JUMP JUMPDEST PUSH1 0x40 MLOAD DUP1 SWAP2 SUB SWAP1 REVERT JUMPDEST PUSH1 0x5 DUP3 PUSH1 0x4 DUP2 MLOAD DUP2 LT PUSH2 0x374 JUMPI PUSH2 0x373 PUSH2 0x14FD JUMP JUMPDEST JUMPDEST PUSH1 0x20 MUL PUSH1 0x20 ADD ADD MLOAD EQ PUSH2 0x3BC JUMPI PUSH1 0x40 MLOAD PUSH32 0x8C379A000000000000000000000000000000000000000000000000000000000 DUP2 MSTORE PUSH1 0x4 ADD PUSH2 0x3B3 SWAP1 PUSH2 0x1724 JUMP JUMPDEST PUSH1 0x40 MLOAD DUP1 SWAP2 SUB SWAP1 REVERT JUMPDEST PUSH1 0x6 DUP3 PUSH1 0x5 DUP2 MLOAD DUP2 LT PUSH2 0x3D2 JUMPI PUSH2 0x3D1 PUSH2 0x14FD JUMP JUMPDEST JUMPDEST PUSH1 0x20 MUL PUSH1 0x20 ADD ADD MLOAD EQ PUSH2 0x41A JUMPI PUSH1 0x40 MLOAD PUSH32 0x8C379A000000000000000000000000000000000000000000000000000000000 DUP2 MSTORE PUSH1 0x4 ADD PUSH2 0x411 SWAP1 PUSH2 0x178C JUMP JUMPDEST PUSH1 0x40 MLOAD DUP1 SWAP2 SUB SWAP1 REVERT JUMPDEST PUSH1 0x3 PUSH8 0xFFFFFFFFFFFFFFFF DUP2 GT ISZERO PUSH2 0x435 JUMPI PUSH2 0x434 PUSH2 0x11D3 JUMP JUMPDEST JUMPDEST PUSH1 0x40 MLOAD SWAP1 DUP1 DUP3 MSTORE DUP1 PUSH1 0x20 MUL PUSH1 0x20 ADD DUP3 ADD PUSH1 0x40 MSTORE DUP1 ISZERO PUSH2 0x463 JUMPI DUP2 PUSH1 0x20 ADD PUSH1 0x20 DUP3 MUL DUP1 CALLDATASIZE DUP4 CALLDATACOPY DUP1 DUP3 ADD SWAP2 POP POP SWAP1 POP JUMPDEST POP SWAP2 POP PUSH1 0xA DUP3 PUSH0 DUP2 MLOAD DUP2 LT PUSH2 0x47B JUMPI PUSH2 0x47A PUSH2 0x14FD JUMP JUMPDEST JUMPDEST PUSH1 0x20 MUL PUSH1 0x20 ADD ADD DUP2 DUP2 MSTORE POP POP PUSH1 0x14 DUP3 PUSH1 0x1 DUP2 MLOAD DUP2 LT PUSH2 0x49D JUMPI PUSH2 0x49C PUSH2 0x14FD JUMP JUMPDEST JUMPDEST PUSH1 0x20 MUL PUSH1 0x20 ADD ADD DUP2 DUP2 MSTORE POP POP PUSH1 0x1E DUP3 PUSH1 0x2 DUP2 MLOAD DUP2 LT PUSH2 0x4BF JUMPI PUSH2 0x4BE PUSH2 0x14FD JUMP JUMPDEST JUMPDEST PUSH1 0x20 MUL PUSH1 0x20 ADD ADD DUP2 DUP2 MSTORE POP POP PUSH1 0x2 PUSH8 0xFFFFFFFFFFFFFFFF DUP2 GT ISZERO PUSH2 0x4E6 JUMPI PUSH2 0x4E5 PUSH2 0x11D3 JUMP JUMPDEST JUMPDEST PUSH1 0x40 MLOAD SWAP1 DUP1 DUP3 MSTORE DUP1 PUSH1 0x20 MUL PUSH1 0x20 ADD DUP3 ADD PUSH1 0x40 MSTORE DUP1 ISZERO PUSH2 0x514 JUMPI DUP2 PUSH1 0x20 ADD PUSH1 0x20 DUP3 MUL DUP1 CALLDATASIZE DUP4 CALLDATACOPY DUP1 DUP3 ADD SWAP2 POP POP SWAP1 POP JUMPDEST POP SWAP1 POP PUSH1 0xF DUP2 PUSH0 DUP2 MLOAD DUP2 LT PUSH2 0x52C JUMPI PUSH2 0x52B PUSH2 0x14FD JUMP JUMPDEST JUMPDEST PUSH1 0x20 MUL PUSH1 0x20 ADD ADD DUP2 DUP2 MSTORE POP POP PUSH1 0x19 DUP2 PUSH1 0x1 DUP2 MLOAD DUP2 LT PUSH2 0x54E JUMPI PUSH2 0x54D PUSH2 0x14FD JUMP JUMPDEST JUMPDEST PUSH1 0x20 MUL PUSH1 0x20 ADD ADD DUP2 DUP2 MSTORE POP POP PUSH0 PUSH2 0x56A DUP4 PUSH1 0x3 DUP5 PUSH1 0x2 PUSH0 PUSH2 0xBDE JUMP JUMPDEST SWAP1 POP PUSH1 0x5 DUP2 MLOAD EQ PUSH2 0x5B0 JUMPI PUSH1 0x40 MLOAD PUSH32 0x8C379A000000000000000000000000000000000000000000000000000000000 DUP2 MSTORE PUSH1 0x4 ADD PUSH2 0x5A7 SWAP1 PUSH2 0x17F4 JUMP JUMPDEST PUSH1 0x40 MLOAD DUP1 SWAP2 SUB SWAP1 REVERT JUMPDEST PUSH1 0xA DUP2 PUSH0 DUP2 MLOAD DUP2 LT PUSH2 0x5C5 JUMPI PUSH2 0x5C4 PUSH2 0x14FD JUMP JUMPDEST JUMPDEST PUSH1 0x20 MUL PUSH1 0x20 ADD ADD MLOAD EQ PUSH2 0x60D JUMPI PUSH1 0x40 MLOAD PUSH32 0x8C379A000000000000000000000000000000000000000000000000000000000 DUP2 MSTORE PUSH1 0x4 ADD PUSH2 0x604 SWAP1 PUSH2 0x185C JUMP JUMPDEST PUSH1 0x40 MLOAD DUP1 SWAP2 SUB SWAP1 REVERT JUMPDEST PUSH1 0xF DUP2 PUSH1 0x1 DUP2 MLOAD DUP2 LT PUSH2 0x623 JUMPI PUSH2 0x622 PUSH2 0x14FD JUMP JUMPDEST JUMPDEST PUSH1 0x20 MUL PUSH1 0x20 ADD ADD MLOAD EQ PUSH2 0x66B JUMPI PUSH1 0x40 MLOAD PUSH32 0x8C379A000000000000000000000000000000000000000000000000000000000 DUP2 MSTORE PUSH1 0x4 ADD PUSH2 0x662 SWAP1 PUSH2 0x18C4 JUMP JUMPDEST PUSH1 0x40 MLOAD DUP1 SWAP2 SUB SWAP1 REVERT JUMPDEST PUSH1 0x14 DUP2 PUSH1 0x2 DUP2 MLOAD DUP2 LT PUSH2 0x681 JUMPI PUSH2 0x680 PUSH2 0x14FD JUMP JUMPDEST JUMPDEST PUSH1 0x20 MUL PUSH1 0x20 ADD ADD MLOAD EQ PUSH2 0x6C9 JUMPI PUSH1 0x40 MLOAD PUSH32 0x8C379A000000000000000000000000000000000000000000000000000000000 DUP2 MSTORE PUSH1 0x4 ADD PUSH2 0x6C0 SWAP1 PUSH2 0x192C JUMP JUMPDEST PUSH1 0x40 MLOAD DUP1 SWAP2 SUB SWAP1 REVERT JUMPDEST PUSH1 0x19 DUP2 PUSH1 0x3 DUP2 MLOAD DUP2 LT PUSH2 0x6DF JUMPI PUSH2 0x6DE PUSH2 0x14FD JUMP JUMPDEST JUMPDEST PUSH1 0x20 MUL PUSH1 0x20 ADD ADD MLOAD EQ PUSH2 0x727 JUMPI PUSH1 0x40 MLOAD PUSH32 0x8C379A000000000000000000000000000000000000000000000000000000000 DUP2 MSTORE PUSH1 0x4 ADD PUSH2 0x71E SWAP1 PUSH2 0x1994 JUMP JUMPDEST PUSH1 0x40 MLOAD DUP1 SWAP2 SUB SWAP1 REVERT JUMPDEST PUSH1 0x1E DUP2 PUSH1 0x4 DUP2 MLOAD DUP2 LT PUSH2 0x73D JUMPI PUSH2 0x73C PUSH2 0x14FD JUMP JUMPDEST JUMPDEST PUSH1 0x20 MUL PUSH1 0x20 ADD ADD MLOAD EQ PUSH2 0x785 JUMPI PUSH1 0x40 MLOAD PUSH32 0x8C379A000000000000000000000000000000000000000000000000000000000 DUP2 MSTORE PUSH1 0x4 ADD PUSH2 0x77C SWAP1 PUSH2 0x19FC JUMP JUMPDEST PUSH1 0x40 MLOAD DUP1 SWAP2 SUB SWAP1 REVERT JUMPDEST PUSH0 PUSH8 0xFFFFFFFFFFFFFFFF DUP2 GT ISZERO PUSH2 0x79F JUMPI PUSH2 0x79E PUSH2 0x11D3 JUMP JUMPDEST JUMPDEST PUSH1 0x40 MLOAD SWAP1 DUP1 DUP3 MSTORE DUP1 PUSH1 0x20 MUL PUSH1 0x20 ADD DUP3 ADD PUSH1 0x40 MSTORE DUP1 ISZERO PUSH2 0x7CD JUMPI DUP2 PUSH1 0x20 ADD PUSH1 0x20 DUP3 MUL DUP1 CALLDATASIZE DUP4 CALLDATACOPY DUP1 DUP3 ADD SWAP2 POP POP SWAP1 POP JUMPDEST POP SWAP3 POP PUSH1 0x2 PUSH8 0xFFFFFFFFFFFFFFFF DUP2 GT ISZERO PUSH2 0x7EB JUMPI PUSH2 0x7EA PUSH2 0x11D3 JUMP JUMPDEST JUMPDEST PUSH1 0x40 MLOAD SWAP1 DUP1 DUP3 MSTORE DUP1 PUSH1 0x20 MUL PUSH1 0x20 ADD DUP3 ADD PUSH1 0x40 MSTORE DUP1 ISZERO PUSH2 0x819 JUMPI DUP2 PUSH1 0x20 ADD PUSH1 0x20 DUP3 MUL DUP1 CALLDATASIZE DUP4 CALLDATACOPY DUP1 DUP3 ADD SWAP2 POP POP SWAP1 POP JUMPDEST POP SWAP2 POP PUSH1 0x5 DUP3 PUSH0 DUP2 MLOAD DUP2 LT PUSH2 0x831 JUMPI PUSH2 0x830 PUSH2 0x14FD JUMP JUMPDEST JUMPDEST PUSH1 0x20 MUL PUSH1 0x20 ADD ADD DUP2 DUP2 MSTORE POP POP PUSH1 0xA DUP3 PUSH1 0x1 DUP2 MLOAD DUP2 LT PUSH2 0x853 JUMPI PUSH2 0x852 PUSH2 0x14FD JUMP JUMPDEST JUMPDEST PUSH1 0x20 MUL PUSH1 0x20 ADD ADD DUP2 DUP2 MSTORE POP POP PUSH2 0x86D DUP4 PUSH0 DUP5 PUSH1 0x2 PUSH0 PUSH2 0xBDE JUMP JUMPDEST SWAP1 POP PUSH1 0x2 DUP2 MLOAD EQ PUSH2 0x8B3 JUMPI PUSH1 0x40 MLOAD PUSH32 0x8C379A000000000000000000000000000000000000000000000000000000000 DUP2 MSTORE PUSH1 0x4 ADD PUSH2 0x8AA SWAP1 PUSH2 0x1A64 JUMP JUMPDEST PUSH1 0x40 MLOAD DUP1 SWAP2 SUB SWAP1 REVERT JUMPDEST PUSH1 0x5 DUP2 PUSH0 DUP2 MLOAD DUP2 LT PUSH2 0x8C8 JUMPI PUSH2 0x8C7 PUSH2 0x14FD JUMP JUMPDEST JUMPDEST PUSH1 0x20 MUL PUSH1 0x20 ADD ADD MLOAD EQ PUSH2 0x910 JUMPI PUSH1 0x40 MLOAD PUSH32 0x8C379A000000000000000000000000000000000000000000000000000000000 DUP2 MSTORE PUSH1 0x4 ADD PUSH2 0x907 SWAP1 PUSH2 0x1ACC JUMP JUMPDEST PUSH1 0x40 MLOAD DUP1 SWAP2 SUB SWAP1 REVERT JUMPDEST PUSH1 0xA DUP2 PUSH1 0x1 DUP2 MLOAD DUP2 LT PUSH2 0x926 JUMPI PUSH2 0x925 PUSH2 0x14FD JUMP JUMPDEST JUMPDEST PUSH1 0x20 MUL PUSH1 0x20 ADD ADD MLOAD EQ PUSH2 0x96E JUMPI PUSH1 0x40 MLOAD PUSH32 0x8C379A000000000000000000000000000000000000000000000000000000000 DUP2 MSTORE PUSH1 0x4 ADD PUSH2 0x965 SWAP1 PUSH2 0x1B34 JUMP JUMPDEST PUSH1 0x40 MLOAD DUP1 SWAP2 SUB SWAP1 REVERT JUMPDEST PUSH1 0x3 PUSH8 0xFFFFFFFFFFFFFFFF DUP2 GT ISZERO PUSH2 0x989 JUMPI PUSH2 0x988 PUSH2 0x11D3 JUMP JUMPDEST JUMPDEST PUSH1 0x40 MLOAD SWAP1 DUP1 DUP3 MSTORE DUP1 PUSH1 0x20 MUL PUSH1 0x20 ADD DUP3 ADD PUSH1 0x40 MSTORE DUP1 ISZERO PUSH2 0x9B7 JUMPI DUP2 PUSH1 0x20 ADD PUSH1 0x20 DUP3 MUL DUP1 CALLDATASIZE DUP4 CALLDATACOPY DUP1 DUP3 ADD SWAP2 POP POP SWAP1 POP JUMPDEST POP SWAP3 POP PUSH1 0x64 DUP4 PUSH0 DUP2 MLOAD DUP2 LT PUSH2 0x9CF JUMPI PUSH2 0x9CE PUSH2 0x14FD JUMP JUMPDEST JUMPDEST PUSH1 0x20 MUL PUSH1 0x20 ADD ADD DUP2 DUP2 MSTORE POP POP PUSH1 0xC8 DUP4 PUSH1 0x1 DUP2 MLOAD DUP2 LT PUSH2 0x9F1 JUMPI PUSH2 0x9F0 PUSH2 0x14FD JUMP JUMPDEST JUMPDEST PUSH1 0x20 MUL PUSH1 0x20 ADD ADD DUP2 DUP2 MSTORE POP POP PUSH2 0x12C DUP4 PUSH1 0x2 DUP2 MLOAD DUP2 LT PUSH2 0xA14 JUMPI PUSH2 0xA13 PUSH2 0x14FD JUMP JUMPDEST JUMPDEST PUSH1 0x20 MUL PUSH1 0x20 ADD ADD DUP2 DUP2 MSTORE POP POP PUSH0 PUSH8 0xFFFFFFFFFFFFFFFF DUP2 GT ISZERO PUSH2 0xA3A JUMPI PUSH2 0xA39 PUSH2 0x11D3 JUMP JUMPDEST JUMPDEST PUSH1 0x40 MLOAD SWAP1 DUP1 DUP3 MSTORE DUP1 PUSH1 0x20 MUL PUSH1 0x20 ADD DUP3 ADD PUSH1 0x40 MSTORE DUP1 ISZERO PUSH2 0xA68 JUMPI DUP2 PUSH1 0x20 ADD PUSH1 0x20 DUP3 MUL DUP1 CALLDATASIZE DUP4 CALLDATACOPY DUP1 DUP3 ADD SWAP2 POP POP SWAP1 POP JUMPDEST POP SWAP2 POP PUSH2 0xA79 DUP4 PUSH1 0x3 DUP5 PUSH0 PUSH0 PUSH2 0xBDE JUMP JUMPDEST SWAP1 POP PUSH1 0x3 DUP2 MLOAD EQ PUSH2 0xABF JUMPI PUSH1 0x40 MLOAD PUSH32 0x8C379A000000000000000000000000000000000000000000000000000000000 DUP2 MSTORE PUSH1 0x4 ADD PUSH2 0xAB6 SWAP1 PUSH2 0x1B9C JUMP JUMPDEST PUSH1 0x40 MLOAD DUP1 SWAP2 SUB SWAP1 REVERT JUMPDEST PUSH1 0x64 DUP2 PUSH0 DUP2 MLOAD DUP2 LT PUSH2 0xAD4 JUMPI PUSH2 0xAD3 PUSH2 0x14FD JUMP JUMPDEST JUMPDEST PUSH1 0x20 MUL PUSH1 0x20 ADD ADD MLOAD EQ PUSH2 0xB1C JUMPI PUSH1 0x40 MLOAD PUSH32 0x8C379A000000000000000000000000000000000000000000000000000000000 DUP2 MSTORE PUSH1 0x4 ADD PUSH2 0xB13 SWAP1 PUSH2 0x1C04 JUMP JUMPDEST PUSH1 0x40 MLOAD DUP1 SWAP2 SUB SWAP1 REVERT JUMPDEST PUSH1 0xC8 DUP2 PUSH1 0x1 DUP2 MLOAD DUP2 LT PUSH2 0xB32 JUMPI PUSH2 0xB31 PUSH2 0x14FD JUMP JUMPDEST JUMPDEST PUSH1 0x20 MUL PUSH1 0x20 ADD ADD MLOAD EQ PUSH2 0xB7A JUMPI PUSH1 0x40 MLOAD PUSH32 0x8C379A000000000000000000000000000000000000000000000000000000000 DUP2 MSTORE PUSH1 0x4 ADD PUSH2 0xB71 SWAP1 PUSH2 0x1C6C JUMP JUMPDEST PUSH1 0x40 MLOAD DUP1 SWAP2 SUB SWAP1 REVERT JUMPDEST PUSH2 0x12C DUP2 PUSH1 0x2 DUP2 MLOAD DUP2 LT PUSH2 0xB91 JUMPI PUSH2 0xB90 PUSH2 0x14FD JUMP JUMPDEST JUMPDEST PUSH1 0x20 MUL PUSH1 0x20 ADD ADD MLOAD EQ PUSH2 0xBD9 JUMPI PUSH1 0x40 MLOAD PUSH32 0x8C379A000000000000000000000000000000000000000000000000000000000 DUP2 MSTORE PUSH1 0x4 ADD PUSH2 0xBD0 SWAP1 PUSH2 0x1CD4 JUMP JUMPDEST PUSH1 0x40 MLOAD DUP1 SWAP2 SUB SWAP1 REVERT JUMPDEST POP POP POP JUMP JUMPDEST PUSH1 0x60 DUP6 MLOAD DUP4 DUP7 PUSH2 0xBEE SWAP2 SWAP1 PUSH2 0x1D1F JUMP JUMPDEST GT ISZERO PUSH2 0xC2F JUMPI PUSH1 0x40 MLOAD PUSH32 0x8C379A000000000000000000000000000000000000000000000000000000000 DUP2 MSTORE PUSH1 0x4 ADD PUSH2 0xC26 SWAP1 PUSH2 0x1D9C JUMP JUMPDEST PUSH1 0x40 MLOAD DUP1 SWAP2 SUB SWAP1 REVERT JUMPDEST DUP3 DUP5 MLOAD LT ISZERO PUSH2 0xC73 JUMPI PUSH1 0x40 MLOAD PUSH32 0x8C379A000000000000000000000000000000000000000000000000000000000 DUP2 MSTORE PUSH1 0x4 ADD PUSH2 0xC6A SWAP1 PUSH2 0x1E04 JUMP JUMPDEST PUSH1 0x40 MLOAD DUP1 SWAP2 SUB SWAP1 REVERT JUMPDEST DUP2 ISZERO PUSH2 0xCD5 JUMPI PUSH2 0xC85 DUP7 DUP7 DUP7 DUP7 PUSH2 0xCED JUMP JUMPDEST PUSH0 PUSH8 0xFFFFFFFFFFFFFFFF DUP2 GT ISZERO PUSH2 0xC9F JUMPI PUSH2 0xC9E PUSH2 0x11D3 JUMP JUMPDEST JUMPDEST PUSH1 0x40 MLOAD SWAP1 DUP1 DUP3 MSTORE DUP1 PUSH1 0x20 MUL PUSH1 0x20 ADD DUP3 ADD PUSH1 0x40 MSTORE DUP1 ISZERO PUSH2 0xCCD JUMPI DUP2 PUSH1 0x20 ADD PUSH1 0x20 DUP3 MUL DUP1 CALLDATASIZE DUP4 CALLDATACOPY DUP1 DUP3 ADD SWAP2 POP POP SWAP1 POP JUMPDEST POP SWAP1 POP PUSH2 0xCE4 JUMP JUMPDEST PUSH2 0xCE1 DUP7 DUP7 DUP7 DUP7 PUSH2 0xF7C JUMP JUMPDEST SWAP1 POP JUMPDEST SWAP6 SWAP5 POP POP POP POP POP JUMP JUMPDEST PUSH0 PUSH1 0x1 DUP5 PUSH2 0xCFB SWAP2 SWAP1 PUSH2 0x1E22 JUMP JUMPDEST SWAP1 POP PUSH0 PUSH1 0x1 DUP4 PUSH2 0xD0B SWAP2 SWAP1 PUSH2 0x1E22 JUMP JUMPDEST SWAP1 POP PUSH0 PUSH1 0x1 DUP5 DUP8 PUSH2 0xD1C SWAP2 SWAP1 PUSH2 0x1D1F JUMP JUMPDEST PUSH2 0xD26 SWAP2 SWAP1 PUSH2 0x1E22 JUMP JUMPDEST SWAP1 POP JUMPDEST PUSH32 0xFFFFFFFFFFFFFFFFFFFFFFFFFFFFFFFFFFFFFFFFFFFFFFFFFFFFFFFFFFFFFFFF DUP4 EQ ISZERO DUP1 ISZERO PUSH2 0xD79 JUMPI POP PUSH32 0xFFFFFFFFFFFFFFFFFFFFFFFFFFFFFFFFFFFFFFFFFFFFFFFFFFFFFFFFFFFFFFFF DUP3 EQ ISZERO JUMPDEST ISZERO PUSH2 0xEC1 JUMPI DUP5 DUP3 DUP2 MLOAD DUP2 LT PUSH2 0xD91 JUMPI PUSH2 0xD90 PUSH2 0x14FD JUMP JUMPDEST JUMPDEST PUSH1 0x20 MUL PUSH1 0x20 ADD ADD MLOAD DUP8 DUP5 DUP2 MLOAD DUP2 LT PUSH2 0xDAC JUMPI PUSH2 0xDAB PUSH2 0x14FD JUMP JUMPDEST JUMPDEST PUSH1 0x20 MUL PUSH1 0x20 ADD ADD MLOAD GT ISZERO PUSH2 0xE36 JUMPI DUP7 DUP4 DUP2 MLOAD DUP2 LT PUSH2 0xDCD JUMPI PUSH2 0xDCC PUSH2 0x14FD JUMP JUMPDEST JUMPDEST PUSH1 0x20 MUL PUSH1 0x20 ADD ADD MLOAD DUP8 DUP3 DUP2 MLOAD DUP2 LT PUSH2 0xDE8 JUMPI PUSH2 0xDE7 PUSH2 0x14FD JUMP JUMPDEST JUMPDEST PUSH1 0x20 MUL PUSH1 0x20 ADD ADD DUP2 DUP2 MSTORE POP POP PUSH0 DUP4 GT PUSH2 0xE21 JUMPI PUSH32 0xFFFFFFFFFFFFFFFFFFFFFFFFFFFFFFFFFFFFFFFFFFFFFFFFFFFFFFFFFFFFFFFF PUSH2 0xE2F JUMP JUMPDEST PUSH1 0x1 DUP4 PUSH2 0xE2E SWAP2 SWAP1 PUSH2 0x1E22 JUMP JUMPDEST JUMPDEST SWAP3 POP PUSH2 0xEAE JUMP JUMPDEST DUP5 DUP3 DUP2 MLOAD DUP2 LT PUSH2 0xE49 JUMPI PUSH2 0xE48 PUSH2 0x14FD JUMP JUMPDEST JUMPDEST PUSH1 0x20 MUL PUSH1 0x20 ADD ADD MLOAD DUP8 DUP3 DUP2 MLOAD DUP2 LT PUSH2 0xE64 JUMPI PUSH2 0xE63 PUSH2 0x14FD JUMP JUMPDEST JUMPDEST PUSH1 0x20 MUL PUSH1 0x20 ADD ADD DUP2 DUP2 MSTORE POP POP PUSH0 DUP3 GT PUSH2 0xE9D JUMPI PUSH32 0xFFFFFFFFFFFFFFFFFFFFFFFFFFFFFFFFFFFFFFFFFFFFFFFFFFFFFFFFFFFFFFFF PUSH2 0xEAB JUMP JUMPDEST PUSH1 0x1 DUP3 PUSH2 0xEAA SWAP2 SWAP1 PUSH2 0x1E22 JUMP JUMPDEST JUMPDEST SWAP2 POP JUMPDEST DUP1 DUP1 PUSH2 0xEB9 SWAP1 PUSH2 0x1E55 JUMP JUMPDEST SWAP2 POP POP PUSH2 0xD29 JUMP JUMPDEST JUMPDEST PUSH32 0xFFFFFFFFFFFFFFFFFFFFFFFFFFFFFFFFFFFFFFFFFFFFFFFFFFFFFFFFFFFFFFFF DUP3 EQ PUSH2 0xF73 JUMPI DUP5 DUP3 DUP2 MLOAD DUP2 LT PUSH2 0xEFC JUMPI PUSH2 0xEFB PUSH2 0x14FD JUMP JUMPDEST JUMPDEST PUSH1 0x20 MUL PUSH1 0x20 ADD ADD MLOAD DUP8 DUP3 DUP2 MLOAD DUP2 LT PUSH2 0xF17 JUMPI PUSH2 0xF16 PUSH2 0x14FD JUMP JUMPDEST JUMPDEST PUSH1 0x20 MUL PUSH1 0x20 ADD ADD DUP2 DUP2 MSTORE POP POP PUSH0 DUP3 GT PUSH2 0xF50 JUMPI PUSH32 0xFFFFFFFFFFFFFFFFFFFFFFFFFFFFFFFFFFFFFFFFFFFFFFFFFFFFFFFFFFFFFFFF PUSH2 0xF5E JUMP JUMPDEST PUSH1 0x1 DUP3 PUSH2 0xF5D SWAP2 SWAP1 PUSH2 0x1E22 JUMP JUMPDEST JUMPDEST SWAP2 POP DUP1 DUP1 PUSH2 0xF6B SWAP1 PUSH2 0x1E55 JUMP JUMPDEST SWAP2 POP POP PUSH2 0xEC2 JUMP JUMPDEST POP POP POP POP POP POP POP JUMP JUMPDEST PUSH1 0x60 PUSH0 DUP3 DUP6 PUSH2 0xF8B SWAP2 SWAP1 PUSH2 0x1D1F JUMP JUMPDEST PUSH8 0xFFFFFFFFFFFFFFFF DUP2 GT ISZERO PUSH2 0xFA4 JUMPI PUSH2 0xFA3 PUSH2 0x11D3 JUMP JUMPDEST JUMPDEST PUSH1 0x40 MLOAD SWAP1 DUP1 DUP3 MSTORE DUP1 PUSH1 0x20 MUL PUSH1 0x20 ADD DUP3 ADD PUSH1 0x40 MSTORE DUP1 ISZERO PUSH2 0xFD2 JUMPI DUP2 PUSH1 0x20 ADD PUSH1 0x20 DUP3 MUL DUP1 CALLDATASIZE DUP4 CALLDATACOPY DUP1 DUP3 ADD SWAP2 POP POP SWAP1 POP JUMPDEST POP SWAP1 POP PUSH0 PUSH0 SWAP1 POP PUSH0 PUSH0 SWAP1 POP PUSH0 PUSH0 SWAP1 POP JUMPDEST DUP8 DUP4 LT DUP1 ISZERO PUSH2 0xFF0 JUMPI POP DUP6 DUP3 LT JUMPDEST ISZERO PUSH2 0x10DF JUMPI DUP7 DUP3 DUP2 MLOAD DUP2 LT PUSH2 0x1008 JUMPI PUSH2 0x1007 PUSH2 0x14FD JUMP JUMPDEST JUMPDEST PUSH1 0x20 MUL PUSH1 0x20 ADD ADD MLOAD DUP10 DUP5 DUP2 MLOAD DUP2 LT PUSH2 0x1023 JUMPI PUSH2 0x1022 PUSH2 0x14FD JUMP JUMPDEST JUMPDEST PUSH1 0x20 MUL PUSH1 0x20 ADD ADD MLOAD GT PUSH2 0x1087 JUMPI DUP9 DUP4 DUP1 PUSH2 0x103C SWAP1 PUSH2 0x1E7C JUMP JUMPDEST SWAP5 POP DUP2 MLOAD DUP2 LT PUSH2 0x104F JUMPI PUSH2 0x104E PUSH2 0x14FD JUMP JUMPDEST JUMPDEST PUSH1 0x20 MUL PUSH1 0x20 ADD ADD MLOAD DUP5 DUP3 DUP1 PUSH2 0x1063 SWAP1 PUSH2 0x1E7C JUMP JUMPDEST SWAP4 POP DUP2 MLOAD DUP2 LT PUSH2 0x1076 JUMPI PUSH2 0x1075 PUSH2 0x14FD JUMP JUMPDEST JUMPDEST PUSH1 0x20 MUL PUSH1 0x20 ADD ADD DUP2 DUP2 MSTORE POP POP PUSH2 0x10DA JUMP JUMPDEST DUP7 DUP3 DUP1 PUSH2 0x1093 SWAP1 PUSH2 0x1E7C JUMP JUMPDEST SWAP4 POP DUP2 MLOAD DUP2 LT PUSH2 0x10A6 JUMPI PUSH2 0x10A5 PUSH2 0x14FD JUMP JUMPDEST JUMPDEST PUSH1 0x20 MUL PUSH1 0x20 ADD ADD MLOAD DUP5 DUP3 DUP1 PUSH2 0x10BA SWAP1 PUSH2 0x1E7C JUMP JUMPDEST SWAP4 POP DUP2 MLOAD DUP2 LT PUSH2 0x10CD JUMPI PUSH2 0x10CC PUSH2 0x14FD JUMP JUMPDEST JUMPDEST PUSH1 0x20 MUL PUSH1 0x20 ADD ADD DUP2 DUP2 MSTORE POP POP JUMPDEST PUSH2 0xFE2 JUMP JUMPDEST JUMPDEST DUP8 DUP4 LT ISZERO PUSH2 0x113F JUMPI DUP9 DUP4 DUP1 PUSH2 0x10F4 SWAP1 PUSH2 0x1E7C JUMP JUMPDEST SWAP5 POP DUP2 MLOAD DUP2 LT PUSH2 0x1107 JUMPI PUSH2 0x1106 PUSH2 0x14FD JUMP JUMPDEST JUMPDEST PUSH1 0x20 MUL PUSH1 0x20 ADD ADD MLOAD DUP5 DUP3 DUP1 PUSH2 0x111B SWAP1 PUSH2 0x1E7C JUMP JUMPDEST SWAP4 POP DUP2 MLOAD DUP2 LT PUSH2 0x112E JUMPI PUSH2 0x112D PUSH2 0x14FD JUMP JUMPDEST JUMPDEST PUSH1 0x20 MUL PUSH1 0x20 ADD ADD DUP2 DUP2 MSTORE POP POP PUSH2 0x10E0 JUMP JUMPDEST JUMPDEST DUP6 DUP3 LT ISZERO PUSH2 0x119F JUMPI DUP7 DUP3 DUP1 PUSH2 0x1154 SWAP1 PUSH2 0x1E7C JUMP JUMPDEST SWAP4 POP DUP2 MLOAD DUP2 LT PUSH2 0x1167 JUMPI PUSH2 0x1166 PUSH2 0x14FD JUMP JUMPDEST JUMPDEST PUSH1 0x20 MUL PUSH1 0x20 ADD ADD MLOAD DUP5 DUP3 DUP1 PUSH2 0x117B SWAP1 PUSH2 0x1E7C JUMP JUMPDEST SWAP4 POP DUP2 MLOAD DUP2 LT PUSH2 0x118E JUMPI PUSH2 0x118D PUSH2 0x14FD JUMP JUMPDEST JUMPDEST PUSH1 0x20 MUL PUSH1 0x20 ADD ADD DUP2 DUP2 MSTORE POP POP PUSH2 0x1140 JUMP JUMPDEST DUP4 SWAP5 POP POP POP POP POP SWAP5 SWAP4 POP POP POP POP JUMP JUMPDEST PUSH0 PUSH1 0x40 MLOAD SWAP1 POP SWAP1 JUMP JUMPDEST PUSH0 PUSH0 REVERT JUMPDEST PUSH0 PUSH0 REVERT JUMPDEST PUSH0 PUSH0 REVERT JUMPDEST PUSH0 PUSH1 0x1F NOT PUSH1 0x1F DUP4 ADD AND SWAP1 POP SWAP2 SWAP1 POP JUMP JUMPDEST PUSH32 0x4E487B7100000000000000000000000000000000000000000000000000000000 PUSH0 MSTORE PUSH1 0x41 PUSH1 0x4 MSTORE PUSH1 0x24 PUSH0 REVERT JUMPDEST PUSH2 0x1209 DUP3 PUSH2 0x11C3 JUMP JUMPDEST DUP2 ADD DUP2 DUP2 LT PUSH8 0xFFFFFFFFFFFFFFFF DUP3 GT OR ISZERO PUSH2 0x1228 JUMPI PUSH2 0x1227 PUSH2 0x11D3 JUMP JUMPDEST JUMPDEST DUP1 PUSH1 0x40 MSTORE POP POP POP JUMP JUMPDEST PUSH0 PUSH2 0x123A PUSH2 0x11AE JUMP JUMPDEST SWAP1 POP PUSH2 0x1246 DUP3 DUP3 PUSH2 0x1200 JUMP JUMPDEST SWAP2 SWAP1 POP JUMP JUMPDEST PUSH0 PUSH8 0xFFFFFFFFFFFFFFFF DUP3 GT ISZERO PUSH2 0x1265 JUMPI PUSH2 0x1264 PUSH2 0x11D3 JUMP JUMPDEST JUMPDEST PUSH1 0x20 DUP3 MUL SWAP1 POP PUSH1 0x20 DUP2 ADD SWAP1 POP SWAP2 SWAP1 POP JUMP JUMPDEST PUSH0 PUSH0 REVERT JUMPDEST PUSH0 DUP2 SWAP1 POP SWAP2 SWAP1 POP JUMP JUMPDEST PUSH2 0x128C DUP2 PUSH2 0x127A JUMP JUMPDEST DUP2 EQ PUSH2 0x1296 JUMPI PUSH0 PUSH0 REVERT JUMPDEST POP JUMP JUMPDEST PUSH0 DUP2 CALLDATALOAD SWAP1 POP PUSH2 0x12A7 DUP2 PUSH2 0x1283 JUMP JUMPDEST SWAP3 SWAP2 POP POP JUMP JUMPDEST PUSH0 PUSH2 0x12BF PUSH2 0x12BA DUP5 PUSH2 0x124B JUMP JUMPDEST PUSH2 0x1231 JUMP JUMPDEST SWAP1 POP DUP1 DUP4 DUP3 MSTORE PUSH1 0x20 DUP3 ADD SWAP1 POP PUSH1 0x20 DUP5 MUL DUP4 ADD DUP6 DUP2 GT ISZERO PUSH2 0x12E2 JUMPI PUSH2 0x12E1 PUSH2 0x1276 JUMP JUMPDEST JUMPDEST DUP4 JUMPDEST DUP2 DUP2 LT ISZERO PUSH2 0x130B JUMPI DUP1 PUSH2 0x12F7 DUP9 DUP3 PUSH2 0x1299 JUMP JUMPDEST DUP5 MSTORE PUSH1 0x20 DUP5 ADD SWAP4 POP POP PUSH1 0x20 DUP2 ADD SWAP1 POP PUSH2 0x12E4 JUMP JUMPDEST POP POP POP SWAP4 SWAP3 POP POP POP JUMP JUMPDEST PUSH0 DUP3 PUSH1 0x1F DUP4 ADD SLT PUSH2 0x1329 JUMPI PUSH2 0x1328 PUSH2 0x11BF JUMP JUMPDEST JUMPDEST DUP2 CALLDATALOAD PUSH2 0x1339 DUP5 DUP3 PUSH1 0x20 DUP7 ADD PUSH2 0x12AD JUMP JUMPDEST SWAP2 POP POP SWAP3 SWAP2 POP POP JUMP JUMPDEST PUSH0 DUP2 ISZERO ISZERO SWAP1 POP SWAP2 SWAP1 POP JUMP JUMPDEST PUSH2 0x1356 DUP2 PUSH2 0x1342 JUMP JUMPDEST DUP2 EQ PUSH2 0x1360 JUMPI PUSH0 PUSH0 REVERT JUMPDEST POP JUMP JUMPDEST PUSH0 DUP2 CALLDATALOAD SWAP1 POP PUSH2 0x1371 DUP2 PUSH2 0x134D JUMP JUMPDEST SWAP3 SWAP2 POP POP JUMP JUMPDEST PUSH0 PUSH0 PUSH0 PUSH0 PUSH0 PUSH1 0xA0 DUP7 DUP9 SUB SLT ISZERO PUSH2 0x1390 JUMPI PUSH2 0x138F PUSH2 0x11B7 JUMP JUMPDEST JUMPDEST PUSH0 DUP7 ADD CALLDATALOAD PUSH8 0xFFFFFFFFFFFFFFFF DUP2 GT ISZERO PUSH2 0x13AD JUMPI PUSH2 0x13AC PUSH2 0x11BB JUMP JUMPDEST JUMPDEST PUSH2 0x13B9 DUP9 DUP3 DUP10 ADD PUSH2 0x1315 JUMP JUMPDEST SWAP6 POP POP PUSH1 0x20 PUSH2 0x13CA DUP9 DUP3 DUP10 ADD PUSH2 0x1299 JUMP JUMPDEST SWAP5 POP POP PUSH1 0x40 DUP7 ADD CALLDATALOAD PUSH8 0xFFFFFFFFFFFFFFFF DUP2 GT ISZERO PUSH2 0x13EB JUMPI PUSH2 0x13EA PUSH2 0x11BB JUMP JUMPDEST JUMPDEST PUSH2 0x13F7 DUP9 DUP3 DUP10 ADD PUSH2 0x1315 JUMP JUMPDEST SWAP4 POP POP PUSH1 0x60 PUSH2 0x1408 DUP9 DUP3 DUP10 ADD PUSH2 0x1299 JUMP JUMPDEST SWAP3 POP POP PUSH1 0x80 PUSH2 0x1419 DUP9 DUP3 DUP10 ADD PUSH2 0x1363 JUMP JUMPDEST SWAP2 POP POP SWAP3 SWAP6 POP SWAP3 SWAP6 SWAP1 SWAP4 POP JUMP JUMPDEST PUSH0 DUP2 MLOAD SWAP1 POP SWAP2 SWAP1 POP JUMP JUMPDEST PUSH0 DUP3 DUP3 MSTORE PUSH1 0x20 DUP3 ADD SWAP1 POP SWAP3 SWAP2 POP POP JUMP JUMPDEST PUSH0 DUP2 SWAP1 POP PUSH1 0x20 DUP3 ADD SWAP1 POP SWAP2 SWAP1 POP JUMP JUMPDEST PUSH2 0x1458 DUP2 PUSH2 0x127A JUMP JUMPDEST DUP3 MSTORE POP POP JUMP JUMPDEST PUSH0 PUSH2 0x1469 DUP4 DUP4 PUSH2 0x144F JUMP JUMPDEST PUSH1 0x20 DUP4 ADD SWAP1 POP SWAP3 SWAP2 POP POP JUMP JUMPDEST PUSH0 PUSH1 0x20 DUP3 ADD SWAP1 POP SWAP2 SWAP1 POP JUMP JUMPDEST PUSH0 PUSH2 0x148B DUP3 PUSH2 0x1426 JUMP JUMPDEST PUSH2 0x1495 DUP2 DUP6 PUSH2 0x1430 JUMP JUMPDEST SWAP4 POP PUSH2 0x14A0 DUP4 PUSH2 0x1440 JUMP JUMPDEST DUP1 PUSH0 JUMPDEST DUP4 DUP2 LT ISZERO PUSH2 0x14D0 JUMPI DUP2 MLOAD PUSH2 0x14B7 DUP9 DUP3 PUSH2 0x145E JUMP JUMPDEST SWAP8 POP PUSH2 0x14C2 DUP4 PUSH2 0x1475 JUMP JUMPDEST SWAP3 POP POP PUSH1 0x1 DUP2 ADD SWAP1 POP PUSH2 0x14A3 JUMP JUMPDEST POP DUP6 SWAP4 POP POP POP POP SWAP3 SWAP2 POP POP JUMP JUMPDEST PUSH0 PUSH1 0x20 DUP3 ADD SWAP1 POP DUP2 DUP2 SUB PUSH0 DUP4 ADD MSTORE PUSH2 0x14F5 DUP2 DUP5 PUSH2 0x1481 JUMP JUMPDEST SWAP1 POP SWAP3 SWAP2 POP POP JUMP JUMPDEST PUSH32 0x4E487B7100000000000000000000000000000000000000000000000000000000 PUSH0 MSTORE PUSH1 0x32 PUSH1 0x4 MSTORE PUSH1 0x24 PUSH0 REVERT JUMPDEST PUSH0 DUP3 DUP3 MSTORE PUSH1 0x20 DUP3 ADD SWAP1 POP SWAP3 SWAP2 POP POP JUMP JUMPDEST PUSH32 0x54657374313A20696E6465783000000000000000000000000000000000000000 PUSH0 DUP3 ADD MSTORE POP JUMP JUMPDEST PUSH0 PUSH2 0x156E PUSH1 0xD DUP4 PUSH2 0x152A JUMP JUMPDEST SWAP2 POP PUSH2 0x1579 DUP3 PUSH2 0x153A JUMP JUMPDEST PUSH1 0x20 DUP3 ADD SWAP1 POP SWAP2 SWAP1 POP JUMP JUMPDEST PUSH0 PUSH1 0x20 DUP3 ADD SWAP1 POP DUP2 DUP2 SUB PUSH0 DUP4 ADD MSTORE PUSH2 0x159B DUP2 PUSH2 0x1562 JUMP JUMPDEST SWAP1 POP SWAP2 SWAP1 POP JUMP JUMPDEST PUSH32 0x54657374313A20696E6465783100000000000000000000000000000000000000 PUSH0 DUP3 ADD MSTORE POP JUMP JUMPDEST PUSH0 PUSH2 0x15D6 PUSH1 0xD DUP4 PUSH2 0x152A JUMP JUMPDEST SWAP2 POP PUSH2 0x15E1 DUP3 PUSH2 0x15A2 JUMP JUMPDEST PUSH1 0x20 DUP3 ADD SWAP1 POP SWAP2 SWAP1 POP JUMP JUMPDEST PUSH0 PUSH1 0x20 DUP3 ADD SWAP1 POP DUP2 DUP2 SUB PUSH0 DUP4 ADD MSTORE PUSH2 0x1603 DUP2 PUSH2 0x15CA JUMP JUMPDEST SWAP1 POP SWAP2 SWAP1 POP JUMP JUMPDEST PUSH32 0x54657374313A20696E6465783200000000000000000000000000000000000000 PUSH0 DUP3 ADD MSTORE POP JUMP JUMPDEST PUSH0 PUSH2 0x163E PUSH1 0xD DUP4 PUSH2 0x152A JUMP JUMPDEST SWAP2 POP PUSH2 0x1649 DUP3 PUSH2 0x160A JUMP JUMPDEST PUSH1 0x20 DUP3 ADD SWAP1 POP SWAP2 SWAP1 POP JUMP JUMPDEST PUSH0 PUSH1 0x20 DUP3 ADD SWAP1 POP DUP2 DUP2 SUB PUSH0 DUP4 ADD MSTORE PUSH2 0x166B DUP2 PUSH2 0x1632 JUMP JUMPDEST SWAP1 POP SWAP2 SWAP1 POP JUMP JUMPDEST PUSH32 0x54657374313A20696E6465783300000000000000000000000000000000000000 PUSH0 DUP3 ADD MSTORE POP JUMP JUMPDEST PUSH0 PUSH2 0x16A6 PUSH1 0xD DUP4 PUSH2 0x152A JUMP JUMPDEST SWAP2 POP PUSH2 0x16B1 DUP3 PUSH2 0x1672 JUMP JUMPDEST PUSH1 0x20 DUP3 ADD SWAP1 POP SWAP2 SWAP1 POP JUMP JUMPDEST PUSH0 PUSH1 0x20 DUP3 ADD SWAP1 POP DUP2 DUP2 SUB PUSH0 DUP4 ADD MSTORE PUSH2 0x16D3 DUP2 PUSH2 0x169A JUMP JUMPDEST SWAP1 POP SWAP2 SWAP1 POP JUMP JUMPDEST PUSH32 0x54657374313A20696E6465783400000000000000000000000000000000000000 PUSH0 DUP3 ADD MSTORE POP JUMP JUMPDEST PUSH0 PUSH2 0x170E PUSH1 0xD DUP4 PUSH2 0x152A JUMP JUMPDEST SWAP2 POP PUSH2 0x1719 DUP3 PUSH2 0x16DA JUMP JUMPDEST PUSH1 0x20 DUP3 ADD SWAP1 POP SWAP2 SWAP1 POP JUMP JUMPDEST PUSH0 PUSH1 0x20 DUP3 ADD SWAP1 POP DUP2 DUP2 SUB PUSH0 DUP4 ADD MSTORE PUSH2 0x173B DUP2 PUSH2 0x1702 JUMP JUMPDEST SWAP1 POP SWAP2 SWAP1 POP JUMP JUMPDEST PUSH32 0x54657374313A20696E6465783500000000000000000000000000000000000000 PUSH0 DUP3 ADD MSTORE POP JUMP JUMPDEST PUSH0 PUSH2 0x1776 PUSH1 0xD DUP4 PUSH2 0x152A JUMP JUMPDEST SWAP2 POP PUSH2 0x1781 DUP3 PUSH2 0x1742 JUMP JUMPDEST PUSH1 0x20 DUP3 ADD SWAP1 POP SWAP2 SWAP1 POP JUMP JUMPDEST PUSH0 PUSH1 0x20 DUP3 ADD SWAP1 POP DUP2 DUP2 SUB PUSH0 DUP4 ADD MSTORE PUSH2 0x17A3 DUP2 PUSH2 0x176A JUMP JUMPDEST SWAP1 POP SWAP2 SWAP1 POP JUMP JUMPDEST PUSH32 0x54657374323A206C656E67746800000000000000000000000000000000000000 PUSH0 DUP3 ADD MSTORE POP JUMP JUMPDEST PUSH0 PUSH2 0x17DE PUSH1 0xD DUP4 PUSH2 0x152A JUMP JUMPDEST SWAP2 POP PUSH2 0x17E9 DUP3 PUSH2 0x17AA JUMP JUMPDEST PUSH1 0x20 DUP3 ADD SWAP1 POP SWAP2 SWAP1 POP JUMP JUMPDEST PUSH0 PUSH1 0x20 DUP3 ADD SWAP1 POP DUP2 DUP2 SUB PUSH0 DUP4 ADD MSTORE PUSH2 0x180B DUP2 PUSH2 0x17D2 JUMP JUMPDEST SWAP1 POP SWAP2 SWAP1 POP JUMP JUMPDEST PUSH32 0x54657374323A20696E6465783000000000000000000000000000000000000000 PUSH0 DUP3 ADD MSTORE POP JUMP JUMPDEST PUSH0 PUSH2 0x1846 PUSH1 0xD DUP4 PUSH2 0x152A JUMP JUMPDEST SWAP2 POP PUSH2 0x1851 DUP3 PUSH2 0x1812 JUMP JUMPDEST PUSH1 0x20 DUP3 ADD SWAP1 POP SWAP2 SWAP1 POP JUMP JUMPDEST PUSH0 PUSH1 0x20 DUP3 ADD SWAP1 POP DUP2 DUP2 SUB PUSH0 DUP4 ADD MSTORE PUSH2 0x1873 DUP2 PUSH2 0x183A JUMP JUMPDEST SWAP1 POP SWAP2 SWAP1 POP JUMP JUMPDEST PUSH32 0x54657374323A20696E6465783100000000000000000000000000000000000000 PUSH0 DUP3 ADD MSTORE POP JUMP JUMPDEST PUSH0 PUSH2 0x18AE PUSH1 0xD DUP4 PUSH2 0x152A JUMP JUMPDEST SWAP2 POP PUSH2 0x18B9 DUP3 PUSH2 0x187A JUMP JUMPDEST PUSH1 0x20 DUP3 ADD SWAP1 POP SWAP2 SWAP1 POP JUMP JUMPDEST PUSH0 PUSH1 0x20 DUP3 ADD SWAP1 POP DUP2 DUP2 SUB PUSH0 DUP4 ADD MSTORE PUSH2 0x18DB DUP2 PUSH2 0x18A2 JUMP JUMPDEST SWAP1 POP SWAP2 SWAP1 POP JUMP JUMPDEST PUSH32 0x54657374323A20696E6465783200000000000000000000000000000000000000 PUSH0 DUP3 ADD MSTORE POP JUMP JUMPDEST PUSH0 PUSH2 0x1916 PUSH1 0xD DUP4 PUSH2 0x152A JUMP JUMPDEST SWAP2 POP PUSH2 0x1921 DUP3 PUSH2 0x18E2 JUMP JUMPDEST PUSH1 0x20 DUP3 ADD SWAP1 POP SWAP2 SWAP1 POP JUMP JUMPDEST PUSH0 PUSH1 0x20 DUP3 ADD SWAP1 POP DUP2 DUP2 SUB PUSH0 DUP4 ADD MSTORE PUSH2 0x1943 DUP2 PUSH2 0x190A JUMP JUMPDEST SWAP1 POP SWAP2 SWAP1 POP JUMP JUMPDEST PUSH32 0x54657374323A20696E6465783300000000000000000000000000000000000000 PUSH0 DUP3 ADD MSTORE POP JUMP JUMPDEST PUSH0 PUSH2 0x197E PUSH1 0xD DUP4 PUSH2 0x152A JUMP JUMPDEST SWAP2 POP PUSH2 0x1989 DUP3 PUSH2 0x194A JUMP JUMPDEST PUSH1 0x20 DUP3 ADD SWAP1 POP SWAP2 SWAP1 POP JUMP JUMPDEST PUSH0 PUSH1 0x20 DUP3 ADD SWAP1 POP DUP2 DUP2 SUB PUSH0 DUP4 ADD MSTORE PUSH2 0x19AB DUP2 PUSH2 0x1972 JUMP JUMPDEST SWAP1 POP SWAP2 SWAP1 POP JUMP JUMPDEST PUSH32 0x54657374323A20696E6465783400000000000000000000000000000000000000 PUSH0 DUP3 ADD MSTORE POP JUMP JUMPDEST PUSH0 PUSH2 0x19E6 PUSH1 0xD DUP4 PUSH2 0x152A JUMP JUMPDEST SWAP2 POP PUSH2 0x19F1 DUP3 PUSH2 0x19B2 JUMP JUMPDEST PUSH1 0x20 DUP3 ADD SWAP1 POP SWAP2 SWAP1 POP JUMP JUMPDEST PUSH0 PUSH1 0x20 DUP3 ADD SWAP1 POP DUP2 DUP2 SUB PUSH0 DUP4 ADD MSTORE PUSH2 0x1A13 DUP2 PUSH2 0x19DA JUMP JUMPDEST SWAP1 POP SWAP2 SWAP1 POP JUMP JUMPDEST PUSH32 0x54657374333A206C656E67746800000000000000000000000000000000000000 PUSH0 DUP3 ADD MSTORE POP JUMP JUMPDEST PUSH0 PUSH2 0x1A4E PUSH1 0xD DUP4 PUSH2 0x152A JUMP JUMPDEST SWAP2 POP PUSH2 0x1A59 DUP3 PUSH2 0x1A1A JUMP JUMPDEST PUSH1 0x20 DUP3 ADD SWAP1 POP SWAP2 SWAP1 POP JUMP JUMPDEST PUSH0 PUSH1 0x20 DUP3 ADD SWAP1 POP DUP2 DUP2 SUB PUSH0 DUP4 ADD MSTORE PUSH2 0x1A7B DUP2 PUSH2 0x1A42 JUMP JUMPDEST SWAP1 POP SWAP2 SWAP1 POP JUMP JUMPDEST PUSH32 0x54657374333A20696E6465783000000000000000000000000000000000000000 PUSH0 DUP3 ADD MSTORE POP JUMP JUMPDEST PUSH0 PUSH2 0x1AB6 PUSH1 0xD DUP4 PUSH2 0x152A JUMP JUMPDEST SWAP2 POP PUSH2 0x1AC1 DUP3 PUSH2 0x1A82 JUMP JUMPDEST PUSH1 0x20 DUP3 ADD SWAP1 POP SWAP2 SWAP1 POP JUMP JUMPDEST PUSH0 PUSH1 0x20 DUP3 ADD SWAP1 POP DUP2 DUP2 SUB PUSH0 DUP4 ADD MSTORE PUSH2 0x1AE3 DUP2 PUSH2 0x1AAA JUMP JUMPDEST SWAP1 POP SWAP2 SWAP1 POP JUMP JUMPDEST PUSH32 0x54657374333A20696E6465783100000000000000000000000000000000000000 PUSH0 DUP3 ADD MSTORE POP JUMP JUMPDEST PUSH0 PUSH2 0x1B1E PUSH1 0xD DUP4 PUSH2 0x152A JUMP JUMPDEST SWAP2 POP PUSH2 0x1B29 DUP3 PUSH2 0x1AEA JUMP JUMPDEST PUSH1 0x20 DUP3 ADD SWAP1 POP SWAP2 SWAP1 POP JUMP JUMPDEST PUSH0 PUSH1 0x20 DUP3 ADD SWAP1 POP DUP2 DUP2 SUB PUSH0 DUP4 ADD MSTORE PUSH2 0x1B4B DUP2 PUSH2 0x1B12 JUMP JUMPDEST SWAP1 POP SWAP2 SWAP1 POP JUMP JUMPDEST PUSH32 0x54657374343A206C656E67746800000000000000000000000000000000000000 PUSH0 DUP3 ADD MSTORE POP JUMP JUMPDEST PUSH0 PUSH2 0x1B86 PUSH1 0xD DUP4 PUSH2 0x152A JUMP JUMPDEST SWAP2 POP PUSH2 0x1B91 DUP3 PUSH2 0x1B52 JUMP JUMPDEST PUSH1 0x20 DUP3 ADD SWAP1 POP SWAP2 SWAP1 POP JUMP JUMPDEST PUSH0 PUSH1 0x20 DUP3 ADD SWAP1 POP DUP2 DUP2 SUB PUSH0 DUP4 ADD MSTORE PUSH2 0x1BB3 DUP2 PUSH2 0x1B7A JUMP JUMPDEST SWAP1 POP SWAP2 SWAP1 POP JUMP JUMPDEST PUSH32 0x54657374343A20696E6465783000000000000000000000000000000000000000 PUSH0 DUP3 ADD MSTORE POP JUMP JUMPDEST PUSH0 PUSH2 0x1BEE PUSH1 0xD DUP4 PUSH2 0x152A JUMP JUMPDEST SWAP2 POP PUSH2 0x1BF9 DUP3 PUSH2 0x1BBA JUMP JUMPDEST PUSH1 0x20 DUP3 ADD SWAP1 POP SWAP2 SWAP1 POP JUMP JUMPDEST PUSH0 PUSH1 0x20 DUP3 ADD SWAP1 POP DUP2 DUP2 SUB PUSH0 DUP4 ADD MSTORE PUSH2 0x1C1B DUP2 PUSH2 0x1BE2 JUMP JUMPDEST SWAP1 POP SWAP2 SWAP1 POP JUMP JUMPDEST PUSH32 0x54657374343A20696E6465783100000000000000000000000000000000000000 PUSH0 DUP3 ADD MSTORE POP JUMP JUMPDEST PUSH0 PUSH2 0x1C56 PUSH1 0xD DUP4 PUSH2 0x152A JUMP JUMPDEST SWAP2 POP PUSH2 0x1C61 DUP3 PUSH2 0x1C22 JUMP JUMPDEST PUSH1 0x20 DUP3 ADD SWAP1 POP SWAP2 SWAP1 POP JUMP JUMPDEST PUSH0 PUSH1 0x20 DUP3 ADD SWAP1 POP DUP2 DUP2 SUB PUSH0 DUP4 ADD MSTORE PUSH2 0x1C83 DUP2 PUSH2 0x1C4A JUMP JUMPDEST SWAP1 POP SWAP2 SWAP1 POP JUMP JUMPDEST PUSH32 0x54657374343A20696E6465783200000000000000000000000000000000000000 PUSH0 DUP3 ADD MSTORE POP JUMP JUMPDEST PUSH0 PUSH2 0x1CBE PUSH1 0xD DUP4 PUSH2 0x152A JUMP JUMPDEST SWAP2 POP PUSH2 0x1CC9 DUP3 PUSH2 0x1C8A JUMP JUMPDEST PUSH1 0x20 DUP3 ADD SWAP1 POP SWAP2 SWAP1 POP JUMP JUMPDEST PUSH0 PUSH1 0x20 DUP3 ADD SWAP1 POP DUP2 DUP2 SUB PUSH0 DUP4 ADD MSTORE PUSH2 0x1CEB DUP2 PUSH2 0x1CB2 JUMP JUMPDEST SWAP1 POP SWAP2 SWAP1 POP JUMP JUMPDEST PUSH32 0x4E487B7100000000000000000000000000000000000000000000000000000000 PUSH0 MSTORE PUSH1 0x11 PUSH1 0x4 MSTORE PUSH1 0x24 PUSH0 REVERT JUMPDEST PUSH0 PUSH2 0x1D29 DUP3 PUSH2 0x127A JUMP JUMPDEST SWAP2 POP PUSH2 0x1D34 DUP4 PUSH2 0x127A JUMP JUMPDEST SWAP3 POP DUP3 DUP3 ADD SWAP1 POP DUP1 DUP3 GT ISZERO PUSH2 0x1D4C JUMPI PUSH2 0x1D4B PUSH2 0x1CF2 JUMP JUMPDEST JUMPDEST SWAP3 SWAP2 POP POP JUMP JUMPDEST PUSH32 0x6E756D733120696E73756666696369656E742063617061636974790000000000 PUSH0 DUP3 ADD MSTORE POP JUMP JUMPDEST PUSH0 PUSH2 0x1D86 PUSH1 0x1B DUP4 PUSH2 0x152A JUMP JUMPDEST SWAP2 POP PUSH2 0x1D91 DUP3 PUSH2 0x1D52 JUMP JUMPDEST PUSH1 0x20 DUP3 ADD SWAP1 POP SWAP2 SWAP1 POP JUMP JUMPDEST PUSH0 PUSH1 0x20 DUP3 ADD SWAP1 POP DUP2 DUP2 SUB PUSH0 DUP4 ADD MSTORE PUSH2 0x1DB3 DUP2 PUSH2 0x1D7A JUMP JUMPDEST SWAP1 POP SWAP2 SWAP1 POP JUMP JUMPDEST PUSH32 0x6E756D7332206C656E677468206D69736D617463680000000000000000000000 PUSH0 DUP3 ADD MSTORE POP JUMP JUMPDEST PUSH0 PUSH2 0x1DEE PUSH1 0x15 DUP4 PUSH2 0x152A JUMP JUMPDEST SWAP2 POP PUSH2 0x1DF9 DUP3 PUSH2 0x1DBA JUMP JUMPDEST PUSH1 0x20 DUP3 ADD SWAP1 POP SWAP2 SWAP1 POP JUMP JUMPDEST PUSH0 PUSH1 0x20 DUP3 ADD SWAP1 POP DUP2 DUP2 SUB PUSH0 DUP4 ADD MSTORE PUSH2 0x1E1B DUP2 PUSH2 0x1DE2 JUMP JUMPDEST SWAP1 POP SWAP2 SWAP1 POP JUMP JUMPDEST PUSH0 PUSH2 0x1E2C DUP3 PUSH2 0x127A JUMP JUMPDEST SWAP2 POP PUSH2 0x1E37 DUP4 PUSH2 0x127A JUMP JUMPDEST SWAP3 POP DUP3 DUP3 SUB SWAP1 POP DUP2 DUP2 GT ISZERO PUSH2 0x1E4F JUMPI PUSH2 0x1E4E PUSH2 0x1CF2 JUMP JUMPDEST JUMPDEST SWAP3 SWAP2 POP POP JUMP JUMPDEST PUSH0 PUSH2 0x1E5F DUP3 PUSH2 0x127A JUMP JUMPDEST SWAP2 POP PUSH0 DUP3 SUB PUSH2 0x1E71 JUMPI PUSH2 0x1E70 PUSH2 0x1CF2 JUMP JUMPDEST JUMPDEST PUSH1 0x1 DUP3 SUB SWAP1 POP SWAP2 SWAP1 POP JUMP JUMPDEST PUSH0 PUSH2 0x1E86 DUP3 PUSH2 0x127A JUMP JUMPDEST SWAP2 POP PUSH32 0xFFFFFFFFFFFFFFFFFFFFFFFFFFFFFFFFFFFFFFFFFFFFFFFFFFFFFFFFFFFFFFFF DUP3 SUB PUSH2 0x1EB8 JUMPI PUSH2 0x1EB7 PUSH2 0x1CF2 JUMP JUMPDEST JUMPDEST PUSH1 0x1 DUP3 ADD SWAP1 POP SWAP2 SWAP1 POP JUMP INVALID LOG2 PUSH5 0x6970667358 0x22 SLT KECCAK256 0xEF RETURNDATASIZE SWAP12 PUSH8 0x9FDE200DD4EC778D CODECOPY 0xA9 0x26 PUSH17 0x541955B3085686CFC3829A1E75627BA864 PUSH20 0x6F6C634300081E00330000000000000000000000 "
		},
		"gasEstimates": {
			"creation": {
				"codeDepositCost": "1585800",
				"executionCost": "1657",
				"totalCost": "1587457"
			},
			"external": {
				"mergeSortedArrays(uint256[],uint256,uint256[],uint256,bool)": "infinite",
				"testMerge()": "infinite"
			},
			"internal": {
				"_mergeInPlace(uint256[] memory,uint256,uint256[] memory,uint256)": "infinite",
				"_mergeNewArray(uint256[] memory,uint256,uint256[] memory,uint256)": "infinite"
			}
		},
		"methodIdentifiers": {
			"mergeSortedArrays(uint256[],uint256,uint256[],uint256,bool)": "b3c4c947",
			"testMerge()": "9f19e9ab"
		}
	},
	"abi": [
		{
			"inputs": [
				{
					"internalType": "uint256[]",
					"name": "nums1",
					"type": "uint256[]"
				},
				{
					"internalType": "uint256",
					"name": "m",
					"type": "uint256"
				},
				{
					"internalType": "uint256[]",
					"name": "nums2",
					"type": "uint256[]"
				},
				{
					"internalType": "uint256",
					"name": "n",
					"type": "uint256"
				},
				{
					"internalType": "bool",
					"name": "inPlace",
					"type": "bool"
				}
			],
			"name": "mergeSortedArrays",
			"outputs": [
				{
					"internalType": "uint256[]",
					"name": "",
					"type": "uint256[]"
				}
			],
			"stateMutability": "pure",
			"type": "function"
		},
		{
			"inputs": [],
			"name": "testMerge",
			"outputs": [],
			"stateMutability": "pure",
			"type": "function"
		}
	]
}